:020000040000FA
:0600000002011A022411A6
:03002B00022AB7EF
:03005300022487FD
:03006B00022A83E3
:10008300022267E5C754F84401F5C779012200004D
:100093000080FB120086B90003020104E479217891
:1000A30008B800028004F709D8FCE479297802B87B
:1000B30000028004F709D8FCE490028178AB79133D
:1000C3008002F0A3D8FCD9FA781A90014A7A01BACF
:1000D30000028007E493A3F608DAF97A2B7B1590E4
:1000E300014B78B579048015E493A3AD82AE838A7E
:1000F300828B83F0A3AA82AB838D828E83D8E9D9C6
:10010300E775823D758398740412012C758291758D
:100113008300740012012C75D00075813F7518811E
:10012300751902759F00020096C09FF59FE473D076
:100133009F22D083D082C09FE493C0E0740193C018
:10014300E0740293F59F2201FF0000B40000280031
:100153002800283075A000A000A000A0000008001F
:1001630008E001F000100010001000100010001053
:100173000050005000500010001000D00700000095
:100183000000000F0001000500307507001000019A
:100193000081FF00000000FFFFFF8707A5078D0711
:1001A300C907FF02020208025000A0000000E80392
:1001B300020690010000F68F0232900100008615BE
:1001C300021A90010000C10202329001000087155B
:1001D300021890010000D702023290010000881536
:1001E300021490010000D902023290010000891527
:1001F30002FC8F080000DA020232900100008A1527
:1002030002FE8F0100008B15FFFF0100FF20020695
:1002130090010000F38F023290010000F0150200FC
:10022300900000000000021C900300000A03170066
:10023300D10ED10ED10ED10ED10ED10ED10ED10EC3
:10024300D10ED10ED10ED10ED10EB911CB11B311E6
:10025300020202020202020202010D00000010016A
:10026300020690010000F08F023290010000331665
:10027300023090010000270702329001000034167B
:10028300022C90010000138F0232900100003516FA
:10029300022A90010000F78E023290010000361608
:1002A3000228900100007F8E023290010000371671
:1002B300022690010000A38E02329001000038163E
:1002C300022490010000B58E02329001000039161D
:1002D300022290010000918E0232900100003A1632
:1002E300022090010000058F0232900100003B16AE
:1002F300021E900100003C1601E8030577100A086E
:1003030009476C75636F7365020105050208180AD6
:1003130018476C75636F73652053656E736F720056
:10032300000000000000031F01000E11171601DD7D
:1003330007000050C0110000031F02000600000266
:1003430001DC0700003CC022FFFF031F03000B1763
:10035300000502DC07000037C0335555031F0400B6
:100363000C02000E01DB073C0065B144AAAA031F7F
:1003730005000D050C0C01DB073C00F6B1F5A5A546
:10038300031B0600070F000502DB073C007EB016C7
:100393005A5A031B07000904000E04DB0788FF6495
:1003A300B017AA55031B08000000000101DD0788F0
:1003B300FF5AB02855AA031B09000C00000502DDF3
:1003C3000788FF48B03911115F01000001090001DE
:1003D3005108074601640032005F020000010A0071
:1003E300015108074601640031007F030000010A40
:1003F30000015108074601640031005F0400000159
:100403000A00015108074601640031005F0500003E
:10041300010A00015108074601640031007F06000C
:1004230000010A00015108074601640031005F071B
:100433000000010A00015108074601640031005F12
:10044300080000010B000151080746016400300059
:100453007F090000010C0001510807460164002FC9
:10046300000900C9130000101002FF0728020690BC
:10047300010000F98F0232900100004A18020C902B
:10048300000000FC07021C90810000FA0702329072
:100493000100004B18020E90000000FD07021C90A3
:1004A300810000FE070232900100004C18021090F8
:1004B3004000004D180232900100004F18021290C4
:1004C3000800000008021C908100000108FFFFFFE4
:1004D3000001307503020106000000000000000067
:1004E3000000000000000000000000000000000009
:1004F30000000000FFFF0600800CE803120135072F
:100503008F041201351A8F041201353B8F04120137
:1005130035A68F04120135E78F04120135089004C4
:10052300120135499004120135919004120135EA04
:10053300F003120135FDF0031201352EF103120110
:100543003568F103120135C1F10312013508F203D5
:1005530012013550F2031201357FF203120135AE59
:10056300F203120135E5F2031201352CF3031201F4
:100573003545F3031201359AF303120135B3F3033F
:1005830012013501F4031201353BF403120135C3A3
:10059300F002120135C6F102120135F3F102120124
:1005A3003544F20212013567F20212013579F20283
:1005B3001201357CF202120135BAF2021201352E14
:1005C300F3021201359AF30212013562F4021201A9
:1005D3003588F402120135C2F40212013559F502CD
:1005E300120135ABF502120135DCF502120135E9D2
:1005F300F50212013553F60212013556F6021201C5
:1006030035ADF602120135B0F602120135E9F602F4
:10061300120135ECF602120135F6F602120135F934
:10062300F6021201354DF70212013596F702120157
:1006330035A6F702120135D9F702120135E6F702A2
:10064300120135E9F70212013551F802120135534F
:10065300F902120135F7F90212013560FA021201AB
:10066300359EFA0212013536E5031201355EE503C4
:100673001201358BE503120135C3E5031201352160
:10068300E6031201356DE603120135D4E6031201C8
:100693003514E70312013551E7031201357FE703F0
:1006A30012013529E80312013533E80312013540FD
:1006B300E80312013573E8031201357FE8031201E1
:1006C3003597E803120135A1E8031201359D95041E
:1006D300120135AB9504120135C39504120135DAC5
:1006E3009504120135FBA302120135A5A4021201E0
:1006F30035B8A50212013534A60212013552A702FC
:100703001201358EA70212013529A8021201350DF7
:10071300A902120135D9A90212013567AB021201F0
:1007230035D8AB0212013592AC0212013584AD0209
:10073300120135C4AD0212013578AE02120135AA99
:10074300AE02120135A0B002120135E2B00212016D
:100753003500B10212013566B10212013535B2021C
:10076300120135F9B20212013518B502120135A48E
:10077300AC031201358EAD0312013539AE031201FC
:10078300358AAE031201353AAF03120135ABAF031D
:1007930012013590B003120135C4B003120135BD07
:1007A300B103120135FAB103120135D6B2031201B6
:1007B3003515B30312013531B3031201358B8904A7
:1007C3001201350F8A041201353A8A041201355495
:1007D3008B041201352FE90312013545E903120198
:1007E3003563E90312013574EA031201357EEA0326
:1007F300120135A9EB03120135A0EC031201350DEB
:10080300ED0312013557BF0312013587C0031201EF
:1008130035BEC00312013508C103120135CBC20333
:10082300120135008002120135B18002120135CB6D
:100833008002120135BE8102120135758202120156
:10084300358385021201357287021201352488022D
:10085300120135ED8802120135328C02120135DCAA
:100863008C02120135058E02120135D78F02120157
:1008730035169002120135E99002120135389102C2
:10088300120135C2D6011201354ED701120135B21C
:10089300D801120135BED801120135F9D801120170
:1008A3003568D90112013571DA011201357ADB019C
:1008B30012013541DC011201359EDD01120135BC07
:1008C300DD01120135D9DD0112013586DE01120188
:1008D3003503DF011201352BDF01120135F5E1018B
:1008E300120135FAE10112013513E40112013561F8
:1008F300E401120135D1E4011201350FE5011201C2
:1009030035EBE501120135ABE601120135F7E601DE
:10091300120135FAE6011201353EE701120135866F
:10092300E701120135C5E701120135E7E7011201BD
:10093300351BE8011201357EE801120135C4FA02C4
:10094300120135CDFA02120135DBFA021201352EFE
:10095300FB021201354DFB0212013592FB0212011B
:1009630035D6FC0212013571FD02120135B5FD02C7
:10097300120135DFFD021201354EFE0212013594DC
:10098300FE021201350BFF02120135BCFF021201F8
:1009930035565000120135665000120135075100DB
:1009A3001201356351001201352052001201353C0A
:1009B30053001201356E53001201359D530012018D
:1009C300354A5500120135C15700120135315A001D
:1009D300120135235B001201351C5C001201352323
:1009E3005E001201351761001201354662001201E3
:1009F300354A64001201355A6500120135E9660073
:100A0300120135DA670012013528680012013597A3
:100A13006800120135BB68001201350C6900120130
:100A230035AD6D00120135AE6E001201350F6F004A
:100A33001201353A6F001201350070001201353092
:100A4300E1031201353AE1031201357FE10312019B
:100A53003593E10312013523E2031201355CE2030E
:100A630012013597E203120135C0E2031201351476
:100A7300E30312013529E3031201354BE3031201AA
:100A83003560E30312013574E30312013589E3038F
:100A9300120135C3E303120135EFE3031201357687
:100AA300E403120135B9E403120135E3E40312014F
:100AB300350EE50312013589940412013586E602E9
:100AC30012013569E702120135E4E7021201351F0D
:100AD300E80212013570E902120135FEE902120142
:100AE3003590EC0212013542ED021201354EEE0251
:100AF300120135C1EF021201351AF002120135AAB3
:100B0300FB01120135EDFB0112013571FC011201EC
:100B13003548FF0112013588FD031201353AFE0302
:100B230012013536FF0312013575FF03120135CF6C
:100B3300FF03120135838B04120135E68B04120186
:100B430035838C04120135B88C04120135E88C040A
:100B5300120135238D04120135438D0412013551E1
:100B6300D303120135DDD3031201359CD4031201E3
:100B730035B4D503120135CED703120135F2CF02B6
:100B830012013517D002120135E4D002120135B833
:100B9300D10212013525D20212013565D2021201AA
:100BA3003501D30212013535D40212013510D502B5
:100BB3001201356FD502120135FBD50212013569D9
:100BC300D602120135F5D6021201353BD7021201C6
:100BD30035ADD7021201353FD802120135E0D802F4
:100BE30012013500D90212013548D902120135919B
:100BF300D902120135ADD902120135D3D90212013E
:100C0300354DDA021201355BDA02120135EADA02F6
:100C130012013553DB0212013505D8031201358A5F
:100C2300D803120135CCD803120135B0D903120110
:100C3300351DDA0312013561DA03120135A5DA0332
:100C4300120135D2DA03120135FADA031201353211
:100C5300DB0312013570DB0312013597DB0312014D
:100C63003511DC031201355BDC031201352E9202D0
:100C7300120135D69302120135039602120135573C
:100C8300960212013582960212013554970212011F
:100C930035989702120135DC9702120135EF97025E
:100CA3001201353098021201355D9802120135ABFD
:100CB3009802120135EC98021201351A99021201B9
:100CC300356D9902120135049A02120135EE9C0228
:100CD300120135049F02120135429F02120135D5DC
:100CE300A0021201351AA1021201358CA1021201D0
:100CF30035DDA10212013517A20212013591A202BC
:100D0300120135C7A302120135D8A302120135E837
:100D13008903120135678A031201356090031201BA
:100D230035669103120135D992031201357093038D
:100D330012013550AE0112013599AE01120135C6CB
:100D4300AE01120135F8AE0112013505AF011201F2
:100D53003511AF0112013523AF01120135FEAF0189
:100D63001201355CB00112013591B001120135C891
:100D7300B10112013515B20112013539B201120167
:100D830035A9B2011201356AB3011201352DB4013F
:100D93001201359BB40112013558B5011201356BAF
:100DA300B501120135E9B5011201357CB601120115
:100DB30035A3B6011201350BB7011201355CB7013A
:100DC300120135B1B7011201355AB80112013505C7
:100DD300B901120135B1B90112013523BA0112016A
:100DE3003577BA01120135D7BA0112013507BB01B4
:100DF3001201359DBB01120135C2BC011201350A36
:100E0300BD0112013527BD0112013546BD01120195
:100E13003575BD011201358ABE0112013510BF01BE
:100E230012013535BF011201354ABF01120135BD2B
:100E3300BF01120135FEBF011201351AC1011201B2
:100E430035BBC10112013509C20112013573C2015B
:100E53001201358CC2011201359A9303120135EE4A
:100E63009303120135FA9303120135C4940312015B
:100E730035F194031201351F95031201358B950348
:100E8300120135C19503120135FA9503120135128A
:100E930096031201356796031201358096031201FA
:100EA30035C59603120135D89603120135F2960320
:100EB30012013508970312013526980312013551A3
:100EC30099031201353B9A031201352A9B03120140
:100ED30035E52A00120135ADC202120135DCC2022A
:100EE300120135A2C602120135F9C702120135BF3C
:100EF300C8021201353ECA0212013508CB021201A3
:100F0300355ACB0212013574CB02120135A6CB023E
:100F1300120135B1CB02120135FACB0212013503AE
:100F2300CC02120135AFCC0212013588CD02120179
:100F330035CFCD0212013537CE0212013579CE02FB
:100F4300120135A7CE02120135E2CE021201355647
:100F5300E901120135D4EC01120135DAEC01120179
:100F6300352FF30112013579F7011201355FFB01CA
:100F730012013517ED031201358DED03120135A36F
:100F8300ED0312013533EE0312013570EE03120146
:100F930035AAEE03120135E4EE0312013557EF03D0
:100FA30012013598EF03120135A1EF03120135AD9C
:100FB300EF03120135CCEF03120135F6EF031201F3
:100FC300350BF00312013533F00312013595F003AD
:100FD300120135BCF00312013592CE03120135A57F
:100FE300CE03120135BFCE03120135ECCE0312013D
:100FF3003532CF0312013565CF03120135A3CF0379
:1010030012013508D0031201351DD0031201352812
:10101300D00312013535D0031201354CD003120130
:10102300355AD00312013565D00312013571D0034F
:1010330012013584D0031201358FD003120135B26A
:10104300D00312013556D10312013566D1031201C3
:101053003580D1031201359DD103120135B8D10377
:10106300120135DDD103120135E8D103120135FD3B
:10107300D10312013511D20312013572D2031201C9
:101083003578D2031201357ED20312013584D2039F
:101093001201359CD203120135CFD2031201352A36
:1010A300B502120135C1B50212013559B60212015A
:1010B3003549B70212013580B70212013593B702E1
:1010C30012013501B8021201359CB902120135C370
:1010D300B90212013565BA021201359ABA02120138
:1010E30035ABBA0212013524BB0212013545BB02EE
:1010F3001201355DBB02120135B5BC02120135BECA
:10110300BE021201350EC10212013511C2021201D3
:101113003560C2021201356C70001201356971002D
:101123001201355472001201355E720012013580CE
:1011330072001201358C7200120135DE7300120148
:10114300350D74001201353D75001201357F7500B0
:10115300120135AB7600120135817700120135D3C8
:1011630077001201353278001201356978001201D7
:1011730035A478001201353F7C00120135587C00FC
:10118300120135DA7C00120135E87C001201353D8D
:101193007D001201354B7D00120135B87D0012012F
:1011A300352A7E00120135707E0012013576DB028E
:1011B30012013598DB0212013582DD021201352757
:1011C300E1021201356AE20212013544E30212011F
:1011D30035518D04120135768D04120135E78D04E6
:1011E300120135E39C03120135EC9C03120135F522
:1011F3009C03120135269E0312013545A0031201FB
:10120300357BA003120135B5A003120135EBA00312
:1012130012013525A10312013559A10312013585A8
:10122300A103120135CEA10312013508A203120155
:101233003550A203120135A6A203120135DBA20326
:1012430012013536A30312013570A303120135C110
:10125300A303120135F7A30312013531A4031201CD
:10126300355FA40312013582A4031201356A960483
:10127300120135969604120135F19604120135FBDD
:1012830096041201350B97041201359AC403120117
:1012930035C1C403120135FCC403120135B89704E8
:1012A300120135359001120135459301120135DAEA
:1012B3009401120135559501120135019601120170
:1012C30035A496011201353C97011201356B970144
:1012D300120135D89701120135709C0112013502B4
:1012E3009D011201353E9E01120135A89E01120196
:1012F300355C9F0112013512A2011201354CA20186
:10130300120135B6A20112013513A3011201357082
:10131300A301120135CDA301120135B8A4011201B5
:1013230035FEA40112013549A5011201356CA50151
:10133300120135B3A601120135C7A60112013536D4
:10134300A80112013575A801120135B5A8011201D2
:101353003508A90112013529A90112013567A9012F
:101363001201358DAB01120135CEAB011201356986
:10137300AC01120135DBAC011201351CAE011201C7
:1013830035008004120135A68004120135938104CF
:10139300120135D281041201353C8204120135F069
:1013A3002A00120135DA2C001201355D2D001201DD
:1013B30035A42D001201357F2F00120135A12F0016
:1013C300120135F22F00120135CC340012013556CB
:1013D3003600120135CB3600120135F43600120106
:1013E300356D3C00120135E7410012013500420022
:1013F3001201351E4200120135EE42001201356220
:101403004300120135FC43001201359944001201D7
:1014130035334500120135B9450012013545470002
:10142300120135D148001201359C4A001201357C66
:101433004B001201355C4C00120135994D0012012D
:1014430035AA4E00120135EB4E00120135374F001D
:10145300120135CCB90312013504BB031201351750
:10146300BB031201356BBB03120135BFBB03120172
:101473003521BC03120135F2BC03120135FA98047D
:10148300120135AFFA031201357AFD03120135DD7E
:10149300980412013551930412013561930412012A
:1014A300357B9304120135839404120135AAF703A3
:1014B30012013552F80312013594FA03120135BCB7
:1014C3009004120135EE90041201354E910412017D
:1014D30035659104120135C19104120135FE910461
:1014E30012013501920412013598C903120135B76F
:1014F300C9031201354DCA031201354BCB03120147
:1015030035ABCD031201350BCE0312013574CE0377
:10151300120135F87F00120135428504120135228C
:1015230087041201358E87041201350F92041201CC
:10153300354092041201356A92041201358A9204ED
:10154300120135E8920412013510A5031201352565
:10155300A50312013581A503120135ECA503120180
:101563003534A603120135A6A603120135CFA6030F
:10157300120135DDA6031201353FA7031201357DA4
:10158300A70312013598A70312013533A8031201EB
:1015930035DCA8031201355FA90312013598A903AD
:1015A30012013523AA031201357AAA03120135D891
:1015B300AA03120135EAAA0312013510AB03120183
:1015C3003519AB0312013570AC0312013591870451
:1015D300120135F88704120135B588041201353339
:1015E30089041201359BDC03120135CEDC031201A1
:1015F3003500DE0312013544DE0312013509DF0332
:10160300120135E5DF03120135A3F403120135811D
:10161300F503120135DDF503120135FDF503120162
:1016230035159704120135AA8204120135EF82049D
:10163300120135358304120135FE8404120135F994
:101643007E00120135147F00120135247F00120140
:1016530035897F00120135008003120135DC8003D8
:10166300120135238103120135608103120135CE46
:101673008103120135288203120135988203120176
:1016830035688303120135578403120135CE840371
:101693001201356A8603120135F786031201356A92
:1016A3008703120135E68703120135FD8703120113
:1016B300352289031201357C890312013592B30364
:1016C300120135B2B303120135B8B4031201350464
:1016D300B50312013524B50312013577B5031201A1
:1016E30035E4B5031201352AB6031201358EB6036C
:1016F3001201353AB903120135BBB903120135BCE6
:10170300C201120135E9C701120135ECCA01120108
:101713003515CB011201353ECB01120135F0CB015A
:10172300120135D9CD0112013524CF011201353D06
:10173300CF0112013574D401120135ADD401120168
:1017430035F1D40112013502D601120135979804FF
:10175300120135CEFF02120135D57F00E06670100D
:1017630008A3E066700A08A3E066700408A3E066B5
:1017730022C3E7960809E7960809E7960809E7965A
:1017830022C3E09608A3E09608A3E09608A3E09698
:1017930022C008C3E096F50808A3E096420808A310
:1017A300E096420808A3E09645087001D3D00822CA
:1017B300080808EAC0E0EBC0E086F0E7A4FA1809DD
:1017C30086F0E7A42AFA180986F0E7A42AFA18098A
:1017D30086F0E7A42AFA1986F0E7A4FBE5F02AFAD3
:1017E300190886F0E7A42BFBE5F03AFA190886F00E
:1017F300E7A42BFBE5F03AFA18180986F0E7A4C52D
:10180300F02BFBE43AFA1908E7C5F0C6A426F6E57F
:10181300F03BFBE43AFA1886F0E7A4F6E5F0082675
:10182300F6E43B08F6E43A08F6D0E0FBD0E0FA220F
:10183300E4CFC0E0E4CEC0E0E4CDC0E0E4CCC0E05F
:1018430075F020E626F608E633F608E633F608E6F2
:1018530033F6181818EC33FCED33FDEE33FEEF339B
:10186300FFC3EC9709ED9709EE9709EF971919193B
:10187300400FFFEC97FC09ED97FD09EE97FE191950
:1018830006D5F0BFECF709EDF709EEF709EFF71905
:101893001919D0E0FCD0E0FDD0E0FED0E0FF2260DB
:1018A30016080808C6C313C618C613C618C613C637
:1018B30018C613C6D5E0EA22700908080822601684
:1018C300181818C6C333C608C633C608C633C608B5
:1018D300C633C6D5E0EA22E627F60809E637F60856
:1018E30009E637F60809E637F622E026F608A3E00C
:1018F30036F608A3E036F608A3E036F622E026F033
:1019030008A3E036F008A3E036F008A3E036F0229F
:10191300C3E697F60809E697F60809E697F6080975
:10192300E697F622C3E096F008A3E096F008A3E05A
:1019330096F008A3E096F022E056F608A3E056F6E8
:1019430008A3E056F608A3E056F622E056F008A3F3
:10195300E056F008A3E056F008A3E056F022E0F6C4
:1019630008A3E0F608A3E0F608A3E0F622E6F008F1
:10197300A3E6F008A3E6F008A3E6F022E0FAA3E06A
:10198300FBA3E0FCA3E0FD22E0F8A3E0F9A3E0FA67
:10199300A3E0FB22E8F0A3E9F0A3EAF0A3EBF02233
:1019A300CAC0E0E6F0A308DAFAD0E0FA22CAC0E03F
:1019B300E0A3C582CCC582C583CDC583F0A3C58210
:1019C300CCC582C583CDC583DAE6D0E0CA22C3E4A1
:1019D30098F8E499F9121A128026C3E49AFAE49B60
:1019E300FBE920E7E9121A12E498F8E499F922C313
:1019F300E498F8E499F9121A12E498F8E499F9C30F
:101A0300E49AFAE49BFB22EB20E7CFE920E7E0B975
:101A13000010BB0008E88AF084F8AAF022E4FBC8AF
:101A2300FA22EB70227B10C833C8C933C93350077D
:101A3300C39AC3DBF280069A50012ADBEAC833F467
:101A4300C8C933F4C9FA2275F008E4C833C8C933E6
:101A5300C933C99AC99B5004C92AC93BD5F0ECFBC9
:101A6300C833F4C8E4C9FA22600D08C6A2E713C656
:101A730018C613C6D5E0F322600C08C6C313C618F4
:101A8300C613C6D5E0F422700422600D18C6C33312
:101A9300C608C633C6D5E0F41822251810AF08F5DA
:101AA30018400C15198008F51840021519D2AF22F9
:101AB30000C0D0251810AF08F518500C0519800880
:101AC300F51850020519D2AFD0D0222518F582108F
:101AD300AF08F518400C15198008F51840021519C0
:101AE300D2AF851983222518F582E43519F58322AF
:101AF3002518F8E43519F9222518FAE43519FB22DB
:101B03002518FCE43519FD22E4732518C582C0E0CD
:101B1300E51934FFC583C0E0E518C3958224F810A6
:101B2300AF088583198582188008858319858218F3
:101B3300D2AFCEF0A3E520F0A37808E608F0A3DE49
:101B4300FAEFF0A3E58124FAF8E608F0A3E608F03B
:101B5300A3E608F0A30808E608F0A3E608F0A31537
:101B6300811581D0E0FED0E0F8158115811581E85B
:101B7300C0E0EEC0E0222518C582C0E0E51934FFBD
:101B8300C583C0E0E518C3958224F910AF088583A7
:101B9300198582188008858319858218D2AFCEF003
:101BA300A3E520F0A37808E608F0A3DEFAEFF0A39C
:101BB300E58124FBF8E608F0A3E608F0A30808E6AD
:101BC30008F0A3E608F0A315811581D0E0FED0E06C
:101BD300F815811581E8C0E0EEC0E0228519838500
:101BE3001882E0A3FEE0A3F5207808E0A3F608DF5F
:101BF300FAE0A3FFE0A3C0E0E0A3C0E0E0A3C0E0FD
:101C0300E0A3C0E0E0A3C0E010AF0885821885839D
:101C1300198008858218858319D2AFD083D08202B8
:101C23000132851983851882E0A3FEE0A3F52078AD
:101C330008E0A3F608DFFAE0A3FFE0A3C0E0E0A317
:101C4300C0E0E0A3C0E0E0A3C0E010AF08858218C5
:101C53008583198008858218858319D2AFD083D0F4
:101C63008222C0D02518C582C0E0E51934FFC583A0
:101C7300C0E0E518C3958224F310AF088583198566
:101C830082188008858319858218D2AFC8F0A3E92A
:101C9300F0A3EAF0A3EBF0A37908E709F0A3D8FADD
:101CA300ECF0A3EDF0A3EEF0A3EFF0A3D0E0F0A3EC
:101CB300D0E0F0A3D0E0F0A3E520F0A3E5F0F0A39B
:101CC30022851983851882E0C0E0A3E0F9A3E0FA36
:101CD300A3E0FBA37808E0F608A3DFFAE0FCA3E0A7
:101CE300FDA3E0FEA3E0FFA3E0C0E0A3E0C0E0A308
:101CF300E0F5D0A3E0F520A3E0A3F5F010AF08854D
:101D030083198582188008858319858218D2AFD0FC
:101D130082D083D0E0F8D0E032740480067402806D
:101D2300027401C0E0F404121ACED0E01219A32207
:101D33007404800474028000CCC0E0EDC0E0E518B8
:101D4300C39CCCAD1950011D10AF068C188D1980A2
:101D5300068C188D19D2AF1219B0D0E0FDD0E0FC7B
:101D630022D083D082E9C0E0E493A3C386F0C5F018
:101D730095F0F908E493A386F0C5F095F0700BE4B1
:101D830093A3C3994005E9048002A3E475F002A478
:101D93002582F582E5F03583F583D0E0F9E493A35A
:101DA300C0E0E493C0E022D083D082ECC0E0EDC079
:101DB300E0E493A3FCE493A3FDED4C600D121DF648
:101DC300EC24FFFCED34FFFD80EFE493A3FCE493EC
:101DD300A3FDED4C600D121E35EC24FFFCED34FF2A
:101DE300FD80EFD0E0FDD0E0FCE493A3C0E0E493FA
:101DF300C0E022C0E0C3E4939608740193961840B0
:101E03000FE49366700808740193661870007019E4
:101E1300A3A3C3E49396087401939618A3A3400D58
:101E2300D0E0D0E0D0E0021DE6A3A3A3A3A3A3D0F8
:101E3300E022C0E0C0F088F0E49366700808740103
:101E43009366187000A8F0A3A3700BD0F0D0E0D075
:101E5300E0D0E0021DE6A3A3D0F0D0E02274F61296
:101E63001B79EAFEEBFF8C088D09EE2434F8E43F7E
:101E7300F9E8FCE9FD121F93E0FAEE2437F582E45A
:101E83003FF583E0F88508F0A4C885F00A8509F0DA
:101E9300A4250AF9EA28F8E439F97A257B00121A0D
:101EA30012EA8C828D83F0FA131313541FF8EE2871
:101EB300F8E43FF9E8245DF582E439F583E0C0E016
:101EC30074075AF8D0E0B800028004C313D8FCA208
:101ED300E05003EA8020EE2436F582E43FF583E008
:101EE300F5F0EA84A8F0EE28F8E43FF9E82438F5A1
:101EF30082E439F583E0F97F03021C2574F5121B94
:101F030079EAFEEBFFEE2434F582E43FF583E0C08B
:101F1300E0121F93D0E0F08E828F83A3A3A3A3A329
:101F2300E0FAA3E0FB8E828F83A3A3A3A3A3A3A3BF
:101F3300E0FCA3E0FDECC39AF50AED9BF50BEE2460
:101F43007FF508E43FF509850882F583E0640170B5
:101F53002AEE2480F582E43FF583121D37121F9D7C
:101F63007402121AB3E960137CB47D04EEFAEFFB3A
:101F7300120DED850882850983E4F0AC0AAD0BEE02
:101F8300FAEFFB121E60E9F9122A757F04021C2581
:101F9300EE2435F582E43FF58322C082C0838518A1
:101FA30082851983E0F8A3E0F9C3EA9CEB9D501006
:101FB300C3EC98ED99401BC3EA98EB995014800E3B
:101FC300C3EA98EB994007C3EC98ED994004790173
:101FD30080027900D083D08222EAC39CFAEB9DFB76
:101FE3002274ED121B7990037AE064086005E064C3
:101FF30007702C9061C8E060269003A8E0F874FF96
:1020030068601CE875F00AA4C8AAF02AF974AA2823
:10201300FE740339FF8E828F83A3A3A3E070057937
:102023000002217DEE2468F50EE43FF50F90606019
:10203300E0850E82850F83F07510247511057508F0
:1020430000750900E5D914F50AE5D95403F50B60C9
:102053001FEE2482F50CE43FF50D7403650B605904
:10206300E50A6017EE2467F582E43FF583E0700B21
:10207300793DEEFAEFFB120E1D80A490051FE0647C
:10208300016023850C82850D83E060047A0480025D
:102093007A00E50AC39AFA95E0FB120C7F8A088B53
:1020A30009EA45097006121081022022850C8285F7
:1020B3000D83E070048A108B117A008014E5D9C077
:1020C300E0EAF8E51028F582E43511F583D0E0F075
:1020D3000AEAC3950A40E6850C82850D83E06028F1
:1020E30074FC250AF50A7810121D20AC0AA90BEE20
:1020F300FAEFFB120ECB7402121AB3E9700AAA08A4
:10210300AB091215D30220737403650B6054850A5F
:102113000C750D00780C121D20AC10AD11AA08AB84
:1021230009120E8F7402121AB3850E82850F83E093
:10213300F87480687005750C7F8002880CE50CF5D7
:102143000D780D121D24780B121D24A90AAC08ADBD
:10215300099003A8E0FA7B00120AB77402121AB3BB
:10216300801390037AE06408600BAC10AD11EEFAB3
:10217300EFFB120F6112108D79017F0C021C257485
:10218300F3121B7974FC121A9DEAFEEBFF8909A274
:10219300AFE433F508C2AFEE2463F50AE43FF50B71
:1021A3008010AA0AAB0B120E471215D39004BBE0A2
:1021B30004F0850A82850B83E0F8A3E0F9E849601F
:1021C3002DE82402FAE439FBEA2402F50CE43BF59A
:1021D3000D780C121D208A828B83E0FCA3E0F9EEBC
:1021E300FAEFFB120E3B7402121AB3E960B49004C7
:1021F300BBE0604D9004BCE0F89004BBE0C3985092
:102203000C74026509703A9004BDE060348E828FCD
:1022130083A3A3A3A3E08518828519831222547490
:1022230002121AE9E81222549004BAE028F0740268
:10223300121B03AA18AB197901120B0B9004BBE410
:10224300F0E508A2E092AF7404121AB37F06021CF1
:1022530025F0A3E4F09004BBE0F822000085218779
:102263008522C622C0E074EB121C65A2AFE433F5ED
:1022730008C2AF759B00906182E0A2E05030E59107
:10228300A2E0502A7591FE7401652170211223FA90
:10229300120FBB1223E8121D3312281F7404121AE3
:1022A300B3E9640170057901121015121FE49061FE
:1022B30082E0A2E5505DE591A2E550577591DF906C
:1022C300037AE064076005E06408702F1223FA7450
:1022D300016521703E120FBB1223E8121D33122831
:1022E3001F7404121AB3E964017005790112101501
:1022F3007901EEFAEFFB1221828018E0640D70136E
:1023030090039CE004F064287002E4F07A00E0F9A2
:10231300121093906182E0A2E640030223BDE5918F
:10232300A2E640030223BD7591BF90037AE06405E2
:102333007008120FA3120FAF8003120FA9752100AB
:10234300121021E990037BF07900121015120D573A
:102353007A017B00900379E0F91215A3907803E0EA
:1023630064427056900523E014F0704EC2AF1223FE
:102373007400782AD0E0F618D0E0F6E59F5407F809
:102383007005750DFF8003750D7FC4C0E07829E6E5
:10239300F50A08E6550DF50B740B780A121A7BD073
:1023A300E0250AF8906270E0A2E740F8E8C33390B2
:1023B3006272F0906270E0D2E0F0906181E0A2E39B
:1023C3005009E5E9A2E3500375E9F7A3E0A2E7505A
:1023D30009E591A2E7500375917FE508A2E092AF6A
:1023E3007F08021CC48E828F83E0F8A3E0C8241602
:1023F300F582E438F583229003A8E0F875F00AA487
:10240300C8AAF02AF974AA28FE740339FF22C0E08F
:10241300C0D0C082C083906183E0A2E05009E5BFD1
:10242300A2E0500375BFFEE0A2E15009E5BFA2E1BF
:10243300500375BFFDE0A2E25009E5BFA2E25003DD
:1024430075BFFBE0A2E35009E5BFA2E3500375BFEC
:10245300F7E0A2E45009E5BFA2E4500375BFEFE043
:10246300A2E55009E5BFA2E5500375BFDFE0A2E690
:102473005009E5BFA2E6500375BFBFD083D082D019
:10248300D0D0E032C0E074F2121C65E5A7A2E4509C
:102493000FE5A1A2E4500953A7EF75A1EF1224DBC6
:1024A300E5A7A2E5500CE5A1A2E5500653A7DF7509
:1024B300A1DFE5A7A2E15009E5A1A2E1500375A1BF
:1024C300FDE5A7A2E2500CE5A1A2E2500653A7FB4B
:1024D30075A1FB7F01021CC474F8121B79752101DD
:1024E30090037AE0640670077A007B00120F8BA2D8
:1024F300AFE433FED2AF900380E0640170187A201A
:102503007B00900379E0F91216E17A207B009003B7
:1025130079E0F91215A9906182E0D2E6F0900520E6
:10252300E0602185C622801690037FE06401700875
:10253300E5C654F84405F5C653BEFC122260740187
:10254300652160E4EEA2E092AF7F01021C2500004A
:10255300008E238F248582288583278518828519F9
:1025630083E0CEA3E0CF852882852783EBC9EAC821
:10257300EDCBECCA75F010C3E833C8E933C9EA33CD
:10258300CAEB33CBC3EA9EF526EB9FF525B3500484
:10259300AB25AA26EC33CCED33CDD5F0DAAE23AFA1
:1025A300242274E9121B7974FA121A9DEAFEEBFFD6
:1025B3008C088D09120FCDEAF8EBF9ECFAEDFB8EDE
:1025C300828F8312199790037AE024F7C3940550FE
:1025D300067510010226DC120F018A0A8B0BEA45ED
:1025E3000B70030226D9120FC18A0C8B0D120FC177
:1025F300EA650C7003EB650D60ECEEFCEFFDAA18C9
:10260300AB19120FC7850A82850B83A3A3780C121B
:102613001961908F78780C12193B8518828519837C
:102623007814121961908F78781412193B780C7909
:1026330014121774501F780C7914121913908F60A9
:10264300780C1217944047850C10850D11850E12D6
:10265300850F138045908F6085141085151185169D
:10266300128517137810790C121913781012179416
:10267300501C751000751100751200751301781048
:1026830079141219137810790C1218DA800C75105A
:102693000175110075120075130074097810121872
:1026A300BB908FC0780C1219617810790C12183313
:1026B30090037AE06408600AE064066005E064055C
:1026C3007020908F6478101217945016908F68784A
:1026D300101218ED800C751000751100751200753D
:1026E3001300850882850983781012197074061205
:1026F3001AB37F10021C2574F7121B79120FDF9097
:10270300051EE064017010906245E4F0A3F053F4F9
:10271300F343FE0C5390F3120F79E5C654B84441CA
:10272300F5C6E59E5447644170F8906185740FF0D7
:1027330090051CE0F47002A3E0602C750801750994
:102743000090051CE07808121A8AE508F4FAA3E061
:10275300600814600A14600C800DEA52808008EA55
:1027630052908003EA52A079007F02021C2574F77D
:10277300121B79E9FEEAFF74016E700C7A807B000C
:10278300900379E0F91215A3902AE8E493F4600822
:10279300E493F9120D39800953C6B8E59E54477086
:1027A300FA120F7F90051EE064017003120D6F9003
:1027B300051CE0F47002A3E0602B750801750900A5
:1027C30090051CE07808121A8AE508FAA3E060086D
:1027D30014600A14600C800DEA42808008EA42907B
:1027E3008003EA42A0120F018A088B09A808A909ED
:1027F300E8496016E5E170FCE82414F582E439F554
:1028030083E0F874FF68600288E174016F700A7AEC
:1028130001900379E0F912164B02276C74F1121B35
:10282300798A088B098C0A8D0B908F787808121996
:102833003B740F121AE9780C121961908F78780C97
:1028430012193B7808790C121774908F6050107826
:1028530008790C12191378081217944014800E7813
:102863000C7908121913780C12179450047901800B
:102873000279007F08021C2574ED121B798A088BEC
:10288300098C0A8D0B908F78780812193B741312F8
:102893001AE9780C121961908F78780C12193B7829
:1028A3000C790812177440117808790C121913AABD
:1028B30008AB09AC0AAD0B802275100075110075C9
:1028C30012007513017810790C1219137810790816
:1028D3001218DAAA10AB11AC12AD137F0C021C252F
:1028E300908F7878081219618A828B83780812197D
:1028F3004E7F04021C2574F5121B798C828D83781C
:10290300081219618A828B83780812192712294DBC
:10291300C3E098F0A3E09912293F401E908FE4781A
:10292300081219618A828B8378081219008E828FAC
:1029330083E02420F0A3E0344EF080A4F08E828F55
:1029430083C3E09420A3E0944E22EA2404F8E43BFA
:10295300F9E8FEE9FF8C828D83A3A3A3A3E0F8A388
:10296300E0F98E828F832274F5121B79E9FE9004BD
:10297300D6E0FAA3E0FBEE29F8E433F974D728F59F
:1029830082748E39F583E02AF508A3E03BF50978D4
:1029930008121D20908FD412197F1225547402122D
:1029A3001AB38A088B098C0A8D0B741078081218D5
:1029B300A2AA08AB097F04021C2574F1121B798AB1
:1029C3000C8B0D8C0E8D0F7411121AE9121D3774B6
:1029D30011121AE9E02401F508A3E03400F509E433
:1029E300F50AF50B780C79081217B3908F747808F1
:1029F300121961780C79081217B3AA0CAB0DAC0E3F
:102A0300AD0F1225547402121AB38B09EA450960FB
:102A1300047A0180027A00EC2AFCE43DFD7413126F
:102A23001AE9E0F8A3E0F9E8FEE9FFECF8EDF97A3A
:102A3300717B02121A1288088909E4F50AF50B8ED4
:102A4300828F837808121970ECF8EDF97A717B02A2
:102A5300121A128A088B0974057808121A8A8E8250
:102A63008F83A3A3A3A3E508F0A3E509F07F0802DE
:102A73001C25C082C083E9906000F0D083D08222FD
:102A8300C0E074F2121C65A2AFE433FED2AFE58955
:102A9300A2E04006E589A2E150031214D77589002C
:102AA300758900C2C5751A00EEF8EEA2E092AF7FF9
:102AB30001021CC4C0E0C0D0E8C0E0E9C0E0A2AF9E
:102AC300E433F8D2AFC2C7751A00E8F9E8A2E0927E
:102AD300AFD0E0F9D0E0F8D0D0D0E032C2AF0200FE
:102AE3000022020132FFFFFFFFFFFFFFFF74F71217
:102AF3001B0D74EC121A9DE9FEEE9007E9F07405C4
:102B0300121AE97400F0740E121AE97400F0A37437
:102B130000F07404121AE97400F0740C121AE974C8
:102B2300C8F0A37400F0740A121AE97440F0A37495
:102B330006F07408121AE97401F0A37400F0740625
:102B4300121AE974E8F0A37403F07405121B0379F5
:102B5300017A057B031216FFE9740E121B03790237
:102B63007A067B031216FFE97CE27D1679097A085F
:102B73007B031216FFE97CEB7D1679097A077B0349
:102B83001216FFE97404121B0379017A107B0312F6
:102B930016FFE9740C121B0379027A117B031216D8
:102BA300FFE9740A121B0379027A127B031216FFE0
:102BB300E97408121B0379027A137B031216FFE9E7
:102BC3007406121B0379027A147B031216FFE97C45
:102BD300F47D167A157900120805E97AC77B4C7CD7
:102BE300007D007410121AE9EAF0A3EBF0A3ECF0F5
:102BF300A3EDF07403121AE97401F07402121AE9D6
:102C03007401F07401121AE97400F08518828519B1
:102C1300837401F07410121B0379047A087B041285
:102C230012A3E97403121B0379017A007B041212C5
:102C3300A3E97402121B0379017A027B041212A323
:102C4300E97401121B0379017A037B041212A3E9CD
:102C5300AC18AD1979017A067B041212A3E91208A4
:102C630023E9FF9007E9E0F9120829908FE412198C
:102C73007F12080BE9908FE412197F1209AFE990D4
:102C83008FE412197F121453E912128BE97AF97B3C
:102C9300131214599007E9E0F9121537E97A00790C
:102CA300031214EFE975F30075F40075F50075FD73
:102CB300FC75FEFF75FF1F75800375900075A000FE
:102CC3007A017B009007E9E0F91215A3E974141265
:102CD3001AB37F01021BDF74F2121B0D890AEAFE8D
:102CE300EBFFEE5400F8EF5480F9E84960319007A8
:102CF300E9E0F912158B8A0C8B0DA80CA90D880835
:102D03008909E849600FAA08AB091213ABAA08ABFB
:102D130009121579E9EE6400FAEF6480FB8036EE60
:102D2300A2E0501B7A467B1812170BE9F5087AE8E4
:102D33007B8F1212C7EE6401FAEF6400FB8016EE7C
:102D43005402600D1213BDEE6402FAEF6400FB80BF
:102D5300047A007B007F06021BDF74F7121B0DEA67
:102D6300FEEBFF8E828F83E02450602024F0600608
:102D730024E0602180268E828F83A3A3A3E0FA8EB2
:102D8300828F83A3A3E0F91213B18010EEFAEFFB55
:102D93001213B78007EEFAEFFB1213C37F01021B76
:102DA300DF74F7121B0D74FF121A9DE9FEEAFFEFA1
:102DB300A2E04003022EFE9007F6E06003022EFE1F
:102DC300121441E9603A7A0279011213FFE990077C
:102DD300F7E02401F9121447E99007F7F09007F799
:102DE300E06409700A7900121447E99007F7F0903C
:102DF30007EAE064066003022EFE1213DB022EFED6
:102E03007A00EAC394034003022EFEEAF87900E84D
:102E130075F012A4C8ABF075F000A42BFB75F0128B
:102E2300E9A42BF9740928F582741739F583E0D2E4
:102E3300E0F0901844E02401F0A3E03400F090188F
:102E430044E0FCA3E0FDEAF87900E875F012A4C8B9
:102E5300ABF075F000A42BFB75F012E9A42BF97409
:102E63000B28F582741739F583ECF0A3EDF0901875
:102E730044E0FCA3E0FDEAF87900E875F011A4C88A
:102E8300ABF075F000A42BFB75F011E9A42BF974DA
:102E9300AC28F582741739F583ECF0A3EDF0EA75ED
:102EA300F00284E5F06029EAF87900E875F012A4ED
:102EB300C8ABF075F000A42BFB75F012E9A42BF955
:102EC300740A28F582741739F583E0D2E4F0802779
:102ED300EAF87900E875F012A4C8ABF075F000A425
:102EE3002BFB75F012E9A42BF9740A28F5827417E9
:102EF30039F583E0C2E4F00A022E05EFA2E1507235
:102F03009007EAE06406606A7C207D007A067B0015
:102F1300120667E97C207D007A077B00120667E9C9
:102F23007C1E7D007A017B00120667E9AC18AD199F
:102F33007A057B03121705E9851882851983E070EA
:102F43000B8518828519837401F0800985188285A1
:102F530019837400F0AC18AD1979017A057B03125B
:102F630016FFE9851882851983E070069007F574CA
:102F730001F07401121AB37F01021BDF74F7121BF5
:102F83000DEAFEEBFF8E828F83A3A3A3A3E0F9EEEA
:102F93002405FAE43FFB12098B7F01021BDFC08289
:102FA300C0839007F4E0600B9007F47400F01213F1
:102FB300E180359007F6E0602F9007F7E02401F9F0
:102FC300121447E99007F7F09007F7E064097015CA
:102FD3009007F77400F09007F67400F07A01790116
:102FE3001213E780031213DBD083D0820201327401
:102FF300F2121B0D74EE121A9D8A088B0985088242
:10300300850983A3A3A3E0FE850882850983A3A37F
:10301300A3A3E0FF750A01EE1460091460061460AF
:103023001214701EEF7025EEFA79031213E7750A76
:10303300008019EF6016EEFA79031213E7750A00A0
:10304300800AEEFA79021213E7750A00E50A7003A3
:103053000234C2EF601B14601814700302333A1475
:10306300700302333A14603E1460061460030234A2
:10307300BB850882850983A3A3E06402701EE4F57F
:103083000CF50D780C121D207C007D007B00EFFAFF
:10309300EEF912144D7402121AB38007EEFA790591
:1030A3001213E70234C2850882850983A3A3A3A36D
:1030B300A3E064016003023192850882850983A33A
:1030C300A3E064076003023192850882850983A324
:1030D300A3A3A3A3A3E0FA7B00850882850983A3A6
:1030E300A3A3A3A3A3A3E0F87900E4C8F9EA28F80B
:1030F300EB39F9851882851983E8F0A3E9F085088F
:1031030082850983A3A3A3A3A3A3A3A3E0FA7B00BC
:10311300850882850983A3A3A3A3A3A3A3A3A3E0F1
:10312300F87900E4C8F9EA28F8EB39F97409121AB6
:10313300E9E8F0A3E9F07409121AE9C082C08385B3
:103143001882851983E0F8A3E0F9D083D082C3E025
:1031530098A3E099402F7409121AF3880C890D780B
:103163000C121D207402121B03850882850983A398
:10317300A3A3A3A3E0FBEFFAEEF912144D7402121A
:103183001AB30234C2EEFA79051213E70234C28588
:103193000882850983A3A3A3A3A3E06402600302B7
:1031A3003330850882850983A3A3E0641160030299
:1031B3003330850882850983A3A3A3A3A3A3E0FADD
:1031C3007B00850882850983A3A3A3A3A3A3A3E00C
:1031D300F87900E4C8F9EA28F8EB39F97407121A08
:1031E300E9E8F0A3E9F0850882850983A3A3A3A3F3
:1031F300A3A3A3A3E0C0E07406121AE9D0E0F0850C
:103203000882850983A3A3A3A3A3A3A3A3A3E0C0C5
:10321300E07405121AE9D0E0F0850882850983A3DA
:10322300A3A3A3A3A3A3A3A3A3E0C0E07404121ABC
:10323300E9D0E0F0E508240BF582E43509F583E0F5
:10324300C0E07403121AE9D0E0F0E508240CF5821B
:10325300E43509F583E0C0E07402121AE9D0E0F026
:10326300E508240DF582E43509F583E0FA7B00E5F2
:1032730008240EF582E43509F583E0F87900E4C803
:10328300F9EA28F8EB39F97410121AE9E8F0A3E91E
:10329300F0E508240FF582E43509F583E0C0E07416
:1032A3000F121AE9D0E0F0E5082410F582E435099D
:1032B300F583E0C0E0740E121AE9D0E0F0E50824CB
:1032C30011F582E43509F583E0C0E0740D121AE9C3
:1032D300D0E0F0E5082412F582E43509F583E0C077
:1032E300E0740C121AE9D0E0F0E5082413F582E447
:1032F3003509F583E0C0E0740B121AE9D0E0F074ED
:103303000B121AF3880C890D780C121D2074041209
:103313001B03850882850983A3A3A3A3A3E0FBEF73
:10332300FAEEF912144D7402121AB38007EEFA7909
:10333300051213E70234C2850882850983A3A3A378
:10334300A3A3E06401706D850882850983A3A3E0CC
:1033530064057060850882850983A3A3A3A3A3A33F
:10336300E0FA7B00850882850983A3A3A3A3A3A313
:10337300A3E0F87900E4C8F9EA28F8EB39F98518ED
:1033830082851983E8F0A3E9F0E4F50CF50D780CD8
:10339300121D207402121B03850882850983A3A3CF
:1033A300A3A3A3E0FBEFFAEEF912144D7402121A71
:1033B300B30234C2850882850983A3A3A3A3A3E030
:1033C300640260030234B2850882850983A3A3E003
:1033D300640A60030234B2850882850983A3A3A328
:1033E300A3A3A3E0FA7B00850882850983A3A3A393
:1033F300A3A3A3A3E0F87900E4C8F9EA28F8EB391A
:10340300F97407121AE9E8F0A3E9F085088285093F
:1034130083A3A3A3A3A3A3A3A3E0C0E07406121AE8
:10342300E9D0E0F0850882850983A3A3A3A3A3A31E
:10343300A3A3A3E0C0E07405121AE9D0E0F0850865
:1034430082850983A3A3A3A3A3A3A3A3A3A3E0C0E8
:10345300E07404121AE9D0E0F0E508240BF582E4E5
:103463003509F583E0C0E07403121AE9D0E0F0E512
:1034730008240CF582E43509F583E0C0E0740212F8
:103483001AE9D0E0F0E4F50CF50D780C121D207468
:1034930004121B03850882850983A3A3A3A3A3E0C6
:1034A300FBEFFAEEF912144D7402121AB38010EE08
:1034B300FA79091213E78007EEFA79041213E77415
:1034C30012121AB37F06021BDF74F6121B0D74F679
:1034D300121A9DE9FE74066E70030236479007EADE
:1034E300E06406600302357574066E700302357579
:1034F3007401121AE97401F09007F67400F0900752
:10350300F47400F07A027B009007E9E0F91216E107
:10351300E974056E70267C207D007A067B00120616
:1035230067E97C207D007A077B00120667E97C1E31
:103533007D007A017B00120667E980247C407D06CA
:103543007A067B00120667E97C407D067A077B00DA
:10355300120667E97C1E7D007A017B00120667E98B
:103563007401121B0379017A057B031216FFE9022A
:1035730036479007EAE06402706B74046E706690DD
:1035830007F5E060099007F57400F00236477A0604
:103593007B0012066D8A088B097420650870047419
:1035A3000065096003023647851882851983740113
:1035B300F07C407D067A067B00120667E97C407D3D
:1035C300067A077B00120667E97C1E7D007A017B81
:1035D30000120667E9AC18AD1979017A057B03126D
:1035E30016FFE9805F74016E705A7402121B037A2E
:1035F300047B03121705E97407121AE9E0C0E074AB
:1036030009121AE9D0E0F07406121AE9E0C0E07476
:1036130008121AE9D0E0F07405121AE9E0C0E07468
:1036230007121AE9D0E0F07406121AE97400F07474
:1036330005121AE97400F07402121B037A08790068
:10364300121291E9EE9007EAF0740A121AB37F029C
:10365300021BDF74F2121B0D8A088B09890A8C0B7B
:103663007401650A705DE50B70599007F2E0FAA3E7
:10367300E0FB120C318A0C8B0DA80CA90DE8FEE9B6
:10368300FFE849603E8E828F83A3A3A3E0A2E250AA
:1036930004D2F08002C2F0A2F0E4339007EBF09082
:1036A30007EBE0601E750C06750D00780C121D20EB
:1036B300EE2405FCE43FFD7AEC7B0712154F740200
:1036C300121AB37F06021BDF74F5121B0D8A088BD7
:1036D30009ECFEEDFF890A908FE0121D337900EEAD
:1036E300FAEFFB1212CD7404121AB3E97F03021B23
:1036F300DF74F4121B0D74FB121A9D9007F7E0F8A8
:103703007900E875F012A4C8AAF075F000A42AFAAB
:1037130075F012E9A42AF9740928F582741739F5AA
:1037230083E064036003023C63E4F508F509780869
:10373300121D207C117D00791B9007F2E0FAA3E0B3
:10374300FB1209857402121AB37403121AE9EAF020
:10375300A3EBF07403121AE9E0F8A3E0F9E8497067
:1037630003023C637403121AE9E0F508A3E0F509C8
:103773009007F7E0F87900E875F012A4C8AAF0758D
:10378300F000A42AFA75F012E9A42AF9740A28F5BC
:1037930082741739F583E0FEEEC0E085088285095F
:1037A30083D0E0F0850882850983A3858208858319
:1037B300099007F7E0F87900E875F012A4C8AAF0B9
:1037C30075F000A42AFA75F012E9A42AF9740B28FB
:1037D300F582741739F583E0F8A3E0F9E8C0E085D2
:1037E3000882850983D0E0F0850882850983A38553
:1037F30082088583099007F7E0F87900E875F012ED
:10380300A4C8AAF075F000A42AFA75F012E9A42A54
:10381300F9740B28F582741739F583E0F8A3E0F9FE
:10382300E4C9F8E8C0E0850882850983D0E0F08523
:103833000882850983A38582088583099007F7E0B9
:10384300F87900E875F012A4C8AAF075F000A42A6C
:10385300FA75F012E9A42AF9741228F5827417395B
:10386300F583E0F8A3E0F9E8C0E0850882850983E1
:10387300D0E0F0850882850983A3858208858309C2
:103883009007F7E0F87900E875F012A4C8AAF0757C
:10389300F000A42AFA75F012E9A42AF9741228F5A3
:1038A30082741739F583E0F8A3E0F9E4C9F8E8C0B6
:1038B300E0850882850983D0E0F085088285098345
:1038C300A38582088583099007F7E0F87900E875F6
:1038D300F012A4C8AAF075F000A42AFA75F012E950
:1038E300A42AF9741128F582741739F583E02401A9
:1038F300C0E0850882850983D0E0F08508828509C8
:1039030083A38582088583099007F7E0F87900E8A7
:1039130075F012A4C8AAF075F000A42AFA75F01283
:10392300E9A42AF9741028F582741739F583E02481
:1039330001C0E0850882850983D0E0F0850882858F
:103943000983A38582088583099007F7E0F8790046
:10395300E875F012A4C8AAF075F000A42AFA75F06D
:1039630012E9A42AF9740F28F582741739F583E054
:10397300C0E0850882850983D0E0F0850882850947
:1039830083A38582088583099007F7E0F87900E827
:1039930075F012A4C8AAF075F000A42AFA75F01203
:1039A300E9A42AF9740E28F582741739F583E0C067
:1039B300E0850882850983D0E0F085088285098344
:1039C300A38582088583099007F7E0F87900E875F5
:1039D300F012A4C8AAF075F000A42AFA75F012E94F
:1039E300A42AF9740D28F582741739F583E0C0E031
:1039F300850882850983D0E0F0850882850983A341
:103A0300858208858309EEA2E04003023AA390076A
:103A1300F7E0F87900E875F012A4C8AAF075F00091
:103A2300A42AFA75F012E9A42AF9741428F5827409
:103A33001739F583E0F8A3E0F9E8C0E0850882854B
:103A43000983D0E0F0850882850983A385820885F0
:103A530083099007F7E0F87900E875F012A4C8AA83
:103A6300F075F000A42AFA75F012E9A42AF9741487
:103A730028F582741739F583E0F50AA3E0F50B7492
:103A830008780A121A6BE50AC0E085088285098363
:103A9300D0E0F0850882850983A3858208858309A0
:103AA300EEA2E14003023B759007F7E0F87900E8E6
:103AB30075F012A4C8AAF075F000A42AFA75F012E2
:103AC300E9A42AF9741628F582741739F583E0F806
:103AD300A3E0F9E8C0E0850882850983D0E0F0859A
:103AE3000882850983A38582088583099007F7E007
:103AF300F87900E875F012A4C8AAF075F000A42ABA
:103B0300FA75F012E9A42AF9741628F582741739A4
:103B1300F583E0F8A3E0F9E4C9F8E8C0E08508829A
:103B2300850983D0E0F0850882850983A38582080F
:103B33008583099007F7E0F87900E875F012A4C8C7
:103B4300AAF075F000A42AFA75F012E9A42AF97410
:103B53001828F582741739F583E0C0E0850882855B
:103B63000983D0E0F0850882850983A385820885CF
:103B73008309EEA2E34003023C089007F7E0F879DB
:103B830000E875F012A4C8AAF075F000A42AFA752B
:103B9300F012E9A42AF9741928F582741739F58308
:103BA300E0F8A3E0F9E8C0E0850882850983D0E066
:103BB300F0850882850983A3858208858309900798
:103BC300F7E0F87900E875F012A4C8AAF075F000E0
:103BD300A42AFA75F012E9A42AF9741928F5827453
:103BE3001739F583E0F8A3E0F9E4C9F8E8C0E08504
:103BF3000882850983D0E0F0850882850983A3853F
:103C030082088583097403121AE9E0F8A3E0F9E551
:103C130008C398C0E07402121AE9D0E0F0EEA2E4FF
:103C230050069007F47401F09007E9E0F9AC18AD81
:103C3300199007F2E0FAA3E0FB12145FE960097937
:103C43001BAA18AB1912098B908FDC121D337A0251
:103C53007B009007E9E0F91216D57404121AB3E950
:103C63007405121AB37F04021BDF74F6121B0D7462
:103C7300FB121A9D9007F7E0F87900E875F012A49B
:103C8300C8AAF075F000A42AFA75F012E9A42AF97B
:103C9300740928F582741739F583E064036003021D
:103CA30041DDE4F508F5097808121D207C117D003B
:103CB300791B9007F2E0FAA3E0FB12098574021264
:103CC3001AB37403121AE9EAF0A3EBF07403121A9D
:103CD300E9E0F8A3E0F9E84970030241DD74031257
:103CE3001AE9E0F508A3E0F5099007F7E0F8790091
:103CF300E875F011A4C8AAF075F000A42AFA75F0CB
:103D030011E9A42AF974AB28F582741739F583E015
:103D1300FEEEC0E0850882850983D0E0F085088245
:103D2300850983A38582088583099007F7E0F879DD
:103D330000E875F011A4C8AAF075F000A42AFA757A
:103D4300F011E9A42AF974AC28F582741739F583C4
:103D5300E0F8A3E0F9E8C0E0850882850983D0E0B4
:103D6300F0850882850983A38582088583099007E6
:103D7300F7E0F87900E875F011A4C8AAF075F0002F
:103D8300A42AFA75F011E9A42AF974AC28F582740F
:103D93001739F583E0F8A3E0F9E4C9F8E8C0E08552
:103DA3000882850983D0E0F0850882850983A3858D
:103DB3008208858309EEA2E7503F9007F7E0F87980
:103DC30000E875F011A4C8AAF075F000A42AFA75EA
:103DD300F011E9A42AF974AE28F582741739F58332
:103DE300E0C0E0850882850983D0E0F085088285FC
:103DF3000983A3858208858309EEA2E04003023E7E
:103E0300CE9007F7E0F87900E875F011A4C8AAF09E
:103E130075F000A42AFA75F011E9A42AF974AF2801
:103E2300F582741739F583E0C0E08508828509833C
:103E3300D0E0F0850882850983A3858208858309FC
:103E43009007F7E0F87900E875F011A4C8AAF075B7
:103E5300F000A42AFA75F011E9A42AF974B028F540
:103E630082741739F583E0F8A3E0F9E8C0E0850828
:103E730082850983D0E0F0850882850983A3858242
:103E8300088583099007F7E0F87900E875F011A435
:103E9300C8AAF075F000A42AFA75F011E9A42AF96A
:103EA30074B028F582741739F583E0F8A3E0F9E4D8
:103EB300C9F8E8C0E0850882850983D0E0F0850869
:103EC30082850983A3858208858309EEA2E1503F99
:103ED3009007F7E0F87900E875F011A4C8AAF07527
:103EE300F000A42AFA75F011E9A42AF974B228F5AE
:103EF30082741739F583E0C0E0850882850983D091
:103F0300E0F0850882850983A3858208858309EE0D
:103F1300A2E2503F9007F7E0F87900E875F011A4AA
:103F2300C8AAF075F000A42AFA75F011E9A42AF9D9
:103F330074B328F582741739F583E0C0E0850882ED
:103F4300850983D0E0F0850882850983A3858208EB
:103F5300858309EEA2E340030240289007F7E0F8C7
:103F63007900E875F011A4C8AAF075F000A42AFA44
:103F730075F011E9A42AF974B428F582741739F598
:103F830083E0F8A3E0F9E8C0E0850882850983D0DF
:103F9300E0F0850882850983A385820885830990DB
:103FA30007F7E0F87900E875F011A4C8AAF075F0F6
:103FB30000A42AFA75F011E9A42AF974B428F58249
:103FC300741739F583E0F8A3E0F9E4C9F8E8C0E031
:103FD300850882850983D0E0F0850882850983A35B
:103FE3008582088583099007F7E0F87900E875F082
:103FF30011A4C8AAF075F000A42AFA75F011E9A477
:104003002AF974B628F582741739F583E0C0E08580
:104013000882850983D0E0F0850882850983A3851A
:104023008208858309EEA2E440030240FA9007F771
:10403300E0F87900E875F011A4C8AAF075F000A4BF
:104043002AFA75F011E9A42AF974B728F5827417CE
:1040530039F583E0C0E0850882850983D0E0F085E7
:104063000882850983A38582088583099007F7E081
:10407300F87900E875F011A4C8AAF075F000A42A35
:10408300FA75F011E9A42AF974B828F5827417397E
:10409300F583E0F8A3E0F9E8C0E0850882850983A9
:1040A300D0E0F0850882850983A38582088583098A
:1040B3009007F7E0F87900E875F011A4C8AAF07545
:1040C300F000A42AFA75F011E9A42AF974B828F5C6
:1040D30082741739F583E0F8A3E0F9E4C9F8E8C07E
:1040E300E0850882850983D0E0F08508828509830D
:1040F300A3858208858309EEA2E6400302418D90E1
:1041030007F7E0F87900E875F011A4C8AAF075F094
:1041130000A42AFA75F011E9A42AF974BA28F582E1
:10412300741739F583E0F8A3E0F9E8C0E085088265
:10413300850983D0E0F0850882850983A3858208F9
:104143008583099007F7E0F87900E875F011A4C8B2
:10415300AAF075F000A42AFA75F011E9A42AF974FB
:10416300BA28F582741739F583E0F8A3E0F9E4C9B6
:10417300F8E8C0E0850882850983D0E0F0850882ED
:10418300850983A38582088583097403121AE9E0EC
:10419300F8A3E0F9E508C398C0E07402121AE9D065
:1041A300E0F09007E9E0F9AC18AD199007F2E0FAF6
:1041B300A3E0FB121465E96009791BAA18AB191275
:1041C300098B908FDC121D337A027B009007E9E0A4
:1041D300F91216D57404121AB3E97405121AB37FCF
:1041E30002021BDF74F7121B0DE9FEEAFFEEFCEF80
:1041F300FB7A0079061213F37F01021BDF74F712B7
:104203001B0DEAFEEBFFEEFCEFFDE4CDFCEEFB7ACB
:104213000079051213F37F01021BDF74F4121B0DE7
:1042230074FB121A9D8909EAFEEBFF8C08E4F50A78
:10423300F50B780A121D207C047D00791D9007F28E
:10424300E0FAA3E0FB1209857402121AB374031295
:104253001AE9EAF0A3EBF07403121AE9E0F8A3E019
:10426300F9E849607C7402121AE97404F0E509C0A4
:10427300E07403121AE9E0F8A3E0F5838882D0E042
:10428300F0EEC0E07403121AE9E0F8A3E0F58388C6
:1042930082A3D0E0F0EFC0E07403121AE9E0F8A3C0
:1042A300E0F5838882A3A3D0E0F0E508C0E07403BF
:1042B300121AE9E0F8A3E0F5838882A3A3A3D0E070
:1042C300F09007E9E0F9AC18AD199007F2E0FAA312
:1042D300E0FB12146BE96009791DAA18AB191209E6
:1042E3008B7405121AB37F04021BDF74F2121B0DC9
:1042F300890AEAFEEBFF8C0B7407650A705C7A1778
:104303007B001215738A0C8B0D850C08850D09E54E
:10431300084509604585088285098374E0F0E50B4B
:10432300C0E0850882850983A3A3D0E0F0850B0C48
:10433300750D00780C121D20EEFCEFFDE50824033B
:10434300FAE43509FB12154F7402121AB3AA08AB2B
:10435300099007E9E0F912157FE97F06021BDF7474
:10436300F7121B0DE9FF79007800E8C394094003B5
:104373000243F7E8FC7D00EC75F012A4CCABF075BA
:10438300F000A42BFB75F012EDA42BFD74092CF5A2
:104393008274173DF583E0A2E0500109EF6028E83D
:1043A300FC7D00EC75F012A4CCABF075F000A42BEF
:1043B300FB75F012EDA42BFD74092CF58274173DE7
:1043C300F583E04AF08029EAF4FEE8FC7D00EC7511
:1043D300F012A4CCABF075F000A42BFB75F012ED3A
:1043E300A42BFD74092CF58274173DF583E05EF070
:1043F3000802436D7F01021BDF74F7121B0DE9FEF8
:104403007B00EBC394094003024492EBF87900E884
:1044130075F012A4C8ACF075F000A42CFC75F01272
:10442300E9A42CF9740928F582741739F583E0A2FD
:10443300E05058EE6028EBF87900E875F012A4C854
:10444300ACF075F000A42CFC75F012E9A42CF974FF
:104453000928F582741739F583E04AF08029EAF4D4
:10446300FDEBF87900E875F012A4C8ACF075F00024
:10447300A42CFC75F012E9A42CF9740928F58274B4
:104483001739F583E05DF0790180060B0244057965
:10449300007F01021BDF74F7121B0DE9FE7B09EBA2
:1044A300700302452CEBF87900E875F012A4C8AC50
:1044B300F075F000A42CFC75F012E9A42CF974F744
:1044C30028F582741639F583E0A2E05058EE60288F
:1044D300EBF87900E875F012A4C8ACF075F000A40D
:1044E3002CFC75F012E9A42CF974F728F5827416E4
:1044F30039F583E04AF08029EAF4FDEBF87900E826
:1045030075F012A4C8ACF075F000A42CFC75F01281
:10451300E9A42CF974F728F582741639F583E05D64
:10452300F0790180061B0244A279007F01021BDFA0
:10453300C082C0838A828B83A3A3A3A3A3C3E09473
:10454300D0A3E0940740138A828B83A3A3A3A3A3DE
:10455300C3E09440A3E094084004790080518A8228
:104563008B83A3A3A3E0600D8A828B83A3A3A3E021
:10457300C394204004790080368A828B83A3A3A34B
:10458300A3E0600E8A828B83A3A3A3A3E0C3940D4D
:104593004004790080198A828B83A3A3A3E024FFBC
:1045A300F08A828B83A3A3A3A3E024FFF07901D035
:1045B30083D08202013274E8121B0D74FC121A9D1F
:1045C3007402121AE9EAF0A3EBF0E9C0E0740112F5
:1045D3001AE9D0E0F0ECC0E0851882851983D0E0B9
:1045E300F07F007402121AE9E0FAA3E0FB1214113F
:1045F300E97005790002473B7402121AE9E0FAA355
:10460300E0FB12161B8A108B118C128D1385100878
:1046130085110985120A85130B7E00EEC3940940A8
:1046230003024739EEF87900E875F012A4C8AAF03E
:1046330075F000A42AFA75F012E9A42AF9740D287A
:10464300FA741739FB12161B8A148B158C168D17E7
:10465300EEF87900E875F012A4C8AAF075F000A48A
:104663002AFA75F012E9A42AF9741428F58274174A
:1046730039F583E0F510A3E0F511E5113395E0F585
:1046830012F513781479101218DA85140C85150DA8
:1046930085160E85170F780C7908121774500302CC
:1046A3004735EEF87900E875F012A4C8AAF075F062
:1046B30000A42AFA75F012E9A42AF9740928F582EC
:1046C300741739F583E0A2E050010F7401121AE95F
:1046D300E06030851882851983E0FBEEF87900E805
:1046E30075F012A4C8AAF075F000A42AFA75F012A6
:1046F300E9A42AF9740928F582741739F583E04B84
:10470300F0802F851882851983E0F4FBEEF8790099
:10471300E875F012A4C8AAF075F000A42AFA75F09F
:1047230012E9A42AF9740928F582741739F583E08C
:104733005BF00E02461EEFF97404121AB37F1002E7
:104743001BDF74E8121B0D74FC121A9D7402121AFB
:10475300E9EAF0A3EBF0E9C0E07401121AE9D0E052
:10476300F0ECC0E0851882851983D0E0F07F0074F7
:1047730002121AE9E0FAA3E0FB121411E9700579B9
:10478300000248C77402121AE9E0FAA3E0FB12160A
:104793001B8A108B118C128D1385100885110985C6
:1047A300120A85130B7E00EEC3940940030248C529
:1047B300EEF87900E875F012A4C8AAF075F000A429
:1047C3002AFA75F012E9A42AF9740D28FA74173934
:1047D300FB12161B8A148B158C168D17EEF87900B5
:1047E300E875F012A4C8AAF075F000A42AFA75F0CF
:1047F30012E9A42AF9741428F582741739F583E0B1
:10480300F510A3E0F511E5113395E0F512F51378F2
:104813001479101218DA85140C85150D85160E857A
:10482300170F7808790C12177450030248C1EEF879
:104833007900E875F012A4C8AAF075F000A42AFA6A
:1048430075F012E9A42AF9740928F582741739F569
:1048530083E0A2E050010F7401121AE9E060308591
:104863001882851983E0FBEEF87900E875F012A44D
:10487300C8AAF075F000A42AFA75F012E9A42AF97F
:10488300740928F582741739F583E04BF0802F857E
:104893001882851983E0F4FBEEF87900E875F012CD
:1048A300A4C8AAF075F000A42AFA75F012E9A42AA4
:1048B300F9740928F582741739F583E05BF00E0269
:1048C30047AAEFF97404121AB37F10021BDF74E8CE
:1048D300121B0D74F7121A9D7403121AE9EAF0A35E
:1048E300EBF07401121AE9ECF0A3EDF0E9C0E085F6
:1048F3001882851983D0E0F07F007403121AE9E06F
:10490300FAA3E0FB121411E970057900024A9274CC
:1049130001121AE9E0FAA3E0FB121411E970057918
:1049230000024A927403121AE9E0FAA3E0FB12169A
:104933001B8A108B118C128D138510088511098524
:10494300120A85130B7401121AE9E0FAA3E0FB12B1
:10495300161BEAF8EBF9ECFAEDFB7405121AE912EF
:1049630019977E00EEC394094003024A90EEF8794A
:1049730000E875F012A4C8AAF075F000A42AFA752D
:10498300F012E9A42AF9740D28FA741739FB1216E8
:104993001B8A148B158C168D17EEF87900E875F0C9
:1049A30012A4C8AAF075F000A42AFA75F012E9A4BB
:1049B3002AF9741428F582741739F583E0F510A3E6
:1049C300E0F511E5113395E0F512F513781479103C
:1049D3001218DA85140C85150D85160E85170F78B8
:1049E30008790C1217745003024A8C7405121AE9E1
:1049F300780C1217845003024A8CEEF87900E8759C
:104A0300F012A4C8AAF075F000A42AFA75F012E90E
:104A1300A42AF9740928F582741739F583E0A2E012
:104A230050010F851882851983E0602F7421121AB3
:104A3300E9E0FBEEF87900E875F012A4C8AAF07576
:104A4300F000A42AFA75F012E9A42AF9740928F5EA
:104A530082741739F583E04BF0802E7421121AE922
:104A6300E0F4FBEEF87900E875F012A4C8AAF0753B
:104A7300F000A42AFA75F012E9A42AF9740928F5BA
:104A830082741739F583E05BF00E024967EFF9741E
:104A930009121AB37F10021BDF74F6121B0DEAFE14
:104AA300EBFF890979007800E8C394094003024BBE
:104AB300778E828F83C082C083E8FA7B00EA75F029
:104AC30012A4CAADF075F000A42DFD75F012EBA48D
:104AD3002DFB740B2AF58274173BF583E0FAA3E0F0
:104AE300FBD083D082C3E09AA3E09B5003024B73B5
:104AF300E8FA7B00EA75F012A4CAADF075F000A4E1
:104B03002DFD75F012EBA42DFB74092AF5827417A1
:104B13003BF583E0A2E0500109E5096028E8FA7B50
:104B230000EA75F012A4CAADF075F000A42DFD756E
:104B3300F012EBA42DFB74092AF58274173BF5835D
:104B4300E04CF0802BECF4F508E8FA7B00EA75F012
:104B530012A4CAADF075F000A42DFD75F012EBA4FC
:104B63002DFB74092AF58274173BF583E05508F091
:104B730008024AAB7F02021BDF74F6121B0DEAFE2A
:104B8300EBFF890979007800E8C394094003024CDC
:104B930057E8FA7B00EA75F012A4CAADF075F0008D
:104BA300A42DFD75F012EBA42DFB740B2AF5827472
:104BB300173BF583C082C0838E828F83E0FAA3E024
:104BC300FBD083D082C3E09AA3E09B5003024C53F3
:104BD300E8FA7B00EA75F012A4CAADF075F000A400
:104BE3002DFD75F012EBA42DFB74092AF5827417C1
:104BF3003BF583E0A2E0500109E5096028E8FA7B70
:104C030000EA75F012A4CAADF075F000A42DFD758D
:104C1300F012EBA42DFB74092AF58274173BF5837C
:104C2300E04CF0802BECF4F508E8FA7B00EA75F031
:104C330012A4CAADF075F000A42DFD75F012EBA41B
:104C43002DFB74092AF58274173BF583E05508F0B0
:104C530008024B8B7F02021BDF74F4121B0DEAFE6A
:104C6300EBFF8909740C121AE9E0F5087900780062
:104C7300E8C394094003024D94E8FA7B00EA75F017
:104C830012A4CA85F00A75F000A4250AF50A75F086
:104C930012EBA4250AFB740B2AF58274173BF583E8
:104CA300C082C0838E828F83E0FAA3E0FBD083D0DF
:104CB30082C3E09AA3E09B5003024D908C828D83C4
:104CC300C082C083E8FA7B00EA75F012A4CA85F0BB
:104CD3000A75F000A4250AF50A75F012EBA4250A5B
:104CE300FB740B2AF58274173BF583E0FAA3E0FB10
:104CF300D083D082C3E09AA3E09B5003024D90E897
:104D0300FA7B00EA75F012A4CA85F00A75F000A4D4
:104D1300250AF50A75F012EBA4250AFB74092AF596
:104D23008274173BF583E0A2E0500109E509602D89
:104D3300E8FA7B00EA75F012A4CA85F00A75F00060
:104D4300A4250AF50A75F012EBA4250AFB74092AB7
:104D5300F58274173BF583E04508F08030E508F4ED
:104D6300F50BE8FA7B00EA75F012A4CA85F00A7520
:104D7300F000A4250AF50A75F012EBA4250AFB74CA
:104D8300092AF58274173BF583E0550BF008024CB2
:104D9300737F04021BDF74EF121B0D890D8A098CCC
:104DA3000A8D0B8B087411121AE9E0F50EA3E0F5D6
:104DB3000F7413121AE9E0FF7414121AE9E0F50CE8
:104DC3007E00E50D601B146022147003024E541420
:104DD3007003024E7814603714601C146025024E71
:104DE3009CAA0C79041213E7024EA3EFFAA9081246
:104DF30013FFE9FE024EA3EFFAA908121405E9FE18
:104E0300024EA3EFFAA90812140BE9FE024EA37493
:104E1300016509701EEFF5107810121D24A908AC66
:104E23000EAD0FAA0AAB0B1214357401121AB3E9B3
:104E3300FE806DEFF5107810121D24A908AC0EAD9D
:104E43000FAA0AAB0B1214237401121AB3E9FE80E2
:104E53004F74016509700FEFFCA908AA0AAB0B1286
:104E63001429E9FE803AEFFCA908AA0AAB0B121435
:104E730017E9FE802B74016509700FEFFCA908AADE
:104E83000AAB0B12142FE9FE8016EFFCA908AA0A3D
:104E9300AB0B12141DE9FE8007AA0C79031213E76A
:104EA300EEF97F09021BDFC082C08379007800E836
:104EB300C39409502CE8FA7B00EA75F012A4CAAC3B
:104EC300F075F000A42CFC75F012EBA42CFB740914
:104ED3002AF58274173BF583E0A2E05001090880AC
:104EE300CED083D082020132C082C083E9FCECC3FE
:104EF3009409400479098035ECFBEBC39409502BEA
:104F0300EBF87900E875F012A4C8AAF075F000A4D4
:104F13002AFA75F012E9A42AF9740928F58274179C
:104F230039F583E0640360030B80CFEBF9D083D0C2
:104F33008202013274F2121B0D89088A098B0AEC72
:104F4300FEEDFF740E121AE9E0F50CA3E0F50DE592
:104F530008146012146061147003024FF814700394
:104F630002501A0250517A0279001213FFE9E50840
:104F7300F50B780B121D24750B02780B121D247888
:104F83000C121D207B01EEFCEFFDAA0AA9091214E5
:104F93003B7404121AB3E960159007F67401F079B3
:104FA30000121447E99007F7F01213DB8007AA08F1
:104FB30079061213E7025051E508F50B780B121D21
:104FC30024750B01780B121D24780C121D207B0015
:104FD300EEFCEFFDAA0AA90912143B7404121AB3DA
:104FE300E96009AA0879011213E78062AA08790621
:104FF3001213E780599007F67400F09007F47400D9
:10500300F07A027B009007E9E0F91216E1E9AA08B9
:1050130079011213E780377A0279001213FFE9E569
:1050230008F50B780B121D24750B02780B121D2447
:10503300780C121D207B01EEFCEFFDAA0AA90912D0
:10504300143B7404121AB3E9FA7B001213ED7F06C2
:10505300021BDFC082C083E99015EFF0D083D082BA
:1050630002013274F6121B0DE99002ECF090034C2E
:10507300E0F50875090074027808121A8AAA08ABC9
:10508300091216339002ED125A199002ED125E06C0
:10509300606F90034CE075F003A4FAABF012163383
:1050A30090030A125A1990030A125E06700B9002BB
:1050B300ED125DD7121639804890030A126D6B7A90
:1050C300FF7BFF1213817A0080198A087509007427
:1050D300027808121A8A12681374FF125219E4F044
:1050E300A3F00A90034CE0F8EAC39840DD79051277
:1050F30009A99002ECE0F912088F7A337B0A120CAB
:105103001F0268B674F4121B0D8A088B09EB5480D6
:1051130060479002ECE0F912158B8A0A8B0BAE0AFA
:10512300AF0BEE4F602A8E828F83E064B0701A1249
:1051330009BBE960148E828F83A3A3A3A3E0F9EED6
:105143002405FAE43FFB12098BEEFAEFFB12157903
:10515300AA08E5096480FB80047A007B0002536996
:1051630074F2121B0D74FB121A9DEAFEEBFFEE4F55
:1051730060457403121AE9EEF0A3EFF085188285F7
:105183001983ECF0A3EDF07402121AE9E9F0AA18FE
:10519300AB19120889E9F50870757413121AE9E05E
:1051A300F50AA3E0F50BE50A450B60638E828F8356
:1051B3001257A2EE4F700575080280537A067B00E2
:1051C3001216338A0C8B0DA80CA90DE849700575CE
:1051D3000813803B88828983E4125219EEF0A3EF0F
:1051E300125335E50AF0A3E50BF09002F012532EAB
:1051F3009002F06017E0FCA3E08003EAFCEBFD8C77
:10520300828D8312532E70F38C828D8312642EA9A8
:10521300087405026FEBF0A3126D4DA32274F21212
:105223001B0D8908890C750D007403780C121A8AFA
:10523300850C0A850D0B9002EFF09002ED12623996
:1052430012532C602E1216397900801D890C750DAE
:10525300007402780C121A8A9002ED1266D28882C8
:10526300F583A3A3E4F0A3F00990034CE0F8E9C3AA
:105273009840D990034CE0FA850AF0A4CAA8F085B7
:105283000BF0A428FB1216338A0C8B0DAE0CAF0D5A
:10529300EE4F700302532290034CE0FC850AF0A406
:1052A300CCA8F0850BF0A428FD79001215677C00CB
:1052B30080318D0C750D007403780C121A8A8A8262
:1052C3008B8312532788828983E4F0125334A3A378
:1052D300F0A3F00DEDC3950840D8EE250AFEEF3597
:1052E3000BFF0C90034CE0F8ECC39850288C0C7522
:1052F3000D007402780C121A8A9002ED125327E8FB
:105303002402500109FAE9FB8A828B83EEF0A3EFB2
:10531300F07D0080BFE5089002EFF079008002790C
:1053230013026FEE1266D6F922A3A3125DDBEA4BDA
:1053330022A3126D4DA3A3A32274F4121B0D7900B3
:10534300EAA2E0501F75083A75098F7808121D20EC
:1053530079107C047D007AF17B151209A374021283
:105363001AB3E9F980007F04021BDFC082C0839077
:1053730002F0125E06601C88828983A3A3E06A7030
:1053830003A3E06B8882898370E8A3A3A3A3125DC0
:10539300D780047A007B0002505F74F2121B0D74F5
:1053A300FD121A9DEAFEEBFF851882851983E4F04E
:1053B300A3F07402121AE97401F0125E037014125E
:1053C3000B591216339002F3125A19125E0370032B
:1053D30002552F125B19EE2404F50AE43FF50B8501
:1053E3000A82F583E024FE603C24FC607424FE60A2
:1053F3007E24FE700302547F24FE700302548C2427
:10540300FE700302549924FE70030254A624FE7016
:10541300030254B324FC70030254D424FE70030229
:1054230054EC025528120B599002F5EAF0A3EB1243
:10543300553B12053BE960030255289002F5121D06
:10544300378E828F83A3A3A3A3A3126D6B850882D8
:10545300850983125DD71209737402121AB30255B8
:1054630028AC18AD19EEFAEFFB1209C10254F7ACE0
:1054730018AD19EEFAEFFB1209C78078AC18AD1915
:10548300EEFAEFFB1209CD806BAC18AD19EEFAEF13
:10549300FB1209D3805EAC18AD19EEFAEFFB1209CB
:1054A300D98051AC18AD19EEFAEFFB1209DF804435
:1054B3007402121AF3880C890D780C121D207402E1
:1054C300121B03EEFAEFFB1209E57402121AB38002
:1054D30023AC18AD19EEFAEFFB1209EBE9F87016DD
:1054E3007402121AE9E4F0803CAC18AD19EEFAEF3D
:1054F300FB1209F1E9F8E8602C8E828F83A3E06444
:10550300146022850A82850B83E09002F5F08518EA
:1055130082851983125DD79002F6125A19E8A312F5
:10552300553B120535EEFAEFFB1209497402121AC4
:10553300E9E0F97403026FEBF07CF57D02850882E4
:10554300850983125DDB2274E8121B0D74FA121AAB
:105553009D7404121AE9ECF0A3EDF08A128B13EA9E
:105563002405F50EE43513F50FEA2402F510E435AE
:1055730013F511851082F583125DD71206618A0A2D
:105583008B0B7508007C037D0079007AF57B021292
:105593001567E50E2402F516E4350FF517740212AC
:1055A3001AF3880C890D780C121D20850E82850F45
:1055B30083A3A3A3A3E0F50C750D00780C121D20A3
:1055C300E50E2405F50CE4350FF50D780C121D20BE
:1055D3008516828517831260DE1208A77406121AD5
:1055E300B38A0C8B0DE50C450D700302576B8020BD
:1055F300851882851983E088828983F005088518D8
:1056030082851983A3E0C0E01257ACD0E0F005080F
:10561300E50A24FBFAE50B34FFFBC3E5089AE49B98
:10562300400302576B7E007F00851282851383A39C
:10563300A3A3A3E0F5097809121D24E4F514F515D5
:105643007814121D207514F27515027814121D209A
:105653009002F3121D377409121AE9121D37E50A75
:1056630024F9F9AC0CAD0D851082851183125DD739
:10567300120A1B7409121AB3E9600302570C850E50
:1056830082850F83A3A3A3A3A3A3A3E0F89002F2AD
:10569300E0687075E0F5148E157814121D20126DF4
:1056A30068850E82850F83A3A3A3A3A3A3A3A31239
:1056B3005DD71215617402121AB3E9604C9002F6B9
:1056C300125E06703BE4F5147814121D207CFF7DF6
:1056D300FF7907851082851183125DD712098574BE
:1056E30002121AB3125E0C7017850E82850F831295
:1056F3006F057404121AE91267C612610F02579FED
:10570300850C82850D831257A2A818A919881489BC
:10571300157814121D207404121AE9121D37851608
:1057230082851783125A0F1208B37404121AB38AAC
:105733000C8B0DEE4F70030255E81257ACEE125767
:10574300B71260C5EF1257B7F8A3E03400F9E50CC0
:10575300450D60030255F38882898374FFF00508C1
:105763001257AC74FFF00508E508601A1313543F91
:10577300125A1F120547E960099002F6125DD7120B
:1057830015D379008016850E82850F83126F0574F9
:1057930004121AE91267C612642E790A026098A3EA
:1057A300A3A3A3E0FEA3E0FF22A8089002F6E0284B
:1057B3001260C522F00508089002F6E0282274E87A
:1057C300121B0D74FA121A9D7402121AE9125A1955
:1057D3007404121AE9ECF0A3EDF07402121AE9E072
:1057E30024051260AEE0F50CA3E0F50D7402121A65
:1057F300E9E02402F510A3E03400F511851082F5E9
:1058030083125DD7120661750800750900EA24FC4E
:10581300FEEB34FFFF8008050CE50C7002050DA8B4
:1058230008C3EE98EF940050030259CBA818A919A6
:10583300880E890F780E121D20851482851583A387
:10584300A3A3A3126D6F121D20E5142405F50EE426
:105853003515F50F780E121D2085148285158312D8
:105863005A0D1208A77406121AB38A0E8B0FEA4553
:105873000F70030259CBEA2404F516E4350FF5172C
:10588300851682F583E0F50CA3E0F50D8518828576
:105893001983126D6B8A828B83A3A3A3E0F985100E
:1058A30082851183125DD7120895E9F50960030219
:1058B30059CB7402121AE91260D5F5097809121D41
:1058C30024E4F512F5137812121D207512F27513E4
:1058D300027812121D209002F3121D377407121A58
:1058E300E9121D37EEF9AC0EAD0F851082851183D9
:1058F300125DD7120A1B7409121AB3E9F509600382
:105903000259CBE508703FE4F50EF50F780E121D32
:10591300207CFF7DFF7909851082851183125DD775
:105923001209857402121AB31260FB700D7404120B
:105933001AE9125A0279110259FF9002F2E0240285
:105943009002F6F080149002F6E0FA9002F2E07909
:105953000024025001096A497072A8089002F2E01B
:10596300FAE82AFAE43400FBEE9AEF9B405A8516D4
:1059730082851783E0C0E09002F71257B1D0E0F0C0
:105983000508851682851783A3E0C0E0089002F717
:105993001257B1D0E0F005089002F2126D6F121D9C
:1059A30020126D68A8081260A212154F7402121A11
:1059B300B39002F2E02508F50874FF650C700474D7
:1059C300FF650D600302581AE508601F9002F6E0B8
:1059D300F5F0E50884125A1F12054DE9600990029B
:1059E300F7125DD71215D379008011E5097003759D
:1059F300090A7404121AE9125A02A90902609812D8
:105A0300623DE50CF0A3E50DF022A3A3126FFAAA01
:105A13000CAB0D22A3A3EAF0A3EBF0229002F5F066
:105A23007CF57D02851082851183125DDB2274EC87
:105A3300121B0D74FC121A9D12653E7402121B0395
:105A4300125DD11208AD8A0C8B0DEA450D7003026D
:105A53005B09125B19A818A919881089117810120B
:105A63001D207CFF7DFF790B850882850983125DEC
:105A7300D71209857402121AB3125C0F700C850ACF
:105A830082850B8312610C025B168E828F83A3A324
:105A9300A3A3E0F5127812121D24E4F512F513788E
:105AA30012121D207512F57513027812121D20783B
:105AB30010121D207409121AE9121D377409121AE3
:105AC300E9E0F9AC0CAD0D850882850983125DD739
:105AD300120A1B7409121AB3E9FE70157CF57D02D4
:105AE300850882850983125DD7120553E970098001
:105AF3002074166E70027E009002F6125DD71215A6
:105B0300D3EE7004800B7E01850A82850B831264B9
:105B13002BEEF9026440EE2402F508E43FF5092276
:105B230074EC121B0D74FC121A9DEAFEEBFF8C0E33
:105B33008D0FEE2405F508E43FF5097402121B03EB
