:020000040000FA
:0600000002011A02233D7B
:03002B000229E3C4
:030053000223B3D2
:03006B000229AFB8
:10008300022193E5C754F84401F5C7790122000022
:100093000080FB120086B90003020104E479217891
:1000A30008B800028004F709D8FCE479297802B87B
:1000B30000028004F709D8FCE490028178D979130F
:1000C3008002F0A3D8FCD9FA781A90014A7A01BACF
:1000D30000028007E493A3F608DAF97A597B1590B6
:1000E300014B788079038015E493A3AD82AE838AB4
:1000F300828B83F0A3AA82AB838D828E83D8E9D9C6
:10010300E775823D758392740412012C7582917593
:100113008300740012012C75D00075813F7518811E
:10012300751902759F00020096C09FF59FE473D076
:100133009F22D083D082C09FE493C0E0740193C018
:10014300E0740293F59F22011209426C6F6F6450B1
:10015300726573737572652053656E736F720512E2
:10016300C8004006020A0002010503021018426C8F
:100173006F6F6450726573737572652053656E7328
:100183006F72000F0F0F0F0F0E780050005A003CD4
:10019300000100040000201002020F900100000C77
:1001A30090021590010000A715024190000000B7CE
:1001B30002021790030000B502021590010000A887
:1001C30015023F90000000B802021790030000B927
:1001D30002021590010000A915023D90010000BB29
:1001E30002FF0000B4000028002800283075A0009A
:1001F300A000A000A00000080008E001F00010002B
:1002030010001000100010001000500050005000AB
:1002130010001000D0070000000000000F000100D4
:100223000500307507001000010081FF0000000089
:10023300FFFFFF180736071E075A07FF02020208CF
:10024300025000A0000000E803020F900100000626
:10025300900215900100004D16021990010000FD57
:10026300020215900100004E16021B9001000013BC
:10027300030215900100004F16021D9001000015A6
:10028300030215900100005016021F90080000168B
:10029300030215900100005116023B900100005229
:1002A30016FFFF0100FF20020F90010000099002DA
:1002B3001590010000B71602239000000000000211
:1002C300179003000046031700A40EA40EA40EA467
:1002D3000EA40EA40EA40EA40EA40EA40EA40EA48B
:1002E3000EA40E8C119E118611020202020202025A
:1002F3000202010D0000001001020F900100000333
:1003030090021590010000FA160245900100006367
:1003130007021590010000FB160231900100001343
:100323008F021590010000FC16022F9001000005BA
:100333008F021590010000FD16022D900100007F31
:100343008E021590010000FE16022B900100009111
:100353008E021590010000FF16022990010000B5DE
:100363008E0215900100000017022790010000A3E0
:100373008E0215900100000117022590010000F77D
:100383008E0215900100000217023790010000034E
:100393001701E8030577100AFFFFFF00013075031B
:1003A3000201060000000000000000000000000041
:1003B300000000000000000000000000000000FF3B
:1003C300FF0600800CE80312013571EF01120135BD
:1003D3007BF101120135E3F2011201351BF3011226
:1003E3000135B4F301120135E0F601120135AAF724
:1003F300011201352CF801120135DDF80112013526
:100403004EF90112013547FA0112013565FA01125D
:1004130001350FFB0112013538FB01120135C8FD0F
:10042300011201358AFE011201355EDF0312013527
:1004330039E0031201354CE00312013555E0031294
:100443000135B7E0031201350BE103120135C7E1B2
:10045300031201359DF403120135B0F40312013583
:10046300D1F4031201353CF5031201357DF5031276
:1004730001359EF503120135BFF50312013500F670
:100483000312013598F603120135E0F60312013524
:100493000BF70312013506EB0312013519EB0312B7
:1004A30001354AEB0312013584EB03120135DDEB11
:1004B3000312013524EC031201356CEC03120135F0
:1004C3009BEC03120135CAEC0312013501ED031253
:1004D300013548ED0312013561ED03120135B6ED27
:1004E30003120135CFED031201351DEE0312013561
:1004F30057EE0312013508C6021201350BC702126B
:10050300013538C70212013589C702120135ACC75C
:1005130002120135BEC702120135C1C702120135ED
:10052300FFC70212013535C802120135CCC80212C9
:10053300013538C90212013500CA021201351CCA3D
:100543000212013553CA021201358DCA0212013556
:1005530024CB0212013576CB02120135A7CB02124E
:100563000135AACB02120135DBCB02120135E8CBF0
:100573000212013500CC021201356ACC0212013598
:100583006DCC021201357ACC021201357DCC0212F8
:100593000135D4CC02120135E5CC021201351ECD52
:1005A3000212013521CD0212013555CD021201355A
:1005B30058CD02120135ACCD02120135F5CD021230
:1005C300013505CE0212013538CE0212013545CE72
:1005D3000212013548CE02120135B0CE02120135A6
:1005E300B2CF0212013556D002120135BFD002122A
:1005F3000135FDD00212013565DB031201358DDBB8
:1006030003120135BADB03120135F2DB03120135A4
:1006130050DC031201359CDC0312013503DD0312A8
:10062300013543DD0312013580DD03120135AEDDF3
:100633000312013558DE0312013562DE0312013560
:100643006FDE03120135A2DE03120135AEDE0312A3
:100653000135C6DE03120135D0DE03120135227FD8
:1006630000120135307F00120135487F0012013539
:100673005F7F00120135008002120135AA80021249
:100683000135BD81021201353982021201355783CA
:10069300021201359383021201352E8402120135B1
:1006A300128502120135DE85021201356C870212B2
:1006B3000135DD87021201359788021201358989D8
:1006C30002120135C989021201357D8A02120135F0
:1006D300AF8A02120135A58C02120135E78C021292
:1006E3000135058D021201356B8D021201353A8EEB
:1006F30002120135FE8E021201351D9102120135DF
:100703000A9903120135F499031201359F9A0312D2
:100713000135F09A03120135A09B03120135119C98
:1007230003120135F69C031201352A9D031201358C
:10073300239E03120135609E031201353C9F031271
:1007430001357B9F03120135979F03120135738691
:1007530004120135F786041201352287041201358C
:100763003C88041201354BE30312013561E30312A4
:1007730001357FE30312013590E4031201359AE456
:1007830003120135C5E503120135BCE60312013539
:1007930029E70312013567AC0312013597AD031244
:1007A3000135CEAD0312013518AE03120135DBAFAF
:1007B300031201354D6800120135FE680012013540
:1007C3001A6900120135DB6900120135106A001243
:1007D3000135896A00120135BD6A00120135C86A04
:1007E300001201359E6B001201357B6C001201353E
:1007F300D86C00120135686D001201351F6E0012AE
:1008030001352D71001201351C7300120135CE73B1
:1008130000120135977400120135DC77001201359F
:10082300867800120135AF79001201356B7B001217
:1008330001350B7C00120135597C00120135987C7F
:10084300001201356B7D001201359F7D00120135C9
:100853002C7E00120135BCB80112013548B90112D2
:100863000135ACBA01120135B8BA01120135F3BA38
:100873000112013562BB011201356BBC0112013556
:1008830074BD011201353BBE0112013598BF01123F
:100893000135B6BF01120135D3BF0112013580C046
:1008A30001120135FDC00112013525C101120135C7
:1008B300EFC301120135F4C3011201350DC6011254
:1008C30001355BC601120135CBC60112013509C7DB
:1008D30001120135E5C701120135A5C80112013521
:1008E300F1C801120135F4C80112013538C90112EA
:1008F300013580C901120135BFC901120135E1C9B2
:100903000112013515CA0112013578CA01120135E8
:10091300AAB103120135B3B103120135C1B10312F8
:10092300013514B20312013533B20312013578B223
:1009330003120135BCB30312013557B40312013559
:100943009BB403120135C5B40312013534B5031248
:1009530001357AB503120135F1B503120135A2B69B
:10096300031201351C2A001201352C2A001201350D
:10097300CD2A00120135292B00120135E62B001276
:100983000135022D00120135342D00120135632D7E
:1009930000120135102F0012013587310012013585
:1009A300F73300120135E93400120135E235001244
:1009B3000135E93700120135DD3A001201350C3CEF
:1009C30000120135103E00120135203F001201359F
:1009D300AF4000120135A04100120135EE41001273
:1009E30001355D4200120135814200120135D242C8
:1009F30000120135734700120135744800120135A6
:100A0300D54800120135004900120135C6490012CC
:100A130001355FD70312013569D703120135AED70C
:100A230003120135C2D70312013552D8031201351F
:100A33008BD803120135C6D803120135EFD8031240
:100A4300013543D90312013558D9031201357AD937
:100A5300031201358FD903120135A3D903120135CE
:100A6300B8D903120135F2D9031201351EDA031284
:100A73000135A5DA03120135E8DA0312013512DB79
:100A8300031201353DDB031201357A8E0412013561
:100A930033DC0212013516DD0212013591DD02123B
:100AA3000135CCDD021201351DDF02120135ABDF4A
:100AB300021201353DE202120135EFE20212013565
:100AC300FBE3021201356EE502120135C7E502129E
:100AD30001350FD30312013552D303120135D6D397
:100AE30003120135ADD60312013596FC031201350D
:100AF30048FD0312013544FE0312013583FE031240
:100B03000135DDFE031201356B8804120135CE88F1
:100B1300041201356B8904120135A08904120135D1
:100B2300D089041201350B8A041201352B8A041271
:100B3300013530C503120135BCC5031201357BC62F
:100B43000312013593C703120135ADC903120135F1
:100B530084BA02120135A9BA0212013576BB021218
:100B630001354ABC02120135B7BC02120135F7BC8C
:100B73000212013593BD02120135C7BE02120135BF
:100B8300A2BF0212013501C0021201358DC002124B
:100B93000135FBC00212013587C102120135CDC1F7
:100BA300021201353FC202120135D1C202120135D0
:100BB30072C30212013592C302120135DAC3021263
:100BC300013523C4021201353FC40212013565C445
:100BD30002120135DFC402120135EDC402120135E0
:100BE3007CC502120135E5C502120135E4C90312C1
:100BF300013569CA03120135ABCA031201358FCB24
:100C030003120135FCCB0312013540CC031201352D
:100C130084CC03120135B1CC03120135D9CC0312B4
:100C2300013511CD031201354FCD0312013576CDB8
:100C330003120135F0CD031201353ACE031201350B
:100C4300A4DD011201354CDF0112013579E10112F6
:100C53000135CDE101120135F8E101120135CAE296
:100C6300011201350EE30112013552E30112013580
:100C730065E301120135A6E301120135D3E3011245
:100C8300013521E40112013562E40112013590E4DA
:100C930001120135E3E4011201357AE50112013550
:100CA30064E8011201357AEA01120135B8EA01124A
:100CB30001354BEC0112013590EC0112013502EDC7
:100CC3000112013553ED011201358DED011201358C
:100CD30007EE011201353DEF011201354EEF01120E
:100CE300013558F002120135D7F002120135D0F662
:100CF30002120135D6F70212013549F90212013504
:100D0300E0F9021201354A90011201359390011264
:100D13000135C09001120135F29001120135FF90A7
:100D2300011201350B91011201351D91011201359B
:100D3300F891011201355692011201358B9201127D
:100D43000135C293011201350F9401120135339419
:100D530001120135A3940112013564950112013585
:100D6300279601120135959601120135529701120A
:100D73000135659701120135E39701120135769824
:100D8300011201359D9801120135059901120135B2
:100D9300569901120135AB9901120135549A01128A
:100DA3000135FF9A01120135AB9B011201351D9CE0
:100DB30001120135719C01120135D19C01120135DB
:100DC300019D01120135979D01120135BC9E01124F
:100DD3000135049F01120135219F01120135409F06
:100DE300011201356F9F0112013584A001120135F3
:100DF3000AA1011201352FA10112013544A10112EB
:100E03000135B7A101120135F8A10112013514A36F
:100E130001120135B5A30112013503A401120135F5
:100E23006DA40112013586A401120135008003125D
:100E330001355480031201356080031201352A8184
:100E430003120135578103120135858103120135E0
:100E5300F1810312013527820312013560820312E7
:100E63000135788203120135CD8203120135E68202
:100E7300031201352B83031201353E83031201351F
:100E83005883031201356E83031201358C840312D8
:100E93000135B78503120135A18603120135908709
:100EA30003120135112A001201353FAD021201353B
:100EB3006EAD0212013534B1021201358BB202124A
:100EC300013551B302120135D0B4021201359AB57E
:100ED30002120135ECB50212013506B602120135D4
:100EE30038B60212013543B6021201358CB602122E
:100EF300013595B60212013541B7021201351AB810
:100F03000212013561B802120135C9B80212013566
:100F13000BB90212013539B90212013574B9021243
:100F2300013550CB01120135CECE01120135D4CE9D
:100F33000112013529D50112013573D90112013589
:100F430059DD0112013533E703120135A9E7031215
:100F53000135BFE7031201354FE8031201358CE871
:100F630003120135C6E80312013500E90312013506
:100F730073E903120135B4E903120135BDE9031224
:100F83000135C9E903120135E8E90312013512EA13
:100F93000312013527EA031201354FEA0312013523
:100FA300B1EA03120135D8EA0312013571C0031205
:100FB300013584C0031201359EC003120135CBC035
:100FC3000312013511C10312013544C10312013566
:100FD30082C103120135E7C103120135FCC10312BB
:100FE300013507C20312013514C2031201352BC2A6
:100FF3000312013539C20312013544C2031201350C
:1010030050C20312013563C2031201356EC20312CB
:10101300013591C20312013535C30312013545C3AE
:10102300031201355FC3031201357CC3031201357B
:1010330097C303120135BCC303120135C7C303129F
:101043000135DCC303120135F0C30312013551C46A
:101053000312013557C4031201355DC40312013570
:1010630063C4031201357BC403120135AEC40312FA
:101073000135BC9F0212013553A002120135EBA0CA
:1010830002120135DBA10212013512A2021201354F
:1010930025A20212013593A2021201352EA40212D7
:1010A300013555A402120135F7A4021201352CA50E
:1010B300021201353DA502120135B6A50212013512
:1010C300D7A502120135EFA50212013547A7021277
:1010D300013550A902120135A0AB02120135A3ACB0
:1010E30002120135F2AC021201352A9102120135C6
:1010F3002792021201351293021201351C93021238
:1011030001353E93021201354A93021201359C9434
:1011130002120135CB9402120135FB9502120135FF
:101123003D96021201356997021201353F9802126A
:101133000135919802120135F09802120135279971
:1011430002120135629902120135FD9C021201352A
:10115300169D02120135989D02120135A69D0212B9
:101163000135FB9D02120135099E02120135769E5F
:1011730002120135E89E021201352E9F021201353B
:1011830023D10212013545D1021201352FD30212A8
:101193000135D4D60212013517D802120135F1D820
:1011A30002120135398A041201355E8A04120135AF
:1011B300CF8A04120135498903120135528903127A
:1011C30001355B89031201358C8A03120135AB8C1F
:1011D30003120135E18C031201351B8D0312013516
:1011E300518D031201358B8D03120135BF8D03120F
:1011F3000135EB8D03120135348E031201356E8EEA
:1012030003120135B68E031201350C8F031201351B
:10121300418F031201359C8F03120135D68F0312C0
:1012230001352790031201355D9003120135979024
:1012330003120135C59003120135E89003120135FD
:101243006A9004120135969004120135F19004124C
:101253000135FB90041201350B9104120135AEBB2D
:1012630003120135D5BB03120135B89104120135C0
:10127300324A00120135424D00120135D74E001299
:101283000135524F00120135FE4F00120135A150B6
:101293000012013539510012013568510012013530
:1012A300D551001201356D5600120135FF5600125B
:1012B30001353B5800120135A55800120135595923
:1012C300001201350F5C00120135495C0012013533
:1012D300B35C00120135105D001201356D5D001223
:1012E3000135CA5D00120135B55E00120135FB5EA2
:1012F30000120135465F00120135695F00120135A6
:10130300B06000120135C46000120135336200126F
:101313000135726200120135B262001201350563B4
:101323000012013526630012013564630012013592
:101333008A6500120135CB6500120135666600121D
:101343000135D8660012013519680012013554F7CA
:1013530003120135FAF703120135E7F803120135D9
:1013630026F90312013590F903120135EBFF02123E
:101373000135C4F1031201358FF4031201352793AC
:1013830004120135428D04120135528D04120135C8
:101393006C8D04120135748E04120135BFEE0312F5
:1013A300013567EF03120135A9F103120135EF8B04
:1013B30004120135218C04120135818C041201358C
:1013C300988C04120135F48C04120135318D04120A
:1013D3000135348D04120135B4B603120135D3B689
:1013E3000312013569B70312013567B803120135DA
:1013F300C7BA0312013527BB0312013590BB031291
:101403000135F87F00120135008004120135E081B7
:10141300041201354C8204120135BDFE011201355F
:10142300EEFE0112013518FF0112013538FF0112DA
:10143300013596FF011201357691031201358B9127
:1014430003120135E791031201355292031201355C
:101453009A92031201350C9303120135359303124B
:101463000135439303120135A59303120135E39329
:1014730003120135FE9303120135999403120135CA
:10148300429503120135C59503120135FE950312EA
:101493000135899603120135E096031201353E9713
:1014A3000312013550970312013576970312013564
:1014B3007F9703120135D698031201351591041253
:1014C3000135798404120135E084041201359D85C8
:1014D300041201351B86041201357ACE031201353D
:1014E300ADCE03120135DFCF0312013523D0031232
:1014F3000135E8D003120135C4D10312013532A6F8
:101503000312013510A7031201356CA7031201352D
:1015130086A70312013597A7031201359AAA03126E
:101523000135BAAA03120135FEF90312013543FA54
:101533000312013589FA0312013552FC03120135F6
:101543008E8F04120135A98F04120135B98F04124D
:1015530001351E900412013570E6021201354CE785
:101563000212013593E702120135D0E70212013569
:101573003EE80212013598E80212013508E9021229
:101583000135D8E902120135C7EA021201353EEBF3
:1015930002120135DAEC0212013567ED0212013550
:1015A300DAED0212013556EE021201356DEE02122A
:1015B300013592EF02120135ECEF02120135F89F6B
:1015C3000312013518A0031201351EA103120135C0
:1015D3006AA1031201358AA103120135DDA10312A9
:1015E30001354AA20312013590A203120135F4A278
:1015F30003120135A0A50312013521A603120135FB
:10160300B6A401120135E3A901120135E6AC0112BA
:1016130001350FAD0112013538AD01120135EAADC7
:1016230001120135D3AF011201351EB1011201358B
:1016330037B1011201356EB601120135A7B6011299
:101643000135EBB601120135FCB70112013508FF74
:10165300031201354F82041201351C840412013533
:101663000AFA021201352BFA0212013576FA021236
:10167300013561FF02120135979204120135DD92A3
:1016830004120135099304E066701008A3E0667044
:101693000A08A3E066700408A3E06622C3E796087D
:1016A30009E7960809E7960809E79622C3E0960832
:1016B300A3E09608A3E09608A3E09622C008C3E03F
:1016C30096F50808A3E096420808A3E096420808A6
:1016D300A3E09645087001D3D00822080808EAC0A1
:1016E300E0EBC0E086F0E7A4FA180986F0E7A42A45
:1016F300FA180986F0E7A42AFA180986F0E7A42A5B
:10170300FA1986F0E7A4FBE5F02AFA190886F0E750
:10171300A42BFBE5F03AFA190886F0E7A42BFBE5C6
:10172300F03AFA18180986F0E7A4C5F02BFBE43A5F
:10173300FA1908E7C5F0C6A426F6E5F03BFBE43A40
:10174300FA1886F0E7A4F6E5F00826F6E43B08F677
:10175300E43A08F6D0E0FBD0E0FA22E4CFC0E0E4BC
:10176300CEC0E0E4CDC0E0E4CCC0E075F020E626D6
:10177300F608E633F608E633F608E633F6181818E3
:10178300EC33FCED33FDEE33FEEF33FFC3EC97098F
:10179300ED9709EE9709EF97191919400FFFEC9789
:1017A300FC09ED97FD09EE97FE191906D5F0BFEC7C
:1017B300F709EDF709EEF709EFF7191919D0E0FC6E
:1017C300D0E0FDD0E0FED0E0FF226016080808C696
:1017D300C313C618C613C618C613C618C613C6D570
:1017E300E0EA227009080808226016181818C6C310
:1017F30033C608C633C608C633C608C633C6D5E0E3
:10180300EA22E627F60809E637F60809E637F60876
:1018130009E637F622E026F608A3E036F608A3E049
:1018230036F608A3E036F622E026F008A3E036F009
:1018330008A3E036F008A3E036F022C3E697F608E3
:1018430009E697F60809E697F60809E697F622C32C
:10185300E096F008A3E096F008A3E096F008A3E072
:1018630096F022E056F608A3E056F608A3E056F6F3
:1018730008A3E056F622E056F008A3E056F008A3CA
:10188300E056F008A3E056F022E0F608A3E0F608DD
:10189300A3E0F608A3E0F622E6F008A3E6F008A327
:1018A300E6F008A3E6F022E0FAA3E0FBA3E0FCA342
:1018B300E0FD22E0F8A3E0F9A3E0FAA3E0FB22E8CD
:1018C300F0A3E9F0A3EAF0A3EBF022CAC0E0E6F04C
:1018D300A308DAFAD0E0FA22CAC0E0E0A3C582CCBA
:1018E300C582C583CDC583F0A3C582CCC582C5831C
:1018F300CDC583DAE6D0E0CA22C3E498F8E499F9C7
:1019030012193D8026C3E49AFAE49BFBE920E7E938
:1019130012193DE498F8E499F922C3E498F8E4999C
:10192300F912193DE498F8E499F9C3E49AFAE49BAF
:10193300FB22EB20E7CFE920E7E0B90010BB00086A
:10194300E88AF084F8AAF022E4FBC8FA22EB7022BA
:101953007B10C833C8C933C9335007C39AC3DBF2FA
:1019630080069A50012ADBEAC833F4C8C933F4C9A4
:10197300FA2275F008E4C833C8C933C933C99AC910
:101983009B5004C92AC93BD5F0ECFBC833F4C8E427
:10199300C9FA22600D08C6A2E713C618C613C6D536
:1019A300E0F322600C08C6C313C618C613C6D5E0FD
:1019B300F422700422600D18C6C333C608C633C6AA
:1019C300D5E0F41822251810AF08F518400C1519A6
:1019D3008008F51840021519D2AF2200C0D025188F
:1019E30010AF08F518500C05198008F518500205BA
:1019F30019D2AFD0D0222518F58210AF08F51840C0
:101A03000C15198008F51840021519D2AF851983F2
:101A1300222518F582E43519F583222518F8E435D3
:101A230019F9222518FAE43519FB222518FCE435A7
:101A330019FD22E4732518C582C0E0E51934FFC5FA
:101A430083C0E0E518C3958224F810AF0885831995
:101A53008582188008858319858218D2AFCEF0A3BA
:101A6300E520F0A37808E608F0A3DEFAEFF0A3E59B
:101A73008124FAF8E608F0A3E608F0A3E608F0A349
:101A83000808E608F0A3E608F0A315811581D0E065
:101A9300FED0E0F8158115811581E8C0E0EEC0E0C5
:101AA300222518C582C0E0E51934FFC583C0E0E5EF
:101AB30018C3958224F910AF08858319858218808D
:101AC30008858319858218D2AFCEF0A3E520F0A351
:101AD3007808E608F0A3DEFAEFF0A3E58124FBF82B
:101AE300E608F0A3E608F0A30808E608F0A3E60872
:101AF300F0A315811581D0E0FED0E0F815811581A2
:101B0300E8C0E0EEC0E022851983851882E0A3FED9
:101B1300E0A3F5207808E0A3F608DFFAE0A3FFE0EE
:101B2300A3C0E0E0A3C0E0E0A3C0E0E0A3C0E0E026
:101B3300A3C0E010AF0885821885831980088582C9
:101B430018858319D2AFD083D082020132851983DD
:101B5300851882E0A3FEE0A3F5207808E0A3F60849
:101B6300DFFAE0A3FFE0A3C0E0E0A3C0E0E0A3C08E
:101B7300E0E0A3C0E010AF088582188583198008D0
:101B8300858218858319D2AFD083D08222C0D02515
:101B930018C582C0E0E51934FFC583C0E0E518C36A
:101BA300958224F310AF08858319858218800885F0
:101BB3008319858218D2AFC8F0A3E9F0A3EAF0A392
:101BC300EBF0A37908E709F0A3D8FAECF0A3EDF062
:101BD300A3EEF0A3EFF0A3D0E0F0A3D0E0F0A3D006
:101BE300E0F0A3E520F0A3E5F0F0A32285198385B7
:101BF3001882E0C0E0A3E0F9A3E0FAA3E0FBA37836
:101C030008E0F608A3DFFAE0FCA3E0FDA3E0FEA3EF
:101C1300E0FFA3E0C0E0A3E0C0E0A3E0F5D0A3E0D1
:101C2300F520A3E0A3F5F010AF088583198582188A
:101C33008008858319858218D2AFD082D083D0E003
:101C4300F8D0E03274048006740280027401C0E0AC
:101C5300F4041219F9D0E01218CE2274048004742B
:101C6300028000CCC0E0EDC0E0E518C39CCCAD1908
:101C730050011D10AF068C188D1980068C188D1914
:101C8300D2AF1218DBD0E0FDD0E0FC22D083D082AB
:101C9300E9C0E0E493A3C386F0C5F095F0F908E446
:101CA30093A386F0C5F095F0700BE493A3C399401A
:101CB30005E9048002A3E475F002A42582F582E518
:101CC300F03583F583D0E0F9E493A3C0E0E493C057
:101CD300E022D083D082ECC0E0EDC0E0E493A3FC2B
:101CE300E493A3FDED4C600D121D21EC24FFFCEDEC
:101CF30034FFFD80EFE493A3FCE493A3FDED4C607C
:101D03000D121D60EC24FFFCED34FFFD80EFD0E0ED
:101D1300FDD0E0FCE493A3C0E0E493C0E022C0E084
:101D2300C3E49396087401939618400FE493667086
:101D33000808740193661870007019A3A3C3E49391
:101D430096087401939618A3A3400DD0E0D0E0D079
:101D5300E0021D11A3A3A3A3A3A3D0E022C0E0C06C
:101D6300F088F0E4936670080874019366187000B5
:101D7300A8F0A3A3700BD0F0D0E0D0E0D0E0021D18
:081D830011A3A3D0F0D0E0226F
:101D8C0074F6121AA4EAFEEBFF8C088D09EE2434CB
:101D9C00F8E43FF9E8FCE9FD121EBFE0FAEE243747
:101DAC00F582E43FF583E0F88508F0A4C885F00AD5
:101DBC008509F0A4250AF9EA28F8E439F97A257B93
:101DCC000012193DEA8C828D83F0FA131313541F01
:101DDC00F8EE28F8E43FF9E8245DF582E439F58360
:101DEC00E0C0E074075AF8D0E0B800028004C313D6
:101DFC00D8FCA2E05003EA8020EE2436F582E43FC2
:101E0C00F583E0F5F0EA84A8F0EE28F8E43FF9E871
:101E1C002438F582E439F583E0F97F03021B507412
:101E2C00F5121AA4EAFEEBFFEE2434F582E43FF53A
:101E3C0083E0C0E0121EBFD0E0F08E828F83A3A39C
:101E4C00A3A3A3E0FAA3E0FB8E828F83A3A3A3A397
:101E5C00A3A3A3E0FCA3E0FDECC39AF50AED9BF56C
:101E6C000BEE247FF508E43FF509850882F583E045
:101E7C006401702AEE2480F582E43FF583121C6223
:101E8C00121EC974021219DEE960137CF07D04EE97
:101E9C00FAEFFB120DC0850882850983E4F0AC0AC9
:101EAC00AD0BEEFAEFFB121D8CE9F91229A17F04A0
:101EBC00021B50EE2435F582E43FF58322C082C02C
:101ECC0083851882851983E0F8A3E0F9C3EA9CEBBB
:101EDC009D5010C3EC98ED99401BC3EA98EB9950B8
:101EEC0014800EC3EA98EB994007C3EC98ED994027
:101EFC0004790180027900D083D08222EAC39CFA53
:101F0C00EB9DFB2274ED121AA49003B6E0640860FA
:101F1C0005E06407702C9061C8E060269003E4E053
:101F2C00F874FF68601CE875F00AA4C8AAF02AF9D6
:101F3C0074E628FE740339FF8E828F83A3A3A3E07B
:101F4C00700579000220A9EE2468F50EE43FF50F28
:101F5C00906060E0850E82850F83F07510607511BE
:101F6C0005750800750900E5D914F50AE5D954037F
:101F7C00F50B601FEE2482F50CE43FF50D74036540
:101F8C000B6059E50A6017EE2467F582E43FF58390
:101F9C00E0700B793DEEFAEFFB120DF080A490058A
:101FAC005BE064016023850C82850D83E060047A1C
:101FBC000480027A00E50AC39AFA95E0FB120C52EF
:101FCC008A088B09EA45097006121054021F4E85C7
:101FDC000C82850D83E070048A108B117A008014BA
:101FEC00E5D9C0E0EAF8E51028F582E43511F5836F
:101FFC00D0E0F00AEAC3950A40E6850C82850D8391
:10200C00E0602874FC250AF50A7810121C4BAC0A07
:10201C00A90BEEFAEFFB120E9E74021219DEE97098
:10202C000AAA08AB091214C8021F9F7403650B603F
:10203C0054850A0C750D00780C121C4BAC10AD11AC
:10204C00AA08AB09120E6274021219DE850E828583
:10205C000F83E0F87480687005750C7F8002880C23
:10206C00E50CF50D780D121C4F780B121C4FA90ABC
:10207C00AC08AD099003E4E0FA7B00120A8A740202
:10208C001219DE80139003B6E06408600BAC10AD3F
:10209C0011EEFAEFFB120F3412106079017F0C0273
:1020AC001B5074F3121AA474FC1219C8EAFEEBFF4D
:1020BC008909A2AFE433F508C2AFEE2463F50AE454
:1020CC003FF50B8010AA0AAB0B120E1A1214C89013
:1020DC0004F7E004F0850A82850B83E0F8A3E0F9AD
:1020EC00E849602DE82402FAE439FBEA2402F50CF5
:1020FC00E43BF50D780C121C4B8A828B83E0FCA31D
:10210C00E0F9EEFAEFFB120E0E74021219DEE96022
:10211C00B49004F7E0604D9004F8E0F89004F7E018
:10212C00C398500C74026509703A9004F9E060345D
:10213C008E828F83A3A3A3A3E085188285198312B3
:10214C0021807402121A14E81221809004F6E028FF
:10215C00F07402121A2EAA18AB197901120ADE9029
:10216C0004F7E4F0E508A2E092AF74041219DE7FE4
:10217C0006021B50F0A3E4F09004F7E0F8220000F4
:10218C008521878522C622C0E074EB121B90A2AF7A
:10219C00E433F508C2AF759B00906182E0A2E05079
:1021AC0030E591A2E0502A7591FE740165217021F1
:1021BC00122326120F8E122314121C5E12274B743C
:1021CC00041219DEE9640170057901120FE8121F7F
:1021DC0010906182E0A2E5505DE591A2E550577543
:1021EC0091DF9003B6E064076005E06408702F127D
:1021FC00232674016521703E120F8E122314121CBB
:10220C005E12274B74041219DEE964017005790122
:10221C00120FE87901EEFAEFFB1220AE8018E064A1
:10222C000D70139003D8E004F064287002E4F07A87
:10223C0000E0F9121066906182E0A2E640030222EF
:10224C00E9E591A2E640030222E97591BF9003B63D
:10225C00E064057008120F76120F828003120F7C57
:10226C00752100120FF4E99003B7F07900120FE812
:10227C00120D2A7A017B009003B5E0F912149290AA
:10228C007803E06442705690055FE014F0704EC223
:10229C00AF1222A000782AD0E0F618D0E0F6E59F25
:1022AC005407F87005750DFF8003750D7FC4C0E0F1
:1022BC007829E6F50A08E6550DF50B740B780A1229
:1022CC0019A6D0E0250AF8906270E0A2E740F8E881
:1022DC00C333906272F0906270E0D2E0F090618152
:1022EC00E0A2E35009E5E9A2E3500375E9F7A3E0A6
:1022FC00A2E75009E591A2E7500375917FE508A28A
:10230C00E092AF7F08021BEF8E828F83E0F8A3E090
:10231C00C82416F582E438F583229003E4E0F875BE
:10232C00F00AA4C8AAF02AF974E628FE740339FF4F
:10233C0022C0E0C0D0C082C083906183E0A2E05094
:10234C0009E5BFA2E0500375BFFEE0A2E15009E52C
:10235C00BFA2E1500375BFFDE0A2E25009E5BFA2A8
:10236C00E2500375BFFBE0A2E35009E5BFA2E350C6
:10237C000375BFF7E0A2E45009E5BFA2E450037572
:10238C00BFEFE0A2E55009E5BFA2E5500375BFDF42
:10239C00E0A2E65009E5BFA2E6500375BFBFD083AB
:1023AC00D082D0D0D0E032C0E074F2121B90E5A7FE
:1023BC00A2E4500FE5A1A2E4500953A7EF75A1EFD9
:1023CC00122407E5A7A2E5500CE5A1A2E55006539F
:1023DC00A7DF75A1DFE5A7A2E15009E5A1A2E150B5
:1023EC000375A1FDE5A7A2E2500CE5A1A2E25006FF
:1023FC0053A7FB75A1FB7F01021BEF74F8121AA403
:10240C007521019003B6E0640670077A007B001218
:10241C000F5EA2AFE433FED2AF9003BCE064017058
:10242C00187A207B009003B5E0F91215E27A207B34
:10243C00009003B5E0F9121498906182E0D2E6F0B6
:10244C0090055CE0602185C62280169003BBE06499
:10245C00017008E5C654F84405F5C653BEFC1221BC
:10246C008C7401652160E4EEA2E092AF7F01021B47
:10247C00500000008E238F248582288583278518A1
:10248C0082851983E0CEA3E0CF852882852783EB54
:10249C00C9EAC8EDCBECCA75F010C3E833C8E93310
:1024AC00C9EA33CAEB33CBC3EA9EF526EB9FF5257D
:1024BC00B35004AB25AA26EC33CCED33CDD5F0DAF2
:1024CC00AE23AF242274E9121AA474FA1219C8EAC2
:1024DC00FEEBFF8C088D09120FA0EAF8EBF9ECFA71
:1024EC00EDFB8E828F831218C29003B6E024F7C3E3
:1024FC0094055006751001022608120ED48A0A8B18
:10250C000BEA450B7003022605120F948A0C8B0DF7
:10251C00120F94EA650C7003EB650D60ECEEFCEFAA
:10252C00FDAA18AB19120F9A850A82850B83A3A3F7
:10253C00780C12188C908F53780C121866851882B0
:10254C00851983781412188C908F5378141218668E
:10255C00780C791412169F501F780C791412183EAF
:10256C00908F93780C1216BF4047850C10850D1177
:10257C00850E12850F138045908F93851410851549
:10258C00118516128517137810790C12183E7810D5
:10259C001216BF501C7510007511007512007513C2
:1025AC00017810791412183E7810790C12180580E5
:1025BC000C751001751100751200751300740978F3
:1025CC00101217E6908FD3780C12188C7810790CA7
:1025DC0012175E9003B6E06408600AE064066005BA
:1025EC00E064057020908F9778101216BF501690EB
:1025FC008F9B7810121818800C75100075110075CF
:10260C001200751300850882850983781012189BB7
:10261C0074061219DE7F10021B5074F7121AA412E2
:10262C000FB290055AE064017010906245E4F0A37B
:10263C00F053F4F343FE0C5390F3120F4CE5C654D5
:10264C00B84441F5C6E59E5447644170F8906185E5
:10265C00740FF0900558E0F47002A3E0602C75083C
:10266C0001750900900558E078081219B5E508F4D1
:10267C00FAA3E0600814600A14600C800DEA528022
:10268C008008EA52908003EA52A079007F02021B74
:10269C005074F7121AA4E9FEEAFF74016E700C7AFA
:1026AC00807B009003B5E0F9121492902A14E49305
:1026BC00F46008E493F9120D0C800953C6B8E59E3A
:1026CC00544770FA120F5290055AE06401700312CD
:1026DC000D42900558E0F47002A3E0602B750801E0
:1026EC00750900900558E078081219B5E508FAA3A9
:1026FC00E0600814600A14600C800DEA42808008C7
:10270C00EA42908003EA42A0120ED48A088B09A8F0
:10271C0008A909E8496016E5E170FCE82414F58283
:10272C00E439F583E0F874FF68600288E174016FA6
:10273C00700A7A019003B5E0F912154C02269874D0
:10274C00F1121AA48A088B098C0A8D0B908F53787E
:10275C0008121866740F121A14780C12188C908FB9
:10276C0053780C1218667808790C12169F908F9378
:10277C0050107808790C12183E78081216BF4014C5
:10278C00800E780C790812183E780C1216BF500483
:10279C007901800279007F08021B5074ED121AA493
:1027AC008A088B098C0A8D0B908F53780812186647
:1027BC007413121A14780C12188C908F53780C1204
:1027CC001866780C790812169F40117808790C124B
:1027DC00183EAA08AB09AC0AAD0B80227510007527
:1027EC0011007512007513017810790C12183E78CF
:1027FC00107908121805AA10AB11AC12AD137F0C8E
:10280C00021B50908F53780812188C8A828B837815
:10281C00081218797F04021B5074F5121AA48C82CA
:10282C008D83780812188C8A828B83780812185240
:10283C00122879C3E098F0A3E09912286B401E90FF
:10284C008FF7780812188C8A828B83780812182BD1
:10285C008E828F83E02420F0A3E0344EF080A4F02D
:10286C008E828F83C3E09420A3E0944E22EA24044A
:10287C00F8E43BF9E8FEE9FF8C828D83A3A3A3A3C4
:10288C00E0F8A3E0F98E828F832274F5121AA4E982
:10289C00FE900512E0FAA3E0FBEE29F8E433F9749C
:1028AC00E728F582748E39F583E02AF508A3E03B1E
:1028BC00F5097808121C4B908FDB1218AA12248091
:1028CC0074021219DE8A088B098C0A8D0B7410782D
:1028DC00081217CDAA08AB097F04021B5074F11221
:1028EC001AA48A0C8B0D8C0E8D0F7411121A1412E3
:1028FC001C627411121A14E02401F508A3E03400D0
:10290C00F509E4F50AF50B780C79081216DE908FB0
:10291C00A7780812188C780C79081216DEAA0CAB62
:10292C000DAC0EAD0F12248074021219DE8B09EA65
:10293C00450960047A0180027A00EC2AFCE43DFD32
:10294C007413121A14E0F8A3E0F9E8FEE9FFECF8AE
:10295C00EDF97A717B0212193D88088909E4F50AB0
:10296C00F50B8E828F83780812189BECF8EDF97AB0
:10297C00717B0212193D8A088B09740578081219AB
:10298C00B58E828F83A3A3A3A3E508F0A3E509F07A
:10299C007F08021B50C082C083E9906000F0D08396
:1029AC00D08222C0E074F2121B90A2AFE433FED2AC
:1029BC00AFE589A2E04006E589A2E150031213C6F7
:1029CC00758900758900C2C5751A00EEF8EEA2E093
:1029DC0092AF7F01021BEFC0E0C0D0E8C0E0E9C0BD
:1029EC00E0A2AFE433F8D2AFC2C7751A00E8F9E839
:1029FC00A2E092AFD0E0F9D0E0F8D0D0D0E032C273
:102A0C00AF02000022020132FFFFFFFFFFFFFFFFBA
:102A1C00C082C083E99016B6F0D083D08202013216
:102A2C0074F6121A38E9900328F0900388E0F50840
:102A3C00750900740278081219B5AA08AB091215A9
:102A4C00349003291233DF9003291237CC606F9036
:102A5C000388E075F003A4FAABF01215349003462A
:102A6C001233DF9003461237CC700B9003291237C8
:102A7C009D12153A80489003461247317AFF7BFF2E
:102A8C0012134E7A0080198A0875090074027808AE
:102A9C001219B51241D974FF122BDFE4F0A3F00A1E
:102AAC00900388E0F8EAC39840DD790512097C9020
:102ABC000328E0F91208627A067B0A120BF2024232
:102ACC007C74F4121A388A088B09EB548060479096
:102ADC000328E0F912147A8A0A8B0BAE0AAF0BEEBC
:102AEC004F602A8E828F83E064B0701A12098EE9CF
:102AFC0060148E828F83A3A3A3A3E0F9EE2405FABE
:102B0C00E43FFB12095EEEFAEFFB121468AA08E52B
:102B1C00096480FB80047A007B00022D2F74F21272
:102B2C001A3874FB1219C8EAFEEBFFEE4F604574BD
:102B3C0003121A14EEF0A3EFF0851882851983ECBA
:102B4C00F0A3EDF07402121A14E9F0AA18AB1912E2
:102B5C00085CE9F50870757413121A14E0F50AA3F1
:102B6C00E0F50BE50A450B60638E828F83123168AA
:102B7C00EE4F700575080280537A067B00121534EF
:102B8C008A0C8B0DA80CA90DE849700575081380EB
:102B9C003B88828983E4122BDFEEF0A3EF122CFB2F
:102BAC00E50AF0A3E50BF090032C122CF490032C07
:102BBC006017E0FCA3E08003EAFCEBFD8C828D83C4
:102BCC00122CF470F38C828D83123DF4A9087405D9
:102BDC000249B1F0A3124713A32274F2121A3889D6
:102BEC0008890C750D007403780C1219B5850C0A44
:102BFC00850D0B90032BF0900329123BFF122CF246
:102C0C00602E12153A7900801D890C750D00740226
:102C1C00780C1219B59003291240988882F583A379
:102C2C00A3E4F0A3F009900388E0F8E9C39840D935
:102C3C00900388E0FA850AF0A4CAA8F0850BF0A4EA
:102C4C0028FB1215348A0C8B0DAE0CAF0DEE4F70A9
:102C5C0003022CE8900388E0FC850AF0A4CCA8F0D1
:102C6C00850BF0A428FD79001214567C0080318D60
:102C7C000C750D007403780C1219B58A828B8312B3
:102C8C002CED88828983E4F0122CFAA3A3F0A3F034
:102C9C000DEDC3950840D8EE250AFEEF350BFF0C61
:102CAC00900388E0F8ECC39850288C0C750D0074D8
:102CBC0002780C1219B5900329122CEDE82402505D
:102CCC000109FAE9FB8A828B83EEF0A3EFF07D0019
:102CDC0080BFE50890032BF079008002791302493C
:102CEC00B412409CF922A3A31237A1EA4B22A312DF
:102CFC004713A3A3A32274F4121A387900EAA2E0B2
:102D0C00501F75084175098F7808121C4B79107C7F
:102D1C00047D007AB87B1612097674021219DEE96A
:102D2C00F980007F04021B0AC082C08390032C121E
:102D3C0037CC601C88828983A3A3E06A7003A3E06C
:102D4C006B8882898370E8A3A3A3A312379D8004A8
:102D5C007A007B00022A2574F2121A3874FD1219BB
:102D6C00C8EAFEEBFF851882851983E4F0A3F074A2
:102D7C0002121A147401F01237C97014120B2C12AF
:102D8C00153490032F1233DF1237C97003022EF55E
:102D9C001234DFEE2404F50AE43FF50B850A82F5C4
:102DAC0083E024FE603C24FC607424FE607E24FEE0
:102DBC007003022E4524FE7003022E5224FE700373
:102DCC00022E5F24FE7003022E6C24FE7003022E72
:102DDC007924FC7003022E9A24FE7003022EB20298
:102DEC002EEE120B2C900331EAF0A3EB122F0112F2
:102DFC0004A2E96003022EEE900331121C628E8253
:102E0C008F83A3A3A3A3A3124731850882850983CB
:102E1C0012379D12094674021219DE022EEEAC18FE
:102E2C00AD19EEFAEFFB120994022EBDAC18AD19D8
:102E3C00EEFAEFFB12099A8078AC18AD19EEFAEFA6
:102E4C00FB1209A0806BAC18AD19EEFAEFFB12095E
:102E5C00A6805EAC18AD19EEFAEFFB1209AC8051EE
:102E6C00AC18AD19EEFAEFFB1209B28044740212E1
:102E7C001A1E880C890D780C121C4B7402121A2E17
:102E8C00EEFAEFFB1209B874021219DE8023AC18AB
:102E9C00AD19EEFAEFFB1209BEE9F87016740212C6
:102EAC001A14E4F0803CAC18AD19EEFAEFFB1209E1
:102EBC00C4E9F8E8602C8E828F83A3E0641460224E
:102ECC00850A82850B83E0900331F0851882851981
:102EDC008312379D9003321233DFE8A3122F0112B5
:102EEC00049CEEFAEFFB12091C7402121A14E0F99E
:102EFC0074030249B1F07C317D0385088285098316
:102F0C001237A12274E8121A3874FA1219C8740410
:102F1C00121A14ECF0A3EDF08A128B13EA2405F5C7
:102F2C000EE43513F50FEA2402F510E43513F51110
:102F3C00851082F58312379D1205F28A0A8B0B7568
:102F4C0008007C037D0079007A317B03121456E56E
:102F5C000E2402F516E4350FF5177402121A1E88AA
:102F6C000C890D780C121C4B850E82850F83A3A344
:102F7C00A3A3E0F50C750D00780C121C4BE50E2488
:102F8C0005F50CE4350FF50D780C121C4B851682EB
:102F9C00851783123AA412087A74061219DE8A0C69
:102FAC008B0DE50C450D70030231318020851882A4
:102FBC00851983E088828983F00508851882851934
:102FCC0083A3E0C0E0123172D0E0F00508E50A24DA
:102FDC00FBFAE50B34FFFBC3E5089AE49B400302C4
:102FEC0031317E007F00851282851383A3A3A3A3B6
:102FFC00E0F5097809121C4FE4F514F51578141254
:10300C001C4B75142E7515037814121C4B90032F42
:10301C00121C627409121A14121C62E50A24F9F9C2
:10302C00AC0CAD0D85108285118312379D1209EE03
:10303C0074091219DEE960030230D2850E82850F05
:10304C0083A3A3A3A3A3A3A3E0F890032EE068702B
:10305C0075E0F5148E157814121C4B12472E850E44
:10306C0082850F83A3A3A3A3A3A3A3A312379D12AB
:10307C00145074021219DEE9604C9003321237CCF2
:10308C00703BE4F5147814121C4B7CFF7DFF790720
:10309C0085108285118312379D12095874021219FA
:1030AC00DE1237D27017850E82850F831248CB74CF
:1030BC0004121A1412418C123AD5023165850C8215
:1030CC00850D83123168A818A919881489157814EC
:1030DC00121C4B7404121A14121C6285168285176A
:1030EC00831233D512088674041219DE8A0C8B0DE8
:1030FC00EE4F7003022FAE123172EE12317D123A86
:10310C008BEF12317DF8A3E03400F9E50C450D602E
:10311C0003022FB98882898374FFF005081231727B
:10312C0074FFF00508E508601A1313543F1233E5D9
:10313C001204AEE9600990033212379D1214C8795B
:10314C00008016850E82850F831248CB7404121AE8
:10315C001412418C123DF4790A023A5EA3A3A3A384
:10316C00E0FEA3E0FF22A808900332E028123A8B7D
:10317C0022F0050808900332E0282274E8121A386D
:10318C0074FA1219C87402121A141233DF7404126E
:10319C001A14ECF0A3EDF07402121A14E0240512C8
:1031AC003A74E0F50CA3E0F50D7402121A14E02445
:1031BC0002F510A3E03400F511851082F583123767
:1031CC009D1205F2750800750900EA24FCFEEB342B
:1031DC00FFFF8008050CE50C7002050DA808C3EE76
:1031EC0098EF94005003023391A818A919880E89FE
:1031FC000F780E121C4B851482851583A3A3A3A3F1
:10320C00124735121C4BE5142405F50EE43515F563
:10321C000F780E121C4B8514828515831233D31232
:10322C00087A74061219DE8A0E8B0FEA450F7003AA
:10323C00023391EA2404F516E4350FF5178516824E
:10324C00F583E0F50CA3E0F50D8518828519831242
:10325C0047318A828B83A3A3A3E0F9851082851161
:10326C008312379D120868E9F509600302339174E3
:10327C0002121A14123A9BF5097809121C4FE4F544
:10328C0012F5137812121C4B75122E75130378124B
:10329C00121C4B90032F121C627407121A14121C6E
:1032AC0062EEF9AC0EAD0F85108285118312379D3D
:1032BC001209EE74091219DEE9F509600302339163
:1032CC00E508703FE4F50EF50F780E121C4B7CFFF1
:1032DC007DFF790985108285118312379D1209585B
:1032EC0074021219DE123AC1700D7404121A1412FF
:1032FC0033C879110233C590032EE02402900332B7
:10330C00F08014900332E0FA90032EE0790024024E
:10331C005001096A497072A80890032EE0FAE82A55
:10332C00FAE43400FBEE9AEF9B405A85168285171F
:10333C0083E0C0E0900333123177D0E0F0050885CC
:10334C001682851783A3E0C0E0089003331231770F
:10335C00D0E0F0050890032E124735121C4B124793
:10336C002EA808123A6812143E74021219DE900349
:10337C002EE02508F50874FF650C700474FF650DCC
:10338C0060030231E0E508601F900332E0F5F0E5E0
:10339C0008841233E51204B4E96009900333123740
:1033AC009D1214C879008011E509700375090A741F
:1033BC0004121A141233C8A909023A5E123C03E52E
:1033CC000CF0A3E50DF022A3A31249C0AA0CAB0D7F
:1033DC0022A3A3EAF0A3EBF022900331F07C317D21
:1033EC00038510828511831237A12274EC121A38CE
:1033FC0074FC1219C8123F047402121A2E12379759
:10340C001208808A0C8B0DEA450D70030234CF1222
:10341C0034DFA818A919881089117810121C4B7C5C
:10342C00FF7DFF790B85088285098312379D120970
:10343C005874021219DE1235D5700C850A82850B70
:10344C0083123AD20234DC8E828F83A3A3A3A3E02F
:10345C00F5127812121C4FE4F512F5137812121CA7
:10346C004B7512317513037812121C4B7810121C09
:10347C004B7409121A14121C627409121A14E0F912
:10348C00AC0CAD0D85088285098312379D1209EEAF
:10349C0074091219DEE9FE70157C317D03850882F2
:1034AC0085098312379D1204BAE9700980207416BD
:1034BC006E70027E0090033212379D1214C8EE70AB
:1034CC0004800B7E01850A82850B83123DF1EEF997
:1034DC00023E06EE2402F508E43FF5092274EC12D4
:1034EC001A3874FC1219C8EAFEEBFF8C0E8D0FEE25
:1034FC002405F508E43FF5097402121A2E8508829A
:10350C0085098312379D1208808A0C8B0DEA450DB4
:10351C0070030235C5EE2402F50AE43FF50BA8183A
:10352C00A919881089117810121C4B7CFF7DFF792A
:10353C000D12379712095874021219DE1235D57014
:10354C000B850882850983123AD2807A8E828F830A
:10355C00A3A3A3A3E0F5127812121C4F8508828551
:10356C000983A3A3121C627512317513037812120E
:10357C001C4B7810121C4B7409121A14121C627416
:10358C0009121A14E0F91237931209EE7409121980
:10359C00DEE9FE700F7C317D031237971204C0E90F
:1035AC007009802074166E70027E00900332123700
:1035BC009D1214C8EE7004800B7E0185088285096B
:1035CC0083123DF1EEF9023E061237DCF510A3E052
:1035DC00F511EA45112274E8121A3874FE1219C852
:1035EC008A168B178C148D15EA2405F50CE4351707
:1035FC00F50DEA2402F50EE43517F50F850E82F56C
:10360C008312379D1205F28A088B09750B007C0317
:10361C007D0079007A317B03121456750A00E50897
:10362C0014F5100424FFF508E50934FFF50980545E
:10363C00900331E0FA90032EE0F8EA28F8E4340025
:10364C00F9E50898E50999500D900331E0F8E5107B
:10365C00C39890032EF0E0F5127513007812121C2B
:10366C004B12472E900332E02AFAA3E03400FB12EF
:10367C00143E74021219DE90032EE0F8900331E030
:10368C0028F0050A850C82850D83A3A31240A8405F
:10369C0003023778900331E0C39508E495094003A1
:1036AC00023778AE0AEE2EFEE433FF1237B7AC18B1
:1036BC00AD19124749E439FB1208808A128B13ACFE
:1036CC0012AD13EC4D701B750B011237A7123DF5A3
:1036DC00900332122CF460031214C8A90B7402026A
:1036EC003A60851682851783A3A3A3A3E0F50B7814
:1036FC000B121C4FE4F512F5137812121C4B7512B9
:10370C002E7513037812121C4B90032F121C62742B
:10371C0007121A14121C62A910850E82850F8312CF
:10372C00379D1209EE74091219DEE9F50B709B90A6
:10373C0003321237CC600302363CE4F512F51378F1
:10374C0012121C4B7CFF7DFF790F850E82850F8337
:10375C0012379D12095874021219DE1237D2600307
:10376C0002363C1237A7123AD60236E97C317D0379
:10377C00850E82850F8312379D1204C6E960030201
:10378C0036DC79000236E9AC0CAD0D850A82850B6E
:10379C00831237A122E0FAA3E0FB221237B7E0FA3A
:1037AC00A3E0F9EA85148285158322850C82850DA8
:1037BC0083E02EF8A3E03FF9888289832290032FBF
:1037CC001248CFE849221237DCF8A3E0F9E8492285
:1037DC00900332EAF0A3EBF0900332E02274E8128B
:1037EC001A3874FA1219C87404121A141233DF8CB2
:1037FC00168D177404121A14E02405F50EA3E03488
:10380C0000F50F7404121A14E02402123A741237E1
:10381C009D1205F28A0A8B0B7F007E00A818A9194D
:10382C00880889097808121C4B850E82850F83A3A2
:10383C00A3A3A3E0F5088E097808121C4BE50E240F
:10384C0005F508E4350FF5097808121C4B850E8236
:10385C00850F83A3A3123AA412087A74061219DEF8
:10386C008A0C8B0D8029123A95F00F123A95F00FB5
:10387C0090032E123DE0121C4B12472EEFF8123A19
:10388C006812143E74021219DE90032EE02FFFE52D
:10389C000C450D7003023924851882851983123F5B
:1038AC0016A3A3A3E0F985148285158312379D1204
:1038BC000868E9FEE50C2404F510E4350DF511EE6D
:1038CC0070507404121A14123A9BF5087808121CE2
:1038DC004FE4F508F5097808121C4B75082E75098C
:1038EC00037808121C4B90032F121C627407121AD7
:1038FC0014121C62E50A24FAF9AC0CAD0D85148285
:10390C0085158312379D1209EE74091219DEE9FE32
:10391C006039123AB1123DF4EF7003023A4B900346
:10392C0032E0F5F0EF84900331F07C317D038514A7
:10393C008285158312379D1204CCE96009900333FC
:10394C0012379D1214C87900023A5E8F08EF703B53
:10395C00E4F512F5137812121C4B7CFF7DFF7911E4
:10396C0085148285158312379D1209587402121919
:10397C00DE123AC17009123AB1123AD5023A5E908F
:10398C00032EE02404900332F0803590032EE0F8EF
:10399C00900332E0FAE82404FCE43400FDEC6A4DB8
:1039AC00600302392AE50A24FAFAE50B34FFFBE539
:1039BC000828F8E43400F9EA98EB99500302392A04
:1039CC00851082851183E0C0E0900333E02FF8A3CB
:1039DC00E034008882F583D0E0F00F8510828511E9
:1039EC0083A3E0C0E0123A82D0E0F00F7402121A06
:1039FC001E880889097808121C4B7402121A1412BA
:103A0C001C62850E82850F831233D31208867404D0
:103A1C001219DE8A0C8B0DEA450D70030238727494
:103A2C0002121A14E0C0E0123A82D0E0F00F7402D5
:103A3C00121A14A3E0C0E0123A82D0E002387AEEF7
:103A4C0070027E0A850E82850F83123AB7123DF4FE
:103A5C00EEF974061219DE7F10021B0A900333E094
:103A6C0028FAA3E03400FB22F514A3E03400F5158A
:103A7C00851482F58322123A8622900333E02FFAC2
:103A8C00A3E034008A82F58322123A8674FF221254
:103A9C003C03A3A3A3A3E0221249C0850E82850F89
:103AAC00831237A1228510828511831248CF851687
:103ABC008285178322900333EAF0A3EBF090033353
:103ACC001248CFE84922123DFAE8F0A3E9F0791147
:103ADC002274EA121A3874FE1219C88A088B098CDF
:103AEC00128D13EA2405FEE43509FFAC18AD198ECE
:103AFC00828F8312379D1208808A0C8B0DEE240660
:103B0C00F50EE43FF50FEA450D7003023BD5E508D1
:103B1C002402F50AE43509F50B8A828B83A3A3A34F
:103B2C00E0A2E5502885188285198312379D120969
:103B3C00E28A108B11EA45116020791212379385B5
:103B4C001082851183121A36E9F50C707F850E826E
:103B5C00850F83E0600979528011750C0E806D859C
:103B6C000882850983A3A3A3A3E0F9E4F508F5096A
:103B7C007808121C4B8E828F83A3A3E0F50878087B
:103B8C00121C4B8E828F83A3A3A3121C628E828F76
:103B9C00831247311237971209F474061219DEE9B1
:103BAC00F50C7011850E82850F83E0702D123797FE
:103BBC001204D280257416650C7011750C007418E3
:103BCC00121A14123BFFE48010750C011248C785C1
:103BDC001282851383E8F0A3E9F0850E82850F83AA
:103BEC00E0600479008002A90C74021219DE7F0EC9
:103BFC00021B0A123C0322E0F8A3E0F58388822220
:103C0C0074EC121A3874F71219C88A0A8B0B8C10C0
:103C1C008D11EA2405FEE4350BFF750C00AC18ADD4
:103C2C00198E828F8312379D1208808A088B09EABD
:103C3C0045097003023DCBE50A2402F50A50020542
:103C4C000B8A828B83A3A3A3E0A2E5502F85188255
:103C5C0085198312379D1209E28A0C8B0DEA450DEA
:103C6C00604F7912AC08AD09123797850C82850D1F
:103C7C0083121A36E9F50C6003023DCE850A828563
:103C8C000B83E0F508A3E0F509AA08FB1209D6EAB4
:103C9C004B70197AFF7BFF1209D6EA4B7003023D79
:103CAC00C18A828B83E508F0A3E509F075080080D2
:103CBC0008750C0E023DCE050890032BE0F8E508C4
:103CCC00C3984003023DC185080E750F007403783C
:103CDC000E1219B58A828B83A3A3E0250EF8A3E0FC
:103CEC00350F12419570D08E828F83123DE91233BD
:103CFC00DF8E828F83A3A3123DE91233DDEE240401
:103D0C00F508E43FF509850882F583E0888289830C
:103D1C00A3A3A3A3F0A3E4F0EE2405F50EE43FF572
:103D2C000F850E82F583123DE9A3A3A3A31233DD05
:103D3C007512077513007812121C4BEEFCEFFD7414
:103D4C0004121A2612143E74021219DEE4F51278CB
:103D5C0012121C4B850882850983E0FC7D007917C3
:103D6C0012379712095874021219DE7407121A14BA
:103D7C001233DF7407121A14E0FA4B603D85088287
:103D8C00850983123DE0121C4B850E82850F831230
:103D9C00473112143E74021219DE7402121A2E12DA
:103DAC0037971204D8E960267407121A1412379D3B
:103DBC001214C88019750C098008750C11800375D4
:103DCC000C011248C7851082851183123DF4A90C91
:103DDC0074098028E0F5087509007808221237A1CB
:103DEC008882898322123DFAE8F0A3E9F022E0F8F8
:103DFC00A3E0F9850E82850F832274041219DE7FED
:103E0C000C021B0A74EC121A38123F04751000EEE7
:103E1C002402F50CE43FF50D850C82F58312379DD9
:103E2C001209D68A088B09EA45097003023EE88517
:103E3C000A82850B83E064016003023EDDAC08ADB1
:103E4C0009AA0AAB0B1209CAE9606E8508828509BA
:103E5C008312316AEE2406F50AE43FF50B8E828F4D
:103E6C0083A3A3121C628E828F83A3A3A3A3121C11
:103E7C0062850A82850B83121C6279188E828F836D
:103E8C00123F1612379D1209F474061219DEE9F866
:103E9C00741668700B850A82850B83E4F0A380147A
:103EAC00E860128E828F8312379D850E82850F8378
:103EBC00EAF0A3EBF088108018780E121C4BAC08BB
:103ECC00AD09EEFAEFFB1209D074021219DEE9F516
:103EDC0010AA08AB091209DCE510700E850C82855E
:103EEC000D8312379D1204DE800974166510700361
:103EFC00751000A910023E0BEAFEEBFF8C0E8D0F25
:103F0C00EE2405F50AE43FF50B221249C0850C821C
:103F1C00850D832274EA121A387508007509007E23
:103F2C00007F00750A00EC2402F510E43DF51180C9
:103F3C0035EC65087003ED65096003023FD5888296
:103F4C008983A3A3E06A7003A3E06B707C888289E9
:103F5C0083A3A3A3A31248CBEE28FEEF39FFEA28D4
:103F6C00FAEB39FB050A1240A5503A850A0C750D7F
:103F7C00007403780C1219B58510828511831240D8
:103F8C0098124195601FE508450970A58C088D09AC
:103F9C008882898312316888828983A3A3E02EFAF0
:103FAC00A3E03F80BEE50AC3940250030240937520
:103FBC000800750900EE4F6010EEFAEFFB1214C208
:103FCC008A0E8B0FEA450F70057900024095750B30
:103FDC0000024068850B0C750D007403780C1219E7
:103FEC00B5851082851183E0250CF50CA3E0350D09
:103FFC00F50DE50C2406F514E4350DF51585148244
:10400C00F58312419A6042E50C2404F512E4350D57
:10401C00F513851282F583121C62E50E2508FAE56C
:10402C000F3509FB12143E74021219DE85128285BB
:10403C001383E02508F508A3E03509F509851482FA
:10404C0085158312379D1214C8E50B600D7C087D15
:10405C00007900AA0CAB0D121456050BE50BC39599
:10406C000A5003023FE08510828511831248CB88E9
:10407C00828983A3A3A3A3A3A3E50EF0A3E50F1248
:10408C002CFBEEF0A3EFF07901023BFA12409C22DC
:10409C00E0250CF8A3E0350D2290032BE0F8E50A9F
:1040AC00C3982274F0121A388A0E8B0F8C0A8D0B5F
:1040BC00750D00750C0080507916EE2406F508E499
:1040CC003FF5098E828F83A3A3121C628E828F838D
:1040DC00A3A3A3A3121C62850882850983121C6208
:1040EC00850E82850F83A3A312379D1209F47406E3
:1040FC001219DEE9F50D7416650D706C8508828554
:10410C000983E4F0A3F0050C90032BE0F8E50CC355
:10411C00985066AA0C8A087509007403780812195D
:10412C00B5850A82850B83A3A31241E4E8FEE9FF5F
:10413C008E828F8312419A6040EA2401F508E434A0
:10414C0000F50990032BE065087002E509601488FE
:10415C00828983A3A3A3A3A3A3A3A31237CC600335
:10416C000240C479180240C6E9609B1248C774101B
:10417C00121A1412418C123DF4A90D7F08021B0A6D
:10418C00E0FAA3E0F5838A8222F9888289831249B6
:10419C00C0EC4D2274F6121A387C0080010C90038E
:1041AC0088E0F8ECC398501E8C08750900740278EE
:1041BC00081219B51241D9E06A7003A3E06B70DDE7
:1041CC00E8FAE9FB80047A007B0002427C90032928
:1041DC001241E48882898322E02508F8A3E035099E
:1041EC00F92274F2121A388A088B09750A00802792
:1041FC008E828F83A3A3A3A3122CF260031214C884
:10420C007C087D007900EEFAEFFB1214568E828F3B
:10421C0083E4F0A3F0050A1240A55027850A0C751B
:10422C000D007403780C1219B5850882850983A3D7
:10423C00A3E0250CFEA3E0350DFF8E828F83123791
:10424C00CC70AD85088285098374FFF0A3F0024918
:10425C00B474F6121A381209888A828B83E5824567
:10426C008370067A007B008007A3A3A3A312379D5B
:10427C007F02021B0A74F4121A3889088C828D830F
:10428C00E06402703C12486AFEA3E0F9EEF8740296
:10429C006870037429697029750A02750B00780A15
:1042AC00121C4B7410121A14121C627410121A1471
:1042BC00121C62A90812135474061219DEE9F98053
:1042CC00027901022D2F74E8121A3874FB1219C8E6
:1042DC00E9851882851983F08A168B17ECFEEDFFA1
:1042EC007510008E828F83A3A3A3E0A2E4502D74DB
:1042FC001D121A1412379D1209E28A828B83E582F1
:10430C0045837003024709790AEEFCEFFDAA16AB50
:10431C0017121A36E9F510600302470C741F121AB3
:10432C0014E0F508A3E0F5097421121A14E0F50A5B
:10433C00A3E0F50B7423121A14E0F50EA3E0F50FAD
:10434C008E828F83E0640260030246AAA31248CBDC
:10435C00850882850983A3858212858313EE240642
:10436C00F50CE43FF50D88828983124749F514E476
:10437C0039F5157814121CD5010000280128AC431E
:10438C000700022871440328DF430029A0450129B6
:10439C00CB4502296C450329A04504294446AA466D
:1043AC00E50E450F60030246A5850C82850D831230
:1043BC0048CBE8FAE9FB8A828B83E0850A82850B7D
:1043CC0083124754121C4B8A828B83A3E0FCA3E01C
:1043DC0002462EE50E450F60030246A5850A82852E
:1043EC000B837401F012473E850882850983F07CAB
:1043FC00007D008E828F83A3A3A3A3E02401FAA3E4
:10440C00E03400FB120880EA4B60408A828B83E028
:10441C002402F8850A82850B83E028F0EA2404F84C
:10442C00E43BF988828983E08512828513831247E5
:10443C0062124754121C4B8A828B83A3124731E5BC
:10444C00082403FAE43509FB024633850A82850BFE
:10445C0083E02404F07C047D007900AA12AB1312D3
:10446C00145602470CE50E450F60030246A5124791
:10447C003EFEA3E0FF850A82850B837404F0EE8573
:10448C000882850983F0EF851282851383F074030B
:10449C00121A2EEEFAEFFB1208808A0C8B0DEA45ED
:1044AC000D700302454F8A828B83A3A3123168746B
:1044BC0001121A1E880E890F780E121C4B740512ED
:1044CC001A14121C627CFF7DFF12088674041219E8
:1044DC00DE8B0FEA450F7033850C82850D831247F6
:1044EC0035121C4B850C82850D83A3121C627C0239
:1044FC007D007A117B901205E074041219DEE970CC
:10450C000A7401121A1474FFF0A3F08E828F83E0E8
:10451C0064027039750C02750D00780C121C4B8EF0
:10452C00828F83A3124731E5082404FAE43509FB92
:10453C0012143E74021219DE850A82850B83E02464
:10454C000280097401121A14EEF0A3EFF074011238
:10455C001A141247237401121A1412471A02469F96
:10456C00E50E450F60030246A5850C82850D83126E
:10457C0049B9AA16AB1712135A850A82850B837494
:10458C0002F0850882850983EAF0851282851383FF
:10459C00EB0246A2E50E450F60030246A512473E0C
:1045AC00F8A3E0F9850A82850B837402F0E885088C
:1045BC0082850983F0E98512828513830246A285E0
:1045CC000C82850D8312379D121438EAFAF8C395C4
:1045DC000EE4950F405CE8650E450F70047A008080
:1045EC0021851882851983E0FCE50E2CFCE4350F3F
:1045FC00FDC3EC98ED94005003E08005E50ECAC3B2
:10460C009AFAEA850A82850B83F08A0A750B007880
:10461C000A121C4B850C82850D83E0250EFCA3E051
:10462C00350FFDAA08AB0912143E74021219DE02F2
:10463C00470C75100702470CE50E450F705B850C97
:10464C0082850D831248CB850A82850B837407F013
:10465C008882898312471B124713E08512828513C7
:10466C0083F0E82402FAE439FB8A828B8312472315
:10467C008A828B8312471AA3A3122CFA124728F0B2
:10468C00E82405F850010988828983124728A3126F
:10469C004762A3A3A3A3F0806775100B8062741DFF
:1046AC00121A1412379D1209888A828B83E582456F
:1046BC0083604A1248CB880C890DE8450D603E7426
:1046CC0025121A14E0F5107810121C4F780E121CDB
:1046DC004B780A121C4B7808121C4B7407121A14D4
:1046EC00E0F9EEFCEFFDAA16AB17850C82850D8365
:1046FC00121A3674071219DEE9F510800375100EC4
:10470C00A9107405023A60F088828983A322A3E081
:10471C0085088285098322124769F022124769A312
:10472C00A32290032F1249C022E0F50E750F0078DA
:10473C000E22850C82850D83123C03E022E0FAA345
:10474C00E0F8E4C8F9EA2822F08A828B83E0F50AC3
:10475C00750B00780A2212471312476922E085086C
:10476C0082850983A3A32274EE121A3874FE1219DF
:10477C00C88A088B09ECFEEDFF890AAC18AD19EE5E
:10478C00FAEFFB1208808A0C8B0DEA450D700302C0
:10479C00485B85188285198312379D1209888A8295
:1047AC008B83E58245837003024856A3A31248CB42
:1047BC00880E890FE8450F70030248567414121ABC
:1047CC0014E0F510A3E0F511E50AF50B780B121CBB
:1047DC004F7419121A14121C627810121C4B741B91
:1047EC00121A14E0F9AC0CAD0DAA08AB09850E82B7
:1047FC00850F83121A3674051219DEE9F50B705207
:10480C0074FE650A604C850C82850D83E064027031
:10481C004112486AFAA3E0F9EAF87402687003746A
:10482C002969702E851082851183124749F50CE495
:10483C0039F50D780C121C4BEEFCEFFDAA08AB09F8
:10484C00120A0C74021219DE8008750B0E800375A7
:10485C000B01A90B74021219DE7F0A021B0AA312A8
:10486C0048CF88828983E02274F6121A3874FE12BB
:10487C0019C8740C121A141248CBE88518828519C1
:10488C0083F07401121A14E9F0E4F508F5097808BC
:10489C00121C4B7508027808121C4B7404121A1E59
:1048AC00880889097808121C4B79FE1209F47406E1
:1048BC001219DE74021219DE02427C8E828F831270
:1048CC0048CF22E0F8A3E0F92274F7121A38EAFE76
:1048DC00EBFF890890034612473112135AEA54022F
:1048EC00600BA908EEFAEFFB120874800279017FC5
:1048FC0001021B0A74F2121A3874FE1219C8EAFE6D
:10490C00EBFF890A7401650A60147402650A60037E
:10491C000249AF7901120C10E960030249AFEEFABB
:10492C00EFFB1209D6EA4B60031209DCA818A9198F
:10493C00880889097808121C4B75080275090078DB
:10494C0008121C4B7508177509907808121C4B7CC3
:10495C00FF7DFF7A017B0012087A74061219DE8043
:10496C0038850882850983A3A3A3A3A3A31249B9FD
:10497C00EEFAEFFB12134EE4F50CF50D780C121C4D
:10498C004B7402121A14121C627CFF7DFFAA08AB36
:10499C000912088674041219DE8A088B09E5084589
:1049AC000970BE74021219DE7F06021B0A123C0348
:1049BC001249C022E0FCA3E0FD2274F4121A388ADA
:1049CC00088B09ECFEEDFF9016B6E0F4604B7A090B
:1049DC007B00121462EA4B60408A828B8374B1F0C4
:1049EC00A3E4124A28F08A828B83A3A3E508F0A3E0
:1049FC00E509124A28A3EEF0A3EFF0740C121A1476
:104A0C001248CB8A828B83A3A3A3A3A3A3A3123D97
:104A1C00F49016B6E0F912146E022D2FF08A828BE8
:104A2C0083A3A3A3A32274EE121A3874FA1219C822
:104A3C008A0A8B0BE9FF8C088D097E00850A0C8590
:104A4C000B0D780C121C8F0004100E4D7A4A9D4AE7
:104A5C00BC4ADF4A024B254B564B794B904BC04B13
:104A6C006F4C924CB54CE34C0E4D0E4DE94B740112
:104A7C006F7019850882850983E0C39403500D85F6
:104A8C000882850983E09017A2F080027E18024DFF
:104A9C003674026F7015850882850983E0F8A3E0EF
:104AAC00F99017A3E8F0A3E9F080027E18024D36C6
:104ABC0074016F7019850882850983E0C3940250D4
:104ACC000D850882850983E090076CF080027E18C2
:104ADC00024D3674016F7019850882850983E0C315
:104AEC009405500D850882850983E090076DF08050
:104AFC00027E18024D3674016F7019850882850983
:104B0C0083E0C39402500D850882850983E09007E9
:104B1C006EF080027E18024D3674106F7027750C83
:104B2C0010750D00780C121C4BAC08AD097A6F7B1C
:104B3C000712143E74021219DE8A0C8B0D850C823E
:104B4C00850D8380027E18024D3674016F701985B5
:104B5C000882850983E0C39402500D85088285097B
:104B6C0083E090077FF080027E18024D3674016F4F
:104B7C00700D850882850983E09017A6F080027E6F
:104B8C0018024D3674046F7026908FDB780C121857
:104B9C008C850882850983780C1216AF5011850814
:104BAC00828509831218B69007811218C280027E82
:104BBC0018024D36EF7021120778E970131212F4B7
:104BCC00E9F50D79501215B8E9F50C1212E2800ACC
:104BDC009008147401F080027E18024D3674076F31
:104BEC00707C750E06750F00780E121C4B850882B2
:104BFC00850983A3AC82AD837402121A2612144465
:104C0C0074021219DE8A108B1185100E85110F7C1F
:104C1C00007D00AA18AB19850882850983E0F9127A
:104C2C001282E9F50CE50CC3940A502E120778E9B0
:104C3C007015A90C1212FAE9F50E79501215B8E993
:104C4C00F50D1212E28019A80C7900741528F58262
:104C5C00740839F5837401F080067E0280027E1898
:104C6C00024D3674016F7019850882850983E0C383
:104C7C009402500D850882850983E0900780F080AE
:104C8C00027E18024D3674016F70198508828509F1
:104C9C0083E0C3940A500D850882850983E0901740
:104CAC00A5F080027E18024D3674016F70258508C0
:104CBC0082850983E0C3940740198508828509839E
:104CCC00E0C39411500D850882850983E09017A7E5
:104CDC00F080577E18805374016F7022900813E097
:104CEC00F50C850882850983E0900813F0E50C70BB
:104CFC0039900813E0640170311212E2802C7E1896
:104D0C008028C3E50A9427E50B9400501B74026FAE
:104D1C007016850882850983E0FCA3E0FDAA0AAB26
:104D2C000B1205F8E9FE80027E02EEF974061219E8
:104D3C00DE7F0A021B0A74EC121A3874DA1219C8D4
:104D4C00890D8A128B138C0A8D0B743A121A14E08B
:104D5C00F50C908F3BAC18AD1974061218DBAC181F
:104D6C00AD19AA12AB13A90D121282E9FEEEC3946F
:104D7C000A4003024EB6EEF91212C4E9FF9017A2D4
:104D8C00E064027004740180027400F50878081263
:104D9C001C4FAD0CEFFCEEF9AA0AAB0B12133674D8
:104DAC00011219DE7C147D0079007412121A26127D
:104DBC0014568A0E8B0F850E08850F097412121A61
:104DCC002E7A1075F006EEA42424F91215B2E970AF
:104DDC003C7C1079FF7412121A261214B6E9702D4D
:104DEC007422121A14AC82AD837A0475F006EEA408
:104DFC002425F91215B2E9F5087412121A2EEFA235
:104E0C00E0E433F9AA0AAB0B120682E9F874061235
:104E1C001A2E7A0C74702EF91215B2E97079740688
:104E2C00121A261212B8750E00E50EC394045067C0
:104E3C00A80E7900E875F003A4C8AAF075F000A4D8
:104E4C002AFA75F003E9A42AF97406121A14E582F9
:104E5C0028F508E58339F509850882850983E0F88A
:104E6C00A3E0F9E849602C850882850983A3A3E0B7
:104E7C00F5107511007810121C4B8508828509837A
:104E8C00E0FCA3E0FDAA0AAB0B1209FA740212199A
:104E9C00DEE9F8050E8092EFA2E1500E90076BE070
:104EAC00F9AA0AAB0B120A00E9F87404650C700F2E
:104EBC009017A2E064027007AA0AAB0B12133079A8
:104ECC000074261219DE7F0C021B0A74F7121A38B2
:104EDC00EAFEEBFF120778E97067900814E06401B2
:104EEC00701B1212F4E9F5089008147400F07C0A97
:104EFC007D0079007A157B081214568039750800EC
:104F0C00E508C3940A502FA8087900741528F58277
:104F1C00740839F583E064017018A9081212FAE9D3
:104F2C00FAA8087900741528F582740839F5837489
:104F3C0000F0050880CA79501215B8E9F50812126C
:104F4C00E27F01021B0A74F2121A38890BEAFEEB9B
:104F5C00FF8C088D09750A0AE50B600C14600914A6
:104F6C006044146064024FF7EEFAEFFB1212D6E9BC
:104F7C00F50AE50AC3940A5072E5084509606C7598
:104F8C000C06750D00780C121C4BEEFCEFFDAA08FC
:104F9C00AB0912143E74021219DE8A0C8B0D850CAF
:104FAC0082850D838045EEFAEFFB1212D0E9F50AEB
:104FBC00E50AC3940A5034E5084509602EAA08ABEB
:104FCC0009A90A1212CAE98022EEFAEFFB1212DCCE
:104FDC00E9F50AE50AC3940A5011E5084509600B86
:104FEC00AA08AB09A90A1212CAE9F8A90A7F060293
:104FFC001B0A74F2121A388A0C8B0DE9FF7E157499
:10500C00FF650C700474FF650D702A750800E508C7
:10501C00C3940A5014EFFC7A027B00A9081212A662
:10502C00E960027E00050880E5EF60627A1E7B1362
:10503C00120C348059AA0CAB0D120C048A0A8B0B7F
:10504C00850A08850B09E508450960407C007D0050
:10505C00E5082405FAE43509FB850882850983A354
:10506C00A3A3A3E0F9121282E9F50AE50AC3940A94
:10507C00500EEFFC7A027B00A90A1212A6E97E0000
:10508C00EF600BAA08AB0912131E80027E14EEF916
:10509C007F06021B0A74EE121A388A0E8B0F8C0ACA
:1050AC008D0B7412121A14E0F50CA3E0F50D7508B3
:1050BC001574FF650E700474FF650F701E7E00EE94
:1050CC00C3940A5061AC0CAD0DAA0AAB0BEEF912ED
:1050DC0012ACE960037508000E80E4AA0EAB0F1247
:1050EC000C048A108B11AE10AF11EE4F60357C00A2
:1050FC007D00EE2405FAE43FFB8E828F83A3A3A3ED
:10510C00A3E0F9121282E9F509E509C3940A5016D5
:10511C00AC0CAD0DAA0AAB0BA9091212ACE97508BF
:10512C00008003750814A9087F0A021B0A74F71281
:10513C001A38EAFEEBFF900785EEF0A3EFF090072C
:10514C006BE0FC7D007A267B001205F8E9F50890EF
:10515C00076BE0F91209647F01021B0A74EE121A44
:10516C00388A108B11E9FF7412121A14780C121869
:10517C008C7E00EF7041850C08850D09850E0A8523
:10518C000F0B908FDB780C12188C7808790C121797
:10519C005E7810121C4BAA0CAB0DAC0EAD0F1206A8
:1051AC009474021219DEE9FEEE60177901AA10ABB5
:1051BC001112068EE9800BEFF9AA10AB1112068EB4
:1051CC00E9F8EEF97F0A021B0A74F0121A3874EC33
:1051DC001219C88A0C8B0D850C82850D83A3A3E054
:1051EC0024FA700302564E24FD70030254C314704B
:1051FC00030252C514601024FD700302546B14702A
:10520C0003025502025661AE0CAF0D900785E0F813
:10521C00A3E0F9E8496066900785E0F8A3E0F58320
:10522C008882E0F8A3E0F9E8496052EE240CF5829C
:10523C00E43FF583E0F5087808121C4FEE240BF5DB
:10524C0082E43FF583E0F98E828F83A3A3A3A3A30B
:10525C00A3A3A3A3E0FCA3E0FDEE2403FAE43FFB2D
:10526C00900785E0F8A3E0F5838882E0F8A3E0F5E9
:10527C00838882121A3674011219DE80398E828F5D
:10528C0083A3A3A3A3A3A3A3A3A3121C629007812C
:10529C001218AA12069474021219DEE96018790128
:1052AC008E828F83A3A3A3A3A3A3A3A3A3E0FAA398
:1052BC00E0FB12068EE9025661AE0CAF0D750800CC
:1052CC008E828F83A3E060030253ED8E828F83A3C3
:1052DC00A3A3A3A3E0A2E040030253ED90081FE0B8
:1052EC00F8A3E0F9E84960030253ED7C0E7D0079E8
:1052FC0000AA18AB191214568A0A8B0BAA0AAB0B0C
:10530C00EE240CF582E43FF583E0F8A3E0F9E849DC
:10531C006036750A06750B00780A121C4BEE240CCD
:10532C00F582E43FF583E02410FCA3E03400FD7427
:10533C0002121A2612143E74021219DE8A0A8B0B00
:10534C00850A82850B83804F8E828F83A3A3A3E073
:10535C00FAA3E0FB120C048A0E8B0F850E0A850F44
:10536C000BE50A450B602D750E06750F00780E12B5
:10537C001C4BE50A2405FCE4350BFD7402121A26BD
:10538C0012143E74021219DE8A0E8B0F850E828562
:10539C000F8380030256618E828F83A3A3A3A3A3E2
:1053AC00E0A2E25004D2F08002C2F0A2F0E433F8A2
:1053BC007900740C121A14E048F0A3E049F0EEFCEA
:1053CC00EFFDAA18AB191212BEE970127A027B001B
:1053DC0090076BE0F9121492E97900025663750894
:1053EC0015900785E0F8A3E0F9E849606F90078510
:1053FC00E0F8A3E0F5838882A3A3E0F8A3E0F9E842
:10540C004960598E828F83A3E0FC79018E828F8351
:10541C00A3A3A3E0FAA3E0FB900785E0F8A3E0F5D3
:10542C00838882A3A3E0F8A3E0F5838882121A365E
:10543C00E5086028AC0879038E828F83A3A3A3E0D0
:10544C00FAA3E0FB900785E0F8A3E0F5838882A33C
:10545C00A3E0F8A3E0F5838882121A36025661AEF7
:10546C000CAF0D900785E0F8A3E0F9E84960459092
:10547C000785E0F8A3E0F5838882A3A3E0F8A3E016
:10548C00F9E849602F850C82850D83A3E0FC790235
:10549C008E828F83A3A3A3E0FAA3E0FB900785E0A1
:1054AC00F8A3E0F5838882A3A3E0F8A3E0F5838852
:1054BC0082121A36025661AE0CAF0D7C007D00EEE6
:1054CC002404FAE43FFB8E828F83A3A3A3E0F9129A
:1054DC001282E9F508E508C3940A5017EE240AFC79
:1054EC00E43FFD7A0475F006E508A42425F91215AD
:1054FC00ACE9F8025661AE0CAF0D900780E0601974
:10550C009017A5E0F98E828F83A3A3A3E0FAA3E002
:10551C00FB12068EE9F80256619017A2E07016791C
:10552C00058E828F83A3A3A3E0FAA3E0FB12068E61
:10553C00E9F80256618E828F83A3A3A3E0FAA3E05D
:10554C00FB120C048A0A8B0B850A08850B09E508EB
:10555C00450970030256618E828F83A3A3A3A3A374
:10556C00A3A3E0A2E0506D850882850983A3A3A3C1
:10557C00A3E060608E828F83A3A3A3A3A3A3A3A3A2
:10558C00A3E0F50AA3E0F50B7409780A1219A6E555
:10559C000A5401F8E50B5400F9E8A2E04036740E09
:1055AC00121A2EE5082405FAE43509FB85088285D4
:1055BC000983A3A3A3A3E0F9121282E9701679035D
:1055CC008E828F83A3A3A3E0FAA3E0FB12068EE9DD
:1055DC00F8025661EE2405FCE43FFD85088285093E
:1055EC0083A3A3A3A3E0F98E828F83A3A3A3E0FAE2
:1055FC00A3E0FB12132A900785E0F8A3E0F9E84931
:10560C006053900785E0F8A3E0F5838882A3A3E0BC
:10561C00F8A3E0F9E849603D7C0079008E828F8325
:10562C00A3A3A3E0FAA3E0FB900785E0F8A3E0F5C1
:10563C00838882A3A3E0F8A3E0F5838882121A364C
:10564C008013AE0CAF0D8E828F83A3A3A3E0FAA3BD
:10565C00E0FB12127C790174141219DE7F08021B14
:10566C000A74F5121A3874F21219C88909EAFEEB99
:10567C00FF8C0AAC18AD197A0E75F006E509A42456
:10568C0020F91215B2E9705F7C0679FFAA18AB19E4
:10569C001214B6E97051740C121A14E0F8A3E0F964
:1056AC00E8F508E50A6005EE42088004EEF45208BD
:1056BC00A8087900740C121A14E0687003A3E0694E
:1056CC006021A8087900740C121A14E8F0A3E9F010
:1056DC00AC18AD197A0E75F006E509A42420F91260
:1056EC0015ACE9790180027900740E1219DE7F0382
:1056FC00021B0A74F0121A3874E61219C8890B8A44
:10570C000C8B0DECFEEDFF740C121A2E7A0E75F04C
:10571C0006E50BA42420F91215B2E9600302582FF8
:10572C007C0679FF740C121A261214B6E960030277
:10573C00582FAC18AD197A0C7470250BF91215B2E0
:10574C00E9600302582B750A00AA18AB191212B89B
:10575C00E50C450D702E7C0C7900AA18AB191214AF
:10576C00B6E960030258117C0C7D007900AA18ABD5
:10577C00191214568A088B09850882850983750AC3
:10578C0001025811AC18AD19AA0CAB0D1212B28A49
:10579C000E8B0F850E08850F09E50845097030EE54
:1057AC004F601BAC18AD197A007B001212B28A0E36
:1057BC008B0FA80EA90F88088909E8497004790095
:1057CC008063850882850983E50CF0A3E50DF085DF
:1057DC000882850983A3A3E0F87900EE687002EFD4
:1057EC00696022EEC0E0850882850983A3A3D0E01E
:1057FC00F0EE4F700D8508828509837400F0A37458
:10580C0000F0750A01E50A6016AA18AB191212B855
:10581C00AC18AD197A0C7470250BF91215ACE9792A
:10582C000180027900741A1219DE7F08021B0A74B7
:10583C00F6121A388A088B097E00EEC39404505075
:10584C00EEF87900E875F003A4C8AAF075F000A48E
:10585C002AFA75F003E9A42AF9EC28F582ED39F55A
:10586C0083E065087004A3E065097021EEF8790007
:10587C00E875F003A4C8AAF075F000A42AFA75F034
:10588C0003E9A42AF9EC28FAED39FB80070E80AA6B
:10589C007A007B007F02021B0A74F7121A387C0014
:1058AC00ECC394044003025954ECF87900E875F009
:1058BC0003A4C8ADF075F000A42DFD75F003E9A4A8
:1058CC002DF9EA28F582EB39F583E0F4FEA3E0F438
:1058DC00FFECF87900E875F003A4C8ADF075F000A2
:1058EC00A42DFD75F003E9A42DF9EA28F582EB3916
:1058FC00F583EEF0A3EFF0ECF87900E875F003A473
:10590C00C8ADF075F000A42DFD75F003E9A42DF9D8
:10591C00EA28F582EB39F583A3A3E0F4C0E0ECF8B8
:10592C007900E875F003A4C8ADF075F000A42DFD66
:10593C0075F003E9A42DF9EA28F582EB39F583A378
:10594C00A3D0E0F00C0258AC7F01021B0A74F012D9
:10595C001A3874F41219C8EAFEEBFF8C088D099002
:10596C00081FE0F8A3E0F9E849702CEE4F6006E55B
:10597C0008450970057901025C05EEFAEFFB12127D
:10598C00D6E99017A8F09017A8E0C3940A40081223
:10599C0012E8E99017A8F09017A8E0C3940A400306
:1059AC00025C0390081FE0F8A3E0F9E849600302E9
:1059BC005A4FEEFCEFFD7A0E75F0069017A8E0A496
:1059CC002420F91215ACE9F50C7C0C7D0079FFAAAA
:1059DC0018AB191214568A0E8B0F850E0A850F0BF5
:1059EC00AC18AD197A0C9017A8E02470F91215AC0C
:1059FC00E9F50D750E0E750F00780E121C4BEEFCB2
:105A0C00EFFD9017A8E0F87900E875F00EA4C8AA8D
:105A1C00F075F000A42AFA75F00EE9A42AF974873F
:105A2C0028FA740739FB12143E74021219DE8A0E1E
:105A3C008B0FA80EA90F90081FE508F0A3E509F03D
:105A4C00025BFF90081FE0F8A3E0C82406F582C8AB
:105A5C003400F583E0F8A3E0F9E849604390081FAF
:105A6C00E0F8A3E0C82406F582C83400F583E0FC16
:105A7C00A3E0FD7A1B75F0069017A8E0A42421F989
:105A8C001215ACE9F890081FE0F9A3E0C92406F55B
:105A9C0082C93400F5837400F0A37400F0025BFF3C
:105AAC0090081FE0F8A3E0C8240AF582C83400F57A
:105ABC0083E0F8A3E0F9E849604390081FE0F8A3FD
:105ACC00E0C8240AF582C83400F583E0FCA3E0FDAD
:105ADC007A1B75F0069017A8E0A42422F91215ACD5
:105AEC00E9F890081FE0F9A3E0C9240AF582C9344B
:105AFC0000F5837400F0A37400F0025BFF90081FA4
:105B0C00E0F8A3E0C8240CF582C83400F583E0F873
:105B1C00A3E0F9E849604390081FE0F8A3E0C8242B
:105B2C000CF582C83400F583E0FCA3E0FD7A107517
