:020000040000FA
:0600000002011A02219D1D
:03002B000226703A
:0300330002265250
:0300530002221373
:03006B0002262941
:10008300021FF3E5C754F84401F5C77901220000C4
:100093000080FB120086B90003020104E4791B7897
:1000A30002B800028004F709D8FCE4791D7802B88D
:1000B30000028004F709D8FCE490028178057919DD
:1000C3008002F0A3D8FCD9FA781A90014A7A01BACF
:1000D30000028007E493A3F608DAF97A857B1A9085
:1000E300014B78DB79018015E493A3AD82AE838A5B
:1000F300828B83F0A3AA82AB838D828E83D8E9D9C6
:10010300E77582E87583E1740312012C758291759A
:100113008300740012012C75D00075813F7518811E
:10012300751902759F00020096C09FF59FE473D076
:100133009F22D083D082C09FE493C0E0740193C018
:10014300E0740293F59F2201C903D5030B04050450
:10015300FF0000B4000028002800283075A000A08C
:1001630000A000A00000080008E001F0001000104B
:10017300001000100010001000500050005000103C
:10018300001000D0070000000000000F0001000570
:1001930000307507001000010081FF00000000FF20
:1001A300FFFF020202FE90010000EA9002069101A5
:1001B3000000DF1A02F490010000B8020206910168
:1001C3000000E01A02F290010000CE02FFFF0100DE
:1001D300FF2002FE90010000ED9002069101000055
:1001E3000E1B02F090000000000002F690030000D6
:1001F300FA0217005D0C5D0C5D0C5D0C5D0C5D0C73
:100203005D0C5D0C5D0C5D0C5D0C5D0C5D0C850E79
:10021300A30E7F0E01E803057710020AFFFFFF001C
:10022300FEFF1201358BFD021201359EFD02120104
:1002330035BFFD021201352AFE021201356BFE02A3
:100243001201358CFE02120135ADFE02120135EEAC
:10025300FE0212013586FF02120135CEFF021201A2
:10026300351EBE0312013531BE0312013562BE03D2
:100273001201359CBE03120135F5BE031201353C54
:10028300BF0312013584BF03120135B3BF0312014B
:1002930035E2BF0312013519C00312013560C003F3
:1002A30012013579C003120135CEC003120135FCAA
:1002B300C00312013536C103120135E8B102120140
:1002C30035EBB20212013518B30212013569B302DC
:1002D3001201358CB3021201359EB302120135A10E
:1002E300B302120135DFB30212013553B402120116
:1002F30035BFB40212013587B502120135A3B50229
:10030300120135DAB50212013514B602120135AB0A
:10031300B602120135FDB6021201352EB7021201E3
:100323003531B70212013562B7021201356FB702D8
:1003330012013587B702120135F1B702120135F404
:10034300B70212013501B80212013504B8021201D5
:10035300355BB8021201356CB802120135A5B8023B
:10036300120135A8B802120135DCB802120135DFDB
:10037300B80212013533B9021201357CB9021201F8
:10038300358CB902120135BFB902120135CCB9025D
:10039300120135CFB90212013537BA0212013539CC
:1003A300BB02120135DDBB0212013546BC0212014C
:1003B3003584BC021201355EC60212013556C702EE
:1003C3001201358AC70212013520C8021201356BAA
:1003D300C802120135CFC80212013559C9021201F0
:1003E3003512CA0212013534CD02120135B1CE02E3
:1003F300120135D4CE0212013549A603120135EE9E
:10040300A7031201350EA8031201352FA903120108
:100413003582A9031201358FAA03120135B7AA0346
:10042300120135E4AA031201351CAB031201357A1C
:10043300AB03120135C6AB031201352DAC03120118
:10044300356DAC03120135AAAC03120135D8AC03E8
:1004530012013582AD031201358CAD0312013599BA
:10046300AD03120135CCAD03120135D8AD03120132
:1004730035F0AD03120135FAAD031201355FDD032B
:100483001201356DDD0312013585DD031201359D42
:10049300DD03120135B4DD03120135B8E2011201A7
:1004A3003562E301120135DEE301120135FCE4019B
:1004B30012013538E501120135D3E501120135B7D3
:1004C300E6011201357AE701120135F2E701120163
:1004D3003580E901120135F1E901120135ABEA0179
:1004E3001201359DEB01120135DDEB01120135914E
:1004F300EC01120135C3EC01120135B9EE01120111
:1005030035FBEE0112013519EF011201359EEF01A2
:1005130012013562F00112013581F20112013563D6
:10052300B60312013579B60312013597B6031201EA
:1005330035A8B703120135B2B703120135DDB8038D
:10054300120135D4B90312013541BA03120135FC46
:100553009303120135A09403120135D794031201BA
:1005630035219503120135E096031201350A9101F5
:10057300120135BB9101120135D79101120135A04A
:100583009201120135AA9201120135C4920112019E
:1005930035CF9201120135A59301120135829401E1
:1005A300120135DF94011201356F950112013526D1
:1005B3009601120135349901120135239B01120171
:1005C30035D59B011201359E9C01120135E39F0134
:1005D3001201358DA001120135B6A1011201357248
:1005E300A30112013512A40112013560A401120105
:1005F300359FA40112013572A501120135A6A5018B
:1006030012013533A60112013583D0011201350FD2
:10061300D10112013573D2011201357FD2011201CA
:1006230035BAD20112013529D30112013532D40171
:100633001201353BD50112013502D6011201355F96
:10064300D7011201357DD7011201359AD701120165
:100653003565D8011201358DD80112013557DB01FB
:100663001201355CDB0112013575DD01120135C361
:10067300DD0112013533DE0112013571DE01120194
:10068300354DDF011201350DE00112013559E0014D
:100693001201355CE001120135A0E001120135E8D9
:1006A300E00112013527E10112013549E10112018F
:1006B300357DE101120135E0E1011201353E8A0386
:1006C300120135478A03120135558A03120135A8F1
:1006D3008A03120135C78A031201350C8B031201F9
:1006E30035508C03120135EB8C031201352F8D032A
:1006F300120135598D03120135C88D031201350ED0
:100703008E03120135858E03120135368F031201D4
:1007130035A82600120135B82600120135592700E5
:10072300120135B527001201357228001201358EEA
:100733002900120135C02900120135EF29001201E9
:10074300359C2B00120135132E0012013583300026
:100753001201357531001201356E32001201357503
:10076300340012013569370012013598380012013F
:10077300359C3A00120135AC3B001201353B3D007C
:100783001201352C3E001201357A3E00120135E983
:100793003E001201350D3F001201355E3F0012018C
:1007A30035FF430012013500450012013561450054
:1007B3001201358C4500120135524600120135767F
:1007C300B20312013580B203120135C5B20312011F
:1007D30035D9B20312013569B30312013591B3035D
:1007E300120135CCB303120135F5B30312013529D8
:1007F300B4031201353EB403120135A9B403120147
:1008030035CAB403120135DEB403120135F3B40360
:100813001201352DB50312013592B503120135D5F9
:10082300B503120135FFB5031201353BB6031201BF
:100833003548DB03120135159C02120135F89C0281
:10084300120135739D02120135AE9D02120135FF6F
:100853009E02120135889F02120135A0A1021201E6
:100863003532A402120135E4A40212013503A602B3
:100873001201355CA60212013500800312013543D3
:100883008003120135C780031201359A81031201D7
:1008930035718403120135C9CA0312013576CB03BE
:1008A30012013583CC03120135C2CC031201351C6E
:1008B300CD0312013510D30312013573D303120193
:1008C3003510D4031201353ED4031201355FD4032E
:1008D3001201359AD403120135BAD40312013548F3
:1008E3008F03120135D48F03120135939003120144
:1008F30035AB9103120135C59303120135AABC022E
:10090300120135CFBC02120135A3BD02120135100D
:10091300BE0212013566BE0212013502BF02120188
:100923003536C00212013511C10212013570C10200
:1009330012013541C202120135CDC202120135D076
:10094300C2021201351AC3021201358CC30212010D
:100953003537C40212013557C4021201359FC40250
:10096300120135BBC40212013535C50212013543EC
:10097300C502120135D2C5021201353BC60212016E
:10098300352E9D03120135B39D03120135F59D03E9
:10099300120135D99E03120135469F031201358A90
:1009A3009F03120135CE9F03120135FB9F031201F2
:1009B3003523A0031201355BA00312013599A0036F
:1009C300120135C0A0031201353AA1031201358487
:1009D300A103120135505F001201351D61001201A0
:1009E300350663001201355A630012013585630031
:1009F300120135346400120135786400120135BCEC
:100A03006400120135CF6400120135106500120134
:100A1300353D65001201358B6500120135D1650046
:100A2300120135FC65001201354F6600120135DBFA
:100A33006600120135C46700120135AE6800120169
:100A430035776A00120135866F00120135DF6F00BA
:100A53001201351B7000120135017200120135A11C
:100A630073001201350D74001201353D750012013A
:100A7300354E750012013523C80312013595C8039D
:100A8300120135EBC8031201352FC9031201354F8B
:100A9300C9031201359CC903120135E4C9031201CC
:100AA3003537CA0312013588CA03120135BE460021
:100AB300120135074700120135344700120135662C
:100AC30047001201357247001201357E47001201BB
:100AD30035954700120135704800120135CE4800A4
:100AE300120135034900120135344A0012013581E0
:100AF3004A00120135CF4A001201352D4B00120175
:100B030035164C00120135924D001201355B4E0033
:100B13001201356B4E00120135954E0012013598C6
:100B23004E001201356F4F001201352050001201A3
:100B330035C550001201352351001201356A5100A9
:100B4300120135EE51001201359552001201354064
:100B53005300120135EC53001201355E54001201AB
:100B630035A55400120135095500120135385500D9
:100B7300120135CB5500120135D857001201351C2F
:100B83005800120135615800120135E35800120173
:100B9300356D5900120135825A00120135085B0088
:100BA3001201352D5B00120135845B00120135996A
:100BB3005B00120135E15B00120135545C00120148
:100BC30035995C001201359E5D001201354F5E00C0
:100BD300120135AB5E00120135075F0012013520AB
:100BE3005F00120135F7CF021201354BD00212011B
:100BF3003557D00212013521D1021201354ED102EF
:100C03001201357CD102120135E8D1021201351EE1
:100C1300D20212013557D2021201356FD2021201EC
:100C230035C4D202120135DDD20212013522D302BC
:100C330012013535D3021201354FD3021201356546
:100C4300D30212013583D402120135AED50212014B
:100C53003598D60212013587D702120135F57F0088
:100C6300120135238503120135A68803120135F3DA
:100C730089031201358EF2011201355EF50112016D
:100C83003564F501120135F4F70112013557FA0104
:100C93001201359798031201352E9903120135EC91
:100CA3009903120135169A03120135F09B031201C1
:100CB30035F59C03120135D1BC0112013503BD0189
:100CC300120135E8C60112013539C8011201354256
:100CD300C901120135C1CA0112013596CB011201B6
:100CE30035E5CB01120135FFCB0112013545CC01AE
:100CF3001201358ECC0112013597CC011201354317
:100D0300CD011201351CCE0112013563CE01120152
:100D130035CBCE011201350DCF011201353BCF0189
:100D230012013576CF011201354BBA03120135C1D9
:100D3300BA03120135D7BA0312013567BB03120197
:100D430035A4BB03120135DEBB0312013518BC0306
:100D53001201358BBC03120135CCBC03120135D50E
:100D6300BC03120135E1BC0312013500BD031201BE
:100D7300352ABD031201353FBD0312013567BD039B
:100D8300120135C9BD03120135F0BD031201350D42
:100D9300F10212013520F1021201353AF10212017A
:100DA3003567F102120135ADF102120135E0F102AE
:100DB3001201351EF20212013583F2021201359837
:100DC300F202120135AFF202120135BDF202120135
:100DD30035CCF202120135E1F202120135F6F202CC
:100DE30012013501F3021201350DF3021201351A16
:100DF300F3021201352DF30212013538F302120109
:100E0300355DF30212013501F40212013516F402C5
:100E13001201352BF40212013545F4021201356239
:100E2300F4021201357FF4021201358AF402120131
:100E33003536F50212013517F6021201353CF6027A
:100E430012013547F6021201355CF60212013570C4
:100E5300F602120135D1F602120135D7F60212015C
:100E630035DDF602120135E3F602120135FBF60217
:100E73001201352EF70212013571750012013593F7
:100E830075001201355B76001201351579001201E8
:100E9300352B7A001201354C7B00120135267C007C
:100EA300120135D57C00120135928E0212013529CB
:100EB3008F02120135C18F02120135B19002120166
:100EC30035E89002120135FB900212013569910257
:100ED3001201350493021201352B9302120135CD11
:100EE3009302120135029402120135139402120186
:100EF300358C9402120135AD9402120135C594026A
:100F03001201351D9602120135269802120135761B
:100F13009A02120135799B02120135C89B02120114
:100F230035008002120135FD8002120135E881028D
:100F3300120135F2810212013514820212013520A9
:100F43008202120135728302120135A1830212015A
:100F530035D184021201351385021201353F860211
:100F6300120135158702120135678702120135C652
:100F73008702120135FD87021201353888021201FA
:100F830035D38B02120135EC8B021201356E8C02C4
:100F93001201357C8C02120135D18C02120135DF2E
:100FA3008C021201354C8D02120135BE8D021201E5
:100FB30035048E02120135C8D403120135EDD40372
:100FC3001201355ED50312013540D90212013549AC
:100FD300D90212013552D90212013583DA02120104
:100FE30035A2DC02120135D8DC0212013512DD0212
:100FF30012013548DD0212013582DD02120135B6D8
:10100300DD02120135E2DD021201352BDE0212018F
:101013003565DE02120135ADDE0212013503DF0252
:1010230012013538DF0212013593DF02120135CD8B
:10103300DF021201351EE00212013554E0021201F3
:10104300358EE002120135B1E002120135D7DF031C
:1010530012013503E0031201355EE0031201356826
:10106300E00312013578E003120135B0F7021201F3
:1010730035EFF70212013578F8021201358DF802C7
:10108300120135D8F8021201350CF9021201354B61
:10109300F9021201355AF9021201350FFA0212014F
:1010A3003568FA02120135B7FA0212013510FB0254
:1010B3001201351DFC0212013516FD0212013553D2
:1010C300FD0212013529E10312013529A70112019D
:1010D30035A9A9011201351DAB011201357AAB0106
:1010E30012013523AC0112013520AD01120135A8DF
:1010F300AD011201352DAE0112013552AE011201BF
:1011030035A2AE0112013543B101120135B4B1016B
:10111300120135A0B201120135DAB2011201351AFA
:10112300B301120135BAB401120135EBB401120156
:101133003540B5011201358DB501120135FEB501FA
:1011430012013522B6011201353CB60112013552A6
:10115300B70112013562B701120135F3B80112016B
:101163003513B90112013549B901120135B9BA0173
:1011730012013532BB0112013571BB01120135A3D6
:10118300BC0112013543D103120135A7D10312016A
:101193003556D20312013575D203120135C9D20374
:1011A30012013526DF0312013537DF031201354003
:1011B300E2031201357FE20312013507E303120153
:1011C3003544DE0312013554DE031201356CDE03B0
:1011D30012013520DF031201355CDC03120135E017
:1011E300DC0312013546DD031201357ED6031201FD
:1011F30035A7D6031201350DD7031201352CD703BA
:101203001201357FD703120135D8D70312013513E5
:10121300D80312013516D803120135F4C4031201A1
:101223003509C5031201352DC60312013597C603CF
:101233001201350BC70312013525C7031201353CD3
:10124300C7031201354FC70312013567C7031201E4
:10125300357CC7031201359DC703120135EEC70361
:1012630012013588AE031201359FAE031201351802
:10127300AF03120135EDAF03120135BFB103120104
:101283003524B20312013563B203120135F87F002E
:1012930012013569CF03120135DFD0031201354046
:1012A300D103120135BED903120135E7D903120167
:1012B3003510DA03120135A9DA03120135C1DA0355
:1012C30012013503DB031201353FE10212013549F7
:1012D300E10212013589E102120135D2E102120164
:1012E300350CE20212013562E20212013581E2029B
:1012F30012013506E5021201350FE50212013560D0
:10130300E50212013589E5021201359EE50212015B
:10131300350EE6021201359CE602120135E0E602C3
:1013230012013508E70212013587E702120135CAB7
:10133300E70212013507E80212013519E80212012A
:101343003538E80212013541E8021201350BE90292
:1013530012013520D80312013571D803120135FA71
:10136300D80312013560D9031201359EC10312015E
:1013730035C8C103120135BDC203120135E2C203F0
:1013830012013583C30312013509C4031201350762
:10139300FF0112013567CD031201359DCD03120103
:1013A30035D6CD031201352FCF0312013582E00369
:1013B30012013598E003120135A2E003120135F85A
:1013C300E00312013589E10312013537E902120105
:1013D30035F4E9021201352FEA0212013557EA0208
:1013E300120135B9EA0212013505EB02120135701B
:1013F300EB02120135ECEB02120135E8EC021201AB
:10140300356FEE02120135F2EE0212013556EF028C
:101413001201356DEF0212013563F002120135AF8F
:10142300F002120135C4A103120135D9A10312013F
:101433003589A203120135C9A203120135E2A203C1
:1014430012013515A30312013562A3031201359668
:10145300A303120135D8A303120135D6A503120144
:10146300353CA60312013505A702120135F3A70285
:10147300120135BBA80212013543AB021201353804
:10148300AC021201355BAC021201359CAE021201B3
:1014930035EEAE0212013581AF02120135CCB00236
:1014A30012013567B102120135C97F001201358976
:1014B300E203120135C0E203120135E9E203E066FB
:1014C300701008A3E066700A08A3E066700408A31E
:1014D300E06622C3E7960809E7960809E796080934
:1014E300E79622C3E09608A3E09608A3E09608A334
:1014F300E09622C008C3E096F50808A3E0964208E8
:1015030008A3E096420808A3E09645087001D3D0EB
:101513000822080808EAC0E0EBC0E086F0E7A4FA76
:10152300180986F0E7A42AFA180986F0E7A42AFA2C
:10153300180986F0E7A42AFA1986F0E7A4FBE5F078
:101543002AFA190886F0E7A42BFBE5F03AFA190802
:1015530086F0E7A42BFBE5F03AFA18180986F0E7C2
:10156300A4C5F02BFBE43AFA1908E7C5F0C6A42694
:10157300F6E5F03BFBE43AFA1886F0E7A4F6E5F06B
:101583000826F6E43B08F6E43A08F6D0E0FBD0E0A0
:10159300FA22E4CFC0E0E4CEC0E0E4CDC0E0E4CC86
:1015A300C0E075F020E626F608E633F608E633F6E3
:1015B30008E633F6181818EC33FCED33FDEE33FE72
:1015C300EF33FFC3EC9709ED9709EE9709EF9719EE
:1015D3001919400FFFEC97FC09ED97FD09EE97FEF3
:1015E300191906D5F0BFECF709EDF709EEF709EF86
:1015F300F7191919D0E0FCD0E0FDD0E0FED0E0FFF0
:10160300226016080808C6C313C618C613C618C630
:1016130013C618C613C6D5E0EA22700908080822C3
:101623006016181818C6C333C608C633C608C633AF
:10163300C608C633C6D5E0EA22E627F60809E63728
:10164300F60809E637F60809E637F622E026F60833
:10165300A3E036F608A3E036F608A3E036F622E068
:1016630026F008A3E036F008A3E036F008A3E0363E
:10167300F022C3E697F60809E697F60809E697F617
:101683000809E697F622C3E096F008A3E096F0086F
:10169300A3E096F008A3E096F022E657F60809E6E1
:1016A30057F60809E657F60809E657F622E056F614
:1016B30008A3E056F608A3E056F608A3E056F62280
:1016C300E056F008A3E056F008A3E056F008A3E0C4
:1016D30056F022E066F608A3E066F608A3E066F695
:1016E30008A3E066F622E0F608A3E0F608A3E0F616
:1016F30008A3E0F622E6F008A3E6F008A3E6F00864
:10170300A3E6F022E0FAA3E0FBA3E0FCA3E0FD22C2
:10171300EAF0A3EBF0A3ECF0A3EDF022E0F8A3E0F2
:10172300F9A3E0FAA3E0FB22E8F0A3E9F0A3EAF0CF
:10173300A3EBF022CAC0E0E6F0A308DAFAD0E0FA9D
:1017430022CAC0E0E0A3C582CCC582C583CDC583D0
:10175300F0A3C582CCC582C583CDC583DAE6D0E0CC
:10176300CA22C3E498F8E499F91217A68026C3E4C1
:101773009AFAE49BFBE920E7E91217A6E498F8E458
:1017830099F922C3E498F8E499F91217A6E498F8B2
:10179300E499F9C3E49AFAE49BFB22EB20E7CFE94F
:1017A30020E7E0B90010BB0008E88AF084F8AAF04B
:1017B30022E4FBC8FA22EB70227B10C833C8C9337A
:1017C300C9335007C39AC3DBF280069A50012ADB60
:1017D300EAC833F4C8C933F4C9FA2275F008E4C877
:1017E30033C8C933C933C99AC99B5004C92AC93BF1
:1017F300D5F0ECFBC833F4C8E4C9FA22600D08C67F
:10180300A2E713C618C613C6D5E0F322600C08C6B8
:10181300C313C618C613C6D5E0F422700422600DA4
:1018230018C6C333C608C633C6D5E0F41822251834
:1018330010AF08F518400C15198008F5184002156B
:1018430019D2AF2200C0D0251810AF08F518500CDC
:1018530005198008F51850020519D2AFD0D02225FA
:1018630018F58210AF08F518400C15198008F51803
:1018730040021519D2AF851983222518F582E43564
:1018830019F583222518F8E43519F9222518FAE405
:101893003519FB222518FCE43519FD22E4732518BC
:1018A300C582C0E0E51934FFC583C0E0E518C395E0
:1018B3008224F810AF0885831985821880088583F0
:1018C30019858218D2AFCEF0A3E520F0A37808E6FD
:1018D30008F0A3DEFAEFF0A3E58124FAF8E608F0B6
:1018E300A3E608F0A3E608F0A30808E608F0A3E6D9
:1018F30008F0A315811581D0E0FED0E0F81581151D
:10190300811581E8C0E0EEC0E0222518C582C0E061
:10191300E51934FFC583C0E0E518C3958224F910A7
:10192300AF088583198582188008858319858218F5
:10193300D2AFCEF0A3E520F0A37808E608F0A3DE4B
:10194300FAEFF0A3E58124FBF8E608F0A3E608F03C
:10195300A30808E608F0A3E608F0A315811581D0D3
:10196300E0FED0E0F815811581E8C0E0EEC0E0228A
:10197300851983851882E0A3FEE0A3F5207808E0AB
:10198300A3F608DFFAE0A3FFE0A3C0E0E0A3C0E012
:10199300E0A3C0E0E0A3C0E0E0A3C0E010AF08858F
:1019A30082188583198008858218858319D2AFD060
:1019B30083D082020132851983851882E0A3FEE079
:1019C300A3F5207808E0A3F608DFFAE0A3FFE0A37D
:1019D300C0E0E0A3C0E0E0A3C0E0E0A3C0E010AF3C
:1019E300088582188583198008858218858319D212
:1019F300AFD083D08222C0D02518C582C0E0E519BC
:101A030034FFC583C0E0E518C3958224F310AF0803
:101A13008583198582188008858319858218D2AF3A
:101A2300C8F0A3E9F0A3EAF0A3EBF0A37908E70970
:101A3300F0A3D8FAECF0A3EDF0A3EEF0A3EFF0A33C
:101A4300D0E0F0A3D0E0F0A3D0E0F0A3E520F0A332
:101A5300E5F0F0A322851983851882E0C0E0A3E0B6
:101A6300F9A3E0FAA3E0FBA37808E0F608A3DFFA02
:101A7300E0FCA3E0FDA3E0FEA3E0FFA3E0C0E0A33E
:101A8300E0C0E0A3E0F5D0A3E0F520A3E0A3F5F0E8
:101A930010AF08858319858218800885831985828C
:101AA30018D2AFD082D083D0E0F8D0E03274048073
:101AB30006740280027401C0E0F404121862D0E0DC
:101AC300121737227404800474028000CCC0E0ED46
:101AD300C0E0E518C39CCCAD1950011D10AF068CB6
:101AE300188D1980068C188D19D2AF121744D0E0C7
:101AF300FDD0E0FC22D083D082E9C0E0E493A3C30D
:101B030086F0C5F095F0F908E493A386F0C5F09547
:101B1300F0700BE493A3C3994005E9048002A3E4A6
:101B230075F002A42582F582E5F03583F583D0E0D4
:101B3300F9E493A3C0E0E493C0E022D083D082EC25
:101B4300C0E0EDC0E0E493A3FCE493A3FDED4C609F
:101B53000D121B8AEC24FFFCED34FFFD80EFE493B0
:101B6300A3FCE493A3FDED4C600D121BC9EC24FF11
:101B7300FCED34FFFD80EFD0E0FDD0E0FCE493A367
:101B8300C0E0E493C0E022C0E0C3E493960874018C
:101B9300939618400FE493667008087401936618CF
:101BA30070007019A3A3C3E4939608740193961865
:101BB300A3A3400DD0E0D0E0D0E0021B7AA3A3A3FF
:101BC300A3A3A3D0E022C0E0C0F088F0E493667042
:101BD300080874019366187000A8F0A3A3700BD0D3
:101BE300F0D0E0D0E0D0E0021B7AA3A3D0F0D0E0A5
:101BF3002274F612190DEAFEEBFF8C088D09EE2410
:101C030034F8E43FF9E8FCE9FD121D27E0FAEE247D
:101C130037F582E43FF583E0F88508F0A4C885F042
:101C23000A8509F0A4250AF9EA28F8E439F97A259E
:101C33007B001217A6EA8C828D83F0FA13131354D8
:101C43001FF8EE28F8E43FF9E8245DF582E439F55E
:101C530083E0C0E074075AF8D0E0B800028004C300
:101C630013D8FCA2E05003EA8020EE2436F582E488
:101C73003FF583E0F5F0EA84A8F0EE28F8E43FF9B5
:101C8300E82438F582E439F583E0F97F030219B9D2
:101C930074F512190DEAFEEBFFEE2434F582E43FEE
:101CA300F583E0C0E0121D27D0E0F08E828F83A37E
:101CB300A3A3A3A3E0FAA3E0FB8E828F83A3A3A332
:101CC300A3A3A3A3E0FCA3E0FDECC39AF50AED9B59
:101CD300F50BEE247FF508E43FF509850882F583CB
:101CE300E06401702AEE2480F582E43FF583121A42
:101CF300CB121D317402121847E960137CBD7D06B7
:101D0300EEFAEFFB120B6D850882850983E4F0ACD4
:101D13000AAD0BEEFAEFFB121BF4E9F912261B7F57
:101D2300040219B9EE2435F582E43FF58322C0821B
:101D3300C083851882851983E0F8A3E0F9C3EA9C80
:101D4300EB9D5010C3EC98ED99401BC3EA98EB99B7
:101D53005014800EC3EA98EB994007C3EC98ED99B1
:101D63004004790180027900D083D0822274ED127D
:101D7300190D900369E064086005E06407702C9016
:101D830061C8E06026900397E0F874FF68601CE880
:101D930075F00CA4C8AAF02AF9749928FE740339C3
:101DA300FF8E828F83A3A3A3E070057900021F092E
:101DB300EE2468F50EE43FF50F906060E0850E8237
:101DC300850F83F07510F975110675080075090004
:101DD300E5D914F50AE5D95403F50B601FEE248207
:101DE300F50CE43FF50D7403650B6059E50A6017C4
:101DF300EE2467F582E43FF583E0700B793DEEFA5C
:101E0300EFFB120B9D80A49006F4E0640160238530
:101E13000C82850D83E060047A0480027A00E50A6F
:101E2300C39AFA95E0FB1209E78A088B09EA450988
:101E33007006120E5B021DAE850C82850D83E07069
:101E4300048A108B117A008014E5D9C0E0EAF8E522
:101E53001028F582E43511F583D0E0F00AEAC39542
:101E63000A40E6850C82850D83E0602874FC250A10
:101E7300F50A7810121AB4AC0AA90BEEFAEFFB12AA
:101E83000C577402121847E9700AAA08AB09121317
:101E930059021DFF7403650B6054850A0C750D0010
:101EA300780C121AB4AC10AD11AA08AB09120C1BB2
:101EB3007402121847850E82850F83E0F8748068D8
:101EC3007005750C7F8002880CE50CF50D780D12FA
:101ED3001AB8780B121AB8A90AAC08AD099003977F
:101EE300E0FA7B0012083174021218478013900342
:101EF30069E06408700BAC10AD11EEFAEFFB120C45
:101F030087120E6779017F0C0219B974F312190D48
:101F130074FC121831EAFEEBFF8909A2AFE433F532
:101F230008C2AFEE2463F50AE43FF50B8010AA0A5A
:101F3300AB0B120BD31213599006C4E004F0850ABD
:101F430082850B83E0F8A3E0F9E849602DE82402D9
:101F5300FAE439FBEA2402F50CE43BF50D780C12A4
:101F63001AB48A828B83E0FCA3E0F9EEFAEFFB124A
:101F73000BC77402121847E960B49006C4E0604DC1
:101F83009006C5E0F89006C4E0C398500C7402654F
:101F930009703A9006C6E060348E828F83A3A3A3B0
:101FA300A3E0851882851983121FE0740212187D3D
:101FB300E8121FE09006C3E028F07402121897AAF3
:101FC30018AB19790112088B9006C4E4F0E508A256
:101FD300E092AF74041218477F060219B9F0A3E424
:101FE300F09006C4E0F8220000851B87851CC622FA
:101FF300C0E074EB1219F9A2AFE433F508C2AF7570
:102003009B00906182E0A2E05030E591A2E0502A6B
:102013007591FE7401651B7021122186120D7112D8
:102023002174121AC71225577404121847E9640160
:1020330070057901120DBF121D70906182E0A2E557
:10204300505DE591A2E550577591DF900369E06417
:10205300076005E06408702F1221867401651B7008
:102063003E120D71122174121AC7122557740412ED
:102073001847E9640170057901120DBF7901EEFA81
:10208300EFFB121F0E8018E0640D701390038BE0BA
:1020930004F064287002E4F07A00E0F9120E6D9007
:1020A3006182E0A2E64003022149E591A2E64003F2
:1020B3000221497591BF900369E064057008120D10
:1020C30059120D658003120D5F751B00120DDDE9BA
:1020D30090036AF07900120DBF120AD17A017B00D6
:1020E300900368E0F9121329907803E06442705674
:1020F3009006F8E014F0704EC2AF12210000781E73
:10210300D0E0F618D0E0F6E59F5407F87005750D9A
:10211300FF8003750D7FC4C0E0781DE6F50A08E66D
:10212300550DF50B740B780A12180FD0E0250AF839
:10213300906270E0A2E740F8E8C333906272F090D7
:102143006270E0D2E0F0906181E0A2E35009E5E93A
:10215300A2E3500375E9F7A3E0A2E75009E591A2D2
:10216300E7500375917FE508A2E092AF7F08021A5A
:10217300588E828F83E0F8A3E0C82416F582E438F2
:10218300F58322900397E0F875F00CA4C8AAF02A0F
:10219300F9749928FE740339FF22C0E0C0D0C082CD
:1021A300C083906183E0A2E05009E5BFA2E0500341
:1021B30075BFFEE0A2E15009E5BFA2E1500375BF80
:1021C300FDE0A2E25009E5BFA2E2500375BFFBE0C8
:1021D300A2E35009E5BFA2E3500375BFF7E0A2E411
:1021E3005009E5BFA2E4500375BFEFE0A2E5500933
:1021F300E5BFA2E5500375BFDFE0A2E65009E5BFE6
:10220300A2E6500375BFBFD083D082D0D0D0E032D6
:10221300C0E074F21219F9E5A7A2E4500FE5A1A2F8
:10222300E4500953A7EF75A1EF122267E5A7A2E5D2
:10223300500CE5A1A2E5500653A7DF75A1DFE5A782
:10224300A2E15009E5A1A2E1500375A1FDE5A7A212
:10225300E2500CE5A1A2E2500653A7FB75A1FB7F58
:1022630001021A5874F812190D751B01900369E0E5
:10227300640670077A007B00120D41A2AFE433FEBF
:10228300D2AF90036FE0640170187A207B00900353
:1022930068E0F91214497A207B00900368E0F91290
:1022A300132F906182E0D2E6F09006F5E06021857D
:1022B300C61C801690036EE064017008E5C654F8EE
:1022C3004405F5C653BEFC121FEC7401651B60E4A4
:1022D300EEA2E092AF7F010219B974E912190D74ED
:1022E300FA121831EAFEEBFF8C088D09120D83EA0E
:1022F300F8EBF9ECFAEDFB8E828F8312172B900328
:1023030069E024F7C39405500675100102241412E2
:102313000CE18A0A8B0BEA450B7003022411120DA0
:10232300778A0C8B0D120D77EA650C7003EB650D44
:1023330060ECEEFCEFFDAA18AB19120D7D850A8245
:10234300850B83A3A3780C1216E990905A780C128C
:1023530016B085188285198378141216E990905A5D
:1023630078141216B0780C79141214D6501F780C06
:10237300791412167590908A780C1214F6404785DA
:102383000C10850D11850E12850F13804590908AD0
:102393008514108515118516128517137810790C7D
:1023A30012167578101214F6501C75100075110072
:1023B3007512007513017810791412167578107957
:1023C3000C12163C800C7510017511007512007506
:1023D30013007409781012161D909066780C12166B
:1023E300E97810790C121595900369E06408600A86
:1023F300E064066005E06405702090908678101212
:1024030014F650169090AE781012164F800C75107B
:102413000075110075120075130085088285098304
:1024230078101216F874061218477F100219B9743F
:10243300F712190D120D959006F3E06401701090D8
:102443006245E4F0A3F053F4F343FE0C5390F3120C
:102453000D2FE5C654B84441F5C6E59E5447644183
:1024630070F8906185740FF09006F1E0F47002A3A8
:10247300E0602C7508017509009006F1E0780812F8
:10248300181EE508F4FAA3E0600814600A14600C4F
:10249300800DEA52808008EA52908003EA52A079C4
:1024A300007F020219B974F712190DE9FEEAFF74ED
:1024B300016E700C7A807B00900368E0F912132997
:1024C3009026A0E493F46008E493F9120AB3800918
:1024D30053C6B8E59E544770FA120D359006F3E0E3
:1024E30064017003120AE99006F1E0F47002A3E0BC
:1024F300602B7508017509009006F1E07808121841
:102503001EE508FAA3E0600814600A14600C800D4D
:10251300EA42808008EA42908003EA42A0120CE17A
:102523008A088B09A808A909E8496016E5E170FC47
:10253300E82414F582E439F583E0F874FF68600257
:1025430088E174016F700A7A01900368E0F912134D
:10255300B90224A474F112190D8A088B098C0A8D0F
:102563000B90905A78081216B0740F12187D780CDD
:102573001216E990905A780C1216B07808790C125A
:1025830014D690908A50107808790C121675780832
:102593001214F64014800E780C7908121675780C14
:1025A3001214F650047901800279007F080219B9E8
:1025B30074ED12190D8A088B098C0A8D0B90905AB1
:1025C30078081216B0741312187D780C1216E9905D
:1025D300905A780C1216B0780C79081214D6401160
:1025E3007808790C121675AA08AB09AC0AAD0B80F2
:1025F300227510007511007512007513017810799A
:102603000C1216757810790812163CAA10AB11AC8F
:1026130012AD137F0C0219B9C082C083E990600028
:10262300F0D083D08222C0E074F21219F9A2AFE491
:1026330033FED2AFE589A2E1500312120975890076
:10264300C2C5751A00EEA2E092AF7F01021A58C00C
:10265300E074F21219F9A2AFE433FED2AFE58BA214
:10266300E05003121209758B00C2E880D5C0E0C0A8
:10267300D0E8C0E0E9C0E0A9A8D2AFC2C7751A008C
:10268300E9A2E7E433F8E9A2E792AFD0E0F9D0E0BA
:0C269300F8D0D0D0E032C2AF020000222C
:1026A000FFFFFFFFFFFFFFFFC082C083E9901B0D0C
:1026B000F0D083D08202013274F61218A1E99002A0
:1026C000DCF090033BE0F50875090074027808120D
:1026D000181EAA08AB091213A19002DD12306B90EC
:1026E00002DD123458606F90033BE075F003A4FAEA
:1026F000ABF01213A19002FA12306B9002FA12346E
:1027000058700B9002DD1234291213A780489002F2
:10271000FA1243BD7AFF7BFF1211857A0080198A75
:10272000087509007402780812181E123E6574FFBD
:1027300012286BE4F0A3F00A90033BE0F8EAC39898
:1027400040DD79051207299002DCE0F91206157ABE
:10275000B37B07120987023F0874F41218A18A0894
:102760008B09EB548060479002DCE0F91213118A68
:102770000A8B0BAE0AAF0BEE4F602A8E828F83E07E
:1027800064B0701A12073BE960148E828F83A3A392
:10279000A3A3E0F9EE2405FAE43FFB12070BEEFADF
:1027A000EFFB1212FFAA08E5096480FB80047A009F
:1027B0007B000229BB74F21218A174FB121831EAD3
:1027C000FEEBFFEE4F6045740312187DEEF0A3EFB1
:1027D000F0851882851983ECF0A3EDF074021218CD
:1027E0007DE9F0AA18AB1912060FE9F508707574A7
:1027F0001312187DE0F50AA3E0F50BE50A450B601E
:10280000638E828F83122DF4EE4F7005750802805F
:10281000537A067B001213A18A0C8B0DA80CA90D0C
:10282000E8497005750813803B88828983E4122883
:102830006BEEF0A3EF122987E50AF0A3E50BF09009
:1028400002E01229809002E06017E0FCA3E0800320
:10285000EAFCEBFD8C828D8312298070F38C828DD3
:1028600083123A80A908740502463DF0A312439FE3
:10287000A32274F21218A18908890C750D00740343
:10288000780C12181E850C0A850D0B9002DFF09053
:1028900002DD12388B12297E602E1213A779008078
:1028A0001D890C750D007402780C12181E9002DD43
:1028B000123D248882F583A3A3E4F0A3F0099003DA
:1028C0003BE0F8E9C39840D990033BE0FA850AF071
:1028D000A4CAA8F0850BF0A428FB1213A18A0C8BC4
:1028E0000DAE0CAF0DEE4F700302297490033BE068
:1028F000FC850AF0A4CCA8F0850BF0A428FD790093
:102900001212E77C0080318D0C750D007403780C79
:1029100012181E8A828B8312297988828983E4F0B7
:10292000122986A3A3F0A3F00DEDC3950840D8EEBD
:10293000250AFEEF350BFF0C90033BE0F8ECC39843
:1029400050288C0C750D007402780C12181E900221
:10295000DD122979E82402500109FAE9FB8A828B09
:1029600083EEF0A3EFF07D0080BFE5089002DFF07A
:10297000790080027913024640123D28F922A3A370
:1029800012342DEA4B22A312439FA3A3A32274F473
:102990001218A17900EAA2E0501F7508327509905B
:1029A0007808121AB479107C047D007A0F7B1B1210
:1029B00007237402121847E9F980007F0402197393
:1029C000C082C0839002E0123458601C88828983E0
:1029D000A3A3E06A7003A3E06B8882898370E8A3F5
:1029E000A3A3A312342980047A007B000226B174C9
:1029F000F21218A174FD121831EAFEEBFF8518825D
:102A0000851983E4F0A3F0740212187D7401F012AA
:102A1000345570141208D91213A19002E312306BCE
:102A20001234557003022B8112316BEE2404F50A27
:102A3000E43FF50B850A82F583E024FE603C24FC2C
:102A4000607424FE607E24FE7003022AD124FE708E
:102A500003022ADE24FE7003022AEB24FE70030226
:102A60002AF824FE7003022B0524FC7003022B2697
:102A700024FE7003022B3E022B7A1208D99002E545
:102A8000EAF0A3EB122B8D12026DE96003022B7AA0
:102A90009002E5121ACB8E828F83A3A3A3A3A31265
:102AA00043BD8508828509831234291206F3740216
:102AB000121847022B7AAC18AD19EEFAEFFB120789
:102AC00041022B49AC18AD19EEFAEFFB1207478013
:102AD00078AC18AD19EEFAEFFB12074D806BAC180D
:102AE000AD19EEFAEFFB120753805EAC18AD19EE8C
:102AF000FAEFFB1207598051AC18AD19EEFAEFFB53
:102B000012075F80447402121887880C890D780CB4
:102B1000121AB47402121897EEFAEFFB12076574DA
:102B2000021218478023AC18AD19EEFAEFFB12071A
:102B30006BE9F87016740212187DE4F0803CAC1852
:102B4000AD19EEFAEFFB120771E9F8E8602C8E82FE
:102B50008F83A3E064146022850A82850B83E09052
:102B600002E5F08518828519831234299002E61255
:102B7000306BE8A3122B8D120267EEFAEFFB120600
:102B8000C9740212187DE0F9740302463DF07CE539
:102B90007D0285088285098312342D2274E812187B
:102BA000A174FA121831740412187DECF0A3EDF040
:102BB0008A128B13EA2405F50EE43513F50FEA2487
:102BC00002F510E43513F511851082F583123429CE
:102BD0001203B18A0A8B0B7508007C037D00790013
:102BE0007AE57B021212E7E50E2402F516E4350FB2
:102BF000F5177402121887880C890D780C121AB414
:102C0000850E82850F83A3A3A3A3E0F50C750D00A9
:102C1000780C121AB4E50E2405F50CE4350FF50D09
:102C2000780C121AB4851682851783123730120673
:102C30002D74061218478A0C8B0DE50C450D700398
:102C4000022DBD8020851882851983E088828983C2
:102C5000F00508851882851983A3E0C0E0122DFED7
:102C6000D0E0F00508E50A24FBFAE50B34FFFBC3CE
:102C7000E5089AE49B4003022DBD7E007F0085128B
:102C800082851383A3A3A3A3E0F5097809121AB8D8
:102C9000E4F514F5157814121AB47514E2751502DA
:102CA0007814121AB49002E3121ACB740912187D28
:102CB000121ACBE50A24F9F9AC0CAD0D851082850A
:102CC000118312342912079B7409121847E9600313
:102CD000022D5E850E82850F83A3A3A3A3A3A3A3C6
:102CE000E0F89002E2E0687075E0F5148E15781453
:102CF000121AB41243BA850E82850F83A3A3A3A32D
:102D0000A3A3A3A31234291212E17402121847E9F3
:102D1000604C9002E6123458703BE4F514781412BB
:102D20001AB47CFF7DFF79078510828511831234E8
:102D300029120705740212184712345E7017850EA7
:102D400082850F83124557740412187D123E1812A3
:102D50003761022DF1850C82850D83122DF4A818A0
:102D6000A919881489157814121AB4740412187DDC
:102D7000121ACB85168285178312306112063974B8
:102D8000041218478A0C8B0DEE4F7003022C3A1276
:102D90002DFEEE122E09123717EF122E09F8A3E0BE
:102DA0003400F9E50C450D6003022C4588828983C7
:102DB00074FFF00508122DFE74FFF00508E50860A9
:102DC0001A1313543F123071120279E9600990020C
:102DD000E612342912135979008016850E82850F68
:102DE00083124557740412187D123E18123A8079E6
:102DF0000A0236EAA3A3A3A3E0FEA3E0FF22A808E9
:102E00009002E6E02812371722F00508089002E643
:102E1000E0282274E81218A174FA12183174021210
:102E2000187D12306B740412187DECF0A3EDF07471
:102E30000212187DE02405123700E0F50CA3E0F53E
:102E40000D740212187DE02402F510A3E03400F5A1
:102E500011851082F5831234291203B175080075AB
:102E60000900EA24FCFEEB34FFFF8008050CE50CAA
:102E70007002050DA808C3EE98EF940050030230CD
:102E80001DA818A919880E890F780E121AB4851476
:102E900082851583A3A3A3A31243C1121AB4E51418
:102EA0002405F50EE43515F50F780E121AB48514C5
:102EB0008285158312305F12062D74061218478A18
:102EC0000E8B0FEA450F700302301DEA2404F5163D
:102ED000E4350FF517851682F583E0F50CA3E0F5D0
:102EE0000D8518828519831243BD8A828B83A3A323
:102EF000A3E0F985108285118312342912061BE99B
:102F0000F509600302301D740212187D123727F58F
:102F1000097809121AB8E4F512F5137812121AB4E6
:102F20007512E27513027812121AB49002E3121AA3
:102F3000CB740712187D121ACBEEF9AC0EAD0F85CB
:102F4000108285118312342912079B7409121847C5
:102F5000E9F509600302301DE508703FE4F50EF560
:102F60000F780E121AB47CFF7DFF790985108285D7
:102F70001183123429120705740212184712374DB3
:102F8000700D740412187D12305479110230519072
:102F900002E2E024029002E6F080149002E6E0FAF9
:102FA0009002E2E0790024025001096A497072A897
:102FB000089002E2E0FAE82AFAE43400FBEE9AEF25
:102FC0009B405A851682851783E0C0E09002E71285
:102FD0002E03D0E0F00508851682851783A3E0C094
:102FE000E0089002E7122E03D0E0F005089002E21C
:102FF0001243C1121AB41243BAA8081236F41212BC
:10300000CF74021218479002E2E02508F50874FF19
:10301000650C700474FF650D6003022E6CE508609A
:103020001F9002E6E0F5F0E5088412307112027F8D
:10303000E960099002E712342912135979008011CE
:10304000E509700375090A740412187D123054A939
:10305000090236EA12388FE50CF0A3E50DF022A341
:10306000A312464CAA0CAB0D22A3A3EAF0A3EBF0EB
:10307000229002E5F07CE57D0285108285118312A5
:10308000342D2274EC1218A174FC121831123B90EA
:1030900074021218971234231206338A0C8B0DEA2D
:1030A000450D700302315B12316BA818A919881005
:1030B00089117810121AB47CFF7DFF790B85088284
:1030C0008509831234291207057402121847123237
:1030D00061700C850A82850B8312375E0231688E1F
:1030E000828F83A3A3A3A3E0F5127812121AB8E487
:1030F000F512F5137812121AB47512E575130278E9
:1031000012121AB47810121AB4740912187D121A15
:10311000CB740912187DE0F9AC0CAD0D85088285E1
:10312000098312342912079B7409121847E9FE70AB
:10313000157CE57D028508828509831234291202F7
:1031400085E97009802074166E70027E009002E698
:10315000123429121359EE7004800B7E01850A8205
:10316000850B83123A7DEEF9023A92EE2402F508BD
:10317000E43FF5092274EC1218A174FC121831EA2C
:10318000FEEBFF8C0E8D0FEE2405F508E43FF509EC
:103190007402121897850882850983123429120651
:1031A000338A0C8B0DEA450D7003023251EE240276
:1031B000F50AE43FF50BA818A919881089117810B1
:1031C000121AB47CFF7DFF790D12342312070574A7
:1031D00002121847123261700B850882850983122A
:1031E000375E807A8E828F83A3A3A3A3E0F5127843
:1031F00012121AB8850882850983A3A3121ACB7507
:1032000012E57513027812121AB47810121AB474F7
:103210000912187D121ACB740912187DE0F91234C4
:103220001F12079B7409121847E9FE700F7CE57D99
:103230000212342312028BE97009802074166E701A
:10324000027E009002E6123429121359EE700480B7
:103250000B7E01850882850983123A7DEEF9023AD8
:1032600092123468F510A3E0F511EA45112274E8D2
:103270001218A174FE1218318A168B178C148D1532
:10328000EA2405F50CE43517F50DEA2402F50EE401
:103290003517F50F850E82F5831234291203B18A92
:1032A000088B09750B007C037D0079007AE57B02B1
:1032B0001212E7750A00E50814F5100424FFF5085A
:1032C000E50934FFF50980549002E5E0FA9002E246
:1032D000E0F8EA28F8E43400F9E50898E50999509F
:1032E0000D9002E5E0F8E510C3989002E2F0E0F5F9
:1032F000127513007812121AB41243BA9002E6E063
:103300002AFAA3E03400FB1212CF7402121847907D
:1033100002E2E0F89002E5E028F0050A850C8285DB
:103320000D83A3A3123D3440030234049002E5E070
:10333000C39508E495094003023404AE0AEE2EFE5C
:10334000E433FF123443AC18AD191243D5E439FB12
:103350001206338A128B13AC12AD13EC4D701B7531
:103360000B01123433123A819002E6122980600375
:10337000121359A90B74020236EC85168285178345
:10338000A3A3A3A3E0F50B780B121AB8E4F512F58A
:10339000137812121AB47512E27513027812121A07
:1033A000B49002E3121ACB740712187D121ACBA93B
:1033B00010850E82850F8312342912079B7409121F
:1033C0001847E9F50B709B9002E61234586003022F
:1033D00032C8E4F512F5137812121AB47CFF7DFF9F
:1033E000790F850E82850F83123429120705740226
:1033F00012184712345E60030232C8123433123797
:10340000620233757CE57D02850E82850F8312345E
:1034100029120291E960030233687900023375AC26
:103420000CAD0D850A82850B8312342D22E0FAA3A0
:10343000E0FB22123443E0FAA3E0F9EA8514828526
:10344000158322850C82850D83E02EF8A3E03FF9D9
:1034500088828983229002E312455BE84922123474
:1034600068F8A3E0F9E849229002E6EAF0A3EBF05D
:103470009002E6E02274E81218A174FA121831746E
:103480000412187D12306B8C168D17740412187D7F
:10349000E02405F50EA3E03400F50F740412187D46
:1034A000E024021237001234291203B18A0A8B0B6E
:1034B0007F007E00A818A919880889097808121ABF
:1034C000B4850E82850F83A3A3A3A3E0F5088E091C
:1034D0007808121AB4E50E2405F508E4350FF5094D
:1034E0007808121AB4850E82850F83A3A312373091
:1034F00012062D74061218478A0C8B0D802912377C
:1035000021F00F123721F00F9002E2123A6C121ADA
:10351000B41243BAEFF81236F41212CF7402121832
:10352000479002E2E02FFFE50C450D70030235B035
:10353000851882851983123BA2A3A3A3E0F9851401
:103540008285158312342912061BE9FEE50C24043A
:10355000F510E4350DF511EE7050740412187D125B
:103560003727F5087808121AB8E4F508F50978083D
:10357000121AB47508E27509027808121AB490029A
:10358000E3121ACB740712187D121ACBE50A24FA3B
:10359000F9AC0CAD0D851482851583123429120700
:1035A0009B7409121847E9FE603912373D123A80C0
:1035B000EF70030236D79002E6E0F5F0EF84900258
:1035C000E5F07CE57D02851482851583123429128D
:1035D0000297E960099002E7123429121359790021
:1035E0000236EA8F08EF703BE4F512F513781212F9
:1035F0001AB47CFF7DFF79118514828515831234FE
:1036000029120705740212184712374D7009123734
:103610003D1237610236EA9002E2E024049002E6AD
:10362000F080359002E2E0F89002E6E0FAE8240447
:10363000FCE43400FDEC6A4D60030235B6E50A2473
:10364000FAFAE50B34FFFBE50828F8E43400F9EA60
:1036500098EB9950030235B6851082851183E0C03E
:10366000E09002E7E02FF8A3E034008882F583D0F1
:10367000E0F00F851082851183A3E0C0E012370EC1
:10368000D0E0F00F740212188788088909780812B0
:103690001AB4740212187D121ACB850E82850F831C
:1036A00012305F12063974041218478A0C8B0DEA27
:1036B000450D70030234FE740212187DE0C0E01262
:1036C000370ED0E0F00F740212187DA3E0C0E012B4
:1036D000370ED0E0023506EE70027E0A850E828536
:1036E0000F83123743123A80EEF974061218477F9F
:1036F000100219739002E7E028FAA3E03400FB22DD
:10370000F514A3E03400F515851482F583221237F1
:1037100012229002E7E02FFAA3E034008A82F583B8
:103720002212371274FF2212388FA3A3A3A3E02220
:1037300012464C850E82850F8312342D228510820D
:1037400085118312455B851682851783229002E7D7
:10375000EAF0A3EBF09002E712455BE84922123A47
:1037600086E8F0A3E9F079112274EA1218A174FE38
:103770001218318A088B098C128D13EA2405FEE495
:103780003509FFAC18AD198E828F831234291206C9
:10379000338A0C8B0DEE2406F50EE43FF50FEA4557
:1037A0000D7003023861E5082402F50AE43509F5D5
:1037B0000B8A828B83A3A3A3E0A2E55028851882FD
:1037C00085198312342912078F8A108B11EA45114B
:1037D0006020791212341F85108285118312189F80
:1037E000E9F50C707F850E82850F83E060097952C0
:1037F0008011750C0E806D850882850983A3A3A3B3
:10380000A3E0F9E4F508F5097808121AB48E828F5E
:1038100083A3A3E0F5087808121AB48E828F83A3DD
:10382000A3A3121ACB8E828F831243BD12342312AC
:1038300007A17406121847E9F50C7011850E8285F0
:103840000F83E0702D12342312029D8025741665BB
:103850000C7011750C00741812187D12388BE480EE
:1038600010750C01124553851282851383E8F0A36D
:10387000E9F0850E82850F83E0600479008002A95B
:103880000C74021218477F0E02197312388F22E04F
:10389000F8A3E0F58388822274EC1218A174F71261
:1038A00018318A0A8B0B8C108D11EA2405FEE43541
:1038B0000BFF750C00AC18AD198E828F8312342962
:1038C0001206338A088B09EA45097003023A57E564
:1038D0000A2402F50A5002050B8A828B83A3A3A354
:1038E000E0A2E5502F85188285198312342912072A
:1038F0008F8A0C8B0DEA450D604F7912AC08AD092B
:10390000123423850C82850D8312189FE9F50C6013
:1039100003023A5A850A82850B83E0F508A3E0F595
:1039200009AA08FB120783EA4B70197AFF7BFF1282
:103930000783EA4B7003023A4D8A828B83E508F0D5
:10394000A3E509F07508008008750C0E023A5A05C7
:10395000089002DFE0F8E508C3984003023A4D857D
:10396000080E750F007403780E12181E8A828B835E
:10397000A3A3E0250EF8A3E0350F123E2170D08EF0
:10398000828F83123A7512306B8E828F83A3A312BB
:103990003A75123069EE2404F508E43FF50985080C
:1039A00082F583E088828983A3A3A3A3F0A3E4F034
:1039B000EE2405F50EE43FF50F850E82F583123AED
:1039C00075A3A3A3A31230697512077513007812AB
:1039D000121AB4EEFCEFFD740412188F1212CF7499
:1039E00002121847E4F5127812121AB4850882857B
:1039F0000983E0FC7D007917123423120705740255
:103A0000121847740712187D12306B740712187D54
:103A1000E0FA4B603D850882850983123A6C121AE0
:103A2000B4850E82850F831243BD1212CF74021229
:103A3000184774021218971234231202A3E9602661
:103A4000740712187D1234291213598019750C0944
:103A50008008750C118003750C0112455385108286
:103A6000851183123A80A90C74098028E0F5087545
:103A7000090078082212342D8882898322123A861E
:103A8000E8F0A3E9F022E0F8A3E0F9850E82850FC3
:103A9000832274041218477F0C02197374EC1218F5
:103AA000A1123B90751000EE2402F50CE43FF50DD9
:103AB000850C82F5831234291207838A088B09EA60
:103AC00045097003023B74850A82850B83E064011B
:103AD0006003023B69AC08AD09AA0AAB0B12077779
:103AE000E9606E850882850983122DF6EE2406F5BD
:103AF0000AE43FF50B8E828F83A3A3121ACB8E822A
:103B00008F83A3A3A3A3121ACB850A82850B8312EA
:103B10001ACB79188E828F83123BA2123429120796
:103B2000A17406121847E9F8741668700B850A82AA
:103B3000850B83E4F0A38014E860128E828F8312D9
:103B40003429850E82850F83EAF0A3EBF08810807C
:103B500018780E121AB4AC08AD09EEFAEFFB120792
:103B60007D7402121847E9F510AA08AB09120789FB
:103B7000E510700E850C82850D831234291202A97E
:103B80008009741665107003751000A910023A9729
:103B9000EAFEEBFF8C0E8D0FEE2405F50AE43FF5EF
:103BA0000B2212464C850C82850D832274EA121872
:103BB000A17508007509007E007F00750A00EC24DD
:103BC00002F510E43DF5118035EC65087003ED65F4
:103BD000096003023C6188828983A3A3E06A7003C1
:103BE000A3E06B707C88828983A3A3A3A3124557AB
:103BF000EE28FEEF39FFEA28FAEB39FB050A123D01
:103C000031503A850A0C750D007403780C12181E99
:103C1000851082851183123D24123E21601FE50824
:103C2000450970A58C088D0988828983122DF48836
:103C3000828983A3A3E02EFAA3E03F80BEE50AC3F6
:103C400094025003023D1F750800750900EE4F6095
:103C500010EEFAEFFB1213538A0E8B0FEA450F702A
:103C6000057900023D21750B00023CF4850B0C75B3
:103C70000D007403780C12181E851082851183E0E4
:103C8000250CF50CA3E0350DF50DE50C2406F51417
:103C9000E4350DF515851482F583123E266042E564
:103CA0000C2404F512E4350DF513851282F5831208
:103CB0001ACBE50E2508FAE50F3509FB1212CF7471
:103CC00002121847851282851383E02508F508A3A0
:103CD000E03509F5098514828515831234291213FC
:103CE00059E50B600D7C087D007900AA0CAB0D1224
:103CF00012E7050BE50BC3950A5003023C6C8510D7
:103D00008285118312455788828983A3A3A3A3A325
:103D1000A3E50EF0A3E50F122987EEF0A3EFF079EB
:103D200001023886123D2822E0250CF8A3E0350D6B
:103D3000229002DFE0F8E50AC3982274F01218A17D
:103D40008A0E8B0F8C0A8D0B750D00750C00805040
:103D50007916EE2406F508E43FF5098E828F83A3D9
:103D6000A3121ACB8E828F83A3A3A3A3121ACB858F
:103D70000882850983121ACB850E82850F83A3A33F
:103D80001234291207A17406121847E9F50D7416AA
:103D9000650D706C850882850983E4F0A3F0050C3D
:103DA0009002DFE0F8E50CC3985066AA0C8A08750B
:103DB00009007403780812181E850A82850B83A3F4
:103DC000A3123E70E8FEE9FF8E828F83123E2660CA
:103DD00040EA2401F508E43400F5099002DFE065CB
:103DE000087002E509601488828983A3A3A3A3A3B2
:103DF000A3A3A31234586003023D507918023D5228
:103E0000E9609B124553741012187D123E18123A45
:103E100080A90D7F08021973E0FAA3E0F5838A8276
:103E200022F98882898312464CEC4D2274F61218CE
:103E3000A17C0080010C90033BE0F8ECC398501E7D
:103E40008C087509007402780812181E123E65E08D
:103E50006A7003A3E06B70DDE8FAE9FB80047A0086
:103E60007B00023F089002DD123E70888289832227
:103E7000E02508F8A3E03509F92274F21218A18AA6
:103E8000088B09750A0080278E828F83A3A3A3A3C2
:103E900012297E60031213597C087D007900EEFA26
:103EA000EFFB1212E78E828F83E4F0A3F0050A1273
:103EB0003D315027850A0C750D007403780C1218DB
:103EC0001E850882850983A3A3E0250CFEA3E035A7
:103ED0000DFF8E828F8312345870AD85088285095C
:103EE0008374FFF0A3F002464074F61218A1120783
:103EF000358A828B83E582458370067A007B008059
:103F000007A3A3A3A31234297F0202197374F41226
:103F100018A189088C828D83E06402703C1244F6FB
:103F2000FEA3E0F9EEF87402687003742969702941
:103F3000750A02750B00780A121AB4741012187DF3
:103F4000121ACB741012187D121ACBA90812118BF9
:103F50007406121847E9F9800279010229BB74E856
:103F60001218A174FB121831E9851882851983F0A3
:103F70008A168B17ECFEEDFF7510008E828F83A3DF
:103F8000A3A3E0A2E4502D741D12187D123429124F
:103F9000078F8A828B83E58245837003024395797C
:103FA0000AEEFCEFFDAA16AB1712189FE9F5106098
:103FB00003024398741F12187DE0F508A3E0F50989
:103FC000742112187DE0F50AA3E0F50B7423121892
:103FD0007DE0F50EA3E0F50F8E828F83E064026032
:103FE00003024336A3124557850882850983A385BA
:103FF0008212858313EE2406F50CE43FF50D8882CA
:1040000089831243D5F514E439F5157814121B3E53
:10401000010000280128384007000228FD4003283D
:104020006B4000292C42012957420229F8410329FB
:104030002C420429D0423643E50E450F600302436B
:1040400031850C82850D83124557E8FAE9FB8A8297
:104050008B83E0850A82850B831243E0121AB48AAF
:10406000828B83A3E0FCA3E00242BAE50E450F6019
:1040700003024331850A82850B837401F01243CA1F
:10408000850882850983F07C007D008E828F83A362
:10409000A3A3A3E02401FAA3E03400FB120633EA51
:1040A0004B60408A828B83E02402F8850A82850B6C
:1040B00083E028F0EA2404F8E43BF988828983E06D
:1040C0008512828513831243EE1243E0121AB48ADA
:1040D000828B83A31243BDE5082403FAE43509FB70
:1040E0000242BF850A82850B83E02404F07C047DB4
:1040F000007900AA12AB131212E7024398E50E45AD
:104100000F60030243311243CAFEA3E0FF850A8217
:10411000850B837404F0EE850882850983F0EF85B2
:104120001282851383F07403121897EEFAEFFB12D4
:1041300006338A0C8B0DEA450D70030241DB8A823F
:104140008B83A3A3122DF47401121887880E890F94
:10415000780E121AB4740512187D121ACB7CFF7DEA
:10416000FF12063974041218478B0FEA450F70339B
:10417000850C82850D831243C1121AB4850C828589
:104180000D83A3121ACB7C027D007AFC7B90120374
:104190009F7404121847E9700A740112187D74FFA5
:1041A000F0A3F08E828F83E064027039750C027583
:1041B0000D00780C121AB48E828F83A31243BDE5D2
:1041C000082404FAE43509FB1212CF7402121847CE
:1041D000850A82850B83E024028009740112187D10
:1041E000EEF0A3EFF0740112187D1243AF740112C8
:1041F000187D1243A602432BE50E450F60030243D0
:1042000031850C82850D83124645AA16AB17121113
:1042100091850A82850B837402F085088285098363
:10422000EAF0851282851383EB02432EE50E450FDB
:1042300060030243311243CAF8A3E0F9850A82857C
:104240000B837402F0E8850882850983F0E9851202
:104250008285138302432E850C82850D83123429B7
:104260001212C9EAFAF8C3950EE4950F405CE865AE
:104270000E450F70047A008021851882851983E02D
:10428000FCE50E2CFCE4350FFDC3EC98ED940050DA
:1042900003E08005E50ECAC39AFAEA850A82850B17
:1042A00083F08A0A750B00780A121AB4850C82858D
:1042B0000D83E0250EFCA3E0350FFDAA08AB091223
:1042C00012CF7402121847024398751007024398E0
:1042D000E50E450F705B850C82850D831245578571
:1042E0000A82850B837407F0888289831243A712A0
:1042F000439FE0851282851383F0E82402FAE439B3
:10430000FB8A828B831243AF8A828B831243A6A3DC
:10431000A31229861243B4F0E82405F85001098855
:104320008289831243B4A31243EEA3A3A3A3F08014
:104330006775100B8062741D12187D1234291207E4
:10434000358A828B83E5824583604A124557880C03
:10435000890DE8450D603E742512187DE0F5107852
:1043600010121AB8780E121AB4780A121AB4780811
:10437000121AB4740712187DE0F9EEFCEFFDAA16CC
:10438000AB17850C82850D8312189F74071218478E
:10439000E9F510800375100EA91074050236ECF0D3
:1043A00088828983A322A3E085088285098322125B
:1043B00043F5F0221243F5A3A3229002E312464CE8
:1043C00022E0F50E750F00780E22850C82850D8394
:1043D00012388FE022E0FAA3E0F8E4C8F9EA2822D4
:1043E000F08A828B83E0F50A750B00780A2212436B
:1043F0009F1243F522E0850882850983A3A32274D6
:10440000EE1218A174FE1218318A088B09ECFEED29
:10441000FF890AAC18AD19EEFAEFFB1206338A0CCD
:104420008B0DEA450D70030244E7851882851983D8
:104430001234291207358A828B83E5824583700303
:104440000244E2A3A3124557880E890FE8450F7076
:10445000030244E2741412187DE0F510A3E0F51194
:10446000E50AF50B780B121AB8741912187D121A96
:10447000CB7810121AB4741B12187DE0F9AC0CAD95
:104480000DAA08AB09850E82850F8312189F74054B
:10449000121847E9F50B705274FE650A604C850CE2
:1044A00082850D83E0640270411244F6FAA3E0F9BC
:1044B000EAF87402687003742969702E8510828589
:1044C00011831243D5F50CE439F50D780C121AB4AA
:1044D000EEFCEFFDAA08AB091207B97402121847E7
:1044E0008008750B0E8003750B01A90B740212185E
:1044F000477F0A021973A312455B88828983E022F1
:1045000074F61218A174FE121831740C12187D1270
:104510004557E8851882851983F0740112187DE9E2
:10452000F0E4F508F5097808121AB475080278085D
:10453000121AB47404121887880889097808121AA4
:10454000B479FE1207A174061218477402121847B4
:10455000023F088E828F8312455B22E0F8A3E0F9C8
:104560002274F71218A1EAFEEBFF89089002FA12F2
:1045700043BD121191EA5402600BA908EEFAEFFB59
:10458000120627800279017F0102197374F2121852
:10459000A174FE121831EAFEEBFF890A7401650A64
:1045A00060147402650A600302463B79011209A592
:1045B000E9600302463BEEFAEFFB120783EA4B6029
:1045C00003120789A818A919880889097808121AF6
:1045D000B47508027509007808121AB47508F675E2
:1045E00009907808121AB47CFF7DFF7A017B0012D3
:1045F000062D74061218478038850882850983A322
:10460000A3A3A3A3A3124645EEFAEFFB121185E480
:10461000F50CF50D780C121AB4740212187D121AEA
:10462000CB7CFF7DFFAA08AB09120639740412186F
:10463000478A088B09E508450970BE7402121847BD
:104640007F0602197312388F12464C22E0FCA3E059
:10465000FD2274F41218A18A088B09ECFEEDFF907C
:104660001B0DE0F4604B7A097B001212F9EA4B60F3
:10467000408A828B8374B1F0A3E41246B4F08A823C
:104680008B83A3A3E508F0A3E5091246B4A3EEF0DB
:10469000A3EFF0740C12187D1245578A828B83A306
:1046A000A3A3A3A3A3A3123A80901B0DE0F91213B6
:1046B000050229BBF08A828B83A3A3A3A322C08215
:1046C000C0839061907404F0A37448F0A3E4F09068
:1046D00061807440F09061BC7407F09061877469E8
:1046E000F09061B67416F07900120AD77902120AB6
:1046F000DD9026A0E493F46006E493F9120AB379FE
:1047000005120E4F024B26C082C083E9540FF99068
:104710006185E0696012E5C654B84441F5C6E59E7E
:104720005447644170F8E9F053C6B8E59E544770A9
:10473000FA024B2674F71218A1AEA853A87E120AEB
:10474000BFC2BA539AFEC289759B00C2C2120AC583
:1047500075A91175B905120ACBD2BA439A017480B2
:104760005E42A80251E9C082C083906181E4F0A357
:10477000801D75E90075910075BF00020132C0828D
:10478000C083906181E4F0A374C0F0A3E48002F0E0
:10479000A3F0024B26C082C08374F8121831900334
:1047A0006B125EEE700302486890036BE054406049
:1047B000177908AA18AB19120BF1AA18AB1912082D
:1047C0001990036BE054BFF0E054806010790C7ACC
:1047D000197B07120BF190036BE0547FF0E0A2E02D
:1047E000500F7900120AD712081F90036BE054FE95
:1047F000F0E05402600F7901120AD712081F9003EB
:104800006BE054FDF0E05404600F7900120ADD12F1
:10481000082590036BE054FBF0E05408600F790129
:10482000120ADD12082590036BE054F7F0E05410F3
:10483000600F7902120ADD12082590036BE054EF35
:10484000F0E05420600F7903120ADD12082590036E
:104850006BE054DFF0A3E05401600D120AE9120886
:104860002B90036CE054FEF07408121847024B269C
:10487000C082C083E9600514602A804F90619A74F9
:1048800033F0A37455F09061A0743AF09006F3E011
:1048900064017009C29190036D7467802D90036D5F
:1048A0007461802690619A743FF0A3745AF090610D
:1048B000A0747FF09006F3E064017009D291900338
:1048C0006D7471800590036D746AF0024B26C0828E
:1048D000C083E9600B14600D14601714600C802015
:1048E0009026A480159026A580109006F3E0640120
:1048F00070059026A680039026A7E493906186F029
:10490000024B2674EE1218A174F412183190904ADA
:10491000AC18AD1974041217449026A493F46003E4
:10492000024A1B907808E0C3940250030249FF90AA
:104930009015740412189774081217447F00750CB0
:10494000FF750DFF750EFF7E00EFFC800F74086E83
:10495000606D74096E6068740A6E60638E08750914
:10496000007402780812181E124A251216E9A909C5
:10497000E50AC9F8881074187808121604E510457D
:1049800008FAE9FBEC2CF8E433F9740412187DE51D
:104990008228F582E583391250BFC3E89AE99B402B
:1049A00008E8C39AF8E99B8006EAC398F8EB99F9FE
:1049B000C3E8950CE9950D5006880C890D8E0E0EF6
:1049C000EEC39413408774FF650C700474FF650D8B
:1049D0006023850E087402780812181E124A2512E8
:1049E00016E9851882851983E5822CF582E43583E2
:1049F000F583E508F00FEFC39404500302493E75B8
:104A000008017509007808121AB474021218977A0E
:104A1000A97B091211DF7402121847740C1218478F
:104A20007F0A02197374482508F58274783509F5F0
:104A300083780822C082C083906186E0F89026A720
:104A4000E4936870099026A6E493906186F09061E3
:104A5000AE7468F0A3746AF090624574FBF0A3042E
:104A6000F053F4FD43FE029006F37401F09061A050
:104A7000E0643A7004790080027901120AD7024B8F
:104A800026C082C0839006D1E0640170139006D7DF
:104A9000E0F87401686019E87006A3E06401601032
:104AA0009006E8E06401700C9006EEE0640170048A
:104AB000790C80027900024B261250B0940622E055
:104AC000C4333354C0222414F582E438F58322C061
:104AD00082C0839006DB7425F09006D97401F0A3A0
:104AE000E4F07A01FB120DCB124B1A241AF582E482
:104AF00038F583740DF0A3740BF09006D8E06401D0
:104B000070169006D7E070107901120E2B120DFB73
:104B1000120E257900120E37800C9006C7124E8FA8
:104B200022E0F912261BD083D082020132C082C05B
:104B30008374FA1218319006D0E064017008120AEA
:104B4000F59006D0E4F075E1F1124B1A2415F582C8
:104B5000E438F5837401F09006D2E0640170469069
:104B60009038AC18AD19740612174475D90D90061B
:104B7000C9124ABF4403F5D97A00EAF874CA12553B
:104B8000C63406124AB940F27A00EAF885188285DE
:104B90001983E5821255C63583124AB940EC75E196
:104BA00095790180027900120DD1901B31124C0DC4
:104BB0007499F0A3740CF0A3124C0D124C0D124D0D
:104BC00062749FF0A3740C124D779006C9E0F97AD5
:104BD000CA7B06120DAD9006DBE0F912261B7901A7
:104BE000120DD790904E121707120DEF909092125F
:104BF0001707120DB97900120E43124B1A124AC64A
:104C00007416F09003697405F00402486A7493F016
:104C1000A3740CF0A32274F71218A18908A8081233
:104C200058C19006E0E0F97AE17B06120DAD9006DE
:104C3000EEE070257900120E0DEE2405FAEF340136
:104C4000FBEE240BF582EF3401F583E0700479006C
:104C500080027901120DB380057901120E0D75E104
:104C6000F175D9239006E0124ABF4405F5D97A00C0
:104C7000EAF874E11255C63406124AB940F275D901
:104C80000075D90075D90075D90075D90075D9009E
:104C90007A00124D4F24221250A640F67A00124D8F
:104CA0004F2426F582E439124FF0EAC3940340EE14
:104CB000EE242B12509B242C12509B242D12509B1F
:104CC000242E12509B242F12509B243012509B24D0
:104CD0003112509B243212509B243312508F124DAC
:104CE0004F245DF582E43912511D40F2EE24371253
:104CF00051BB541FF8EE242A1251BBC43354E04870
:104D0000F5D975E195901B317463F0A3740CF0A391
:104D10007469F0A3740C124D59746FF0A3740C12E3
:104D20004D779006EDE0F912261B90904E12170772
:104D3000120DEF909092121707120DB990600DE4CA
:104D4000F07901120E439003697406F00251E9EA0A
:104D5000F8EE28F8E43FF9E822F0A3124D62124D74
:104D60006222124D6622745DF0A3740CF0A3745D90
:104D7000F0A3740CF0A322124D7B22F0901B3F1283
:104D80004D87A3124D8722124D66745DF0A3740CFB
:104D9000F02274EC1218A19006DE1258D878101286
:104DA00016E99006EFE0FAF875F00CA4C8ACF02C08
:104DB000125A71EE2EFEEF33FF8E0CF50D750E00BC
:104DC000750F0085100885110985120A85130B904F
:104DD0009056780812164F7808121AB08510088578
:104DE000110985120A85130B7808790C12163C7884
:104DF00010790C121595E4F50EF50F7808790C1260
:104E000016758A0C750D007403780C12181E78083C
:104E1000790C12163C90905A78081216B0AA08AB7A
:104E200009AC0AAD0B1225B374041218478A088B1B
:104E300009A808A909C3EE98EF995006E82EF8E9E9
:104E40003FF9E890600EF0E9A3F0EEA3F0EFA3F0D5
:104E500090600D74C1F07F0C021973C082C0839002
:104E600006C7124E7B9006DB024B21C082C08390A6
:104E700006DE124E7B9006ED024B21124E8F124E33
:104E800085F0A3F0222406F582E438F583E422E0DD
:104E9000F8A3E0C82202013274F21218A1124F6185
:104EA000FAEE2482F50AE43FF50B850A82F583E0E9
:104EB0006004780480027800E8240EF8EAC3985071
:104EC00003024F5C75080C9006F9E4F0EE247612AC
:104ED00051BB9006FAF07902EE2477FCE43FFD7AAC
:104EE000FB7B06120BDF7902EE2479FCE43FFD1216
:104EF0000BDF7902EE247BFCE43FFD120BDF79022D
:104F0000EE247DFCE43FFD120BDFEE247412500210
:104F1000120BDF850A82850B83E0601E7508F97528
:104F200009067808121AB47C0C7903EEFAEFFB122A
:104F30000C51740212184775081074012508F5D930
:104F400075D9037A008003124FEDEAC3950840F744
:104F500075E1957904120DF579018002790002530B
:104F600019EAFEEBFF9061D0E0F87480C3982274D8
:104F7000F21218A112531E6004780480027800E82F
:104F8000240AF8EAC3984060750A089006F974018B
:104F9000F079057CBD7D067AFA7B06120BDFEE24E4
:104FA00080125002120BDF850882850983E0601EA3
:104FB0007508F97509067808121AB47C087903EEA9
:104FC000FAEFFB120C517402121847750A0C1252B8
:104FD0006C8003124FEDEAC3950A40F775E19579AD
:104FE00004120DF5790180027900025319124FF76E
:104FF000F583E0F5D90A22EAF874F928F582E43459
:105000000622FCE43FFD8E828F83A3A3A3A3A312F9
:105010005EFB8C828D83E028F0A3E039F0790222D8
:1050200074F71218A1EAFEEBFF9061D0E0705B7597
:10503000D91875D90375D9037A00124D4F249B12E4
:1050400050B940F6EE24A312509B24A412508F12A4
:105050004D4F24931250B940F67A00124D4F2487D9
:105060001250A640F675E1957908EE2493FAE43FD4
:10507000FB120BE57904EE2487FAE43FFB120BE503
:105080007904120DF51251C6800279000251E9F53A
:1050900082E43FF583E0F5D97A0022F582E43FF51A
:1050A00083E0F5D9EE221250AC940422F582E43963
:1050B000F583E0F5D90AEAC3221250AC940822F530
:1050C00083125EFB2274F61218A1EAFEEBFF900633
:1050D000F97406125160121AB47C017903120C5152
:1050E000740212184775D90675D9037A0012511A3D
:1050F00040FB75E195900369E064087018EE246F39
:10510000F582E43F1250BFEE2471F582E43FF5834F
:10511000E8F0A3E9F079010253C5124FF71250B03D
:1051200094052274F61218A1EAFEEBFF9061D0E01C
:1051300070299006F9740A125160121AB47C017930
:1051400003120C51740212184775D90675D9037AE7
:105150000012511A40FB1251C3800279000253C55C
:10516000F07508F975090678082274F61218A1EA94
:10517000FEEBFF9061D0E0703D7A019006F9740B70
:10518000F0900369E06407701B7508F975090678EB
:1051900008121AB47C017903EEFA120C517402124F
:1051A00018477A051253CA80031253D5EBC39A40AD
:1051B000F81251C3800279000253C5F582E43FF52D
:1051C00083E02275E195EE246FF582E43FF58312CA
:1051D0005EFBEE2471F582E43FF583E8F0A3E9F08D
:1051E000790122A2E092AF79007F0102197374F570
:1051F0001218A11252846004780480027800E82416
:105200000BF8EAC3984052750A099006F97408F041
:10521000F9125260120BDF850882850983E0601E57
:105220007508F97509067808121AB47C097903EE35
:10523000FAEFFB120C517402121847750A0D125244
:105240006C8003124FEDEAC3950A40F775E195793A
:1052500004120DF51251C6800279007F0302197302
:10526000EE24E4FCE43FFD7AFA7B06227401250A71
:10527000F5D975D9037A0022EE241DF582E43FF5B5
:1052800083E4F02212532EF8E43FF9880889098854
:1052900082F583E02274F21218A112531E60047882
:1052A0000480027800E82408F8EAC3984069750A87
:1052B000069006F9740CF0900386E09006FAF079F7
:1052C000027C877D037AFB7B06120BDF79027C89E7
:1052D0007D03120BDF850882850983E0601E750857
:1052E000F97509067808121AB47C067903EEFAEF0C
:1052F000FB120C517402121847750A0A12526C8084
:1053000003124FEDEAC3950A40F775E1957904124F
:105310000DF51251C6800279007F060219731253EF
:105320002EF508E43FF509850882F583E022EAFEC0
:10533000EBFF9061D0E0F87480C398FAEE248222EB
:1053400074F61218A1124F61FCEE2482F8E43FF9C2
:1053500088828983E060047A0480027A00EA240467
:10536000FAECC39A405D7A029006F9EAF0EE24F670
:10537000F582E43F1253E0E0601B7508F9750906F9
:105380007808121AB47C027903EEFA120C517402F6
:105390001218477A061253CA80031253D5EBC39AE8
:1053A00040F875E195EE247312527BEE247F125281
:1053B0007B125278A3F07904120DF5EE240D1251F0
:1053C000C9800279007F0202197374012AF5D97528
:1053D000D9037B0022EB124FF8F583E0F5D90B22BD
:1053E000F583E09006FAF0888289832274F6121819
:1053F000A1124F65FEEA2482F8E43BF98882898392
:10540000E060047C0480027C00EC2404FCEEC39C7D
:1054100040477C029006F97407F0EA24F7F582E42D
:105420003B1253E0E060177508F975090678081219
:105430001AB47903120C5174021218477C067401D5
:105440002CF5D975D9037A008003124FEDEAC39C7D
:1054500040F875E1957901800279000253C574F72F
:105460001218A18908A2AFE433FFC2AF7E00125424
:10547000F080010E8C828D83E0F8EEC398500CEE24
:10548000F812549EE0650870EA800B12549EE508FD
:10549000125F01E004F0EFA2E092AF0251E9125571
:1054A00001125B7B2274F71218A1A2AFE433FFC292
:1054B000AF1254F08C828D83E014F07E008016EEE3
:1054C0001254FC246BF582E439F583E0C0E0125BF2
:1054D00076D0E0F00E8C828D83E0F8EEC39840DF4A
:1054E000EA246DF582E43BF58374FF12552780A60C
:1054F000EA246EF8E43BF9E8FCE9FD22F8125501D4
:1055000022EA28F8E43BF9E822C082C083A8A8C2B6
:10551000AFEA125792E9125527E8A2E7E433FAE816
:10552000A2E792AF024B26F0EA246912552F22F52A
:1055300082E43BF583E4F02274F21218A18C828D90
:1055400083A3A3A3A3E0541FF0EA2436125C3D8E8C
:10555000828F83E4F0750C00A80CEC28F508E43D7C
:10556000F509850882F583E0C0E01257ABD0E0F082
:10557000750D00850882850983E0F50A750B00E545
:105580000D780A1217FFE50AA2E05025E50C333327
:105590003354F8250DC0E08E828F83E01254FC2432
:1055A00038F582E439F583D0E0F08E828F83E00411
:1055B000F0050DE50DC3940840B9050CE50CC39446
:1055C00005409502531928F582E42274F41218A1BB
:1055D000900395E06403700302578C7C00ECF8752F
:1055E000F00CA4C8AAF02A125853E06003025782B4
:1055F000E82404FAE439FB8A828B83A3A3740112A2
:105600005E9AA3A3A3E4F0EA2404125C3DEC8E822C
:105610008F83F0125E3B7401F0EA2467F582E43B6D
:10562000F58374011257B7E4F0A31257B7A3A3127E
:1056300057C9240FF582E43BF5837401F0EA243561
:1056400012552FF508F509F50AF50BEA2418F5822D
:10565000E43BF58378081216F8EA241C12579B24C1
:105660001D1257C2247F12579B247312579B246824
:10567000F582E43BF5837480125527EA246E1257B5
:105680009B24EC12579B24ED12579B24EE12579B40
:1056900024EF12579B24F01257C224F21257C2244F
:1056A000F512552F125E45E4F0EA24D212579B24DE
:1056B000D312579B24D4F582E43BF5837808121665
:1056C000F8EA24D8F582E43BF58378081216F8EA64
:1056D00024DE12579B24E012579B24DC12579B2494
:1056E000E112579B24E212579B24F81257C224FA66
:1056F0001257C224FC1257C224FE1257C2240B12A6
:1057000057A024051257A024061257A024071257A9
:10571000A024081257A024091257A0240A1257A047
:1057200012579274FF7804F0A3D8FC7C00ECF87454
:10573000BD1255C63406F583E0C0E01257ABD0E089
:10574000F00CECC3940540E57C00ECF8747D125538
:10575000C63403F583E0C0E01254FD24E4F582E48E
:1057600039F583D0E0F00CECC3940840DD9003954C
:10577000E004F0640170198E828F83E0900397F04B
:10578000800E0CECC3940350030255DD7A007B00BD
:105790008041246AF582E43BF5832212552FEA22E8
:1057A000F582EB3401F583E4F0EA22125501245D21
:1057B000F582E439F58322F08A828B83A3A3A3A325
:1057C000A322F582E43BF583E4F0A3F0EA2274041B
:1057D0001218477F04021973C082C083EA2403F5BC
:1057E00082E43BF583E06008E4F0900396E014F077
:1057F000900395E014F0700690039774FFF08A828E
:105800008B83A3A3E4F09006C2E0700D900396E0B2
:10581000640170057900120DBF024B26C082C0835F
:105820007A00EAF875F00CA4C8ABF02B125853A319
:10583000E41253E6A3A3A3A3A3A3F00AEAC3940329
:1058400040E0900395E4F0A3F0A374FFF075E1F15C
:10585000024B26F9749528F87403125B6CA3A3A37A
:105860002274F51218A1750800750900750A00A8C0
:105870000A1258C18E828F83A3A3A3E0602BE50890
:105880004509601D8508828509831258D8121AC7F8
:105890001258D41217071225577404121847E970CA
:1058A00008EEF8EFF988088909050AE50AC39403A8
:1058B00040BD850882850983A3A3A3A3E0F9025212
:1058C0005BE875F00CA4C8AAF02AF9749928FE7454
:1058D0000339FF228E828F83E0F8A3E0F58388826C
:1058E000A3A32274F71218A178FF79FF7E00EEFCC3
:1058F00075F00CA4CCAFF02FFD74992CFC74033D13
:10590000FD8C828D83A3A3A3E06040EC2473F58219
:10591000E43DF583E0FF74FF68700374FF6970076E
:1059200074016F701C800D74016F700DEC2479127E
:1059300059605017EC2479800BEC242E12596050DA
:105940000AEC242EF582E43D1250BF0EEEC3940300
:10595000409CC3EA98EB994004E8FAE9FB0251E95C
:10596000F582E43DF583C3E098A3E0992274F01238
:1059700018A18C088D09890EEA2AF50AEB33850AED
:105980000CF50D900396E0F8E9C39850117AFF7B6F
:10599000FF120B8B8A0A8B0BAE0AAF0B8017E960E4
:1059A00010A3E0F875F00CA4C8AAF02A125A71806E
:1059B00004AE0CAF0D900396E0F50F8E0A8F0B74BA
:1059C00003780A12180FA80FC3E50A98E50B940094
:1059D0005003025A5D850C0A850D0BE50825E0F59C
:1059E00008E50933F509AC0AAD0B8007EC2402FC8D
:1059F000E43DFDC3E5089CE5099D404FC3EC9EEDE9
:105A00009F402FECF8EDF9EEFAEFFB1217A68A0C87
:105A10008B0DA80CA90DE8496006EEFAEFFB800497
:105A20007A007B00EC98F8ED99F9E82AFCE93BFD57
:105A30008019E50EC3950F5012EEF8EFF9ECFAED70
:105A4000FB1217A68B0DEA450D70A1C3EC950AED6C
:105A5000950B4009C3E5089CE5099D50067AFF7B3C
:105A6000FF8009ECFAEDC313FBEA13FA7F08021971
:105A700073F974C728F582740339F583E0FEA3E057
:105A8000FF2274F41218A174FC121831EAFEEBFF25
:105A9000EE2463F508E43FF5098016AA08AB091265
:105AA0000BD31213599006C3E004F09006C4E0042F
:105AB000F0850882850983125EEE70DF9006C4E0EF
:105AC00060358E828F83A3A3A3A3E08518828519F6
:105AD00083F0A3E4F09006C4E0F8740212187DE8A5
:105AE000F0A3E4F07402121897AA18AB1979011206
:105AF000088B9006C4E4F0EEFAEFFB120B79EEFA95
:105B0000EFFB120CDB0257CE74F71218A1EAFEEB82
:105B1000FF8E828F83A3A3A3A3E0FA7B0012086108
:105B2000EEFAEFFB120B97120CBD0251E9C082C0D6
:105B3000837A00EAF875F00CA4C8ABF02BF97499DD
