:020000040000FA
:0600000002011A02239523
:03002B00022A3B6B
:0300530002240B79
:03006B00022A075F
:100083000221EBE5C754F84401F5C77901220000CA
:100093000080FB120086B90003020104E479217891
:1000A30008B800028004F709D8FCE479297802B87B
:1000B30000028004F709D8FCE4900281784D79139B
:1000C3008002F0A3D8FCD9FA781A90014A7A01BACF
:1000D30000028007E493A3F608DAF97ACD7B149043
:1000E300014B78A279038015E493A3AD82AE838A92
:1000F300828B83F0A3AA82AB838D828E83D8E9D9C6
:10010300E775827A75837F740012012C758291756D
:100113008300740012012C75D00075813F7518811E
:10012300751902759F00020096C09FF59FE473D076
:100133009F22D083D082C09FE493C0E0740193C018
:10014300E0740293F59F2201FF0000B40000280031
:100153002800283075A000A000A000A0000008001F
:1001630008E001F000100010001000100010001053
:100173000050005000500010001000D00700000095
:100183000000000F0001000500307507001000019A
:100193000081FF00000000FFFFFFB006CE06B60699
:1001A300F206FF02020208025000A0000000E8036A
:1001B3000221900100000B90021B90010000281502
:1001C300021790010000C102021B900100002915D3
:1001D300022790010000D702021B900100002A159C
:1001E300025190010000D902021B900100002B155F
:1001F300022990080000DA02021B900100002C156E
:10020300022F900100002D15FFFF0100FF200221A6
:10021300900100001490021B900100009215024F00
:100223009000000000000219900300000A03170069
:100233003C0E3C0E3C0E3C0E3C0E3C0E3C0E3C0E6B
:100243003C0E3C0E3C0E3C0E3C0E241136111E118E
:10025300020202020202020202010D00000010016A
:100263000221900100001190021B90010000D5159E
:10027300023F900100002707021B90010000D615E2
:10028300023D90010000138F021B90010000D7155F
:10029300023B90010000058F021B90010000D8155E
:1002A300023990010000A38E021B90010000D915B2
:1002B300023790010000918E021B90010000DA15B5
:1002C3000235900100007F8E021B90010000DB15B8
:1002D300023390010000B58E021B90010000DC1573
:1002E300023190010000F78E021B90010000DD1522
:1002F300022D90010000DE1501E8030577100AFFC7
:10030300FFFF00013075030201060000000000003A
:1003130000000000000000000000000000000000DA
:10032300000000000000FFFF0600800CE803120934
:10033300546865726D6F6D6574657253656E736F26
:10034300720512C80040060A0002010503020918DB
:10035300546865726D6F6D657465722053656E7355
:100363006F720000000F0F0F0F0F0E7301000016C6
:1003730016000046164C162002102A1E0001003CEF
:10038300000221900100000E90021B90010000FC6E
:1003930016024590000000B814021990030000B93A
:1003A30014021B90010000FD16024790010000BBE0
:1003B30014021B90010000FE16024990000000BCCD
:1003C30014021990030000BD14021B90010000FFEA
:1003D30016024B900900000017021990030000BF9A
:1003E30014024D9001000002171201355DF903124A
:1003F300013570F90312013591F903120135FCF946
:10040300031201353DFA031201355EFA0312013579
:100413007FFA03120135C0FA0312013558FB0312A8
:100423000135A0FB03120135CBFB03120135C6EFE7
:1004330003120135D9EF031201350AF00312013516
:1004430044F0031201359DF003120135E4F0031269
:1004530001352CF1031201355BF1031201358AF1E9
:1004630003120135C1F10312013508F203120135FC
:1004730021F20312013576F2031201358FF20312D2
:100483000135DDF20312013517F30312013508C6F6
:10049300021201350BC70212013538C702120135AA
:1004A30089C702120135ACC702120135BEC7021259
:1004B3000135C1C702120135FFC70212013535C824
:1004C30002120135CCC80212013538C902120135B6
:1004D30000CA021201351CCA0212013553CA0212A4
:1004E30001358DCA0212013524CB0212013576CBB8
:1004F30002120135A7CB02120135AACB0212013534
:10050300DBCB02120135E8CB0212013500CC02121B
:1005130001356ACC021201356DCC021201357ACC59
:10052300021201357DCC02120135D4CC0212013501
:10053300E5CC021201351ECD0212013521CD021286
:10054300013555CD0212013558CD02120135ACCD1E
:1005530002120135F5CD0212013505CE0212013525
:1005630038CE0212013545CE0212013548CE0212B1
:100573000135B0CE02120135B2CF0212013556D089
:1005830002120135BFD002120135FDD0021201352E
:1005930012E4031201353AE40312013567E403124E
:1005A30001359FE403120135FDE40312013549E5EA
:1005B30003120135B0E503120135F0E503120135ED
:1005C3002DE6031201355BE60312013505E703123D
:1005D30001350FE7031201351CE7031201354FE71D
:1005E300031201355BE70312013573E7031201358B
:1005F3007DE7031201354A9504120135589504121B
:100603000135709504120135879504120135008078
:1006130002120135AA8002120135BD810212013591
:100623003982021201355783021201359383021274
:1006330001352E8402120135128502120135DE8541
:10064300021201356C8702120135DD870212013572
:10065300978802120135898902120135C98902126C
:1006630001357D8A02120135AF8A02120135A58C4C
:1006730002120135E78C02120135058D0212013594
:100683006B8D021201353A8E02120135FE8E021273
:1006930001351D9102120135B7A103120135A1A243
:1006A300031201354CA3031201359DA30312013537
:1006B3004DA403120135BEA403120135A3A50312F1
:1006C3000135D7A503120135D0A6031201350DA7B5
:1006D30003120135E9A70312013528A803120135D6
:1006E30044A8031201357D8B04120135018C0412D9
:1006F30001352C8C04120135468D041201350BE8AB
:100703000312013521E8031201353FE803120135D5
:1007130050E9031201355AE90312013585EA031240
:1007230001357CEB03120135E9EB0312013514B5F6
:100733000312013544B6031201357BB603120135AA
:10074300C5B60312013588B803120135A568001236
:100753000135566900120135726900120135336A99
:1007630000120135686A00120135E16A0012013591
:10077300156B00120135206B00120135F66B001268
:100783000135D36C00120135306D00120135C06D97
:1007930000120135776E00120135857100120135A3
:1007A300747300120135267400120135EF740012C0
:1007B3000135347800120135DE7800120135077AED
:1007C30000120135C37B00120135637C0012013531
:1007D300B17C00120135F07C00120135C37D00129B
:1007E3000135F77D00120135847E00120135C8B84A
:1007F3000112013554B901120135B8BA011201359C
:10080300C4BA01120135FFBA011201356EBB0112E0
:10081300013577BC0112013580BD0112013547BE98
:1008230001120135A4BF01120135C2BF0112013506
:10083300DFBF011201358CC00112013509C101125C
:10084300013531C101120135FBC30112013500C469
:100853000112013519C60112013567C601120135AE
:10086300D7C60112013515C701120135F1C70112AF
:100873000135B1C801120135FDC80112013500C9A6
:100883000112013544C9011201358CC90112013528
:10089300CBC901120135EDC90112013521CA01127B
:1008A300013584CA0112013557BA0312013560BA02
:1008B300031201356EBA03120135C1BA03120135B1
:1008C300E0BA0312013525BB0312013569BC0312DB
:1008D300013504BD0312013548BD0312013572BD54
:1008E30003120135E1BD0312013527BE03120135A1
:1008F3009EBE031201354FBF03120135742A001245
:100903000135842A00120135252B00120135812B74
:10091300001201353E2C001201355A2D001201350B
:100923008C2D00120135BB2D00120135682F0012EA
:100933000135DF31001201354F34001201354135E5
:10094300001201353A3600120135413800120135E3
:10095300353B00120135643C00120135683E00123C
:100963000135783F00120135074100120135F84186
:1009730000120135464200120135B542001201351D
:10098300D942001201352A4300120135CB47001228
:100993000135CC48001201352D4900120135584963
:1009A300001201351E4A001201350CE00312013515
:1009B30016E0031201355BE0031201356FE0031209
:1009C3000135FFE00312013538E10312013573E10C
:1009D300031201359CE103120135F0E103120135E5
:1009E30005E20312013527E2031201353CE203124B
:1009F300013550E20312013565E2031201359FE22E
:100A030003120135CBE20312013552E30312013520
:100A130095E303120135BFE303120135EAE3031241
:100A23000135DDFE0112013533DC0212013516DD1D
:100A33000212013591DD02120135CCDD02120135BE
:100A43001DDF02120135ABDF021201353DE2021256
:100A53000135EFE202120135FBE3021201356EE5C7
:100A630002120135C7E502120135BCDB0312013561
:100A7300FFDB0312013583DC031201355ADF031256
:100A830001359882041201354A83041201354684E4
:100A930004120135858404120135DF840412013503
:100AA300758D04120135D88D04120135758E04122B
:100AB3000135AA8E04120135DA8E04120135158F21
:100AC30004120135358F04120135DDCD03120135D2
:100AD30069CE0312013528CF0312013540D003122A
:100AE30001355AD20312013584BA02120135A9BA6B
:100AF3000212013576BB021201354ABC02120135DE
:100B0300B7BC02120135F7BC0212013593BD0212C4
:100B13000135C7BE02120135A2BF0212013501C061
:100B2300021201358DC002120135FBC002120135DC
:100B330087C102120135CDC1021201353FC2021233
:100B43000135D1C20212013572C30212013592C3BB
:100B530002120135DAC30212013523C40212013530
:100B63003FC40212013565C402120135DFC402120B
:100B73000135EDC4021201357CC502120135E5C50C
:100B83000212013591D20312013516D30312013536
:100B930058D3031201353CD403120135A9D40312EF
:100BA3000135EDD40312013531D5031201355ED57C
:100BB3000312013586D503120135BED50312013563
:100BC300FCD50312013523D6031201359DD603123A
:100BD3000135E7D603120135B0DD0112013558DFC7
:100BE3000112013585E101120135D9E10112013507
:100BF30004E201120135D6E2011201351AE30112B2
:100C030001355EE30112013571E301120135B2E3EF
:100C130001120135DFE3011201352DE40112013523
:100C23006EE4011201359CE401120135EFE4011277
:100C3300013586E50112013570E80112013586EAB6
:100C430001120135C4EA0112013557EC01120135D5
:100C53009CEC011201350EED011201355FED01121D
:100C6300013599ED0112013513EE0112013549EFFA
:100C7300011201355AEF0112013558F00212013504
:100C8300D7F002120135D0F602120135D6F702125F
:100C9300013549F902120135E0F902120135569086
:100CA300011201359F9001120135CC9001120135DB
:100CB300FE90011201350B910112013517910112BA
:100CC3000135299101120135049201120135629215
:100CD30001120135979201120135CE9301120135AC
:100CE3001B94011201353F9401120135AF94011297
:100CF3000135709501120135339601120135A19624
:100D0300011201355E970112013571970112013508
:100D1300EF9701120135829801120135A99801124A
:100D23000135119901120135629901120135B79903
:100D330001120135609A011201350B9B0112013535
:100D4300B79B01120135299C011201357D9C0112CB
:100D53000135DD9C011201350D9D01120135A39D65
:100D630001120135C89E01120135109F0112013590
:100D73002D9F011201354C9F011201357B9F0112FA
:100D8300013590A00112013516A1011201353BA1D5
:100D93000112013550A101120135C3A10112013520
:100DA30004A20112013520A301120135C1A30112CE
:100DB30001350FA40112013579A40112013592A462
:100DC30001120135008003120135548003120135ED
:100DD3006080031201352A81031201355781031202
:100DE3000135858103120135F18103120135278213
:100DF3000312013560820312013578820312013533
:100E0300CD8203120135E682031201352B830312CF
:100E130001353E83031201355883031201356E8376
:100E2300031201358C8403120135B7850312013592
:100E3300A18603120135908703120135692A001236
:100E430001353FAD021201356EAD0212013534B1E9
:100E5300021201358BB20212013551B30212013570
:100E6300D0B4021201359AB502120135ECB5021263
:100E7300013506B60212013538B60212013543B602
:100E8300021201358CB60212013595B602120135F4
:100E930041B7021201351AB80212013561B80212C4
:100EA3000135C9B8021201350BB90212013539B93E
:100EB3000212013574B9021201355CCB01120135FE
:100EC300DACE01120135E0CE0112013535D501121A
:100ED30001357FD90112013565DD01120135F3EBCF
:100EE3000312013569EC031201357FEC031201355E
:100EF3000FED031201354CED0312013586ED03129C
:100F03000135C0ED0312013533EE0312013574EEE2
:100F1300031201357DEE0312013589EE031201350B
:100F2300A8EE03120135D2EE03120135E7EE0312E8
:100F330001350FEF0312013571EF0312013598EFFD
:100F4300031201351EC90312013531C903120135DC
:100F53004BC90312013578C903120135BEC9031207
:100F63000135F1C9031201352FCA0312013594CAA1
:100F730003120135A9CA03120135B4CA031201359C
:100F8300C1CA03120135D8CA03120135E6CA0312D6
:100F93000135F1CA03120135FDCA0312013510CB25
:100FA300031201351BCB031201353ECB031201356E
:100FB300E2CB03120135F2CB031201350CCC031241
:100FC300013529CC0312013544CC0312013569CC18
:100FD3000312013574CC0312013589CC0312013598
:100FE3009DCC03120135FECC0312013504CD03124F
:100FF30001350ACD0312013510CD0312013528CD79
:10100300031201355BCD03120135BC9F021201357A
:1010130053A002120135EBA002120135DBA102122B
:10102300013512A20212013525A20212013593A243
:10103300021201352EA40212013555A40212013504
:10104300F7A4021201352CA5021201353DA50212A7
:101053000135B6A502120135D7A502120135EFA558
:101063000212013547A70212013550A902120135B8
:10107300A0AB02120135A3AC02120135F2AC02128D
:1010830001352A910212013527920212013512937A
:10109300021201351C93021201353E9302120135EF
:1010A3004A93021201359C9402120135CB94021229
:1010B3000135FB95021201353D9602120135699700
:1010C300021201353F98021201359198021201353F
:1010D300F098021201352799021201356299021222
:1010E3000135FD9C02120135169D02120135989DB2
:1010F30002120135A69D02120135FB9D0212013534
:10110300099E02120135769E02120135E89E0212F3
:1011130001352E9F0212013523D10212013545D12B
:10112300021201352FD302120135D4D60212013532
:1011330017D802120135F1D802120135438F041278
:101143000135688F04120135D98F0412013549899D
:10115300031201355289031201355B8903120135EC
:101163008C8A03120135AB8C03120135E18C031217
:1011730001351B8D03120135518D031201358B8D02
:1011830003120135BF8D03120135EB8D03120135B7
:10119300348E031201356E8E03120135B68E03129F
:1011A30001350C8F03120135418F031201359C8FDA
:1011B30003120135D68F031201352790031201352F
:1011C3005D9003120135979003120135C590031208
:1011D3000135E89003120135179604120135439641
:1011E300041201359E9604120135A89604120135A6
:1011F300B896041201355BC40312013582C403128D
:1012030001356597041201358A4A001201359A4D5A
:10121300001201352F4F00120135AA4F001201357C
:10122300565000120135F950001201359151001248
:101233000135C051001201352D5200120135C5563A
:10124300001201355757001201359358001201352A
:10125300FD5800120135B15900120135675C0012C7
:101263000135A15C001201350B5D00120135685D8B
:1012730000120135C55D00120135225E00120135F1
:101283000D5F00120135535F001201359E5F00129E
:101293000135C15F001201350861001201351C617F
:1012A300001201358B6200120135CA62001201354A
:1012B3000A63001201355D63001201357E6300127B
:1012C3000135BC6300120135E26500120135236666
:1012D30000120135BE660012013530670012013578
:1012E30071680012013514FC03120135BAFC0312B4
:1012F3000135A7FD03120135E6FD0312013550FE4A
:1013030003120135EBFF0212013584F60312013596
:101313004FF9031201355C98041201354C92041203
:1013230001355C92041201357692041201357E93E5
:10133300041201357FF30312013527F4031201353B
:1013430069F603120135F990041201352B91041249
:1013530001358B9104120135A29104120135FE91DE
:10136300041201353B92041201353E9204120135F9
:1013730061BF0312013580BF0312013516C003128A
:10138300013514C10312013574C303120135D4C3EB
:10139300031201353DC403120135F87F00120135F4
:1013A3000A8504120135EA860412013556870412B0
:1013B3000135BEFE03120135EFFE0312013519FF9D
:1013C3000312013539FF0312013597FF031201356B
:1013D3007691031201358B9103120135E7910312C4
:1013E30001355292031201359A92031201350C937F
:1013F300031201353593031201354393031201356B
:10140300A59303120135E39303120135FE930312EF
:101413000135999403120135429503120135C5959F
:1014230003120135FE950312013589960312013526
:10143300E096031201353E970312013550970312CC
:1014430001357697031201357F9703120135D6983C
:10145300031201356E990312013583890412013594
:10146300EA8904120135A78A04120135258B041277
:10147300013527D7031201355AD7031201358CD80A
:1014830003120135D0D80312013595D90312013562
:1014930071DA03120135DFAE03120135BDAF03125A
:1014A300013519B00312013533B00312013544B0CD
:1014B3000312013547B30312013567B30312013534
:1014C3000080041201354580041201358B8004121B
:1014D30001355482041201356E9404120135899446
:1014E30004120135999404120135FE940412013556
:1014F30070E6021201354CE70212013593E702123E
:101503000135D0E7021201353EE80212013598E8B1
:101513000212013508E902120135D8E90212013538
:10152300C7EA021201353EEB02120135DAEC021270
:10153300013567ED02120135DAED0212013556EE7F
:10154300021201356DEE0212013592EF02120135DE
:10155300ECEF02120135C29604120135A5A803125D
:101563000135C5A803120135CBA90312013517AA0A
:101573000312013537AA031201358AAA0312013572
:10158300F7AA031201353DAB03120135A1AB0312D8
:1015930001354DAE03120135CEAE03120135C2A49F
:1015A30001120135EFA901120135F2AC0112013527
:1015B3001BAD0112013544AD01120135F6AD011227
:1015C3000135DFAF011201352AB10112013543B1F3
:1015D300011201357AB601120135B3B60112013594
:1015E300F7B60112013508B8011201357DEF01127A
:1015F30001359CF10112013528F30112013560F325
:101603000112013506F5011201354FF501120135BD
:1016130000F6011201351DF60112013542F70112E0
:101623000135A7F701120135D1F90112013552FA3B
:10163300011201358DFC0112013534FD0112013512
:10164300A9FD01120135D7FD0112013500FE01127A
:101653000135AAFE01120135A29903120135DA9A66
:1016630003120135ED9A03120135579B031201351D
:10167300E89B03120135709C03120135F89C031299
:1016830001354A9D03120135BD9E03120135849332
:101693000412013587930412013559870412013569
:1016A3002689041201350AFA021201352BFA0212B5
:1016B300013576FA0212013561FF02120135EA970C
:1016C30004120135309804120135D47F00E06670AE
:1016D3001008A3E066700A08A3E066700408A3E09C
:1016E3006622C3E7960809E7960809E7960809E71B
:1016F3009622C3E09608A3E09608A3E09608A3E029
:101703009622C008C3E096F50808A3E096420808AD
:10171300A3E096420808A3E09645087001D3D008D9
:1017230022080808EAC0E0EBC0E086F0E7A4FA1854
:101733000986F0E7A42AFA180986F0E7A42AFA181A
:101743000986F0E7A42AFA1986F0E7A4FBE5F02A54
:10175300FA190886F0E7A42BFBE5F03AFA19088694
:10176300F0E7A42BFBE5F03AFA18180986F0E7A492
:10177300C5F02BFBE43AFA1908E7C5F0C6A426F630
:10178300E5F03BFBE43AFA1886F0E7A4F6E5F00847
:1017930026F6E43B08F6E43A08F6D0E0FBD0E0FA9C
:1017A30022E4CFC0E0E4CEC0E0E4CDC0E0E4CCC0AE
:1017B300E075F020E626F608E633F608E633F60889
:1017C300E633F6181818EC33FCED33FDEE33FEEF79
:1017D30033FFC3EC9709ED9709EE9709EF971919B2
:1017E30019400FFFEC97FC09ED97FD09EE97FE19E1
:1017F3001906D5F0BFECF709EDF709EEF709EFF796
:10180300191919D0E0FCD0E0FDD0E0FED0E0FF22B2
:101813006016080808C6C313C618C613C618C6132D
:10182300C618C613C6D5E0EA227009080808226064
:1018330016181818C6C333C608C633C608C633C637
:1018430008C633C6D5E0EA22E627F60809E637F6E6
:101853000809E637F60809E637F622E026F608A374
:10186300E036F608A3E036F608A3E036F622E026D3
:10187300F008A3E036F008A3E036F008A3E036F062
:1018830022C3E697F60809E697F60809E697F608ED
:1018930009E697F622C3E096F008A3E096F008A3C2
:1018A300E096F008A3E096F022E056F608A3E0568F
:1018B300F608A3E056F608A3E056F622E056F00831
:1018C300A3E056F008A3E056F008A3E056F022E0A8
:1018D30046F608A3E046F608A3E046F608A3E0466A
:1018E300F622E0F608A3E0F608A3E0F608A3E0F684
:1018F30022E6F008A3E6F008A3E6F008A3E6F02248
:10190300E0FAA3E0FBA3E0FCA3E0FD22E0F8A3E000
:10191300F9A3E0FAA3E0FB22E8F0A3E9F0A3EAF0DD
:10192300A3EBF022CAC0E0E6F0A308DAFAD0E0FAAB
:1019330022CAC0E0E0A3C582CCC582C583CDC583DE
:10194300F0A3C582CCC582C583CDC583DAE6D0E0DA
:10195300CA22C3E498F8E499F91219968026C3E4DD
:101963009AFAE49BFBE920E7E9121996E498F8E474
:1019730099F922C3E498F8E499F9121996E498F8CE
:10198300E499F9C3E49AFAE49BFB22EB20E7CFE95D
:1019930020E7E0B90010BB0008E88AF084F8AAF059
:1019A30022E4FBC8FA22EB70227B10C833C8C93388
:1019B300C9335007C39AC3DBF280069A50012ADB6E
:1019C300EAC833F4C8C933F4C9FA2275F008E4C885
:1019D30033C8C933C933C99AC99B5004C92AC93BFF
:1019E300D5F0ECFBC833F4C8E4C9FA22600D08C68D
:1019F300A2E713C618C613C6D5E0F322600C08C6C7
:101A0300C313C618C613C6D5E0F422700422600DB2
:101A130018C6C333C608C633C6D5E0F41822251842
:101A230010AF08F518400C15198008F51840021579
:101A330019D2AF2200C0D0251810AF08F518500CEA
:101A430005198008F51850020519D2AFD0D0222508
:101A530018F58210AF08F518400C15198008F51811
:101A630040021519D2AF851983222518F582E43572
:101A730019F583222518F8E43519F9222518FAE413
:101A83003519FB222518FCE43519FD22E4732518CA
:101A9300C582C0E0E51934FFC583C0E0E518C395EE
:101AA3008224F810AF0885831985821880088583FE
:101AB30019858218D2AFCEF0A3E520F0A37808E60B
:101AC30008F0A3DEFAEFF0A3E58124FAF8E608F0C4
:101AD300A3E608F0A3E608F0A30808E608F0A3E6E7
:101AE30008F0A315811581D0E0FED0E0F81581152B
:101AF300811581E8C0E0EEC0E0222518C582C0E070
:101B0300E51934FFC583C0E0E518C3958224F910B5
:101B1300AF08858319858218800885831985821803
:101B2300D2AFCEF0A3E520F0A37808E608F0A3DE59
:101B3300FAEFF0A3E58124FBF8E608F0A3E608F04A
:101B4300A30808E608F0A3E608F0A315811581D0E1
:101B5300E0FED0E0F815811581E8C0E0EEC0E02298
:101B6300851983851882E0A3FEE0A3F5207808E0B9
:101B7300A3F608DFFAE0A3FFE0A3C0E0E0A3C0E020
:101B8300E0A3C0E0E0A3C0E0E0A3C0E010AF08859D
:101B930082188583198008858218858319D2AFD06E
:101BA30083D082020132851983851882E0A3FEE087
:101BB300A3F5207808E0A3F608DFFAE0A3FFE0A38B
:101BC300C0E0E0A3C0E0E0A3C0E0E0A3C0E010AF4A
:101BD300088582188583198008858218858319D220
:101BE300AFD083D08222C0D02518C582C0E0E519CA
:101BF30034FFC583C0E0E518C3958224F310AF0812
:101C03008583198582188008858319858218D2AF48
:101C1300C8F0A3E9F0A3EAF0A3EBF0A37908E7097E
:101C2300F0A3D8FAECF0A3EDF0A3EEF0A3EFF0A34A
:101C3300D0E0F0A3D0E0F0A3D0E0F0A3E520F0A340
:101C4300E5F0F0A322851983851882E0C0E0A3E0C4
:101C5300F9A3E0FAA3E0FBA37808E0F608A3DFFA10
:101C6300E0FCA3E0FDA3E0FEA3E0FFA3E0C0E0A34C
:101C7300E0C0E0A3E0F5D0A3E0F520A3E0A3F5F0F6
:101C830010AF08858319858218800885831985829A
:101C930018D2AFD082D083D0E0F8D0E03274048081
:101CA30006740280027401C0E0F404121A52D0E0F8
:101CB300121927227404800474028000CCC0E0ED62
:101CC300C0E0E518C39CCCAD1950011D10AF068CC4
:101CD300188D1980068C188D19D2AF121934D0E0E3
:101CE300FDD0E0FC22D083D082E9C0E0E493A3C31B
:101CF30086F0C5F095F0F908E493A386F0C5F09556
:101D0300F0700BE493A3C3994005E9048002A3E4B4
:101D130075F002A42582F582E5F03583F583D0E0E2
:101D2300F9E493A3C0E0E493C0E022D083D082EC33
:101D3300C0E0EDC0E0E493A3FCE493A3FDED4C60AD
:101D43000D121D7AEC24FFFCED34FFFD80EFE493CC
:101D5300A3FCE493A3FDED4C600D121DB9EC24FF2D
:101D6300FCED34FFFD80EFD0E0FDD0E0FCE493A375
:101D7300C0E0E493C0E022C0E0C3E493960874019A
:101D8300939618400FE493667008087401936618DD
:101D930070007019A3A3C3E4939608740193961873
:101DA300A3A3400DD0E0D0E0D0E0021D6AA3A3A31B
:101DB300A3A3A3D0E022C0E0C0F088F0E493667050
:101DC300080874019366187000A8F0A3A3700BD0E1
:101DD300F0D0E0D0E0D0E0021D6AA3A3D0F0D0E0C1
:101DE3002274F6121AFDEAFEEBFF8C088D09EE242D
:101DF30034F8E43FF9E8FCE9FD121F17E0FAEE249A
:101E030037F582E43FF583E0F88508F0A4C885F050
:101E13000A8509F0A4250AF9EA28F8E439F97A25AC
:101E23007B00121996EA8C828D83F0FA13131354F4
:101E33001FF8EE28F8E43FF9E8245DF582E439F56C
:101E430083E0C0E074075AF8D0E0B800028004C30E
:101E530013D8FCA2E05003EA8020EE2436F582E496
:101E63003FF583E0F5F0EA84A8F0EE28F8E43FF9C3
:101E7300E82438F582E439F583E0F97F03021BA9EE
:101E830074F5121AFDEAFEEBFFEE2434F582E43F0B
:101E9300F583E0C0E0121F17D0E0F08E828F83A39A
:101EA300A3A3A3A3E0FAA3E0FB8E828F83A3A3A340
:101EB300A3A3A3A3E0FCA3E0FDECC39AF50AED9B67
:101EC300F50BEE247FF508E43FF509850882F583D9
:101ED300E06401702AEE2480F582E43FF583121C4E
:101EE300BB121F217402121A37E960137CB47D04FC
:101EF300EEFAEFFB120D58850882850983E4F0ACF6
:101F03000AAD0BEEFAEFFB121DE4E9F91229F97F92
:101F130004021BA9EE2435F582E43FF58322C08237
:101F2300C083851882851983E0F8A3E0F9C3EA9C8E
:101F3300EB9D5010C3EC98ED99401BC3EA98EB99C5
:101F43005014800EC3EA98EB994007C3EC98ED99BF
:101F53004004790180027900D083D08222EAC39CB5
:101F6300FAEB9DFB2274ED121AFD90037AE06408EC
:101F73006005E06407702C9061C8E060269003A8B8
:101F8300E0F874FF68601CE875F00AA4C8AAF02A98
:101F9300F974AA28FE740339FF8E828F83A3A3A347
:101FA300E070057900022101EE2468F50EE43FF5A7
:101FB3000F906060E0850E82850F83F075102475A5
:101FC3001105750800750900E5D914F50AE5D9541A
:101FD30003F50B601FEE2482F50CE43FF50D74034B
:101FE300650B6059E50A6017EE2467F582E43FF557
:101FF30083E0700B793DEEFAEFFB120D8880A4901D
:10200300051FE064016023850C82850D83E0600475
:102013007A0480027A00E50AC39AFA95E0FB120B70
:10202300EA8A088B09EA45097006120FEC021FA61B
:10203300850C82850D83E070048A108B117A0080F1
:1020430014E5D9C0E0EAF8E51028F582E43511F586
:1020530083D0E0F00AEAC3950A40E6850C82850D39
:1020630083E0602874FC250AF50A7810121CA4ACDE
:102073000AA90BEEFAEFFB120E367402121A37E9B5
:10208300700AAA08AB09121460021FF77403650BE8
:102093006054850A0C750D00780C121CA4AC10ADAD
:1020A30011AA08AB09120DFA7402121A37850E82AF
:1020B300850F83E0F87480687005750C7F80028853
:1020C3000CE50CF50D780D121CA8780B121CA8A9B1
:1020D3000AAC08AD099003A8E0FA7B00120A227447
:1020E30002121A37801390037AE06408600BAC1075
:1020F300AD11EEFAEFFB120ECC120FF879017F0C43
:10210300021BA974F3121AFD74FC121A21EAFEEBE6
:10211300FF8909A2AFE433F508C2AFEE2463F50AE1
:10212300E43FF50B8010AA0AAB0B120DB212146038
:102133009004BBE004F0850A82850B83E0F8A3E0FA
:10214300F9E849602DE82402FAE439FBEA2402F5B0
:102153000CE43BF50D780C121CA48A828B83E0FC03
:10216300A3E0F9EEFAEFFB120DA67402121A37E997
:1021730060B49004BBE0604D9004BCE0F89004BBF5
:10218300E0C398500C74026509703A9004BDE06096
:10219300348E828F83A3A3A3A3E08518828519833A
:1021A3001221D87402121A6DE81221D89004BAE0F1
:1021B30028F07402121A87AA18AB197901120A7649
:1021C3009004BBE4F0E508A2E092AF7404121A375E
:1021D3007F06021BA9F0A3E4F09004BBE0F8220001
:1021E300008521878522C622C0E074EB121BE9A279
:1021F300AFE433F508C2AF759B00906182E0A2E0C3
:102203005030E591A2E0502A7591FE74016521706A
:102213002112237E120F2612236C121CB71227A33E
:102223007404121A37E9640170057901120F8012E0
:102233001F68906182E0A2E5505DE591A2E55057E9
:102243007591DF90037AE064076005E06408702FFE
:1022530012237E74016521703E120F2612236C1225
:102263001CB71227A37404121A37E96401700579A5
:1022730001120F807901EEFAEFFB1221068018E0BC
:10228300640D701390039CE004F064287002E4F082
:102293007A00E0F9120FFE906182E0A2E6400302A9
:1022A3002341E591A2E640030223417591BF9003C8
:1022B3007AE064057008120F0E120F1A8003120FD2
:1022C30014752100120F8CE990037BF07900120F33
:1022D30080120CC27A017B00900379E0F912142A70
:1022E300907803E064427056900523E014F0704E3A
:1022F300C2AF1222F800782AD0E0F618D0E0F6E553
:102303009F5407F87005750DFF8003750D7FC4C0DA
:10231300E07829E6F50A08E6550DF50B740B780A03
:102323001219FFD0E0250AF8906270E0A2E740F8A6
:10233300E8C333906272F0906270E0D2E0F0906193
:1023430081E0A2E35009E5E9A2E3500375E9F7A3AD
:10235300E0A2E75009E591A2E7500375917FE508F4
:10236300A2E092AF7F08021C488E828F83E0F8A31D
:10237300E0C82416F582E438F583229003A8E0F838
:1023830075F00AA4C8AAF02AF974AA28FE740339BE
:10239300FF22C0E0C0D0C082C083906183E0A2E08E
:1023A3005009E5BFA2E0500375BFFEE0A2E150096A
:1023B300E5BFA2E1500375BFFDE0A2E25009E5BF0E
:1023C300A2E2500375BFFBE0A2E35009E5BFA2E31D
:1023D300500375BFF7E0A2E45009E5BFA2E4500340
:1023E30075BFEFE0A2E55009E5BFA2E5500375BF55
:1023F300DFE0A2E65009E5BFA2E6500375BFBFD0F8
:1024030083D082D0D0D0E032C0E074F2121BE9E571
:10241300A7A2E4500FE5A1A2E4500953A7EF75A1C9
:10242300EF12245FE5A7A2E5500CE5A1A2E5500653
:1024330053A7DF75A1DFE5A7A2E15009E5A1A2E15A
:10244300500375A1FDE5A7A2E2500CE5A1A2E2505D
:102453000653A7FB75A1FB7F01021C4874F8121AEF
:10246300FD75210190037AE0640670077A007B0012
:10247300120EF6A2AFE433FED2AF900380E0640104
:1024830070187A207B00900379E0F91215807A2086
:102493007B00900379E0F9121430906182E0D2E678
:1024A300F0900520E0602185C622801690037FE02E
:1024B30064017008E5C654F84405F5C653BEFC1222
:1024C30021E47401652160E4EEA2E092AF7F010292
:1024D3001BA90000008E238F2485822885832785EE
:1024E3001882851983E0CEA3E0CF852882852783D0
:1024F300EBC9EAC8EDCBECCA75F010C3E833C8E901
:1025030033C9EA33CAEB33CBC3EA9EF526EB9FF517
:1025130025B35004AB25AA26EC33CCED33CDD5F04F
:10252300DAAE23AF242274E9121AFD74FA121A21C7
:10253300EAFEEBFF8C088D09120F38EAF8EBF9EC91
:10254300FAEDFB8E828F8312191B90037AE024F736
:10255300C394055006751001022660120E6C8A0A98
:102563008B0BEA450B700302265D120F2C8A0C8B32
:102573000D120F2CEA650C7003EB650D60ECEEFC9D
:10258300EFFDAA18AB19120F32850A82850B83A3BC
:10259300A3780C1218E5908FBF780C1218AC85182D
:1025A3008285198378141218E5908FBF7814121856
:1025B300AC780C79141216E5501F780C79141218A4
:1025C30084908F57780C1217054047850C10850DA2
:1025D30011850E12850F138045908F578514108532
:1025E30015118516128517137810790C1218847833
:1025F30010121705501C7510007511007512007527
:102603001301781079141218847810790C12184B6E
:10261300800C751001751100751200751300740993
:10262300781012182C909007780C1218E57810790E
:102633000C1217A490037AE06408600AE064066051
:1026430005E064057020908F5B7810121705501613
:10265300908F5F781012185E800C75100075110052
:102663007512007513008508828509837810121886
:10267300F47406121A377F10021BA974F7121AFD9D
:10268300120F4A90051EE064017010906245E4F059
:10269300A3F053F4F343FE0C5390F3120EE4E5C698
:1026A30054B84441F5C6E59E5447644170F89061BF
:1026B30085740FF090051CE0F47002A3E0602C75A4
:1026C300080175090090051CE07808121A0EE50848
:1026D300F4FAA3E0600814600A14600C800DEA5257
:1026E300808008EA52908003EA52A079007F0202B8
:1026F3001BA974F7121AFDE9FEEAFF74016E700C50
:102703007A807B00900379E0F912142A902A6CE412
:1027130093F46008E493F9120CA4800953C6B8E556
:102723009E544770FA120EEA90051EE0640170038E
:10273300120CDA90051CE0F47002A3E0602B75081C
:102743000175090090051CE07808121A0EE508FAD5
:10275300A3E0600814600A14600C800DEA428080D4
:1027630008EA42908003EA42A0120E6C8A088B09A1
:10277300A808A909E8496016E5E170FCE82414F506
:1027830082E439F583E0F874FF68600288E174013C
:102793006F700A7A01900379E0F91214E40226F0CB
:1027A30074F1121AFD8A088B098C0A8D0B908FBF66
:1027B30078081218AC740F121A6D780C1218E59081
:1027C3008FBF780C1218AC7808790C1216E5908F2D
:1027D3005750107808790C1218847808121705409E
:1027E30014800E780C7908121884780C121705508F
:1027F300047901800279007F08021BA974ED121A83
:10280300FD8A088B098C0A8D0B908FBF78081218EC
:10281300AC7413121A6D780C1218E5908FBF780CF4
:102823001218AC780C79081216E540117808790C67
:10283300121884AA08AB09AC0AAD0B8022751000EC
:102843007511007512007513017810790C12188434
:102853007810790812184BAA10AB11AC12AD137F84
:102863000C021BA9908FBF78081218E58A828B830C
:1028730078081218BF7F04021BA974F5121AFD8C85
:10288300828D8378081218E58A828B837808121860
:10289300981228D1C3E098F0A3E0991228C3401EF0
:1028A300908FCF78081218E58A828B8378081218E4
:1028B300718E828F83E02420F0A3E0344EF080A455
:1028C300F08E828F83C3E09420A3E0944E22EA2407
:1028D30004F8E43BF9E8FEE9FF8C828D83A3A3A30C
:1028E300A3E0F8A3E0F98E828F832274F5121AFD18
:1028F300E9FE9004D6E0FAA3E0FBEE29F8E433F90D
:1029030074E728F582748E39F583E02AF508A3E08D
:102913003BF5097808121CA4908FCB1219031224DB
:10292300D87402121A378A088B098C0A8D0B74101B
:102933007808121813AA08AB097F04021BA974F1C3
:10294300121AFD8A0C8B0D8C0E8D0F7411121A6DD9
:10295300121CBB7411121A6DE02401F508A3E034B4
:1029630000F509E4F50AF50B780C790812172490A1
:102973008F6B78081218E5780C7908121724AA0CC3
:10298300AB0DAC0EAD0F1224D87402121A378B099B
:10299300EA450960047A0180027A00EC2AFCE43DEE
:1029A300FD7413121A6DE0F8A3E0F9E8FEE9FFECF9
:1029B300F8EDF97A717B0212199688088909E4F512
:1029C3000AF50B8E828F8378081218F4ECF8EDF970
:1029D3007A717B021219968A088B0974057808129A
:1029E3001A0E8E828F83A3A3A3A3E508F0A3E509A0
:1029F300F07F08021BA9C082C083E9906000F0D079
:102A030083D08222C0E074F2121BE9A2AFE433FE4A
:102A1300D2AFE589A2E04006E589A2E15003121393
:102A23005E758900758900C2C5751A00EEF8EEA2BD
:102A3300E092AF7F01021C48C0E0C0D0E8C0E0E9EB
:102A4300C0E0A2AFE433F8D2AFC2C7751A00E8F909
:102A5300E8A2E092AFD0E0F9D0E0F8D0D0D0E032F5
:102A6300C2AF02000022020132FFFFFFFFFFFFFFA0
:102A7300FFC082C083E9901591F0D083D082020118
:102A83003274F6121A91E99002ECF090034CE0F5DF
:102A93000875090074027808121A0EAA08AB091205
:102AA30014CC9002ED1234379002ED123824606F8B
:102AB30090034CE075F003A4FAABF01214CC90032E
:102AC3000A12343790030A123824700B9002ED1265
:102AD30037F51214D2804890030A1247897AFF7B94
:102AE300FF1212E67A0080198A08750900740278C9
:102AF30008121A0E12423174FF122C37E4F0A3F0BD
:102B03000A90034CE0F8EAC39840DD7905120914F2
:102B13009002ECE0F91207FA7A9E7B09120B8A0203
:102B230042D474F4121A918A088B09EB54806047DB
:102B33009002ECE0F91214128A0A8B0BAE0AAF0B67
:102B4300EE4F602A8E828F83E064B0701A120926DA
:102B5300E960148E828F83A3A3A3A3E0F9EE240577
:102B6300FAE43FFB1208F6EEFAEFFB121400AA0890
:102B7300E5096480FB80047A007B00022D8774F2F0
:102B8300121A9174FB121A21EAFEEBFFEE4F604515
:102B93007403121A6DEEF0A3EFF085188285198382
:102BA300ECF0A3EDF07402121A6DE9F0AA18AB1958
:102BB3001207F4E9F50870757413121A6DE0F50A3B
:102BC300A3E0F50BE50A450B60638E828F83123118
:102BD300C0EE4F700575080280537A067B0012140D
:102BE300CC8A0C8B0DA80CA90DE849700575081348
:102BF300803B88828983E4122C37EEF0A3EF122DF9
:102C030053E50AF0A3E50BF09002F0122D4C90026D
:102C1300F06017E0FCA3E08003EAFCEBFD8C828DFF
:102C230083122D4C70F38C828D83123E4CA9087451
:102C330005024A09F0A312476BA32274F2121A91F8
:102C43008908890C750D007403780C121A0E850C13
:102C53000A850D0B9002EFF09002ED123C57122DF6
:102C63004A602E1214D27900801D890C750D0074F0
:102C730002780C121A0E9002ED1240F08882F5834E
:102C8300A3A3E4F0A3F00990034CE0F8E9C3984050
:102C9300D990034CE0FA850AF0A4CAA8F0850BF09A
:102CA300A428FB1214CC8A0C8B0DAE0CAF0DEE4F87
:102CB3007003022D4090034CE0FC850AF0A4CCA8DD
:102CC300F0850BF0A428FD79001213EE7C0080310F
:102CD3008D0C750D007403780C121A0E8A828B8387
:102CE300122D4588828983E4F0122D52A3A3F0A309
:102CF300F00DEDC3950840D8EE250AFEEF350BFF26
:102D03000C90034CE0F8ECC39850288C0C750D0024
:102D13007402780C121A0E9002ED122D45E824026B
:102D2300500109FAE9FB8A828B83EEF0A3EFF07D71
:102D33000080BFE5089002EFF0790080027913026A
:102D43004A0C1240F4F922A3A31237F9EA4B22A347
:102D530012476BA3A3A32274F4121A917900EAA277
:102D6300E0501F75084775098F7808121CA4791065
:102D73007C047D007A937B1512090E7402121A37B4
:102D8300E9F980007F04021B63C082C0839002F0D4
:102D9300123824601C88828983A3A3E06A7003A38A
:102DA300E06B8882898370E8A3A3A3A31237F5801D
:102DB300047A007B00022A7D74F2121A9174FD12C8
:102DC3001A21EAFEEBFF851882851983E4F0A3F04C
:102DD3007402121A6D7401F01238217014120AC4AD
:102DE3001214CC9002F31234371238217003022FDD
:102DF3004D123537EE2404F50AE43FF50B850A82BC
:102E0300F583E024FE603C24FC607424FE607E2491
:102E1300FE7003022E9D24FE7003022EAA24FE7070
:102E230003022EB724FE7003022EC424FE70030295
:102E33002ED124FC7003022EF224FE7003022F0A0B
:102E4300022F46120AC49002F5EAF0A3EB122F599F
:102E530012043AE96003022F469002F5121CBB8E5E
:102E6300828F83A3A3A3A3A312478985088285091D
:102E7300831237F51208DE7402121A37022F46AC9A
:102E830018AD19EEFAEFFB12092C022F15AC18AD91
:102E930019EEFAEFFB1209328078AC18AD19EEFA8D
:102EA300EFFB120938806BAC18AD19EEFAEFFB1289
:102EB300093E805EAC18AD19EEFAEFFB12094480AF
:102EC30051AC18AD19EEFAEFFB12094A80447402B3
:102ED300121A77880C890D780C121CA47402121A2A
:102EE30087EEFAEFFB1209507402121A378023ACF3
:102EF30018AD19EEFAEFFB120956E9F870167402D1
:102F0300121A6DE4F0803CAC18AD19EEFAEFFB1227
:102F1300095CE9F8E8602C8E828F83A3E064146077
:102F230022850A82850B83E09002F5F0851882855D
:102F330019831237F59002F6123437E8A3122F598A
:102F4300120434EEFAEFFB1208B47402121A6DE0A5
:102F5300F97403024A09F07CF57D0285088285092C
:102F6300831237F92274E8121A9174FA121A21742F
:102F730004121A6DECF0A3EDF08A128B13EA240508
:102F8300F50EE43513F50FEA2402F510E43513F5D5
:102F930011851082F5831237F512058A8A0A8B0B85
:102FA3007508007C037D0079007AF57B021213EE2D
:102FB300E50E2402F516E4350FF5177402121A779D
:102FC300880C890D780C121CA4850E82850F83A3AF
:102FD300A3A3A3E0F50C750D00780C121CA4E50E59
:102FE3002405F50CE4350FF50D780C121CA4851699
:102FF30082851783123AFC1208127406121A378A52
:103003000C8B0DE50C450D7003023189802085186A
:1030130082851983E088828983F005088518828573
:103023001983A3E0C0E01231CAD0E0F00508E50A35
:1030330024FBFAE50B34FFFBC3E5089AE49B40034A
:103043000231897E007F00851282851383A3A3A3A7
:10305300A3E0F5097809121CA8E4F514F515781412
:10306300121CA47514F27515027814121CA4900294
:10307300F3121CBB7409121A6D121CBBE50A24F966
:10308300F9AC0CAD0D8510828511831237F5120949
:10309300867409121A37E9600302312A850E828584
:1030A3000F83A3A3A3A3A3A3A3E0F89002F2E06872
:1030B3007075E0F5148E157814121CA412478685DA
:1030C3000E82850F83A3A3A3A3A3A3A3A31237F500
:1030D3001213E87402121A37E9604C9002F61238A0
:1030E30024703BE4F5147814121CA47CFF7DFF7953
:1030F300078510828511831237F51208F0740212C6
:103103001A3712382A7017850E82850F83124923C6
:103113007404121A6D1241E4123B2D0231BD850C69
:1031230082850D831231C0A818A9198814891578CE
:1031330014121CA47404121A6D121CBB851682850A
:10314300178312342D12081E7404121A378A0C8B3B
:103153000DEE4F70030230061231CAEE1231D51252
:103163003AE3EF1231D5F8A3E03400F9E50C450D4D
:1031730060030230118882898374FFF005081231DD
:10318300CA74FFF00508E508601A1313543F12349C
:103193003D120446E960099002F61237F5121460F5
:1031A30079008016850E82850F83124923740412D9
:1031B3001A6D1241E4123E4C790A023AB6A3A3A354
:1031C300A3E0FEA3E0FF22A8089002F6E028123A4B
:1031D300E322F00508089002F6E0282274E8121AA8
:1031E3009174FA121A217402121A6D12343774048C
:1031F300121A6DECF0A3EDF07402121A6DE02405BF
:10320300123ACCE0F50CA3E0F50D7402121A6DE04E
:103213002402F510A3E03400F511851082F5831222
:1032230037F512058A750800750900EA24FCFEEBE0
:1032330034FFFF8008050CE50C7002050DA808C3D8
:10324300EE98EF940050030233E9A818A919880EE9
:10325300890F780E121CA4851482851583A3A3A35A
:10326300A312478D121CA4E5142405F50EE43515AD
:10327300F50F780E121CA485148285158312342B46
:103283001208127406121A378A0E8B0FEA450F7052
:10329300030233E9EA2404F516E4350FF51785161E
:1032A30082F583E0F50CA3E0F50D8518828519837B
:1032B3001247898A828B83A3A3A3E0F985108285B1
:1032C30011831237F5120800E9F50960030233E9A7
:1032D3007402121A6D123AF3F5097809121CA8E464
:1032E300F512F5137812121CA47512F275130278F5
:1032F30012121CA49002F3121CBB7407121A6D1253
:103303001CBBEEF9AC0EAD0F85108285118312370D
:10331300F51209867409121A37E9F50960030233B5
:10332300E9E508703FE4F50EF50F780E121CA47C56
:10333300FF7DFF79098510828511831237F5120805
:10334300F07402121A37123B19700D7404121A6DBD
:10335300123420791102341D9002F2E0240290020B
:10336300F6F080149002F6E0FA9002F2E07900247D
:10337300025001096A497072A8089002F2E0FAE863
:103383002AFAE43400FBEE9AEF9B405A85168285B5
:103393001783E0C0E09002F71231CFD0E0F00508C8
:1033A300851682851783A3E0C0E0089002F71231E7
:1033B300CFD0E0F005089002F212478D121CA41240
:1033C3004786A808123AC01213D67402121A37900D
:1033D30002F2E02508F50874FF650C700474FF65BC
:1033E3000D6003023238E508601F9002F6E0F5F045
:1033F300E5088412343D12044CE960099002F71287
:1034030037F512146079008011E509700375090A14
:103413007404121A6D123420A909023AB6123C5BE5
:10342300E50CF0A3E50DF022A3A3124A18AA0CABF6
:103433000D22A3A3EAF0A3EBF0229002F5F07CF5B2
:103443007D028510828511831237F92274EC121ADA
:103453009174FC121A21123F5C7402121A871237FC
:10346300EF1208188A0C8B0DEA450D7003023527FD
:10347300123537A818A919881089117810121CA4BD
:103483007CFF7DFF790B8508828509831237F5124E
:1034930008F07402121A3712362D700C850A8285D1
:1034A3000B83123B2A0235348E828F83A3A3A3A3FB
:1034B300E0F5127812121CA8E4F512F51378121233
:1034C3001CA47512F57513027812121CA47810123D
:1034D3001CA47409121A6D121CBB7409121A6DE034
:1034E300F9AC0CAD0D8508828509831237F51209F5
:1034F300867409121A37E9FE70157CF57D0285087A
:10350300828509831237F5120452E9700980207409
:10351300166E70027E009002F61237F5121460EEFA
:103523007004800B7E01850A82850B83123E49EE6F
:10353300F9023E5EEE2402F508E43FF5092274EC3D
:10354300121A9174FC121A21EAFEEBFF8C0E8D0FF6
:10355300EE2405F508E43FF5097402121A8785087D
:10356300828509831237F51208188A0C8B0DEA45F8
:103573000D700302361DEE2402F50AE43FF50BA895
:1035830018A919881089117810121CA47CFF7DFFDB
:10359300790D1237EF1208F07402121A3712362D12
:1035A300700B850882850983123B2A807A8E828F6D
:1035B30083A3A3A3A3E0F5127812121CA8850882A3
:1035C300850983A3A3121CBB7512F5751302781228
:1035D300121CA47810121CA47409121A6D121CBBBD
:1035E3007409121A6DE0F91237EB12098674091285
:1035F3001A37E9FE700F7CF57D021237EF1204587B
:10360300E97009802074166E70027E009002F61233
:1036130037F5121460EE7004800B7E0185088285F5
:103623000983123E49EEF9023E5E123834F510A3C7
:10363300E0F511EA45112274E8121A9174FE121A88
:10364300218A168B178C148D15EA2405F50CE435A5
:1036530017F50DEA2402F50EE43517F50F850E82F2
:10366300F5831237F512058A8A088B09750B007CDE
:10367300037D0079007AF57B021213EE750A00E5EB
:103683000814F5100424FFF508E50934FFF5098053
:10369300549002F5E0FA9002F2E0F8EA28F8E434F4
:1036A30000F9E50898E50999500D9002F5E0F8E571
:1036B30010C3989002F2F0E0F5127513007812121D
:1036C3001CA41247869002F6E02AFAA3E03400FB1A
:1036D3001213D67402121A379002F2E0F89002F530
:1036E300E028F0050A850C82850D83A3A31241000F
:1036F30040030237D09002F5E0C39508E4950940F2
:10370300030237D0AE0AEE2EFEE433FF12380FACBD
:1037130018AD191247A1E439FB1208188A128B134A
:10372300AC12AD13EC4D701B750B011237FF123E3B
:103733004D9002F6122D4C6003121460A90B740213
:10374300023AB8851682851783A3A3A3A3E0F50BDA
:10375300780B121CA8E4F512F5137812121CA47549
:1037630012F27513027812121CA49002F3121CBBFE
:103773007407121A6D121CBBA910850E82850F8364
:103783001237F51209867409121A37E9F50B709B83
:103793009002F61238246003023694E4F512F5130E
:1037A3007812121CA47CFF7DFF790F850E82850F92
:1037B300831237F51208F07402121A3712382A608E
:1037C300030236941237FF123B2E0237417CF57DFC
:1037D30002850E82850F831237F512045EE96003BA
:1037E3000237347900023741AC0CAD0D850A82856E
:1037F3000B831237F922E0FAA3E0FB2212380FE021
:10380300FAA3E0F9EA85148285158322850C828563
:103813000D83E02EF8A3E03FF9888289832290028A
:10382300F3124927E84922123834F8A3E0F9E849AA
:10383300229002F6EAF0A3EBF09002F6E02274E89D
:10384300121A9174FA121A217404121A6D1234376F
:103853008C168D177404121A6DE02405F50EA3E07F
:103863003400F50F7404121A6DE02402123ACC12DC
:1038730037F512058A8A0A8B0B7F007E00A818A9E8
:1038830019880889097808121CA4850E82850F837C
:10389300A3A3A3A3E0F5088E097808121CA4E50EE0
:1038A3002405F508E4350FF5097808121CA4850EE4
:1038B30082850F83A3A3123AFC1208127406121A0C
:1038C300378A0C8B0D8029123AEDF00F123AEDF086
:1038D3000F9002F2123E38121CA4124786EFF81220
:1038E3003AC01213D67402121A379002F2E02FFF75
:1038F300E50C450D700302397C8518828519831206
:103903003F6EA3A3A3E0F98514828515831237F5CF
:10391300120800E9FEE50C2404F510E4350DF51159
:10392300EE70507404121A6D123AF3F50878081207
:103933001CA8E4F508F5097808121CA47508F275AB
:1039430009027808121CA49002F3121CBB7407121C
:103953001A6D121CBBE50A24FAF9AC0CAD0D8514E3
:10396300828515831237F51209867409121A37E90D
:10397300FE6039123B09123E4CEF7003023AA390EA
:1039830002F6E0F5F0EF849002F5F07CF57D028518
:1039930014828515831237F5120464E960099002D5
:1039A300F71237F51214607900023AB68F08EF70F8
:1039B3003BE4F512F5137812121CA47CFF7DFF790A
:1039C300118514828515831237F51208F0740212DB
:1039D3001A37123B197009123B09123B2D023AB6F2
:1039E3009002F2E024049002F6F080359002F2E0B7
:1039F300F89002F6E0FAE82404FCE43400FDEC6AF3
:103A03004D6003023982E50A24FAFAE50B34FFFB21
:103A1300E50828F8E43400F9EA98EB9950030239F1
:103A230082851082851183E0C0E09002F7E02FF8D1
:103A3300A3E034008882F583D0E0F00F85108285FF
:103A43001183A3E0C0E0123ADAD0E0F00F7402125F
:103A53001A77880889097808121CA47402121A6D4F
:103A6300121CBB850E82850F8312342B12081E7421
:103A730004121A378A0C8B0DEA450D70030238CAFB
:103A83007402121A6DE0C0E0123ADAD0E0F00F745B
:103A930002121A6DA3E0C0E0123ADAD0E00238D283
:103AA300EE70027E0A850E82850F83123B0F123E53
:103AB3004CEEF97406121A377F10021B639002F75B
:103AC300E028FAA3E03400FB22F514A3E03400F568
:103AD30015851482F58322123ADE229002F7E02F35
:103AE300FAA3E034008A82F58322123ADE74FF22BD
:103AF300123C5BA3A3A3A3E022124A18850E82857E
:103B03000F831237F9228510828511831249278585
:103B13001682851783229002F7EAF0A3EBF0900256
:103B2300F7124927E84922123E52E8F0A3E9F07957
:103B3300112274EA121A9174FE121A218A088B094F
:103B43008C128D13EA2405FEE43509FFAC18AD1978
:103B53008E828F831237F51208188A0C8B0DEE2490
:103B630006F50EE43FF50FEA450D7003023C2DE523
:103B7300082402F50AE43509F50B8A828B83A3A393
:103B8300A3E0A2E550288518828519831237F51220
:103B9300097A8A108B11EA4511602079121237EBEA
:103BA300851082851183121A8FE9F50C707F850EBB
:103BB30082850F83E0600979528011750C0E806D48
:103BC300850882850983A3A3A3A3E0F9E4F508F597
:103BD300097808121CA48E828F83A3A3E0F50878CA
:103BE30008121CA48E828F83A3A3A3121CBB8E82F4
:103BF3008F831247891237EF12098C7406121A3712
:103C0300E9F50C7011850E82850F83E0702D123754
:103C1300EF12046A80257416650C7011750C00741C
:103C230018121A6D123C57E48010750C0112491FCB
:103C3300851282851383E8F0A3E9F0850E82850F50
:103C430083E0600479008002A90C7402121A377FA2
:103C53000E021B63123C5B22E0F8A3E0F58388822B
:103C63002274EC121A9174F7121A218A0A8B0B8CA4
:103C7300108D11EA2405FEE4350BFF750C00AC181A
:103C8300AD198E828F831237F51208188A088B09B3
:103C9300EA45097003023E23E50A2402F50A5002AD
:103CA300050B8A828B83A3A3A3E0A2E5502F85187B
:103CB300828519831237F512097A8A0C8B0DEA452E
:103CC3000D604F7912AC08AD091237EF850C828570
:103CD3000D83121A8FE9F50C6003023E26850A82D2
:103CE300850B83E0F508A3E0F509AA08FB12096E2A
:103CF300EA4B70197AFF7BFF12096EEA4B700302DD
:103D03003E198A828B83E508F0A3E509F075080064
:103D13008008750C0E023E2605089002EFE0F8E5D8
:103D230008C3984003023E1985080E750F007403FB
:103D3300780E121A0E8A828B83A3A3E0250EF8A3B2
:103D4300E0350F1241ED70D08E828F83123E411207
:103D530034378E828F83A3A3123E41123435EE246F
:103D630004F508E43FF509850882F583E088828934
:103D730083A3A3A3A3F0A3E4F0EE2405F50EE43F8D
:103D8300F50F850E82F583123E41A3A3A3A312343C
:103D9300357512077513007812121CA4EEFCEFFDA3
:103DA3007404121A7F1213D67402121A37E4F5122E
:103DB3007812121CA4850882850983E0FC7D0079B2
:103DC300171237EF1208F07402121A377407121A17
:103DD3006D1234377407121A6DE0FA4B603D850893
:103DE30082850983123E38121CA4850E82850F83B7
:103DF3001247891213D67402121A377402121A87E1
:103E03001237EF120470E960267407121A6D123725
:103E1300F51214608019750C098008750C11800364
:103E2300750C0112491F851082851183123E4CA91E
:103E33000C74098028E0F508750900780822123708
:103E4300F98882898322123E52E8F0A3E9F022E046
:103E5300F8A3E0F9850E82850F83227404121A37C2
:103E63007F0C021B6374EC121A91123F5C751000F5
:103E7300EE2402F50CE43FF50D850C82F583123731
:103E8300F512096E8A088B09EA45097003023F405F
:103E9300850A82850B83E064016003023F35AC0829
:103EA300AD09AA0AAB0B120962E9606E8508828527
:103EB30009831231C2EE2406F50AE43FF50B8E8224
:103EC3008F83A3A3121CBB8E828F83A3A3A3A312EE
:103ED3001CBB850A82850B83121CBB79188E828FCB
:103EE30083123F6E1237F512098C7406121A37E9E2
:103EF300F8741668700B850A82850B83E4F0A3803F
:103F030014E860128E828F831237F5850E82850F37
:103F130083EAF0A3EBF088108018780E121CA4AC8F
:103F230008AD09EEFAEFFB1209687402121A37E9B9
:103F3300F510AA08AB09120974E510700E850C82FE
:103F4300850D831237F51204768009741665107097
:103F530003751000A910023E63EAFEEBFF8C0E8D81
:103F63000FEE2405F50AE43FF50B22124A18850CDF
:103F730082850D832274EA121A917508007509006F
:103F83007E007F00750A00EC2402F510E43DF51174
:103F93008035EC65087003ED6509600302402D88E8
:103FA300828983A3A3E06A7003A3E06B707C888299
:103FB3008983A3A3A3A3124923EE28FEEF39FFEAC3
:103FC30028FAEB39FB050A1240FD503A850A0C75B5
:103FD3000D007403780C121A0E851082851183125A
:103FE30040F01241ED601FE508450970A58C088D6E
:103FF30009888289831231C088828983A3A3E02E32
:10400300FAA3E03F80BEE50AC3940250030240EBEB
:10401300750800750900EE4F6010EEFAEFFB1214FD
:104023005A8A0E8B0FEA450F700579000240ED7531
:104033000B000240C0850B0C750D007403780C1245
:104043001A0E851082851183E0250CF50CA3E0354B
:104053000DF50DE50C2406F514E4350DF515851461
:1040630082F5831241F26042E50C2404F512E43533
:104073000DF513851282F583121CBBE50E2508FA94
:10408300E50F3509FB1213D67402121A3785128213
:10409300851383E02508F508A3E03509F5098514A0
:1040A300828515831237F5121460E50B600D7C08C9
:1040B3007D007900AA0CAB0D1213EE050BE50BC3C3
:1040C300950A5003024038851082851183124923D3
:1040D30088828983A3A3A3A3A3A3E50EF0A3E50F7B
:1040E300122D53EEF0A3EFF07901023C521240F48B
:1040F30022E0250CF8A3E0350D229002EFE0F8E56D
:104103000AC3982274F0121A918A0E8B0F8C0A8DAF
:104113000B750D00750C0080507916EE2406F5081A
:10412300E43FF5098E828F83A3A3121CBB8E828F7B
:1041330083A3A3A3A3121CBB850882850983121C36
:10414300BB850E82850F83A3A31237F512098C74E6
:1041530006121A37E9F50D7416650D706C85088221
:10416300850983E4F0A3F0050C9002EFE0F8E50C79
:10417300C3985066AA0C8A0875090074037808125C
:104183001A0E850A82850B83A3A312423CE8FEE93B
:10419300FF8E828F831241F26040EA2401F508E426
:1041A3003400F5099002EFE065087002E509601438
:1041B30088828983A3A3A3A3A3A3A3A31238246000
:1041C3000302411C791802411EE9609B12491F74C6
:1041D30010121A6D1241E4123E4CA90D7F08021B06
:1041E30063E0FAA3E0F5838A8222F9888289831245
:1041F3004A18EC4D2274F6121A917C0080010C903F
:10420300034CE0F8ECC398501E8C08750900740247
:104213007808121A0E124231E06A7003A3E06B7041
:10422300DDE8FAE9FB80047A007B000242D49002C5
:10423300ED12423C8882898322E02508F8A3E03509
:1042430009F92274F2121A918A088B09750A0080FF
:10425300278E828F83A3A3A3A3122D4A6003121474
:10426300607C087D007900EEFAEFFB1213EE8E827C
:104273008F83E4F0A3F0050A1240FD5027850A0C52
:10428300750D007403780C121A0E85088285098354
:10429300A3A3E0250CFEA3E0350DFF8E828F8312CE
:1042A300382470AD85088285098374FFF0A3F0027A
:1042B3004A0C74F6121A911209208A828B83E582C2
:1042C300458370067A007B008007A3A3A3A312375C
:1042D300F57F02021B6374F4121A9189088C828D94
:1042E30083E06402703C1248C2FEA3E0F9EEF87466
:1042F300026870037429697029750A02750B0078C6
:104303000A121CA47410121A6D121CBB7410121A18
:104313006D121CBBA9081212EC7406121A37E9F9C4
:1043230080027901022D8774E8121A9174FB121A24
:1043330021E9851882851983F08A168B17ECFEED27
:10434300FF7510008E828F83A3A3A3E0A2E4502DF8
:10435300741D121A6D1237F512097A8A828B83E55E
:104363008245837003024761790AEEFCEFFDAA16CA
:10437300AB17121A8FE9F5106003024764741F121A
:104383001A6DE0F508A3E0F5097421121A6DE0F542
:104393000AA3E0F50B7423121A6DE0F50EA3E0F502
:1043A3000F8E828F83E064026003024702A31249E7
:1043B30023850882850983A3858212858313EE24CE
:1043C30006F50CE43FF50D888289831247A1F514A5
:1043D300E439F5157814121D2E0100002801280474
:1043E3004407000228C944032837440029F845013B
:1043F3002923460229C4450329F84504299C46027A
:1044030047E50E450F60030246FD850C82850D834B
:10441300124923E8FAE9FB8A828B83E0850A8285C5
:104423000B831247AC121CA48A828B83A3E0FCA3E8
:10443300E0024686E50E450F60030246FD850A82CB
:10444300850B837401F0124796850882850983F0F2
:104453007C007D008E828F83A3A3A3A3E02401FAB3
:10446300A3E03400FB120818EA4B60408A828B8376
:10447300E02402F8850A82850B83E028F0EA24040D
:10448300F8E43BF988828983E085128285138312DD
:1044930047BA1247AC121CA48A828B83A3124789A2
:1044A300E5082403FAE43509FB02468B850A828575
:1044B3000B83E02404F07C047D007900AA12AB1383
:1044C3001213EE024764E50E450F60030246FD1228
:1044D3004796FEA3E0FF850A82850B837404F0EE02
:1044E300850882850983F0EF851282851383F07432
:1044F30003121A87EEFAEFFB1208188A0C8B0DEAE7
:10450300450D70030245A78A828B83A3A31231C092
:104513007401121A77880E890F780E121CA4740581
:10452300121A6D121CBB7CFF7DFF12081E7404124D
:104533001A378B0FEA450F7033850C82850D831272
:10454300478D121CA4850C82850D83A3121CBB7C92
:10455300027D007A1F7B901205787404121A37E9E2
:10456300700A7401121A6D74FFF0A3F08E828F83A8
:10457300E064027039750C02750D00780C121CA4EE
:104583008E828F83A3124789E5082404FAE4350950
:10459300FB1213D67402121A37850A82850B83E045
:1045A300240280097401121A6DEEF0A3EFF0740176
:1045B300121A6D12477B7401121A6D12477202466A
:1045C300F7E50E450F60030246FD850C82850D83DA
:1045D300124A11AA16AB171212F2850A82850B83AF
:1045E3007402F0850882850983EAF08512828513B7
:1045F30083EB0246FAE50E450F60030246FD1247C0
:1046030096F8A3E0F9850A82850B837402F0E885A6
:104613000882850983F0E98512828513830246FAAD
:10462300850C82850D831237F51213D0EAFAF8C38D
:10463300950EE4950F405CE8650E450F70047A0013
:104643008021851882851983E0FCE50E2CFCE43576
:104653000FFDC3EC98ED94005003E08005E50ECA0E
:10466300C39AFAEA850A82850B83F08A0A750B00DE
:10467300780A121CA4850C82850D83E0250EFCA309
:10468300E0350FFDAA08AB091213D67402121A37CC
:10469300024764751007024764E50E450F705B859A
:1046A3000C82850D83124923850A82850B83740747
:1046B300F08882898312477312476BE085128285E3
:1046C3001383F0E82402FAE439FB8A828B831247CE
:1046D3007B8A828B83124772A3A3122D52124780C7
:1046E300F0E82405F850010988828983124780A3E2
:1046F3001247BAA3A3A3A3F0806775100B8062745B
:104703001D121A6D1237F51209208A828B83E582F6
:104713004583604A124923880C890DE8450D603EA4
:104723007425121A6DE0F5107810121CA8780E1279
:104733001CA4780A121CA47808121CA47407121A69
:104743006DE0F9EEFCEFFDAA16AB17850C82850D23
:1047530083121A8F7407121A37E9F5108003751044
:104763000EA9107405023AB8F088828983A322A3A4
:10477300E0850882850983221247C1F0221247C1CE
:10478300A3A3229002F3124A1822E0F50E750F003C
:10479300780E22850C82850D83123C5BE022E0FAC1
:1047A300A3E0F8E4C8F9EA2822F08A828B83E0F5D3
:1047B3000A750B00780A2212476B1247C122E08563
:1047C3000882850983A3A32274EE121A9174FE1240
:1047D3001A218A088B09ECFEEDFF890AAC18AD1982
:1047E300EEFAEFFB1208188A0C8B0DEA450D7003E5
:1047F3000248B38518828519831237F51209208A76
:10480300828B83E582458370030248AEA3A31249DA
:1048130023880E890FE8450F70030248AE74141203
:104823001A6DE0F510A3E0F511E50AF50B780B120C
:104833001CA87419121A6D121CBB7810121CA474D4
:104843001B121A6DE0F9AC0CAD0DAA08AB09850E6D
:1048530082850F83121A8F7405121A37E9F50B70CC
:104863005274FE650A604C850C82850D83E06402F8
:1048730070411248C2FAA3E0F9EAF87402687003BF
:10488300742969702E8510828511831247A1F50C56
:10489300E439F50D780C121CA4EEFCEFFDAA08AB6D
:1048A300091209A47402121A378008750B0E8003CB
:1048B300750B01A90B7402121A377F0A021B63A33B
:1048C30012492788828983E02274F6121A9174FEB2
:1048D300121A21740C121A6D124923E88518828565
:1048E3001983F07401121A6DE9F0E4F508F50978FB
:1048F30008121CA47508027808121CA47404121A66
:1049030077880889097808121CA479FE12098C7427
:1049130006121A377402121A370242D48E828F8318
:1049230012492722E0F8A3E0F92274F7121A91EA58
:10493300FEEBFF890890030A1247891212F2EA5428
:1049430002600BA908EEFAEFFB12080C8002790152
:104953007F01021B6374F2121A9174FE121A21EA88
:10496300FEEBFF890A7401650A60147402650A602C
:1049730003024A077901120BA8E96003024A07EE12
:10498300FAEFFB12096EEA4B6003120974A818A927
:1049930019880889097808121CA47508027509008A
:1049A3007808121CA47508197509907808121CA4BC
:1049B3007CFF7DFF7A017B001208127406121A37FE
:1049C3008038850882850983A3A3A3A3A3A3124ADE
:1049D30011EEFAEFFB1212E6E4F50CF50D780C126A
:1049E3001CA47402121A6D121CBB7CFF7DFFAA0863
:1049F300AB0912081E7404121A378A088B09E508DA
:104A0300450970BE7402121A377F06021B63123CFB
:104A13005B124A1822E0FCA3E0FD2274F4121A91FF
:104A23008A088B09ECFEEDFF901591E0F4604B7A58
:104A3300097B001213FAEA4B60408A828B8374B1BC
:104A4300F0A3E4124A80F08A828B83A3A3E508F0E3
:104A5300A3E509124A80A3EEF0A3EFF0740C121A37
:104A63006D1249238A828B83A3A3A3A3A3A3A312B7
:104A73003E4C901591E0F9121406022D87F08A82BC
:104A83008B83A3A3A3A32274EE121A9174FA121AAE
:104A9300218A0A8B0BE9FF8C088D097E00850A0C9D
:104AA300850B0D780C121CE8000410664DD24AF5F4
:104AB3004A144B374B5A4B7D4BAE4BD14BE84B18FB
:104AC3004CC74CEA4C0D4D3B4D664D664D414C7405
:104AD300016F7019850882850983E0C39403500D23
:104AE300850882850983E090167DF080027E180296
:104AF3004D8E74026F7015850882850983E0F8A3D3
:104B0300E0F990167EE8F0A3E9F080027E18024DEA
:104B13008E74016F7019850882850983E0C394023E
:104B2300500D850882850983E0900730F080027E6E
:104B330018024D8E74016F7019850882850983E010
:104B4300C39405500D850882850983E0900731F0F1
:104B530080027E18024D8E74016F7019850882855C
:104B63000983E0C39402500D850882850983E09090
:104B73000732F080027E18024D8E74106F70277515
:104B83000C10750D00780C121CA4AC08AD097A3317
:104B93007B071213D67402121A378A0C8B0D850CFD
:104BA30082850D8380027E18024D8E74016F701909
:104BB300850882850983E0C39402500D85088285A8
:104BC3000983E0900743F080027E18024D8E740142
:104BD3006F700D850882850983E0901681F080024D
:104BE3007E18024D8E74046F7026908FCB780C1252
:104BF30018E5850882850983780C1216F55011850E
:104C0300088285098312190F90074512191B800228
:104C13007E18024D8EEF7021120710E970131212E5
:104C23008CE9F50D7950121550E9F50C12127A80C2
:104C33000A9007D87401F080027E18024D8E740723
:104C43006F707C750E06750F00780E121CA4850814
:104C530082850983A3AC82AD837402121A7F121377
:104C6300DC7402121A378A108B1185100E85110F0E
:104C73007C007D00AA18AB19850882850983E0F9B9
:104C830012121AE9F50CE50CC3940A502E12071000
:104C9300E97015A90C121292E9F50E79501215500C
:104CA300E9F50D12127A8019A80C790074D928F548
:104CB30082740739F5837401F080067E0280027ED8
:104CC30018024D8E74016F7019850882850983E07F
:104CD300C39402500D850882850983E0900744F050
:104CE30080027E18024D8E74016F701985088285CB
:104CF3000983E0C3940A500D850882850983E090F7
:104D03001680F080027E18024D8E74016F70258527
:104D13000882850983E0C3940740198508828509C1
:104D230083E0C39411500D850882850983E09016B2
:104D330082F080577E18805374016F70229007D7DA
:104D4300E0F50C850882850983E09007D7F0E50C30
:104D530070399007D7E06401703112127A802C7E8B
:104D6300188028C3E50A9427E50B9400501B7402AE
:104D73006F7016850882850983E0FCA3E0FDAA0A0B
:104D8300AB0B120590E9FE80027E02EEF974061267
:104D93001A377F0A021B6374EC121A9174DA121A1F
:104DA30021890D8A128B138C0A8D0B743A121A6D9A
:104DB300E0F50C908F4DAC18AD197406121934AC94
:104DC30018AD19AA12AB13A90D12121AE9FEEEC3FC
:104DD300940A4003024F0EEEF912125CE9FF90169B
:104DE3007DE064027004740180027400F5087808A1
:104DF300121CA8AD0CEFFCEEF9AA0AAB0B1212CEF3
:104E03007401121A377C147D0079007412121A7F10
:104E13001213EE8A0E8B0F850E08850F097412127A
:104E23001A877A1075F006EEA42424F912154AE9BC
:104E3300703C7C1079FF7412121A7F121454E970BB
:104E43002D7422121A6DAC82AD837A0475F006EECE
:104E5300A42425F912154AE9F5087412121A87EFEA
:104E6300A2E0E433F9AA0AAB0B12061AE9F87406B6
:104E7300121A877A0C74702EF912154AE970797434
:104E830006121A7F121250750E00E50EC3940450D9
:104E930067A80E7900E875F003A4C8AAF075F000BE
:104EA300A42AFA75F003E9A42AF97406121A6DE527
:104EB3008228F508E58339F509850882850983E0A9
:104EC300F8A3E0F9E849602C850882850983A3A348
:104ED300E0F5107511007810121CA485088285096D
:104EE30083E0FCA3E0FDAA0AAB0B12099274021241
:104EF3001A37E9F8050E8092EFA2E1500E90072FC2
:104F0300E0F9AA0AAB0B120998E9F87404650C706E
:104F13000F90167DE064027007AA0AAB0B1212C849
:104F230079007426121A377F0C021B6374F7121A66
:104F330091EAFEEBFF120710E970679007D8E0646F
:104F430001701B12128CE9F5089007D87400F07CED
:104F53000A7D0079007AD97B071213EE8039750830
:104F630000E508C3940A502FA808790074D928F5DE
:104F730082740739F583E064017018A9081212924C
:104F8300E9FAA808790074D928F582740739F583FA
:104F93007400F0050880CA7950121550E9F508121B
:104FA300127A7F01021B6374F2121A91890BEAFED3
:104FB300EBFF8C088D09750A0AE50B600C14600978
:104FC30014604414606402504FEEFAEFFB12126E49
:104FD300E9F50AE50AC3940A5072E5084509606CCD
:104FE300750C06750D00780C121CA4EEFCEFFDAADF
:104FF30008AB091213D67402121A378A0C8B0D856B
:105003000C82850D838045EEFAEFFB121268E9F5F9
:105013000AE50AC3940A5034E5084509602EAA0834
:10502300AB09A90A121262E98022EEFAEFFB12120F
:1050330074E9F50AE50AC3940A5011E508450960C5
:105043000BAA08AB09A90A121262E9F8A90A7F069A
:10505300021B6374F2121A918A0C8B0DE9FF7E1501
:1050630074FF650C700474FF650D702A750800E504
:1050730008C3940A5014EFFC7A027B00A9081212A9
:105083003EE960027E00050880E5EF60627AB67B48
:1050930012120BCC8059AA0CAB0D120B9C8A0A8BF3
:1050A3000B850A08850B09E508450960407C007DEE
:1050B30000E5082405FAE43509FB850882850983A0
:1050C300A3A3A3A3E0F912121AE9F50AE50AC3940C
:1050D3000A500EEFFC7A027B00A90A12123EE97E07
:1050E30000EF600BAA08AB091212B680027E14EE21
:1050F300F97F06021B6374EE121A918A0E8B0F8CD2
:105103000A8D0B7412121A6DE0F50CA3E0F50D7500
:10511300081574FF650E700474FF650F701E7E0022
:10512300EEC3940A5061AC0CAD0DAA0AAB0BEEF9B9
:10513300121244E960037508000E80E4AA0EAB0F57
:10514300120B9C8A108B11AE10AF11EE4F60357CA1
:10515300007D00EE2405FAE43FFB8E828F83A3A338
:10516300A3A3E0F912121AE9F509E509C3940A5059
:1051730016AC0CAD0DAA0AAB0BA909121244E975C2
:1051830008008003750814A9087F0A021B6374F7DB
:10519300121A91EAFEEBFF900749EEF0A3EFF090AD
:1051A300072FE0FC7D007A267B00120590E9F508C5
:1051B30090072FE0F91208FC7F01021B6374EE12C3
:1051C3001A918A108B11E9FF7412121A6D780C125E
:1051D30018E57E00EF7041850C08850D09850E0AE0
:1051E300850F0B908FCB780C1218E57808790C1289
:1051F30017A47810121CA4AA0CAB0DAC0EAD0F12A1
:10520300062C7402121A37E9FEEE60177901AA1010
:10521300AB11120626E9800BEFF9AA10AB111206A7
:1052230026E9F8EEF97F0A021B6374F0121A9174EF
:10523300EC121A218A0C8B0D850C82850D83A3A396
:10524300E024FA70030256A624FD700302551B14D2
:10525300700302531D14601024FD70030254C31421
:10526300700302555A0256B9AE0CAF0D900749E0D0
:10527300F8A3E0F9E8496066900749E0F8A3E0F590
:10528300838882E0F8A3E0F9E8496052EE240CF544
:1052930082E43FF583E0F5087808121CA8EE240B9E
:1052A300F582E43FF583E0F98E828F83A3A3A3A362
:1052B300A3A3A3A3A3E0FCA3E0FDEE2403FAE43F2E
:1052C300FB900749E0F8A3E0F5838882E0F8A3E0C8
:1052D300F5838882121A8F7401121A3780398E82ED
:1052E3008F83A3A3A3A3A3A3A3A3A3121CBB90076E
:1052F3004512190312062C7402121A37E960187941
:10530300018E828F83A3A3A3A3A3A3A3A3A3E0FAE2
:10531300A3E0FB120626E90256B9AE0CAF0D7508E1
:10532300008E828F83A3E060030254458E828F83B5
:10533300A3A3A3A3A3E0A2E040030254459007E381
:10534300E0F8A3E0F9E84960030254457C0E7D00D0
:105353007900AA18AB191213EE8A0A8B0BAA0AABAF
:105363000BEE240CF582E43FF583E0F8A3E0F9E8C3
:10537300496036750A06750B00780A121CA4EE24E0
:105383000CF582E43FF583E02410FCA3E03400FD38
:105393007402121A7F1213D67402121A378A0A8BF6
:1053A3000B850A82850B83804F8E828F83A3A3A3F1
:1053B300E0FAA3E0FB120B9C8A0E8B0F850E0A8585
:1053C3000F0BE50A450B602D750E06750F00780E61
:1053D300121CA4E50A2405FCE4350BFD7402121A21
:1053E3007F1213D67402121A378A0E8B0F850E8220
:1053F300850F8380030256B98E828F83A3A3A3A351
:10540300A3E0A2E25004D2F08002C2F0A2F0E4339F
:10541300F87900740C121A6DE048F0A3E049F0EE3D
:10542300FCEFFDAA18AB19121256E970127A027B2F
:105433000090072FE0F912142AE979000256BB7590
:105443000815900749E0F8A3E0F9E849606F900771
:1054530049E0F8A3E0F5838882A3A3E0F8A3E0F989
:10546300E84960598E828F83A3E0FC79018E828F95
:1054730083A3A3A3E0FAA3E0FB900749E0F8A3E02A
:10548300F5838882A3A3E0F8A3E0F5838882121A48
:105493008FE5086028AC0879038E828F83A3A3A3CA
:1054A300E0FAA3E0FB900749E0F8A3E0F5838882E4
:1054B300A3A3E0F8A3E0F5838882121A8F0256B9FA
:1054C300AE0CAF0D900749E0F8A3E0F9E849604559
:1054D300900749E0F8A3E0F5838882A3A3E0F8A34B
:1054E300E0F9E849602F850C82850D83A3E0FC7900
:1054F300028E828F83A3A3A3E0FAA3E0FB90074964
:10550300E0F8A3E0F5838882A3A3E0F8A3E0F583A2
:105513008882121A8F0256B9AE0CAF0D7C007D0043
:10552300EE2404FAE43FFB8E828F83A3A3A3E0F966
:1055330012121AE9F508E508C3940A5017EE240A73
:10554300FCE43FFD7A0475F006E508A42425F9126E
:105553001544E9F80256B9AE0CAF0D900744E0606C
:1055630019901680E0F98E828F83A3A3A3E0FAA398
:10557300E0FB120626E9F80256B990167DE0701694
:1055830079058E828F83A3A3A3E0FAA3E0FB12061F
:1055930026E9F80256B98E828F83A3A3A3E0FAA368
:1055A300E0FB120B9C8A0A8B0B850A08850B09E525
:1055B30008450970030256B98E828F83A3A3A3A360
:1055C300A3A3A3E0A2E0506D850882850983A3A36A
:1055D300A3A3E060608E828F83A3A3A3A3A3A3A34B
:1055E300A3A3E0F50AA3E0F50B7409780A1219FFE7
:1055F300E50A5401F8E50B5400F9E8A2E0403674DB
:105603000E121A87E5082405FAE43509FB8508829A
:10561300850983A3A3A3A3E0F912121AE9701679EB
:10562300038E828F83A3A3A3E0FAA3E0FB120626D3
:10563300E9F80256B9EE2405FCE43FFD85088285AE
:105643000983A3A3A3A3E0F98E828F83A3A3A3E07B
:10565300FAA3E0FB1212C2900749E0F8A3E0F9E8CD
:10566300496053900749E0F8A3E0F5838882A3A338
:10567300E0F8A3E0F9E849603D7C0079008E828F71
:1056830083A3A3A3E0FAA3E0FB900749E0F8A3E018
:10569300F5838882A3A3E0F8A3E0F5838882121A36
:1056A3008F8013AE0CAF0D8E828F83A3A3A3E0FA7A
:1056B300A3E0FB12121479017414121A377F080243
:1056C3001B6374F5121A9174F2121A218909EAFE06
:1056D300EBFF8C0AAC18AD197A0E75F006E509A438
:1056E3002420F912154AE9705F7C0679FFAA18ABEA
:1056F30019121454E97051740C121A6DE0F8A3E0F6
:10570300F9E8F508E50A6005EE42088004EEF45274
:1057130008A8087900740C121A6DE0687003A3E0FE
:10572300696021A8087900740C121A6DE8F0A3E9E6
:10573300F0AC18AD197A0E75F006E509A42420F92A
:10574300121544E9790180027900740E121A377F29
:1057530003021B6374F0121A9174E6121A21890B67
:105763008A0C8B0DECFEEDFF740C121A877A0E7502
:10577300F006E50BA42420F912154AE96003025848
:10578300877C0679FF740C121A7F121454E96003A4
:10579300025887AC18AD197A0C7470250BF91215E1
:1057A3004AE96003025883750A00AA18AB1912125A
:1057B30050E50C450D702E7C0C7900AA18AB19121C
:1057C3001454E960030258697C0C7D007900AA181F
:1057D300AB191213EE8A088B098508828509837534
:1057E3000A01025869AC18AD19AA0CAB0D12124A82
:1057F3008A0E8B0F850E08850F09E5084509703061
:10580300EE4F601BAC18AD197A007B0012124A8A66
:105813000E8B0FA80EA90F88088909E8497004792F
:10582300008063850882850983E50CF0A3E50DF00C
:10583300850882850983A3A3E0F87900EE687002E6
:10584300EF696022EEC0E0850882850983A3A3D0B7
:10585300E0F0EE4F700D8508828509837400F0A394
:105863007400F0750A01E50A6016AA18AB19121242
:1058730050AC18AD197A0C7470250BF9121544E964
:10588300790180027900741A121A377F08021B63A8
:1058930074F6121A918A088B097E00EEC3940450A1
:1058A30050EEF87900E875F003A4C8AAF075F0008B
:1058B300A42AFA75F003E9A42AF9EC28F582ED3954
:1058C300F583E065087004A3E065097021EEF879BB
:1058D30000E875F003A4C8AAF075F000A42AFA75CD
:1058E300F003E9A42AF9EC28FAED39FB80070E80CE
:1058F300AA7A007B007F02021B6374F7121A917C61
:1059030000ECC3940440030259ACECF87900E87549
:10591300F003A4C8ADF075F000A42DFD75F003E904
:10592300A42DF9EA28F582EB39F583E0F4FEA3E030
:10593300F4FFECF87900E875F003A4C8ADF075F056
:1059430000A42DFD75F003E9A42DF9EA28F582EBF7
:1059530039F583EEF0A3EFF0ECF87900E875F00386
:10596300A4C8ADF075F000A42DFD75F003E9A42DD6
:10597300F9EA28F582EB39F583A3A3E0F4C0E0EC60
:10598300F87900E875F003A4C8ADF075F000A42D14
:10599300FD75F003E9A42DF9EA28F582EB39F583C7
:1059A300A3A3D0E0F00C0259047F01021B6374F03F
:1059B300121A9174F4121A21EAFEEBFF8C088D0976
:1059C3009007E3E0F8A3E0F9E849702CEE4F600696
:1059D300E508450970057901025C5DEEFAEFFB12FB
:1059E300126EE9901683F0901683E0C3940A400880
:1059F300121280E9901683F0901683E0C3940A4054
:105A030003025C5B9007E3E0F8A3E0F9E849600375
:105A1300025AA7EEFCEFFD7A0E75F006901683E0AE
:105A2300A42420F9121544E9F50C7C0C7D0079FFC0
:105A3300AA18AB191213EE8A0E8B0F850E0A850F67
:105A43000BAC18AD197A0C901683E02470F912157B
:105A530044E9F50D750E0E750F00780E121CA4EEB9
:105A6300FCEFFD901683E0F87900E875F00EA4C80A
:105A7300AAF075F000A42AFA75F00EE9A42AF974C5
:105A83004B28FA740739FB1213D67402121A378A99
:105A93000E8B0FA80EA90F9007E3E508F0A3E50905
:105AA300F0025C579007E3E0F8A3E0C82406F58210
:105AB300C83400F583E0F8A3E0F9E84960439007B0
:105AC300E3E0F8A3E0C82406F582C83400F583E0D8
:105AD300FCA3E0FD7A1B75F006901683E0A4242155
:105AE300F9121544E9F89007E3E0F9A3E0C92406A5
:105AF300F582C93400F5837400F0A37400F0025CEE
:105B0300579007E3E0F8A3E0C8240AF582C83400FD
:105B1300F583E0F8A3E0F9E84960439007E3E0F890
:105B2300A3E0C8240AF582C83400F583E0FCA3E0AF
:105B3300FD7A1B75F006901683E0A42422F9121552
