:020000040000FA
:0600000002011A02216D4D
:03002B0002281197
:030053000221E3A4
:03006B000227DF8A
:10008300021FC3E5C754F84401F5C77901220000F4
:100093000080FB120086B90003020104E479217891
:1000A30008B800028004F709D8FCE479297802B87B
:1000B30000028004F709D8FCE490028178A7791341
:1000C3008002F0A3D8FCD9FA781A90014A7A01BACF
:1000D30000028007E493A3F608DAF97A277B1590E8
:1000E300014B78A379038015E493A3AD82AE838A91
:1000F300828B83F0A3AA82AB838D828E83D8E9D9C6
:10010300E77582DD7583BC740312012C75829175CA
:100113008300740012012C75D00075813F7518811E
:10012300751902759F00020096C09FF59FE473D076
:100133009F22D083D082C09FE493C0E0740193C018
:10014300E0740293F59F2201110199010F126404D7
:1001530000AD270111310401022690010000FD8F3B
:100163000210900100002C150236900100002D159D
:100173000200900300008A02022A90010000351554
:100183000202900100002E15FF0000B400002800B9
:100193002800283075A000A000A000A000000800DF
:1001A30008E001F000100010001000100010001013
:1001B3000050005000500010001000D00700000055
:1001C3000000000F0001000500307507001000015A
:1001D3000081FF00000000FFFFFF3F065D064506AC
:1001E3008106FF02020208025000A0000000E8039B
:1001F300022690010000F48F021090010000C21546
:10020300020490010000CA02021090010000C3150D
:10021300020690010000E002021090010000C415E4
:10022300020890010000E202021090010000C515CF
:10023300020A90080000E302021090010000C615B4
:10024300020C90010000C715FF0100FF2002269059
:10025300010000F78F0210900100002B16020E9090
:1002630000000000000200900300001103170023A8
:100273000D230D230D230D230D230D230D230D23FB
:100283000D230D230D230D230D0B101D100510023F
:100293000202020202020202010D0000001001022A
:1002A3002690010000FA8F0210900100006E1602E2
:1002B30022900100002E070210900100006F160229
:1002C3002090010000138F021090010000701602AD
:1002D3001E90010000058F021090010000711602AC
:1002E3001C90010000B58E021090010000721602EE
:1002F3001A90010000A38E021090010000731602F1
:100303001890010000918E021090010000741602F3
:1003130038900100007F8E021090010000751602D4
:100323001690010000F78E0210900100007616026D
:100333001490010000771601E8030577100A1209EB
:10034300486561727420526174652053656E736FE2
:100353007202010605020D180F18486561727420B8
:10036300526174652053656E736F7200000000491B
:100373004903490387120000100208022690010076
:1003830000F18F0210900100005717022E90000019
:10039300005308020090030000540802109001006B
:1003A3000058170230900100005608021090010017
:1003B3000059170232900200005708FFFFFF0001A7
:1003C3003075030201060000000000000000000079
:1003D300000000000000000000000000000000001A
:1003E3000000FFFF0600800CE803120135AE9B03FB
:1003F3001201350A9C031201351D9C031201354F6E
:100403009C03120135709C031201351B9D031201DD
:1004130035AE9D03120135759E03120135F5970321
:100423001201350898031201353998031201357307
:100433009803120135CC9803120135139903120165
:10044300355B99031201358A9903120135B9990372
:10045300120135F09903120135379A031201355011
:100463009A03120135A59A03120135BE9A031201AC
:10047300350C9B03120135469B031201358DB502E2
:1004830012013590B602120135C9B602120135ECDC
:10049300B602120135FEB6021201353CB702120153
:1004A30035B8B70212013580B802120135A2B8027D
:1004B30012013539B9021201358BB902120135BC6B
:1004C300B902120135C9B90212013533BA02120158
:1004D300358ABA021201358DBA02120135C6BA0243
:1004E300120135C9BA02120135D3BA0212013527F6
:1004F300BB0212013568BB021201359BBB0212011C
:1005030035D8BB02120135DABC021201357EBD02B9
:10051300120135E7BD0212013525BE02120135561F
:1005230088031201357E8803120135AB880312015B
:1005330035E388031201354189031201358D89039F
:10054300120135F48903120135348A03120135711E
:100553008A031201359F8A03120135498B03120165
:1005630035538B03120135608B03120135938B03D3
:100573001201359F8B03120135B78B03120135C16D
:100583008B0312013502BA0312013510BA031201AB
:100593003528BA031201353FBA03120135F2C601F9
:1005A3001201359CC701120135AFC8011201352B69
:1005B300C90112013549CA0112013585CA01120167
:1005C3003520CB0112013504CC01120135D0CC0109
:1005D3001201355ECE01120135CFCE0112013589EC
:1005E300CF011201357BD001120135BBD0011201BD
:1005F300356FD101120135A1D10112013597D30114
:10060300120135D9D301120135F7D3011201355D3A
:10061300D4011201352CD501120135F0D501120197
:10062300350FD8011201354ECE0212013538CF02F3
:10063300120135E3CF0212013534D002120135E441
:10064300D00212013555D1021201353AD2021201FC
:10065300356ED20212013567D302120135A4D302DB
:1006630012013580D402120135BFD402120135DBE9
:10067300D40212013537A903120135BBA9031201B4
:1006830035E6A90312013500AB031201353A900395
:100693001201355090031201356E90031201357F1C
:1006A3009103120135899103120135B492031201AA
:1006B30035AB9303120135189403120135C3E002DD
:1006C300120135F3E1021201352AE20212013574F7
:1006D300E20212013537E4021201353D90011201A5
:1006E30035C990011201352D92011201353992015C
:1006F300120135749201120135E39201120135ECB6
:100703009301120135F59401120135BC95011201D3
:1007130035199701120135379701120135549701A5
:100723001201350198011201357E9801120135A697
:100733009801120135709B01120135759B0112015D
:10074300358E9D01120135DC9D011201354C9E0150
:100753001201358A9E01120135669F011201352669
:10076300A00112013572A00112013575A001120119
:1007730035B9A00112013501A10112013540A101D2
:1007830012013562A10112013596A101120135F959
:10079300A10112013506E60212013514E602120127
:1007A3003567E60212013586E602120135CBE60211
:1007B3001201350FE802120135AAE802120135EEE3
:1007C300E80212013518E90212013587E902120124
:1007D30035CDE90212013544EA02120135F5EA0288
:1007E300120135482800120135582800120135F945
:1007F3002800120135552900120135122A00120171
:10080300352E2B00120135602B001201358F2B0082
:100813001201353C2D00120135B32F00120135238F
:1008230032001201351533001201350E3400120166
:1008330035153600120135093900120135383A00F1
:100843001201353C3C001201354C3D00120135DBF1
:100853003E00120135CC3F001201351A400012014F
:1008630035894000120135AD4000120135FE4000CC
:100873001201359F4500120135A0460012013501D2
:1008830047001201352C4700120135F247001201CF
:10089300355084031201355A84031201359F8403B2
:1008A300120135B384031201354385031201357CEC
:1008B3008503120135B78503120135E08503120163
:1008C300353486031201354986031201356B8603DD
:1008D300120135808603120135948603120135A96E
:1008E3008603120135E386031201350F87031201D4
:1008F30035968703120135D987031201350388031F
:100903001201352E880312013524B5031201355522
:100913009802120135389902120135B39902120176
:1009230035EE99021201353F9B02120135CD9B0230
:100933001201355F9E02120135119F021201351D0E
:10094300A00212013590A102120135E9A1021201A0
:1009530035008003120135438003120135C780033C
:100963001201359E8303120135C3A40312013575A9
:10097300A50312013571A603120135B0A6031201B6
:10098300350AA70312013509AD031201356CAD0316
:1009930012013509AE031201353EAE031201356E65
:1009A300AE03120135A9AE03120135C9AE0312011C
:1009B30035C6EF0212013552F00212013511F10270
:1009C30012013529F20212013543F402120135DF17
:1009D300F30112013504F401120135D1F4011201BE
:1009E30035A5F50112013512F60112013552F60152
:1009F300120135EEF60112013522F801120135FD1F
:100A0300F8011201355CF901120135E8F90112010F
:100A13003556FA01120135E2FA0112013528FB01BC
:100A23001201359AFB011201352CFC01120135CD5F
:100A3300FC01120135EDFC0112013535FD011201F6
:100A4300357EFD011201359AFD01120135C0FD010C
:100A53001201353AFE0112013548FE01120135D764
:100A6300FE0112013540FF011201357AF402120131
:100A730035FFF40212013541F50212013525F60264
:100A830012013592F602120135D6F6021201351A19
:100A9300F70212013547F7021201356FF70212010F
:100AA30035A7F702120135E5F7021201350CF802FA
:100AB30012013586F802120135D0F80212013525EC
:100AC300B501120135CDB601120135FAB801120193
:100AD300354EB90112013579B9011201354BBA010D
:100AE3001201358FBA01120135D3BA01120135E66D
:100AF300BA0112013527BB0112013554BB011201A2
:100B030035A2BB01120135E3BB0112013511BC0152
:100B130012013564BC01120135FBBC01120135E53C
:100B2300BF01120135FBC10112013539C2011201A6
:100B330035CCC30112013511C40112013583C4013F
:100B4300120135D4C4011201350EC50112013588D5
:100B5300C501120135BEC601120135CFC60112010E
:100B63003592A20212013511A3021201350AA9021C
:100B730012013510AA0212013583AB021201351A94
:100B8300AC02120135E25C001201352B5D0012014B
:100B930035585D001201358A5D00120135975D00FD
:100BA300120135A35D00120135B55D0012013590C8
:100BB3005E00120135EE5E00120135235F00120163
:100BC300355A6000120135A76000120135CB600071
:100BD3001201353B6100120135FC6100120135BF82
:100BE30062001201352D6300120135EA6300120120
:100BF30035FD63001201357B64001201350E65007B
:100C03001201353565001201359D6500120135EE7F
:100C13006500120135436600120135EC66001201CE
:100C230035976700120135436800120135B5680036
:100C330012013509690012013569690012013599FC
:100C430069001201352F6A00120135546B0012013D
:100C5300359C6B00120135B96B00120135D86B005E
:100C6300120135076C001201351C6D00120135A20B
:100C73006D00120135C76D00120135DC6D001201E4
:100C8300354F6E00120135906E00120135AC6F00C6
:100C93001201354D70001201359B700012013505AC
:100CA30071001201351E710012013544AC021201AC
:100CB3003598AC02120135A4AC021201356EAD02B7
:100CC3001201359BAD02120135C9AD021201353552
:100CD300AE021201356BAE02120135A4AE0212014F
:100CE30035BCAE0212013511AF021201352AAF0233
:100CF3001201356FAF0212013582AF021201359C2A
:100D0300AF02120135B2AF02120135D0B0021201A7
:100D130035FBB102120135E5B202120135D4B3023B
:100D2300120135EC7F001201350080021201352FCC
:100D33008002120135F583021201354C850212013E
:100D4300351286021201359187021201355B880242
:100D5300120135AD8802120135C78802120135F937
:100D630088021201350489021201354D89021201EC
:100D730035568902120135028A02120135DB8A02D5
:100D8300120135228B021201358A8B02120135CCF6
:100D93008B02120135FA8B02120135358C021201D6
:100DA30035D1A2011201354FA60112013555A60115
:100DB300120135AAAC01120135F4B001120135DA82
:100DC300B4011201352294031201359894031201E0
:100DD30035AE94031201353E95031201357B95031D
:100DE300120135B59503120135EF950312013562F2
:100DF3009603120135A39603120135AC9603120133
:100E030035B89603120135D79603120135019703BE
:100E13001201351697031201353E9703120135A0CF
:100E23009703120135C7970312013507EB0212012D
:100E3300351AEB0212013534EB0212013561EB0274
:100E4300120135A7EB02120135DAEB021201351854
:100E5300EC021201357DEC0212013592EC02120113
:100E6300359DEC02120135AAEC02120135C1EC02E8
:100E7300120135CFEC02120135DAEC02120135E62C
:100E8300EC02120135F9EC0212013504ED021201F4
:100E93003527ED02120135CBED02120135DBED02F0
:100EA300120135F5ED0212013512EE021201352D54
:100EB300EE0212013552EE021201355DEE0212010D
:100EC3003572EE0212013586EE02120135E7EE02AB
:100ED300120135EDEE02120135F3EE02120135F97E
:100EE300EE0212013511EF0212013544EF02120135
:100EF300355CE601120135F3E6011201358BE7019A
:100F03001201357BE801120135B2E801120135C542
:100F1300E80112013533E901120135CEEA0112016C
:100F230035F5EA0112013597EB01120135CCEB01DE
:100F3300120135DDEB0112013556EC011201357753
:100F4300EC011201358FEC01120135E7ED011201BD
:100F530035F0EF0112013540F20112013543F3017F
:100F630012013592F3011201354E71001201354B16
:100F730072001201353673001201354073001201FD
:100F8300356273001201356E7300120135C07400AF
:100F9300120135EF74001201351F7600120135611D
:100FA30076001201358D7700120135637800120146
:100FB30035B578001201351479001201354B7900EB
:100FC300120135867900120135217D001201353A6F
:100FD3007D00120135BC7D00120135CA7D0012016E
:100FE300351F7E001201352D7E001201359A7E00D9
:100FF3001201350C7F00120135527F001201354575
:101003008D02120135678D02120135518F021201D3
:1010130035F6920212013539940212013513950205
:10102300120135A4B003120135C9B0031201353AD8
:10103300B1031201354BBE0212013554BE02120137
:10104300355DBE021201358EBF02120135ADC102FC
:10105300120135E3C1021201351DC20212013553DB
:10106300C2021201358DC202120135C1C202120140
:1010730035EDC20212013536C30212013570C302C7
:10108300120135B8C3021201350EC40212013543F1
:10109300C4021201359EC402120135D8C4021201E2
:1010A3003529C5021201355FC50212013599C50202
:1010B300120135C7C502120135EAC5021201358B8B
:1010C300BB03120135B7BB0312013512BC03120176
:1010D300351CBC031201352CBC03120135369F03AA
:1010E3001201355D9F03120135879F03120135B04D
:1010F300FF021201355E4800120135C74A00120192
:10110300357E4C00120135DB4C00120135D84D0001
:10111300120135604E00120135EC4E0012013511FB
:101123004F001201350652001201357C52001201A4
:1011330035685300120135A25300120135E2530002
:10114300120135825500120135D75500120135249D
:101153005600120135925600120135B9560012019C
:1011630035D35600120135E95700120135F95700FE
:101173001201357F59001201359F5900120135D5EF
:101183005900120135405B001201357F5B001201EB
:1011930035BD5C00120135D7AE031201353BAF03F9
:1011A300120135EAAF0312013509B0031201355DAF
:1011B300B003120135CFBA03120135E0BA031201AD
:1011C3003580BB0312013535BD0312013574BD03F0
:1011D300120135DB7F0012013523B90312013533C8
:1011E300B90312013548B903120135FCB9031201E1
:1011F3003538B603120135BCB60312013522B703E5
:10120300120135F8B3031201351FB403120135750A
:10121300B40312013588B403120135D9B4031201A2
:101223003518B5031201351BB5031201354F8C0375
:10123300120135638C03120135DC8C03120135B1C5
:101243008D03120135838F03120135E88F031201D9
:1012530035279003120135F87F001201352FAB03B8
:10126300120135A5AC0312013506AD031201353C5D
:10127300D5021201350DD702120135B7D70212017B
:10128300356FD8021201359ED902120135C0DA0238
:101293001201350FDB0212013595FD02120135FDF6
:1012A300FD0212013510FE021201352CFE0212015D
:1012B300356EFE02120135D6FE0212013532B80335
:1012C3001201355BB80312013584B8031201359C52
:1012D300B803120135DEB80312013550DB021201E7
:1012E300355ADB021201359ADB02120135E3DB02C8
:1012F3001201351DDC0212013573DC021201359235
:10130300DC021201359BDC02120135ECDC02120116
:101313003515DD021201352ADD021201359ADD028F
:1013230012013528DE021201356CDE0212013594FA
:10133300DE0212013513DF0212013556DF021201FC
:101343003593DF02120135A5DF02120135C4DF0236
:10135300120135CDDF0212013597E0021201355A31
:10136300B203120135ABB20312013534B3031201D8
:10137300359AB30312013504A2031201352EA203D9
:1013830012013523A30312013552A303120135D8E9
:10139300A3031201353BB70312013563FF011201A9
:1013A3003535A7031201356BA703120135A4A70333
:1013B300120135FDA80312013536BC031201354C69
:1013C300BC0312013556BC03120135ACBC03120138
:1013D3003578C60212013535C70212013570C702CE
:1013E30012013598C702120135FAC70212013546B8
:1013F300C802120135B1C8021201352DC90212010A
:101403003529CA02120135B0CB0212013533CC02A1
:1014130012013597CC02120135AECC02120135A46C
:10142300CD02120135F0CD0212013510F90212017D
:101433003525F902120135D5F90212013515FA02E3
:101443001201352EFA0212013561FA02120135AE8C
:10145300FA02120135E2FA0212013524FB021201EB
:101463003522FD0212013588FD021201351CD80117
:10147300120135D3DB0112013565DD01120135BCE3
:10148300DD01120135DBDD0112013559DE011201E7
:1014930035EBDF01120135CFE001120135E0E40144
:1014A300120135B4E5011201357EBD03120135C2C7
:1014B300FF01120135C4BD03E066701008A3E066A6
:1014C300700A08A3E066700408A3E06622C3E796E7
:1014D3000809E7960809E7960809E79622C3E09604
:1014E30008A3E09608A3E09608A3E09622C008C3E9
:1014F300E096F50808A3E096420808A3E0964208A0
:1015030008A3E09645087001D3D00822080808EA2A
:10151300C0E0EBC0E086F0E7A4FA180986F0E7A480
:101523002AFA180986F0E7A42AFA180986F0E7A42C
:101533002AFA1986F0E7A4FBE5F02AFA190886F0DF
:10154300E7A42BFBE5F03AFA190886F0E7A42BFB96
:10155300E5F03AFA18180986F0E7A4C5F02BFBE486
:101563003AFA1908E7C5F0C6A426F6E5F03BFBE412
:101573003AFA1886F0E7A4F6E5F00826F6E43B0805
:10158300F6E43A08F6D0E0FBD0E0FA22E4CFC0E07C
:10159300E4CEC0E0E4CDC0E0E4CCC0E075F020E6EA
:1015A30026F608E633F608E633F608E633F61818A7
:1015B30018EC33FCED33FDEE33FEEF33FFC3EC9752
:1015C30009ED9709EE9709EF97191919400FFFECE9
:1015D30097FC09ED97FD09EE97FE191906D5F0BFA3
:1015E300ECF709EDF709EEF709EFF7191919D0E050
:1015F300FCD0E0FDD0E0FED0E0FF22601608080832
:10160300C6C313C618C613C618C613C618C613C650
:10161300D5E0EA227009080808226016181818C6CF
:10162300C333C608C633C608C633C608C633C6D5D1
:10163300E0EA22E627F60809E637F60809E637F670
:101643000809E637F622E026F608A3E036F608A3F3
:10165300E036F608A3E036F622E026F008A3E036EB
:10166300F008A3E036F008A3E036F022C3E697F6CD
:101673000809E697F60809E697F60809E697F622B9
:10168300C3E096F008A3E096F008A3E096F008A361
:10169300E096F022E056F608A3E056F608A3E056DB
:1016A300F608A3E056F622E056F008A3E056F00849
:1016B300A3E056F008A3E056F022E0F608A3E0F614
:1016C30008A3E0F608A3E0F622E6F008A3E6F00894
:1016D300A3E6F008A3E6F022E0FAA3E0FBA3E0FC14
:1016E300A3E0FD22E0F8A3E0F9A3E0FAA3E0FB22E4
:1016F300E8F0A3E9F0A3EAF0A3EBF022CAC0E0E626
:10170300F0A308DAFAD0E0FA22CAC0E0E0A3C58267
:10171300CCC582C583CDC583F0A3C582CCC582C5A4
:1017230083CDC583DAE6D0E0CA22C3E498F8E4990E
:10173300F912176E8026C3E49AFAE49BFBE920E7CB
:10174300E912176EE498F8E499F922C3E498F8E4EF
:1017530099F912176EE498F8E499F9C3E49AFAE454
:101763009BFB22EB20E7CFE920E7E0B90010BB00A9
:1017730008E88AF084F8AAF022E4FBC8FA22EB70A6
:10178300227B10C833C8C933C9335007C39AC3DB9C
:10179300F280069A50012ADBEAC833F4C8C933F44D
:1017A300C9FA2275F008E4C833C8C933C933C99AE2
:1017B300C99B5004C92AC93BD5F0ECFBC833F4C814
:1017C300E4C9FA22600D08C6A2E713C618C613C6F9
:1017D300D5E0F322600C08C6C313C618C613C6D5DA
:1017E300E0F422700422600D18C6C333C608C63362
:1017F300C6D5E0F41822251810AF08F518400C15CB
:10180300198008F51840021519D2AF2200C0D0255F
:101813001810AF08F518500C05198008F518500278
:101823000519D2AFD0D0222518F58210AF08F518CC
:10183300400C15198008F51840021519D2AF851907
:1018430083222518F582E43519F583222518F8E457
:101853003519F9222518FAE43519FB222518FCE479
:101863003519FD22E4732518C582C0E0E51934FF5C
:10187300C583C0E0E518C3958224F810AF088583BB
:10188300198582188008858319858218D2AFCEF016
:10189300A3E520F0A37808E608F0A3DEFAEFF0A3AF
:1018A300E58124FAF8E608F0A3E608F0A3E608F0D9
:1018B300A30808E608F0A3E608F0A315811581D074
:1018C300E0FED0E0F8158115811581E8C0E0EEC097
:1018D300E0222518C582C0E0E51934FFC583C0E0C6
:1018E300E518C3958224F910AF08858319858218FA
:1018F3008008858319858218D2AFCEF0A3E520F046
:10190300A37808E608F0A3DEFAEFF0A3E58124FB51
:10191300F8E608F0A3E608F0A30808E608F0A3E653
:1019230008F0A315811581D0E0FED0E0F8158115EC
:1019330081E8C0E0EEC0E022851983851882E0A328
:10194300FEE0A3F5207808E0A3F608DFFAE0A3FFA2
:10195300E0A3C0E0E0A3C0E0E0A3C0E0E0A3C0E0F8
:10196300E0A3C0E010AF088582188583198008853D
:101973008218858319D2AFD083D0820201328519B0
:1019830083851882E0A3FEE0A3F5207808E0A3F6A0
:1019930008DFFAE0A3FFE0A3C0E0E0A3C0E0E0A318
:1019A300C0E0E0A3C0E010AF0885821885831980EA
:1019B30008858218858319D2AFD083D08222C0D004
:1019C3002518C582C0E0E51934FFC583C0E0E518DA
:1019D300C3958224F310AF08858319858218800884
:1019E300858319858218D2AFC8F0A3E9F0A3EAF082
:1019F300A3EBF0A37908E709F0A3D8FAECF0A3ED81
:101A0300F0A3EEF0A3EFF0A3D0E0F0A3D0E0F0A3B7
:101A1300D0E0F0A3E520F0A3E5F0F0A3228519833D
:101A2300851882E0C0E0A3E0F9A3E0FAA3E0FBA3FA
:101A33007808E0F608A3DFFAE0FCA3E0FDA3E0FEEC
:101A4300A3E0FFA3E0C0E0A3E0C0E0A3E0F5D0A3E0
:101A5300E0F520A3E0A3F5F010AF08858319858294
:101A6300188008858319858218D2AFD082D083D09D
:101A7300E0F8D0E03274048006740280027401C07E
:101A8300E0F40412182AD0E01216FF227404800432
:101A930074028000CCC0E0EDC0E0E518C39CCCAD7F
:101AA3001950011D10AF068C188D1980068C188DE6
:101AB30019D2AF12170CD0E0FDD0E0FC22D083D0B6
:101AC30082E9C0E0E493A3C386F0C5F095F0F9087A
:101AD300E493A386F0C5F095F0700BE493A3C39948
:101AE3004005E9048002A3E475F002A42582F5828F
:101AF300E5F03583F583D0E0F9E493A3C0E0E49304
:101B0300C0E022D083D082ECC0E0EDC0E0E493A338
:101B1300FCE493A3FDED4C600D121B52EC24FFFC7F
:101B2300ED34FFFD80EFE493A3FCE493A3FDED4CC0
:101B3300600D121B91EC24FFFCED34FFFD80EFD010
:101B4300E0FDD0E0FCE493A3C0E0E493C0E022C056
:101B5300E0C3E49396087401939618400FE49366E8
:101B6300700808740193661870007019A3A3C3E486
:101B73009396087401939618A3A3400DD0E0D0E088
:101B8300D0E0021B42A3A3A3A3A3A3D0E022C0E0FF
:101B9300C0F088F0E49366700808740193661870C7
:101BA30000A8F0A3A3700BD0F0D0E0D0E0D0E00207
:101BB3001B42A3A3D0F0D0E02274F61218D5EAFE9C
:101BC300EBFF8C088D09EE2434F8E43FF9E8FCE9D7
:101BD300FD121CEFE0FAEE2437F582E43FF583E0D3
:101BE300F88508F0A4C885F00A8509F0A4250AF948
:101BF300EA28F8E439F97A257B0012176EEA8C8219
:101C03008D83F0FA131313541FF8EE28F8E43FF909
:101C1300E8245DF582E439F583E0C0E074075AF8FF
:101C2300D0E0B800028004C313D8FCA2E05003EA5A
:101C33008020EE2436F582E43FF583E0F5F0EA8474
:101C4300A8F0EE28F8E43FF9E82438F582E439F502
:101C530083E0F97F0302198174F51218D5EAFEEBCC
:101C6300FFEE2434F582E43FF583E0C0E0121CEF7D
:101C7300D0E0F08E828F83A3A3A3A3A3E0FAA3E013
:101C8300FB8E828F83A3A3A3A3A3A3A3E0FCA3E060
:101C9300FDECC39AF50AED9BF50BEE247FF508E402
:101CA3003FF509850882F583E06401702AEE2480FC
:101CB300F582E43FF583121A93121CF97402121889
:101CC3000FE960137CBB7D04EEFAEFFB120C3F853A
:101CD3000882850983E4F0AC0AAD0BEEFAEFFB1240
:101CE3001BBCE9F91227D17F04021981EE2435F5D3
:101CF30082E43FF58322C082C083851882851983DD
:101D0300E0F8A3E0F9C3EA9CEB9D5010C3EC98ED17
:101D130099401BC3EA98EB995014800EC3EA98EBE1
:101D2300994007C3EC98ED9940047901800279004A
:101D3300D083D08222EAC39CFAEB9DFB2274ED127E
:101D430018D5900381E064086005E06407702C9067
:101D530061C8E060269003AFE0F874FF68601CE898
:101D630075F00AA4C8AAF02AF974B128FE740339DD
:101D7300FF8E828F83A3A3A3E070057900021ED98F
:101D8300EE2468F50EE43FF50F906060E0850E8267
:101D9300850F83F075102B75110575080075090003
:101DA300E5D914F50AE5D95403F50B601FEE248237
:101DB300F50CE43FF50D7403650B6059E50A6017F4
:101DC300EE2467F582E43FF583E0700B793DEEFA8C
:101DD300EFFB120C6F80A4900526E064016023855D
:101DE3000C82850D83E060047A0480027A00E50AA0
:101DF300C39AFA95E0FB120AD18A088B09EA4509CE
:101E03007006120ED3021D7E850C82850D83E07051
:101E1300048A108B117A008014E5D9C0E0EAF8E552
:101E23001028F582E43511F583D0E0F00AEAC39572
:101E33000A40E6850C82850D83E0602874FC250A40
:101E4300F50A7810121A7CAC0AA90BEEFAEFFB1212
:101E53000D1D740212180FE9700AAA08AB091213B8
:101E630065021DCF7403650B6054850A0C750D0064
:101E7300780C121A7CAC10AD11AA08AB09120CE154
:101E8300740212180F850E82850F83E0F874806840
:101E93007005750C7F8002880CE50CF50D780D122A
:101EA3001A80780B121A80A90AAC08AD099003AF07
:101EB300E0FA7B00120909740212180F80139003D1
:101EC30081E06408600BAC10AD11EEFAEFFB120D6C
:101ED300B3120EDF79017F0C02198174F31218D546
:101EE30074FC1217F9EAFEEBFF8909A2AFE433F59C
:101EF30008C2AFEE2463F50AE43FF50B8010AA0A8B
:101F0300AB0B120C991213659004C2E004F0850A1E
:101F130082850B83E0F8A3E0F9E849602DE8240209
:101F2300FAE439FBEA2402F50CE43BF50D780C12D4
:101F33001A7C8A828B83E0FCA3E0F9EEFAEFFB12B2
:101F43000C8D740212180FE960B49004C2E0604D66
:101F53009004C3E0F89004C2E0C398500C74026587
:101F630009703A9004C4E060348E828F83A3A3A3E4
:101F7300A3E0851882851983121FB07402121845D5
:101F8300E8121FB09004C1E028F0740212185FAA8F
:101F930018AB19790112095D9004C2E4F0E508A2B7
:101FA300E092AF740412180F7F06021981F0A3E4C4
:101FB300F09004C2E0F82200008521878522C62222
:101FC300C0E074EB1219C1A2AFE433F508C2AF75D8
:101FD3009B00906182E0A2E05030E591A2E0502A9C
:101FE3007591FE740165217021122156120E0D1296
:101FF3002144121A8F12257B740412180FE964010D
:1020030070057901120E67121D40906182E0A2E50E
:10201300505DE591A2E550577591DF900381E0642F
:10202300076005E06408702F122156740165217062
:102033003E120E0D122144121A8F12257B740412C4
:10204300180FE9640170057901120E677901EEFA40
:10205300EFFB121EDE8018E0640D70139003A3E003
:1020630004F064287002E4F07A00E0F9120EE590BF
:102073006182E0A2E64003022119E591A2E6400352
:102083000221197591BF900381E064057008120D58
:10209300F5120E018003120DFB752100120E73E978
:1020A300900382F07900120E67120BA97A017B006C
:1020B300900380E0F9121335907803E06442705680
:1020C30090052AE014F0704EC2AF1220D000782A97
:1020D300D0E0F618D0E0F6E59F5407F87005750DCB
:1020E300FF8003750D7FC4C0E07829E6F50A08E692
:1020F300550DF50B740B780A1217D7D0E0250AF8A3
:10210300906270E0A2E740F8E8C333906272F09007
:102113006270E0D2E0F0906181E0A2E35009E5E96A
:10212300A2E3500375E9F7A3E0A2E75009E591A202
:10213300E7500375917FE508A2E092AF7F08021A8A
:10214300208E828F83E0F8A3E0C82416F582E4385A
:10215300F583229003AFE0F875F00AA4C8AAF02A29
:10216300F974B128FE740339FF22C0E0C0D0C082E5
:10217300C083906183E0A2E05009E5BFA2E0500371
:1021830075BFFEE0A2E15009E5BFA2E1500375BFB0
:10219300FDE0A2E25009E5BFA2E2500375BFFBE0F8
:1021A300A2E35009E5BFA2E3500375BFF7E0A2E441
:1021B3005009E5BFA2E4500375BFEFE0A2E5500963
:1021C300E5BFA2E5500375BFDFE0A2E65009E5BF16
:1021D300A2E6500375BFBFD083D082D0D0D0E03207
:1021E300C0E074F21219C1E5A7A2E4500FE5A1A261
:1021F300E4500953A7EF75A1EF122237E5A7A2E533
:10220300500CE5A1A2E5500653A7DF75A1DFE5A7B2
:10221300A2E15009E5A1A2E1500375A1FDE5A7A242
:10222300E2500CE5A1A2E2500653A7FB75A1FB7F88
:1022330001021A2074F81218D5752101900381E068
:10224300640670077A007B00120DDDA2AFE433FE53
:10225300D2AF900387E0640170187A207B0090036B
:1022630080E0F912144F7A207B00900380E0F9128A
:10227300133B906182E0D2E6F0900527E060218570
:10228300C6228016900386E064017008E5C654F800
:102293004405F5C653BEFC121FBC7401652160E4FE
:1022A300EEA2E092AF7F010219810000008E238F1E
:1022B30024858228858327851882851983E0CEA308
:1022C300E0CF852882852783EBC9EAC8EDCBECCA2A
:1022D30075F010C3E833C8E933C9EA33CAEB33CB2B
:1022E300C3EA9EF526EB9FF525B35004AB25AA263A
:1022F300EC33CCED33CDD5F0DAAE23AF242274E941
:102303001218D574FA1217F9EAFEEBFF8C088D093F
:10231300120E1FEAF8EBF9ECFAEDFB8E828F8312B3
:1023230016F3900381E024F7C3940550067510015A
:10233300022438120D538A0A8B0BEA450B700302F1
:102343002435120E138A0C8B0D120E13EA650C70D2
:1023530003EB650D60ECEEFCEFFDAA18AB19120E52
:1023630019850A82850B83A3A3780C1216BD908F5F
:10237300A1780C1216978518828519837814121682
:10238300BD908FA17814121697780C79141214D07B
:10239300501F780C791412166F908F79780C1214E1
:1023A300F04047850C10850D11850E12850F1380A3
:1023B30045908F798514108515118516128517138D
:1023C3007810790C12166F78101214F0501C7510D7
:1023D3000075110075120075130178107914121627
:1023E3006F7810790C121636800C75100175110078
:1023F30075120075130074097810121617908FC1A7
:10240300780C1216BD7810790C12158F900381E0A9
:102413006408600AE064066005E064057020908F3C
:102423007D78101214F05016908F8178101216498F
:10243300800C751000751100751200751300850866
:102443008285098378101216CC740612180F7F1038
:1024530002198174F71218D5120E31900525E06424
:10246300017010906245E4F0A3F053F4F343FE0CC3
:102473005390F3120DCBE5C654B84441F5C6E59E1F
:102483005447644170F8906185740FF0900523E020
:10249300F47002A3E0602C75080175090090052310
:1024A300E078081217E6E508F4FAA3E06008146080
:1024B3000A14600C800DEA52808008EA529080036F
:1024C300EA52A079007F0202198174F71218D5E944
:1024D300FEEAFF74016E700C7A807B00900380E04B
:1024E300F9121335902840E493F46008E493F91249
:1024F3000B8B800953C6B8E59E544770FA120DD171
:10250300900525E064017003120BC1900523E0F4EC
:102513007002A3E0602B750801750900900523E0A4
:1025230078081217E6E508FAA3E0600814600A14B5
:10253300600C800DEA42808008EA42908003EA4200
:10254300A0120D538A088B09A808A909E849601647
:10255300E5E170FCE82414F582E439F583E0F874CE
:10256300FF68600288E174016F700A7A019003804A
:10257300E0F91213C50224C874F11218D58A088B26
:10258300098C0A8D0B908FA17808121697740F127D
:102593001845780C1216BD908FA1780C12169778F7
:1025A30008790C1214D0908F7950107808790C1296
:1025B300166F78081214F04014800E780C79081204
:1025C300166F780C1214F050047901800279007FA1
:1025D3000802198174ED1218D58A088B098C0A8DAB
:1025E3000B908FA178081216977413121845780C64
:1025F3001216BD908FA1780C121697780C790812D9
:1026030014D040117808790C12166FAA08AB09ACE4
:102613000AAD0B8022751000751100751200751339
:10262300017810790C12166F78107908121636AAF1
:1026330010AB11AC12AD137F0C021981908FA178EE
:10264300081216BD8A828B8378081216AA7F0402A9
:10265300198174F51218D58C828D8378081216BDF2
:102663008A828B8378081216831226A9C3E098F016
:10267300A3E09912269B401E908FCD78081216BDB9
:102683008A828B83780812165C8E828F83E02420E3
:10269300F0A3E0344EF080A4F08E828F83C3E094E5
:1026A30020A3E0944E22EA2404F8E43BF9E8FEE98F
:1026B300FF8C828D83A3A3A3A3E0F8A3E0F98E820A
:1026C3008F832274F51218D5E9FE9004DDE0FAA396
:1026D300E0FBEE29F8E433F974C728F582748E39E8
:1026E300F583E02AF508A3E03BF5097808121A7C84
:1026F300908FED1216DB1222B0740212180F8A08A3
:102703008B098C0A8D0B741078081215FEAA08AB7E
:10271300097F0402198174F11218D58A0C8B0D8C70
:102723000E8D0F7411121845121A93741112184555
:10273300E02401F508A3E03400F509E4F50AF50BFC
:10274300780C790812150F908F8D78081216BD78C2
:102753000C790812150FAA0CAB0DAC0EAD0F12229B
:10276300B0740212180F8B09EA450960047A0180DC
:10277300027A00EC2AFCE43DFD7413121845E0F8DC
:10278300A3E0F9E8FEE9FFECF8EDF97A717B0212B8
:10279300176E88088909E4F50AF50B8E828F837812
:1027A300081216CCECF8EDF97A717B0212176E8AD7
:1027B300088B09740578081217E68E828F83A3A30A
:1027C300A3A3E508F0A3E509F07F08021981C082FD
:1027D300C083E9906000F0D083D08222C0E074F21D
:1027E3001219C1A2AFE433FED2AFE589A2E04006DD
:1027F300E589A2E1500312121B758900758900C295
:10280300C5751A00EEA2E092AF7F01021A20C0E064
:10281300C0D0E8C0E0E9C0E0A9A8D2AFC2C7751A2A
:1028230000E9A2E7E433F8E9A2E792AFD0E0F9D0F8
:10283300E0F8D0D0D0E032C2AF02000022FFFFFFA9
:10284300FFFFFFFFFFC082C083E990162AF0D08309
:10285300D08202013274F6121869E99002F3F09003
:102863000353E0F508750900740278081217E6AA05
:1028730008AB091213AD9002F412320B9002F4125A
:1028830035F8606F900353E075F003A4FAABF012D0
:1028930013AD90031112320B9003111235F8700B24
:1028A3009002F41235C91213B380489003111245F4
:1028B3005D7AFF7BFF1211977A0080198A087509E8
:1028C30000740278081217E612400574FF122A0BEF
:1028D300E4F0A3F00A900353E0F8EAC39840DD79EB
:1028E300051207FB9002F3E0F91206E77A857B08ED
:1028F300120A710240A874F41218698A088B09EB52
:10290300548060479002F3E0F912131D8A0A8B0B7F
:10291300AE0AAF0BEE4F602A8E828F83E064B070F5
:102923001A12080DE960148E828F83A3A3A3A3E078
:10293300F9EE2405FAE43FFB1207DDEEFAEFFB1292
:10294300130BAA08E5096480FB80047A007B00026C
:102953002B5B74F212186974FB1217F9EAFEEBFF92
:10296300EE4F60457403121845EEF0A3EFF085189F
:1029730082851983ECF0A3EDF07402121845E9F097
:10298300AA18AB191206E1E9F50870757413121849
:1029930045E0F50AA3E0F50BE50A450B60638E827B
:1029A3008F83122F94EE4F700575080280537A06B9
:1029B3007B001213AD8A0C8B0DA80CA90DE849708E
:1029C30005750813803B88828983E4122A0BEEF095
:1029D300A3EF122B27E50AF0A3E50BF09002F71201
:1029E3002B209002F76017E0FCA3E08003EAFCEBE6
:1029F300FD8C828D83122B2070F38C828D83123C8D
:102A030020A90874050247DDF0A312453FA32274F1
:102A1300F21218698908890C750D007403780C1279
:102A230017E6850C0A850D0B9002F6F09002F4125E
:102A33003A2B122B1E602E1213B37900801D890CC2
:102A4300750D007402780C1217E69002F4123EC45E
:102A53008882F583A3A3E4F0A3F009900353E0F87D
:102A6300E9C39840D9900353E0FA850AF0A4CAA8B1
:102A7300F0850BF0A428FB1213AD8A0C8B0DAE0C62
:102A8300AF0DEE4F7003022B14900353E0FC850A45
:102A9300F0A4CCA8F0850BF0A428FD79001212F95C
:102AA3007C0080318D0C750D007403780C1217E6D1
:102AB3008A828B83122B1988828983E4F0122B2656
:102AC300A3A3F0A3F00DEDC3950840D8EE250AFEAD
:102AD300EF350BFF0C900353E0F8ECC39850288CB0
:102AE3000C750D007402780C1217E69002F4122B89
:102AF30019E82402500109FAE9FB8A828B83EEF07C
:102B0300A3EFF07D0080BFE5089002F6F079008026
:102B13000279130247E0123EC8F922A3A31235CD6E
:102B2300EA4B22A312453FA3A3A32274F41218690C
:102B33007900EAA2E0501F75084D75098F780812D5
:102B43001A7C79107C047D007A2C7B161207F574AD
:102B53000212180FE9F980007F0402193BC082C0FA
:102B6300839002F71235F8601C88828983A3A3E05F
:102B73006A7003A3E06B8882898370E8A3A3A3A38D
:102B83001235C980047A007B0002285174F21218AE
:102B93006974FD1217F9EAFEEBFF85188285198324
:102BA300E4F0A3F074021218457401F01235F570C5
:102BB300141209AB1213AD9002FA12320B1235F54F
:102BC3007003022D2112330BEE2404F50AE43FF5C2
:102BD3000B850A82F583E024FE603C24FC607424A8
:102BE300FE607E24FE7003022C7124FE7003022C0F
:102BF3007E24FE7003022C8B24FE7003022C982487
:102C0300FE7003022CA524FC7003022CC624FE7064
:102C130003022CDE022D1A1209AB9002FCEAF0A388
:102C2300EB122D2D120429E96003022D1A9002FCE8
:102C3300121A938E828F83A3A3A3A3A312455D8548
:102C430008828509831235C91207C5740212180F49
:102C5300022D1AAC18AD19EEFAEFFB120813022C71
:102C6300E9AC18AD19EEFAEFFB1208198078AC182D
:102C7300AD19EEFAEFFB12081F806BAC18AD19EE1D
:102C8300FAEFFB120825805EAC18AD19EEFAEFFBE4
:102C930012082B8051AC18AD19EEFAEFFB12083174
:102CA3008044740212184F880C890D780C121A7C18
:102CB300740212185FEEFAEFFB120837740212184F
:102CC3000F8023AC18AD19EEFAEFFB12083DE9F8BB
:102CD30070167402121845E4F0803CAC18AD19EE7E
:102CE300FAEFFB120843E9F8E8602C8E828F83A386
:102CF300E064146022850A82850B83E09002FCF075
:102D03008518828519831235C99002FD12320BE8AA
:102D1300A3122D2D120423EEFAEFFB12079B74026C
:102D2300121845E0F974030247DDF07CFC7D02854F
:102D330008828509831235CD2274E812186974FA62
:102D43001217F97404121845ECF0A3EDF08A128BF4
:102D530013EA2405F50EE43513F50FEA2402F51002
:102D6300E43513F511851082F5831235C91205195F
:102D73008A0A8B0B7508007C037D0079007AFC7B43
:102D8300021212F9E50E2402F516E4350FF5177455
:102D93000212184F880C890D780C121A7C850E824A
:102DA300850F83A3A3A3A3E0F50C750D00780C1284
:102DB3001A7CE50E2405F50CE4350FF50D780C129D
:102DC3001A7C8516828517831238D01206FF740683
:102DD30012180F8A0C8B0DE50C450D7003022F5D45
:102DE3008020851882851983E088828983F005080D
:102DF300851882851983A3E0C0E0122F9ED0E0F0EE
:102E03000508E50A24FBFAE50B34FFFBC3E5089A42
:102E1300E49B4003022F5D7E007F008512828513B1
:102E230083A3A3A3A3E0F5097809121A80E4F51498
:102E3300F5157814121A7C7514F9751502781412A5
:102E43001A7C9002FA121A937409121845121A93F3
:102E5300E50A24F9F9AC0CAD0D85108285118312B6
:102E630035C912086D740912180FE96003022EFEAA
:102E7300850E82850F83A3A3A3A3A3A3A3E0F89046
:102E830002F9E0687075E0F5148E157814121A7C57
:102E930012455A850E82850F83A3A3A3A3A3A3A3DD
:102EA300A31235C91212F3740212180FE9604C9081
:102EB30002FD1235F8703BE4F5147814121A7C7C89
:102EC300FF7DFF79078510828511831235C91207AB
:102ED300D7740212180F1235FE7017850E82850FF4
:102EE300831246F77404121845123FB812390102CF
:102EF3002F91850C82850D83122F94A818A9198808
:102F03001489157814121A7C7404121845121A9332
:102F130085168285178312320112070B7404121867
:102F23000F8A0C8B0DEE4F7003022DDA122F9EEEDB
:102F3300122FA91238B7EF122FA9F8A3E03400F922
:102F4300E50C450D6003022DE58882898374FFF04B
:102F53000508122F9E74FFF00508E508601A131385
:102F6300543F123211120435E960099002FD123503
:102F7300C912136579008016850E82850F83124668
:102F8300F77404121845123FB8123C20790A02382C
:102F93008AA3A3A3A3E0FEA3E0FF22A8089002FD57
:102FA300E0281238B722F00508089002FDE0282235
:102FB30074E812186974FA1217F974021218451298
:102FC300320B7404121845ECF0A3EDF074021218DE
:102FD30045E024051238A0E0F50CA3E0F50D7402DA
:102FE300121845E02402F510A3E03400F511851012
:102FF30082F5831235C9120519750800750900EAAF
:1030030024FCFEEB34FFFF8008050CE50C70020581
:103013000DA808C3EE98EF940050030231BDA81821
:10302300A919880E890F780E121A7C8514828515CA
:1030330083A3A3A3A3124561121A7CE5142405F507
:103043000EE43515F50F780E121A7C85148285155A
:10305300831231FF1206FF740612180F8A0E8B0FAC
:10306300EA450F70030231BDEA2404F516E4350F77
:10307300F517851682F583E0F50CA3E0F50D8518A9
:103083008285198312455D8A828B83A3A3A3E0F90A
:103093008510828511831235C91206EDE9F50960A1
:1030A300030231BD74021218451238C7F5097809B5
:1030B300121A80E4F512F5137812121A7C7512F9BC
:1030C3007513027812121A7C9002FA121A9374077B
:1030D300121845121A93EEF9AC0EAD0F85108285C6
:1030E30011831235C912086D740912180FE9F50915
:1030F30060030231BDE508703FE4F50EF50F780E6D
:10310300121A7C7CFF7DFF79098510828511831259
:1031130035C91207D7740212180F1238ED700D74E7
:10312300041218451231F479110231F19002F9E0D9
:1031330024029002FDF080149002FDE0FA9002F95F
:10314300E0790024025001096A497072A8089002CC
:10315300F9E0FAE82AFAE43400FBEE9AEF9B405ACE
:10316300851682851783E0C0E09002FE122FA3D05C
:10317300E0F00508851682851783A3E0C0E0089078
:1031830002FE122FA3D0E0F005089002F912456168
:10319300121A7C12455AA8081238941212E17402CA
:1031A30012180F9002F9E02508F50874FF650C70FA
:1031B3000474FF650D600302300CE508601F900284
:1031C300FDE0F5F0E5088412321112043BE96009D1
:1031D3009002FE1235C912136579008011E509705A
:1031E3000375090A74041218451231F4A909023847
:1031F3008A123A2FE50CF0A3E50DF022A3A31247A0
:10320300ECAA0CAB0D22A3A3EAF0A3EBF0229002ED
:10321300FCF07CFC7D028510828511831235CD2262
:1032230074EC12186974FC1217F9123D307402120F
:10323300185F1235C31207058A0C8B0DEA450D7012
:10324300030232FB12330BA818A9198810891178CD
:1032530010121A7C7CFF7DFF790B85088285098318
:103263001235C91207D7740212180F123401700CE9
:10327300850A82850B831238FE0233088E828F8380
:10328300A3A3A3A3E0F5127812121A80E4F512F5B2
:10329300137812121A7C7512FC7513027812121A23
:1032A3007C7810121A7C7409121845121A93740947
:1032B300121845E0F9AC0CAD0D850882850983121F
:1032C30035C912086D740912180FE9FE70157CFCDC
:1032D3007D028508828509831235C9120441E9708C
:1032E30009802074166E70027E009002FD1235C9AB
:1032F300121365EE7004800B7E01850A82850B83B1
:10330300123C1DEEF9023C32EE2402F508E43FF5CF
:10331300092274EC12186974FC1217F9EAFEEBFF28
:103323008C0E8D0FEE2405F508E43FF509740212A7
:10333300185F8508828509831235C91207058A0C2F
:103343008B0DEA450D70030233F1EE2402F50AE416
:103353003FF50BA818A919881089117810121A7C47
:103363007CFF7DFF790D1235C31207D77402121843
:103373000F123401700B8508828509831238FE8091
:103383007A8E828F83A3A3A3A3E0F5127812121A75
:1033930080850882850983A3A3121A937512FC758D
:1033A30013027812121A7C7810121A7C74091218FC
:1033B30045121A937409121845E0F91235BF120821
:1033C3006D740912180FE9FE700F7CFC7D02123533
:1033D300C3120447E97009802074166E70027E00E0
:1033E3009002FD1235C9121365EE7004800B7E0145
:1033F300850882850983123C1DEEF9023C321236A0
:1034030008F510A3E0F511EA45112274E8121869D2
:1034130074FE1217F98A168B178C148D15EA24057E
:10342300F50CE43517F50DEA2402F50EE43517F52E
:103433000F850E82F5831235C91205198A088B0987
:10344300750B007C037D0079007AFC7B021212F974
:10345300750A00E50814F5100424FFF508E509349E
:10346300FFF50980549002FCE0FA9002F9E0F8EAD3
:1034730028F8E43400F9E50898E50999500D90021D
:10348300FCE0F8E510C3989002F9F0E0F51275132B
:10349300007812121A7C12455A9002FDE02AFAA310
:1034A300E03400FB1212E1740212180F9002F9E0EB
:1034B300F89002FCE028F0050A850C82850D83A3B1
:1034C300A3123ED440030235A49002FCE0C3950846
:1034D300E4950940030235A4AE0AEE2EFEE433FF61
:1034E3001235E3AC18AD19124575E439FB12070523
:1034F3008A128B13AC12AD13EC4D701B750B0112BA
:1035030035D3123C219002FD122B20600312136568
:10351300A90B740202388C851682851783A3A3A393
:10352300A3E0F50B780B121A80E4F512F513781269
:10353300121A7C7512F97513027812121A7C900212
:10354300FA121A937407121845121A93A910850ECA
:1035530082850F831235C912086D740912180FE999
:10356300F50B709B9002FD1235F86003023468E49A
:10357300F512F5137812121A7C7CFF7DFF790F8503
:103583000E82850F831235C91207D7740212180FE2
:103593001235FE60030234681235D3123902023544
:1035A300157CFC7D02850E82850F831235C91204BA
:1035B3004DE960030235087900023515AC0CAD0DF9
:1035C300850A82850B831235CD22E0FAA3E0FB2224
:1035D3001235E3E0FAA3E0F9EA8514828515832224
:1035E300850C82850D83E02EF8A3E03FF98882895C
:1035F30083229002FA1246FBE84922123608F8A306
:10360300E0F9E849229002FDEAF0A3EBF09002FD15
:10361300E02274E812186974FA1217F97404121884
:103623004512320B8C168D177404121845E02405CD
:10363300F50EA3E03400F50F7404121845E02402DC
:103643001238A01235C91205198A0A8B0B7F007E26
:1036530000A818A919880889097808121A7C850E08
:1036630082850F83A3A3A3A3E0F5088E097808122C
:103673001A7CE50E2405F508E4350FF509780812E0
:103683001A7C850E82850F83A3A31238D01206FFFE
:10369300740612180F8A0C8B0D80291238C1F00F93
:1036A3001238C1F00F9002F9123C0C121A7C124529
:1036B3005AEFF81238941212E1740212180F9002A2
:1036C300F9E02FFFE50C450D700302375085188292
:1036D300851983123D42A3A3A3E0F98514828515BE
:1036E300831235C91206EDE9FEE50C2404F510E456
:1036F300350DF511EE705074041218451238C7F5E4
:10370300087808121A80E4F508F5097808121A7C7B
:103713007508F97509027808121A7C9002FA121AD0
:10372300937407121845121A93E50A24FAF9AC0C9C
:10373300AD0D8514828515831235C912086D740980
:1037430012180FE9FE60391238DD123C20EF7003C6
:103753000238779002FDE0F5F0EF849002FCF07CF4
:10376300FC7D028514828515831235C9120453E941
:1037730060099002FE1235C9121365790002388A76
:103783008F08EF703BE4F512F5137812121A7C7C64
:10379300FF7DFF79118514828515831235C91207C0
:1037A300D7740212180F1238ED70091238DD12396E
:1037B3000102388A9002F9E024049002FDF080357A
:1037C3009002F9E0F89002FDE0FAE82404FCE43406
:1037D30000FDEC6A4D6003023756E50A24FAFAE568
:1037E3000B34FFFBE50828F8E43400F9EA98EB9979
:1037F3005003023756851082851183E0C0E09002A2
:10380300FEE02FF8A3E034008882F583D0E0F00FC8
:10381300851082851183A3E0C0E01238AED0E0F0BA
:103823000F740212184F880889097808121A7C74D9
:1038330002121845121A93850E82850F831231FFE7
:1038430012070B740412180F8A0C8B0DEA450D70C6
:103853000302369E7402121845E0C0E01238AED05F
:10386300E0F00F7402121845A3E0C0E01238AED0A6
:10387300E00236A6EE70027E0A850E82850F831261
:1038830038E3123C20EEF9740612180F7F10021968
:103893003B9002FEE028FAA3E03400FB22F514A3D8
:1038A300E03400F515851482F583221238B2229094
:1038B30002FEE02FFAA3E034008A82F58322123855
:1038C300B274FF22123A2FA3A3A3A3E0221247EC60
:1038D300850E82850F831235CD2285108285118353
:1038E3001246FB851682851783229002FEEAF0A317
:1038F300EBF09002FE1246FBE84922123C26E8F068
:10390300A3E9F079112274EA12186974FE1217F907
:103913008A088B098C128D13EA2405FEE43509FF0E
:10392300AC18AD198E828F831235C91207058A0C24
:103933008B0DEE2406F50EE43FF50FEA450D7003FB
:10394300023A01E5082402F50AE43509F50B8A82F7
:103953008B83A3A3A3E0A2E550288518828519834E
:103963001235C91208618A108B11EA45116020795A
:10397300121235BF851082851183121867E9F50C81
:10398300707F850E82850F83E060097952801175FF
:103993000C0E806D850882850983A3A3A3A3E0F998
:1039A300E4F508F5097808121A7C8E828F83A3A3A5
:1039B300E0F5087808121A7C8E828F83A3A3A312E2
:1039C3001A938E828F8312455D1235C31208737466
:1039D3000612180FE9F50C7011850E82850F83E02E
:1039E300702D1235C312045980257416650C70119D
:1039F300750C007418121845123A2BE48010750CDC
:103A0300011246F3851282851383E8F0A3E9F0855A
:103A13000E82850F83E0600479008002A90C740292
:103A230012180F7F0E02193B123A2F22E0F8A3E07F
:103A3300F58388822274EC12186974F71217F98AD5
:103A43000A8B0B8C108D11EA2405FEE4350BFF75F0
:103A53000C00AC18AD198E828F831235C91207057D
:103A63008A088B09EA45097003023BF7E50A240239
:103A7300F50A5002050B8A828B83A3A3A3E0A2E578
:103A8300502F8518828519831235C91208618A0C53
:103A93008B0DEA450D604F7912AC08AD091235C3A1
:103AA300850C82850D83121867E9F50C6003023BD0
:103AB300FA850A82850B83E0F508A3E0F509AA08D5
:103AC300FB120855EA4B70197AFF7BFF120855EA7F
:103AD3004B7003023BED8A828B83E508F0A3E50973
:103AE300F07508008008750C0E023BFA0508900279
:103AF300F6E0F8E508C3984003023BED85080E7530
:103B03000F007403780E1217E68A828B83A3A3E057
:103B1300250EF8A3E0350F123FC170D08E828F833C
:103B2300123C1512320B8E828F83A3A3123C151203
:103B33003209EE2404F508E43FF509850882F5838C
:103B4300E088828983A3A3A3A3F0A3E4F0EE240572
:103B5300F50EE43FF50F850E82F583123C15A3A302
:103B6300A3A31232097512077513007812121A7C77
:103B7300EEFCEFFD74041218571212E174021218CE
:103B83000FE4F5127812121A7C850882850983E006
:103B9300FC7D0079171235C31207D7740212180F70
:103BA300740712184512320B7407121845E0FA4BCA
:103BB300603D850882850983123C0C121A7C850EB0
:103BC30082850F8312455D1212E1740212180F747D
:103BD3000212185F1235C312045FE96026740712DC
:103BE30018451235C91213658019750C09800875BB
:103BF3000C118003750C011246F385108285118325
:103C0300123C20A90C74098028E0F5087509007896
:103C130008221235CD8882898322123C26E8F0A33C
:103C2300E9F022E0F8A3E0F9850E82850F83227480
:103C33000412180F7F0C02193B74EC121869123D21
:103C430030751000EE2402F50CE43FF50D850C826F
:103C5300F5831235C91208558A088B09EA4509709C
:103C630003023D14850A82850B83E064016003022D
:103C73003D09AC08AD09AA0AAB0B120849E9606E0D
:103C8300850882850983122F96EE2406F50AE43F00
:103C9300F50B8E828F83A3A3121A938E828F83A335
:103CA300A3A3A3121A93850A82850B83121A93790D
:103CB300188E828F83123D421235C912087374061F
:103CC30012180FE9F8741668700B850A82850B8346
:103CD300E4F0A38014E860128E828F831235C985C5
:103CE3000E82850F83EAF0A3EBF088108018780E1C
:103CF300121A7CAC08AD09EEFAEFFB12084F7402FE
:103D030012180FE9F510AA08AB0912085BE5107049
:103D13000E850C82850D831235C9120465800974E2
:103D23001665107003751000A910023C37EAFEEB0C
:103D3300FF8C0E8D0FEE2405F50AE43FF50B2212DE
:103D430047EC850C82850D832274EA121869750885
:103D5300007509007E007F00750A00EC2402F5104F
:103D6300E43DF5118035EC65087003ED65096003EA
:103D7300023E0188828983A3A3E06A7003A3E06BF8
:103D8300707C88828983A3A3A3A31246F7EE28FE3F
:103D9300EF39FFEA28FAEB39FB050A123ED1503A14
:103DA300850A0C750D007403780C1217E6851082D2
:103DB300851183123EC4123FC1601FE50845097097
:103DC300A58C088D0988828983122F948882898320
:103DD300A3A3E02EFAA3E03F80BEE50AC3940250FA
:103DE30003023EBF750800750900EE4F6010EEFA3E
:103DF300EFFB12135F8A0E8B0FEA450F70057900F4
:103E0300023EC1750B00023E94850B0C750D0074C8
:103E130003780C1217E6851082851183E0250CF5D3
:103E23000CA3E0350DF50DE50C2406F514E4350D72
:103E3300F515851482F583123FC66042E50C240410
:103E4300F512E4350DF513851282F583121A93E505
:103E53000E2508FAE50F3509FB1212E17402121858
:103E63000F851282851383E02508F508A3E0350941
:103E7300F5098514828515831235C9121365E50B7F
:103E8300600D7C087D007900AA0CAB0D1212F905B8
:103E93000BE50BC3950A5003023E0C851082851176
:103EA300831246F788828983A3A3A3A3A3A3E50E62
:103EB300F0A3E50F122B27EEF0A3EFF07901023AFE
:103EC30026123EC822E0250CF8A3E0350D2290020D
:103ED300F6E0F8E50AC3982274F01218698A0E8B8B
:103EE3000F8C0A8D0B750D00750C0080507916EE42
:103EF3002406F508E43FF5098E828F83A3A3121AE3
:103F0300938E828F83A3A3A3A3121A93850882851A
:103F13000983121A93850E82850F83A3A31235C9D1
:103F2300120873740612180FE9F50D7416650D70F7
:103F33006C850882850983E4F0A3F0050C9002F6F2
:103F4300E0F8E50CC3985066AA0C8A08750900745A
:103F53000378081217E6850A82850B83A3A3124010
:103F630010E8FEE9FF8E828F83123FC66040EA2489
:103F730001F508E43400F5099002F6E065087002E3
:103F8300E509601488828983A3A3A3A3A3A3A3A39E
:103F93001235F86003023EF07918023EF2E9609BA5
:103FA3001246F37410121845123FB8123C20A90DA3
:103FB3007F0802193BE0FAA3E0F5838A8222F9889D
:103FC3008289831247ECEC4D2274F61218697C0047
:103FD30080010C900353E0F8ECC398501E8C0875D5
:103FE3000900740278081217E6124005E06A7003AC
:103FF300A3E06B70DDE8FAE9FB80047A007B000242
:1040030040A89002F41240108882898322E0250898
:10401300F8A3E03509F92274F21218698A088B09AA
:10402300750A0080278E828F83A3A3A3A3122B1E5E
:1040330060031213657C087D007900EEFAEFFB1232
:1040430012F98E828F83E4F0A3F0050A123ED15059
:1040530027850A0C750D007403780C1217E6850882
:1040630082850983A3A3E0250CFEA3E0350DFF8E13
:10407300828F831235F870AD85088285098374FFBA
:10408300F0A3F00247E074F61218691208078A8257
:104093008B83E582458370067A007B008007A3A3A8
:1040A300A3A31235C97F0202193B74F4121869895C
:1040B300088C828D83E06402703C124696FEA3E076
:1040C300F9EEF874026870037429697029750A029D
:1040D300750B00780A121A7C7410121845121A9381
:1040E3007410121845121A93A90812119D7406121E
:1040F300180FE9F980027901022B5B74E812186941
:1041030074FB1217F9E9851882851983F08A168BD7
:1041130017ECFEEDFF7510008E828F83A3A3A3E03F
:10412300A2E4502D741D1218451235C91208618A74
:10413300828B83E58245837003024535790AEEFC61
:10414300EFFDAA16AB17121867E9F51060030245D5
:1041530038741F121845E0F508A3E0F5097421121D
:104163001845E0F50AA3E0F50B7423121845E0F5B2
:104173000EA3E0F50F8E828F83E064026003024496
:10418300D6A31246F7850882850983A38582128503
:104193008313EE2406F50CE43FF50D888289831220
:1041A3004575F514E439F5157814121B0601000062
:1041B300280128D841070002289D4203280B42000A
:1041C30029CC430129F743022998430329CC43040B
:1041D300297044D644E50E450F60030244D1850C93
:1041E30082850D831246F7E8FAE9FB8A828B83E026
:1041F300850A82850B83124580121A7C8A828B83FF
:10420300A3E0FCA3E002445AE50E450F6003024419
:10421300D1850A82850B837401F012456A85088271
:10422300850983F07C007D008E828F83A3A3A3A3E3
:10423300E02401FAA3E03400FB120705EA4B6040D7
:104243008A828B83E02402F8850A82850B83E02827
:10425300F0EA2404F8E43BF988828983E08512823A
:1042630085138312458E124580121A7C8A828B83B2
:10427300A312455DE5082403FAE43509FB02445F14
:10428300850A82850B83E02404F07C047D00790099
:10429300AA12AB131212F9024538E50E450F60035B
:1042A3000244D112456AFEA3E0FF850A82850B838F
:1042B3007404F0EE850882850983F0EF8512828508
:1042C3001383F0740312185FEEFAEFFB1207058AEB
:1042D3000C8B0DEA450D700302437B8A828B83A30B
:1042E300A3122F94740112184F880E890F780E129F
:1042F3001A7C7405121845121A937CFF7DFF12076E
:104303000B740412180F8B0FEA450F7033850C8260
:10431300850D83124561121A7C850C82850D83A35A
:10432300121A937C027D007A127B901205077404A3
:1043330012180FE9700A740112184574FFF0A3F004
:104343008E828F83E064027039750C02750D0078DC
:104353000C121A7C8E828F83A312455DE508240418
:10436300FAE43509FB1212E1740212180F850A826E
:10437300850B83E0240280097401121845EEF0A333
:10438300EFF0740112184512454F740112184512CB
:1043930045460244CBE50E450F60030244D1850C2C
:1043A30082850D831247E5AA16AB171211A3850A5E
:1043B30082850B837402F0850882850983EAF08580
:1043C3001282851383EB0244CEE50E450F60030290
:1043D30044D112456AF8A3E0F9850A82850B8374F8
:1043E30002F0E8850882850983F0E9851282851346
:1043F300830244CE850C82850D831235C91212DBEC
:10440300EAFAF8C3950EE4950F405CE8650E450F94
:1044130070047A008021851882851983E0FCE50EFB
:104423002CFCE4350FFDC3EC98ED94005003E080C1
:1044330005E50ECAC39AFAEA850A82850B83F08AD8
:104443000A750B00780A121A7C850C82850D83E0AD
:10445300250EFCA3E0350FFDAA08AB091212E17487
:104463000212180F024538751007024538E50E454C
:104473000F705B850C82850D831246F7850A828552
:104483000B837407F08882898312454712453FE006
:10449300851282851383F0E82402FAE439FB8A82C9
:1044A3008B8312454F8A828B83124546A3A3122B1B
:1044B30026124554F0E82405F850010988828983BF
:1044C300124554A312458EA3A3A3A3F080677510CE
:1044D3000B8062741D1218451235C91208078A82AF
:1044E3008B83E5824583604A1246F7880C890DE881
:1044F300450D603E7425121845E0F5107810121A28
:1045030080780E121A7C780A121A7C7808121A7CA8
:104513007407121845E0F9EEFCEFFDAA16AB1785F8
:104523000C82850D83121867740712180FE9F510B2
:10453300800375100EA910740502388CF0888289E7
:1045430083A322A3E085088285098322124595F07F
:1045530022124595A3A3229002FA1247EC22E0F51A
:104563000E750F00780E22850C82850D83123A2F6B
:10457300E022E0FAA3E0F8E4C8F9EA2822F08A820C
:104583008B83E0F50A750B00780A2212453F12452A
:104593009522E0850882850983A3A32274EE12186D
:1045A3006974FE1217F98A088B09ECFEEDFF890A7C
:1045B300AC18AD19EEFAEFFB1207058A0C8B0DEA66
:1045C300450D70030246878518828519831235C904
:1045D3001208078A828B83E5824583700302468231
:1045E300A3A31246F7880E890FE8450F700302460E
:1045F300827414121845E0F510A3E0F511E50AF5ED
:104603000B780B121A807419121845121A9378102A
:10461300121A7C741B121845E0F9AC0CAD0DAA08F4
:10462300AB09850E82850F83121867740512180F64
:10463300E9F50B705274FE650A604C850C82850D9A
:1046430083E064027041124696FAA3E0F9EAF87433
:1046530002687003742969702E8510828511831294
:104663004575F50CE439F50D780C121A7CEEFCEF68
:10467300FDAA08AB0912088B740212180F80087583
:104683000B0E8003750B01A90B740212180F7F0A1E
:1046930002193BA31246FB88828983E02274F61237
:1046A300186974FE1217F9740C1218451246F7E8CC
:1046B300851882851983F07401121845E9F0E4F531
:1046C30008F5097808121A7C7508027808121A7C12
:1046D300740412184F880889097808121A7C79FE25
:1046E300120873740612180F740212180F0240A8EE
:1046F3008E828F831246FB22E0F8A3E0F92274F73F
:10470300121869EAFEEBFF890890031112455D1246
:1047130011A3EA5402600BA908EEFAEFFB1206F9A3
:10472300800279017F0102193B74F212186974FE49
:104733001217F9EAFEEBFF890A7401650A60147423
:1047430002650A60030247DB7901120A8FE96003FD
:104753000247DBEEFAEFFB120855EA4B600312083F
:104763005BA818A919880889097808121A7C7508A2
:10477300027509007808121A7C750800750990788B
:1047830008121A7C7CFF7DFF7A017B001206FF74FE
:104793000612180F8038850882850983A3A3A3A373
:1047A300A3A31247E5EEFAEFFB121197E4F50CF51C
:1047B3000D780C121A7C7402121845121A937CFF9E
:1047C3007DFFAA08AB0912070B740412180F8A089D
:1047D3008B09E508450970BE740212180F7F0602A3
:1047E300193B123A2F1247EC22E0FCA3E0FD22749E
:1047F300F41218698A088B09ECFEEDFF90162AE083
:10480300F4604B7A097B00121305EA4B60408A82FD
:104813008B8374B1F0A3E4124854F08A828B83A390
:10482300A3E508F0A3E509124854A3EEF0A3EFF0C3
:10483300740C1218451246F78A828B83A3A3A3A391
:10484300A3A3A3123C2090162AE0F9121311022B02
:104853005BF08A828B83A3A3A3A32274F01218694B
:1048630074FA1217F98909ECFEEDFF7508008A0A3C
:104873008B0B780A121AC0000410844AA148BF485F
:10488300D948F1480F4927494A4962497649A0491D
:104893001B4A2C4A434A5E4A844A844AB6497401F5
:1048A30065096003024A7F8E828F83E0F8C3940315
:1048B3004003024A7FE8901716024A5B74026509B7
:1048C3006003024A7F8E828F831251E7901717E8A5
:1048D300F0A3E9024A5B740165096003024A7F128F
:1048E3004AB14003024A7FE8900737024A5B7401EA
:1048F30065096003024A7F8E828F83E0F8C39405C3
:104903004003024A7FE8900738024A5B7401650955
:104913006003024A7F124AB14003024A7FE89007CC
:1049230039024A5B741065096003024A7F750A10F5
:10493300750B00780A121A7C7A3A7B071212E1741B
:104943000212180F024AA5740165096003024A7F27
:10495300124AB14003024A7FE890074A024A5B7455
:104963000165096003024A7F8E828F83E090171AE4
:10497300024A5B740465096003024A7F8E828F8357
:10498300780C1216BD908FED780C1214F0500302C0
:104993004A7F90074C780C1216CC024AA5E96003B3
:1049A300024A7F12069FE9700512115B805590073A
:1049B300DF8061740765096003024A7F750A067523
:1049C3000B00780A121A7C8E828F83A3AC82AD838C
:1049D30074021218571212E7740212180F7C007D2A
:1049E30000AA18AB198E828F83E0F9121107E9FE32
:1049F300C3940A4003024AA212069FE9700CEEF91F
:104A03001211617950121425806D74E02EF582E441
:104A13003407F5837401804074016509705E124A9E
:104A2300B15059E890074B802F74016509704D8E82
:104A3300828F83E0F8C3940A5042E89017198018D4
:104A43007401650970368E828F83E0F874F928C388
:104A5300940A5028E890171BF08047740165097089
:104A63001B9007DEE0F88E828F83E09007DEF0E88C
:104A73007030E06401702B12114F80267508188086
:104A830021C3EA9427EB9400501574026509700F53
:104A93008E828F83125CAC12051FE9F508800375C3
:104AA3000802A908740612180F7F0802193B8E82A8
:104AB3008F83E0F8C3940222A908800312180F7FA2
:104AC3000402193B74F012186974B11217F98C0AB5
:104AD3008D0B908F47742012185F740612170C7495
:104AE3002012185F121107E9FF745F121845E0F5F1
:104AF30009EFC3940A4003024C4975F006EFA4F58D
:104B030008744112185F7A0E74202508F912141FD5
:104B1300E97009744D121845E0FE80027E0090177B
:104B230016E064027005750E018003750E007408AB
:104B3300650970047422800274212508F50D7C1B1D
:104B43007D00790074261218571212F97426121870
:104B53005F7A1BA90D12141FE9702D7440121845BA
:104B6300E024F9C3940A5020E50EF50D780D121ACE
:104B730080742712185FEEA2E0E433F9AA0AAB0BA4
:104B83001205C1740112180F7C147D007900740C96
:104B93001218571212F9740C12185F7A1074242524
:104BA30008F912141FE970347C1079FF740C121881
:104BB30057121359E97025741C121845AC82AD8342
:104BC3007A0474252508F912141F740C12185FEE69
:104BD300A2E0E433F9AA0AAB0B1205A9AC18AD198C
:104BE3007A0C74702FF912141FE97049AA18AB19C3
:104BF3001211377F00EF75F003A4F8A9F08518822E
:104C0300851983E58228F8E58312539B12557C604E
:104C13001D88828983A3A3E0F50E750F00780E1219
:104C23001A7CAA0AAB0B120879740212180F0FEF41
:104C3300C3940440C0EEA2E1500C900736E0F9AAF9
:104C43000AAB0B12087F740465097028901716E0ED
:104C530064027020780090074AE0600278019007B0
:104C630037E060057404488001E8FEEEF9AA0AAB58
:104C73000B1206757900744F024AA974F71218696A
:104C830012069FE9704F9007DFE06401701512115F
:104C93005B9007DFE4F07C0AFDF97AE07B071212F0
:104CA300F9802A750800A80874E028FEE43407FF99
:104CB3008E828F83E06401700BA9081211618E82CA
:104CC3008F83E4F00508E508C3940A40D9795012AC
:104CD300142512114F0256B474F012186974F012AD
:104CE30017F9EAFEEBFF8C088D09750A0AE9600CD7
:104CF30014600914603B14607D024DD1121149E91F
:104D0300F50AC3940A4003024DD1E508450970032F
:104D1300024DD1750C06750D00780C121A7CEEFC51
:104D2300EFFDAA08AB091212E1740212180F024D2B
:104D3300D1750C00750E06750F00780E121A7CEEF5
:104D4300FCEFFDE50C75F00EA4F8A9F0745828FAF1
:104D5300740739FB1212F3740212180FE9700B0572
:104D63000CE50CC3940A506680CA850C0AE50AC395
:104D7300940A505A8049750C00AC18AD197A107515
:104D8300F006E50CA42423F912141FE9701C7C100F
:104D930079FFAA18AB19121359E9700EEEFCEFFD57
:104DA300AA18AB19120585E9600B050CE50CC39431
:104DB3000A501B80C4850C0AE50AC3940A500FE508
:104DC3000845096009AA08AB09A90A121143A90AEF
:104DD3007410024AA974F4121869890975081574C4
:104DE300FF6A700374FF6B70277E00AC097A027B45
:104DF30000EEF9121125E960037508000EEEC39465
:104E03000A40E8E50960537A737B11120AB3804ABA
:104E1300120A838A0A8B0BAE0AAF0BEE4F60387C03
:104E2300007D00EE2405FAE43FFB8E828F83A3A36B
:104E3300A3A3E0F9121107E9F9C3940A500CAC09D2
:104E43007A027B00121125750800E509600CEEFA61
:104E5300EFFB1211738003750814024ABB74F2123C
:104E63001869ECFEEDFF750815740E121845E0F590
:104E73000AA3E0F50B74FF6A700374FF6B7021756E
:104E83000900AC0AAD0BEEFAEFFBA90912112BE9ED
:104E930060037508000509E509C3940A503F80E2E1
:104EA300120A838A828B83E5824583602D7C007D91
:104EB30000E5822405FAE43583FBA3A3A3A3E0F969
:104EC300121107E9F9C3940A5013AC0AAD0BEEFAB9
:104ED300EFFB12112B7508008003750814A90880D5
:104EE3000312180F7F0602193BC082C0839007503C
:104EF300EAF0A3EBF0900736E0FC7D007A267B0016
:104F030012051F900736E0F91207E30259CE74EE3B
:104F130012186974EC1217F98A088B09EA240CF544
:104F230010E43509F5118A828B83A385820C85836E
:104F33000DEA2405F50EE43509F50FEA2409F50A0F
:104F4300E43509F50BEA2403FEE43509FF8A828B75
:104F530083A3A3E024FA70030251D524FD70030256
:104F630050F5147003024FEF14601024FD70030218
:104F730050D814700302512D0251DB125CB260440D
:104F8300E0F58388821251E7880C890DE8450D60AE
:104F930033851082851183E0F50E780E121A80EAAC
:104FA300240BF582E43509F583E0F9125CA60A0ABD
:104FB3000AEFFB850C82850D8312186774011218A2
:104FC3000F0251DB850A82850B83121A9390074CDB
:104FD3001216DB1205BB740212180FE9700302519B
:104FE300DB7901850A82850B830251A5750A008549
:104FF3000C82850D83E060030250A5850E82850F28
:1050030083E0A2E040030250A59007EA125CB5607A
:10501300030250A57C0E7D007900AA18AB19121269
:10502300F9851082851183125999EA4B6010750A2C
:1050330006750B00780A121A7CEA2410801B125999
:1050430095120A83EA4B70030251DB750A06750B4E
:1050530000780A121A7CEA2405FCE43BFD74021270
:1050630018571212E1740212180F850E82850F83EE
:10507300E0A2E25004D2F08002C2F0A2F0E433F8DE
:10508300740C121845125B3412113DE970117A0247
:105093007B00900736E0F912133579000251DD7574
:1050A3000A15125CB270030251DB1251FC70030249
:1050B30051DB850C82850D83E0FC79011251ED12E1
:1050C3001867E50A70030251DBFC79031259951244
:1050D30059500251D0125CB270030251DB1251FCE1
:1050E30070030251DB850C82850D83E0FC7902029B
:1050F30051CD7C007D00EA2404FAE43509FB8E825D
:105103008F83E0F9121107E9F8C3940A40030251AF
:10511300DBE508240AFCE43509FD7A0475F006E8AA
:10512300A42425F91214190251DB12599590074B47
:10513300E06007901719E0F9806B901716E0700490
:1051430079058061120A838A0C8B0DA80CA90DE8DE
:105153004970030251DBE82404F50CE439F50D85AD
:105163000882850983A3A3A3A3A3A3A3E0A2E0507A
:1051730039850C82850D83E0F508602E850A8285CA
:105183000B83A3E054027022740E12185FE8240507
:10519300FAE439FBA908121107E9700E79038E822C
:1051A3008F831259991205B5802EAC0EAD0F850C65
:1051B30082850D83E0F912599512117F125CB2605A
:1051C300171251FC60127C0079001251ED1218671E
:1051D30080061259951211017901741412180F7F68
:1051E3000A02193BE0F8A3E0F9228E828F83E0FAEA
:1051F300A3E0FB88828509832212595EF98909E8B5
:1052030045092274F512186974F21217F9EAFE8C33
:105213000A75F006E9A42420F508AC18AD197A0E36
:10522300F912141FE970467C0679FFAA18AB19120C
:105233001359E97038740C121845125999EAF8E5B4
:105243000A6005EEC8488004EEF4C858F8EA6870AE
:1052530001EB6015740C121845E8F0A3E4F0AC18E8
:10526300AD197A0EA9081214197901800279007414
:105273000E12180F7F0302193B74F212186974E6B9
:105283001217F9890A8A088B09ECFEEDFF740C12D8
:10529300185F7A0E75F006E9A42420F912141FE9A9
:1052A30060030253617C0679FF740C1218571213C2
:1052B30059E960030253617470250AF50BAC18AD0C
:1052C300197A0CF912141FE9600302535DAA18AB93
:1052D30019121137E5084509701D7C0C7900AA18CD
:1052E300AB19121359E970727C0C7D007900AA186E
:1052F300AB191212F98051AC18AD19AA08AB0912F7
:1053030011318A0C8B0DA80CA90DE8497022EE4FC0
:10531300604CAC18AD197A007B00121131EAF8EB3E
:10532300F9EA4B603988828983E508F0A3E509F03F
:105333001253D7FAEE6A7001EF601FEEF04F700858
:1053430088828983E4F0A3F0AA18AB19121137AC51
:1053530018AD197A0CA90B1214197901800279007E
:10536300741A024EE474F71218697E00EE75F003A6
:10537300A4F8A9F0EC28F8ED12539BE06A7003A39C
:10538300E06B7006E8FAE9FB800B0EEEC394044071
:10539300DB7A007B000256B439F988828983227450
:1053A300F71218697C00EC75F003A4F8A9F0EA2859
:1053B300F8EB12539BE0F4FEA3E0F4FF88828983A9
:1053C300EEF0A3EFF01253D7F4F00CECC3940440C7
:1053D300D50256B4E82402F582E439F583E0227459
:1053E300F412186974F41217F9EAFEEBFF8C088DB6
:1053F300099007EA125CB5704FEE4F700302555BDC
:10540300EC4509700302555B121149E990171CF032
:10541300C3940A4033750B007C0679FFE50B75F0E6
:105423000EA4FAABF074522AFA74073BFB12135919
:10543300E960030254BC050BE50BC3940A40D9751C
:105443000A0AE50A90171CF090171CE0C3940A405F
:105453000302555B75F006E0A4FB9007EA125CB506
:10546300705CEEFCEFFD7A0E74202BF91214197C9C
:105473000C7D0079FFAA18AB191212F9AC18AD19FB
:105483007A0C90171CE02470F9121419750A0E7522
:105493000B00780A121A7CEEFCEFFD90171CE01249
:1054A30056141212E1740212180F9007EAE508F07D
:1054B300A3E509F0790002555D850B0A8084E0C8F5
:1054C300240612557660197A1B74212BF9121419CC
:1054D3001255622406F582E438F583E4F0A380D301
:1054E300125562240A12557660107A1B74222BF926
:1054F300121419125562240A80DB125562240C120D
:10550300557660107A1074232BF912141912556210
:10551300240C80C112556B12557660307A107424B6
:105523002BF912141912556BF582E438F583E02434
:1055330010FCA3E03400FD7A0475F00690171CE01C
:10554300A42425F912141912556B80899007DEE003
:1055530060031211851211797901740C024ABF900C
:1055630007EAE0F8A3E0C8229007EAE0F8A3E0C85E
:10557300240822F582E438F583125CACEC4D2274E6
:10558300F412186974F21217F9EAFEEBFFE9C394F7
:105593000A5004EE4F700479028034AC18AD197AC6
:1055A3000E75F006E9A42420F912141FE9F508701A
:1055B3001C750A06750B00780A121A7C74021218FD
:1055C3005FEEFAEFFB1212E1740212180FA90874CE
:1055D3000E024ABF74F4121869EAFEEBFF75080065
:1055E300750A06750B00780A121A7CEEFCEFFDE5CE
:1055F300081256141212F3740212180FE96004A968
:1056030008800B0508E508C3940A40D4790A024AC6
:10561300C275F00EA4F8A9F0745228FA740739FB86
:105623002274F7121869750800E50875F00EA4F8DE
:10563300A9F0745228FE740739FFEEFCEFFD7A0ED1
:1056430075F006E508A42420F912141FE960297CEB
:10565300067D0079FFEEFAEFFB1212F97C067D005E
:1056630079FFEE2CFAE43FFB1212F9EE240CF582DB
:10567300E43FF583E4F0A3F00508E508C3940A408A
:10568300A89007DEE060031211851211798022745D
:10569300F71218697E007F007C06EF12561474FF20
:1056A300F9121359E970010E0FEFC3940A40E9EEA2
:1056B300F97F0102193B74F71218697E00EEF912A3
:1056C3001161E9F90EEEC3940A5003E960EF80E13A
:1056D30074F312186974CB1217F9890890171CE038
:1056E3006508701B7A017B00900736E0F912133BC3
:1056F3007A027B00900736E0F912133B1211917581
:10570300F006E508A4FF74202FFE742712185F7AB1
:105713000EEEF912141FE960030257DB7C0679FFD2
:105723007427121857121359E960030257DB7C0ED2
:105733007D0079FF74271218571212F97C1B7D0024
:1057430079FF740C1218571212F97C0C7D0079FF43
:10575300AA18AB191212F9742712185F7A0EEEF910
:10576300121419E9FE740C12185F7A1B74212FF9B5
:10577300121419E9F509740C12185F7A1B74222F9D
:10578300F9121419E9F50A740C12185F7A107423CC
:105793002FF9121419E9F50B740C12185F7A1074AF
:1057A300242FF9121419E9F50C740C12185F7A04FA
:1057B30074252FF9121419E9FFAC18AD197A0C747A
:1057C300702508F9121419E9F8E509450A450B454E
:1057D3000C4F48CE4EFE80027E00EEF9743512184F
:1057E3000F7F0502193B74F7121869E9900736F029
:1057F30012114F0256B474F2121869EAFEEBFF5409
:105803008070030258B8900736E0F912131D8A0816
:105813008B09EA450970030258B17A01E5082405AA
:10582300F50AE43509F50BE5082404F8E43509F92C
:10583300880C890D8508828B83E0245060361460C0
:105843000624E16058805D88828983E07059850869
:10585300828B83A3A3A3A3A3A3A3121A93125CA66D
:105863008508828B83A3A312599912111374021210
:10587300180F803388828983E0641E700F79008556
:1058830008828B83A3A312599912110D850C82856B
:105893000D83E0F9AA0AAB0B1207DD800AAA0812EE
:1058A300111FE9FAEA6007AA08AB0912130BEEFA13
:1058B300EF6480802AEE54026028EE6402FE7C00CE
:1058C3007D007A007B0012113DE960047A018002B9
:1058D3007A027B00900736E0F9121335EEFAEFFBFC
:1058E3008068EEA2E050556401F508EFF5091259FE
:1058F3006E12118BE96033125CB260291259661281
:1059030051E7E8FEE9FFEE4F601B7C007901125975
:105913006E8E828F831218677C00790312596E1280
:105923005950121867121191800C7A017B0090076D
:1059330036E0F9121335AA08AB09800E5404600649
:10594300EE6404FA80047A007B00024EE79007506D
:10595300E0F8A312595EF583888222125966E0F8B3
:10596300A3E022E0F5838882A3A3229007EA125CD6
:1059730096E0FAA3E0FB227F0202193BC082C083B8
:10598300900736E0F98A828B83A312599912087F14
:1059930080398E828F83E0FAA3E0FB22C082C0832A
:1059A30074FF1217F9121155E9C394028518828501
:1059B3001983400474028002740AF0AC18AD197A9A
:1059C3000179051206BD740112180FD083D082022B
:1059D300013274F212186974E81217F9EAFEEBFF48
:1059E300890A8C088D097C187D007900AA18AB19E7
:1059F3001212F9851882851983EEF0A3EFF0900750
:105A030038E0C0E07402121845D0E0F0900739E0A6
:105A1300C0E07403121845D0E0F090171BE0C0E01B
:105A23007417121845D0E0F07415121845E054FEAF
:105A3300125B2EA2E0E433F87415121845E0125BF2
:105A43002DA2E150047802800278007415121845E3
:105A5300E054FDF0125B2DA2E45004790180027939
:105A6300007415121845A3E054FEF074151218457E
:105A7300125B26A2E55004790280027900741512A4
:105A83001845A3E054FDF07415121845125B26A2C5
:105A9300E650047904800279007415121845A3E0D6
:105AA30054FBF07415121845125B26A2E2500478D9
:105AB30004800278007415121845E054FBF048F096
:105AC300900739E06020750C10750D00780C121AE0
:105AD3007C7C3A7D077406121845AA82AB831212A6
:105AE300E1740212180F90074AE06011E50A600999
:105AF3007415121845E04402F078018002780074AE
:105B030014121845E048F0900737E06004780480E9
:105B13000278007414121845125B341205AF74181E
:105B2300024EE4A3E049125B2E2248F090171AE0DC
:105B330022E048F0AC08AD09AA18AB192274F71299
