:020000040000FA
:0600000002011A020F0DBF
:03002B000213D2EB
:030033000213B401
:03005300020F8316
:03006B0002138BF2
:10008300020E0FE5C754F84401F5C77901220000B9
:100093000080FB120086B90003020104E4791B7897
:1000A30002B800028004F709D8FCE4791D7802B88D
:1000B30000028004F709D8FCE490028178CC790A25
:1000C3008002F0A3D8FCD9FA781A90014A7A01BACF
:1000D30000028007E493A3F608DAF97A4C7B0C90CC
:1000E300014B78BE79018015E493A3AD82AE838A78
:1000F300828B83F0A3AA82AB838D828E83D8E9D9C6
:10010300E7758249758366740012012C75829175B7
:100113008300740012012C75D00075813F7518811E
:10012300751902759F00020096C09FF59FE473D076
:100133009F22D083D082C09FE493C0E0740193C018
:10014300E0740293F59F220101307503020104005C
:10015300000000000000000000000000000000009C
:100163000000000000000000000000FF0000B400D9
:100173000028002800283075A000A000A000A000DF
:1001830000080008E001F00010001000100010004B
:100193001000100050005000500010001000D00755
:1001A3000000000000000F0001000500307507008B
:1001B3001000010081FF00000000FF80029E028604
:1001C30002FFE203E203E203E203E203E203E203E8
:1001D300E203E203E203E203E203E203FFFFFF00C1
:1001E300150953696D706C65424C4542726F6164C9
:1001F300636173746572020A0002010404FF010261
:10020300034E070000120135122800120135D729C9
:1002130000120135B02A00120135F92A0012013506
:100223002C2B00120135202C00120135E549001258
:1002330001350D4A001201353A4A00120135724A5E
:1002430000120135BE4A001201350A4B0012013576
:100253004A4B00120135F44B001201357A64001247
:100263000135916400120135651B001201354F1CE5
:1002730000120135FA1C001201354B1D0012013525
:10028300FB1D001201356C1E00120135511F0012B7
:100293000135851F001201357E2000120135BB2078
:1002A30000120135972100120135D62100120135C4
:1002B300F221001201355C5300120135675300121D
:1002C300013579530012013551540012013556544A
:1002D30000120135475500120135F7580012013558
:1002E3001F59001201357359001201358859001244
:1002F30001359D5900120135FE5900120135415A4D
:10030300001201356B5A00120135905A0012013563
:10031300824C00120135654D00120135A35F0012B6
:100323000135E65F00120135EA66001201350C144F
:1003330000120135A215001201357816001201359D
:100343002417001201358D17001201352A190012E6
:100353000135661900120135EF1A001201351E4FDF
:1003630000120135E04F0012013530510012013502
:100373005322001201359C2200120135C9220012BA
:100383000135FB2200120135082300120135142325
:1003930000120135262300120135EE230012013528
:1003A3004B2400120135892400120135BA250012AD
:1003B30001350726001201356C2600120135D326BC
:1003C30000120135C02700120135FD270012013547
:1003D300865D00120135925D00120135615E0012E7
:1003E30001350114001201355F2D00120135832DF3
:1003F30000120135852E00120135EC2F0012013554
:100403006B3100120135E63100120135343200122E
:1004130001354E3200120135683200120135853242
:1004230000120135DC400012013552410012013542
:10043300684100120135F8410012013535420012BE
:1004430001356F4200120135A942001201351C43E8
:10045300001201355D430012013566430012013578
:10046300724300120135A44300120135B94300124F
:100473000135E143001201354344001201356A445A
:1004830000120135984400120135AB4400120135C6
:10049300C54400120135F2440012013538450012FB
:1004A30001356B4500120135D04500120135E54594
:1004B30000120135F04500120135FD4500120135EA
:1004C3001446001201352246001201352D46001252
:1004D30001354046001201355D46001201356D4677
:1004E300001201358346001201359F460012013583
:1004F300AA4600120135BF4600120135D346001249
:1005030001352165001201354D6500120135A865DD
:1005130000120135A5670012013572620012013520
:10052300836200120135A16600120135E0660012F4
:100533000135FB6700120135956100120135A56194
:1005430000120135BA61001201356C6200120135E7
:10055300A05E00120135245F001201358A5F00128C
:100563000135B85A00120135E15A00120135475BD3
:1005730000120135665B00120135B95B00120135CB
:10058300125C001201354D5C00120135505C001203
:1005930001354047001201355547001201355948CE
:1005A30000120135CD4800120135E748001201352C
:1005B300FE48001201351149001201352949001284
:1005C30001353E49001201355F4900120135B0493A
:1005D30000120135E56700120135F5670012013598
:1005E300F86700120135F87F0012013550550012EB
:1005F3000135C65600120135275700120135236312
:10060300001201354C63001201358E63001201356F
:10061300A03700120135AA3700120135F337001253
:100623000135493800120135683800120135B938EF
:1006330000120135E23800120135F7380012013596
:10064300673900120135F53900120135393A0012C4
:100653000135613A00120135E03A00120135233BBE
:1006630000120135603B00120135723B0012013567
:10067300913B001201359A3B00120135BA65001215
:1006830001355A5C00120135845C001201359E600D
:10069300001201355A5100120135905100120135F3
:1006A300C95100120135225300120135D3630012E0
:1006B3000135E96300120135F36300120135496422
:1006C300001201353367001201358E3200120135F5
:1006D3004B3300120135863300120135E833001223
:1006E30001353434001201359F34001201351B35B6
:1006F30000120135A23600120135253700120135EB
:10070300893700120135643C00120135793C00122F
:100713000135293D00120135693D00120135823D45
:1007230000120135B53D00120135023E00120135BC
:10073300363E00120135783E001201357640001234
:1007430001352A5700120135DF57001201351F58B2
:1007530000120135796700120135C76700E0667042
:100763001008A3E066700A08A3E066700408A3E01B
:100773006622C3E7960809E7960809E7960809E79A
:100783009622C3E09608A3E09608A3E09608A3E0A8
:100793009622C008C3E096F50808A3E0964208082D
:1007A300A3E096420808A3E09645087001D3D00859
:1007B30022080808EAC0E0EBC0E086F0E7A4FA18D4
:1007C3000986F0E7A42AFA180986F0E7A42AFA189A
:1007D3000986F0E7A42AFA1986F0E7A4FBE5F02AD4
:1007E300FA190886F0E7A42BFBE5F03AFA19088614
:1007F300F0E7A42BFBE5F03AFA18180986F0E7A412
:10080300C5F02BFBE43AFA1908E7C5F0C6A426F6AF
:10081300E5F03BFBE43AFA1886F0E7A4F6E5F008C6
:1008230026F6E43B08F6E43A08F6D0E0FBD0E0FA1B
:1008330022E4CFC0E0E4CEC0E0E4CDC0E0E4CCC02D
:10084300E075F020E626F608E633F608E633F60808
:10085300E633F6181818EC33FCED33FDEE33FEEFF8
:1008630033FFC3EC9709ED9709EE9709EF97191931
:1008730019400FFFEC97FC09ED97FD09EE97FE1960
:100883001906D5F0BFECF709EDF709EEF709EFF715
:10089300191919D0E0FCD0E0FDD0E0FED0E0FF2232
:1008A3006016080808C6C313C618C613C618C613AD
:1008B300C618C613C6D5E0EA2270090808082260E4
:1008C30016181818C6C333C608C633C608C633C6B7
:1008D30008C633C6D5E0EA22E627F60809E637F666
:1008E3000809E637F60809E637F622E026F608A3F4
:1008F300E036F608A3E036F608A3E036F622E02653
:10090300F008A3E036F008A3E036F008A3E036F0E1
:1009130022C3E697F60809E697F60809E697F6086C
:1009230009E697F622C3E096F008A3E096F008A341
:10093300E096F008A3E096F022E056F608A3E0560E
:10094300F608A3E056F608A3E056F622E0F608A35D
:10095300E0F608A3E0F608A3E0F622E6F008A3E633
:10096300F008A3E6F008A3E6F022E0FAA3E0FBA375
:10097300E0FCA3E0FD22E0F8A3E0F9A3E0FAA3E0A2
:10098300FB22E8F0A3E9F0A3EAF0A3EBF022CAC04C
:10099300E0E6F0A308DAFAD0E0FA22CAC0E0E0A366
:1009A300C582CCC582C583CDC583F0A3C582CCC522
:1009B30082C583CDC583DAE6D0E0CA22B90010BB75
:1009C3000008E88AF084F8AAF022E4FBC8FA22EBD4
:1009D30070227B10C833C8C933C9335007C39AC3C5
:1009E300DBF280069A50012ADBEAC833F4C8C93324
:1009F300F4C9FA2275F008E4C833C8C933C933C946
:100A03009AC99B5004C92AC93BD5F0ECFBC833F4FF
:100A1300C8E4C9FA22600D08C6A2E713C618C613B4
:100A2300C6D5E0F322600C08C6C313C618C613C6A6
:100A3300D5E0F422700422600D18C6C333C608C67D
:100A430033C6D5E0F41822251810AF08F518400C6A
:100A530015198008F51840021519D2AF2200C0D02D
:100A6300251810AF08F518500C05198008F5185013
:100A7300020519D2AFD0D0222518F58210AF08F5A0
:100A830018400C15198008F51840021519D2AF85C6
:100A93001983222518F582E43519F583222518FADE
:100AA300E43519FB222518FCE43519FD22E47325EE
:100AB30018C582C0E0E51934FFC583C0E0E518C35B
:100AC300958224F810AF08858319858218800885DC
:100AD3008319858218D2AFCEF0A3E520F0A378085E
:100AE300E608F0A3DEFAEFF0A3E58124FAF8E608BE
:100AF300F0A3E608F0A3E608F0A30808E608F0A3CD
:100B0300E608F0A315811581D0E0FED0E0F8158149
:100B130015811581E8C0E0EEC0E0222518C582C02A
:100B2300E0E51934FFC583C0E0E518C3958224F9D5
:100B330010AF0885831985821880088583198582FB
:100B430018D2AFCEF0A3E520F0A37808E608F0A30F
:100B5300DEFAEFF0A3E58124FBF8E608F0A3E6084C
:100B6300F0A30808E608F0A3E608F0A315811581B1
:100B7300D0E0FED0E0F815811581E8C0E0EEC0E0DA
:100B830022851983851882E0A3FEE0A3F520780867
:100B9300E0A3F608DFFAE0A3FFE0A3C0E0E0A3C010
:100BA300E0E0A3C0E0E0A3C0E0E0A3C0E010AF0832
:100BB3008582188583198008858218858319D2AFA9
:100BC300D083D082020132851983851882E0A3FE87
:100BD300E0A3F5207808E0A3F608DFFAE0A3FFE03E
:100BE300A3C0E0E0A3C0E0E0A3C0E0E0A3C0E01046
:100BF300AF08858218858319800885821885831933
:100C0300D2AFD083D08222C0D02518C582C0E0E500
:100C13001934FFC583C0E0E518C3958224F310AFF0
:100C2300088583198582188008858319858218D2DF
:100C3300AFC8F0A3E9F0A3EAF0A3EBF0A37908E7C8
:100C430009F0A3D8FAECF0A3EDF0A3EEF0A3EFF0D4
:100C5300A3D0E0F0A3D0E0F0A3D0E0F0A3E520F030
:100C6300A3E5F0F0A322851983851882E0C0E0A3F1
:100C7300E0F9A3E0FAA3E0FBA37808E0F608A3DF1A
:100C8300FAE0FCA3E0FDA3E0FEA3E0FFA3E0C0E0E5
:100C9300A3E0C0E0A3E0F5D0A3E0F520A3E0A3F533
:100CA300F010AF088583198582188008858319851C
:100CB3008218D2AFD082D083D0E0F8D0E03274046F
:100CC3008006740280027401C0E0F404120A7BD02F
:100CD300E0120991227404800474028000CCC0E005
:100CE300EDC0E0E518C39CCCAD1950011D10AF0653
:100CF3008C188D1980068C188D19D2AF12099ED0CD
:100D0300E0FDD0E0FC22D083D082E9C0E0E493A3ED
:100D1300C386F0C5F095F0F908E493A386F0C5F017
:100D230095F0700BE493A3C3994005E9048002A3F3
:100D3300E475F002A42582F582E5F03583F583D0CE
:100D4300E0F9E493A3C0E0E493C0E022D083D0822F
:100D5300ECC0E0EDC0E0E493A3FCE493A3FDED4C11
:100D6300600D120D9BEC24FFFCED34FFFD80EFE4DE
:100D730093A3FCE493A3FDED4C600D120DDAEC2478
:100D8300FFFCED34FFFD80EFD0E0FDD0E0FCE49309
:100D9300A3C0E0E493C0E022C0E0C3E493960874E8
:100DA30001939618400FE4936670080874019366E4
:100DB3001870007019A3A3C3E49396087401939663
:100DC30018A3A3400DD0E0D0E0D0E0020D8BA3A385
:100DD300A3A3A3A3D0E022C0E0C0F088F0E493660D
:100DE30070080874019366187000A8F0A3A3700B31
:100DF300D0F0D0E0D0E0D0E0020D8BA3A3D0F0D0B0
:020E0300E022EB
:100E0800851B87851CC622C0E074EF120C0AA2AFAE
:100E1800E433FEC2AF759B00906182E0A2E0500906
:100E2800E591A2E050037591FEE0A2E55009E59135
:100E3800A2E550037591DFE0A2E64003020EE3E568
:100E480091A2E64003020EE37591BF900303E064AC
:100E5800057008120454120460800312045A751BAA
:100E6800001204C6E9900304F079001204BA1203D0
:100E7800947A017B00900302E0F9120658907803F7
:100E8800E06442705690037EE014F0704EC2AF12D8
:100E98000E9A00781ED0E0F618D0E0F6E59F5407C9
:100EA800F870057509FF800375097FC4C0E0781DD7
:100EB800E6F50808E65509F509740B7808120A28BA
:100EC800D0E02508F8906270E0A2E740F8E8C33364
:100ED800906272F0906270E0D2E0F0906181E0A2DE
:100EE800E35009E5E9A2E3500375E9F7A3E0A2E7B7
:100EF8005009E591A2E7500375917FEEA2E092AF09
:100F08007F04020C69C0E0C0D0C082C083906183B6
:100F1800E0A2E05009E5BFA2E0500375BFFEE0A2E1
:100F2800E15009E5BFA2E1500375BFFDE0A2E25020
:100F380009E5BFA2E2500375BFFBE0A2E35009E553
:100F4800BFA2E3500375BFF7E0A2E45009E5BFA2D2
:100F5800E4500375BFEFE0A2E55009E5BFA2E550F4
:100F68000375BFDFE0A2E65009E5BFA2E6500375AE
:100F7800BFBFD083D082D0D0D0E032C0E074F212AC
:100F88000C0AE5A7A2E4500FE5A1A2E4500953A773
:100F9800EF75A1EF120FD7E5A7A2E5500CE5A1A2C6
:100FA800E5500653A7DF75A1DFE5A7A2E15009E5E3
:100FB800A1A2E1500375A1FDE5A7A2E2500CE5A1AD
:100FC800A2E2500653A7FB75A1FB7F01020C6974CE
:100FD800F8120B1E751B01900303E0640670077A74
:100FE800007B0012043CA2AFE433FED2AF900309A9
:100FF800E0640170187A207B00900302E0F9120780
:101008002A7A207B00900302E0F912065E90618242
:10101800E0D2E6F090037BE0602185C61C80169044
:101028000308E064017008E5C654F84405F5C653A2
:10103800BEFC120E087401651B60E4EEA2E092AFDC
:101048007F01020BCA74E9120B1E74FA120A4AEAEB
:10105800FEEBFF8C088D09120478EAF8EBF9ECFA3C
:10106800EDFB8E828F83120985900303E024F7C37A
:101078009405500675100102118412040C8A0A8B1B
:101088000BEA450B700302118112046C8A0C8B0D5C
:1010980012046CEA650C7003EB650D60ECEEFCEF76
:1010A800FDAA18AB19120472850A82850B83A3A3C3
:1010B800780C12094F908EBD780C12093C85188265
:1010C800851983781412094F908EBD781412093C43
:1010D800780C7914120775501F780C7914120914BA
:1010E800908E75780C1207954047850C10850D1168
:1010F800850E12850F138045908E75851410851501
:10110800118516128517137810790C1209147810A6
:10111800120795501C751000751100751200751393
:1011280001781079141209147810790C1208DB80F0
:101138000C7510017511007512007513007409788B
:10114800101208BC908EC1780C12094F7810790CD7
:10115800120834900303E06408600AE0640660053E
:10116800E064057020908E797810120795501690DB
:101178008E7D78101208EE800C75100075110075C0
:101188001200751300850882850983781012095E9C
:101198007406120A607F10020BCA74F7120B1E1233
:1011A800048A900379E064017010906245E4F0A32A
:1011B800F053F4F343FE0C5390F312042AE5C6549B
:1011C800B84441F5C6E59E5447644170F89061857E
:1011D800740FF0900377E0F47002A3E0602C7508B8
:1011E80001750900900377E07808120A37E508F4DA
:1011F800FAA3E0600814600A14600C800DEA5280BB
:101208008008EA52908003EA52A079007F02020B1C
:10121800CA74F7120B1EE9FEEAFF74016E700C7AAD
:10122800807B00900302E0F9120658901404E493BE
:10123800F46008E493F9120376800953C6B8E59E72
:10124800544770FA120430900379E0640170031275
:1012580003AC900377E0F47002A3E0602B750801FB
:10126800750900900377E07808120A37E508FAA3B1
:10127800E0600814600A14600C800DEA428080085F
:10128800EA42908003EA42A012040C8A088B09A85B
:1012980008A909E8496016E5E170FCE82414F5821C
:1012A800E439F583E0F874FF68600288E174016F3F
:1012B800700A7A01900302E0F91206B80212147457
:1012C800F1120B1E8A088B098C0A8D0B908EBD7843
:1012D8000812093C740F120A96780C12094F908E66
:1012E800BD780C12093C7808790C120775908E7538
:1012F80050107808790C12091478081207954014D0
:10130800800E780C7908120914780C12079550048D
:101318007901800279007F08020BCA74ED120B1E56
:101328008A088B098C0A8D0B908EBD780812093CAF
:101338007413120A96780C12094F908EBD780C120D
:10134800093C780C790812077540117808790C1255
:101358000914AA08AB09AC0AAD0B802275100075F8
:1013680011007512007513017810790C12091478A0
:101378001079081208DBAA10AB11AC12AD137F0C60
:10138800020BCAC0E074F2120C0AA2AFE433FED218
:10139800AFE589A2E15003120580758900C2C575C1
:1013A8001A00EEA2E092AF7F01020C69C0E074F26D
:1013B800120C0AA2AFE433FED2AFE58BA2E05003D1
:1013C800120580758B00C2E880D5C0E0C0D0E8C0A7
:1013D800E0E9C0E0A9A8D2AFC2C7751A00E9A2E740
:1013E800E433F8E9A2E792AFD0E0F9D0E0F8D0D042
:1013F800D0E032C2AF02000022020132FFFFFFFF3D
:10140800FFFFFFFF74F4120AB2E9900302F012041E
:1014180084907800E0C4540F540764037004793F43
:101428008002797F7508067509007808120CC57C5A
:10143800F07D027AEA7B071205507402120A609066
:1014480002F0E0F47049A3E0F47044A3E0F4703FC4
:10145800A3E0F4703AA3E0F47035A3E0F4703090A0
:10146800780EE09002F0F090780FE09002F1F090A2
:101478007810E09002F2F0907811E09002F3F0908A
:101488007812E09002F4F0907813E09002F5F09072
:1014980002F6121599121B349003147406F0A37403
:1014A8000D1217797441F0A37401F090031E121500
:1014B8009990031DE4F090032BF0A374A012177900
:1014C8007403F0A37407121779742812177904F0BB
:1014D800A3E4F0900354F090037774FFF0A3E4F0D2
:1014E800900379F090037B04F090037C7490F0A350
:1014F8007401F01203A612033A12042479017A7EC9
:101508007B031203D690037EE075F01484E5F004A3
:10151800F01203DC7A00900302E0F91206B8907822
:1015280003E06442705690037EE014F0704EC2AF40
:1015380012153B00781ED0E0F618D0E0F6E59F546F
:1015480007F870057509FF800375097FC4C0E07846
:101558001DE6F50808E65509F509740B7808120A1E
:1015680028D0E02508F8906270E0A2E740F8E8C3C8
:1015780033906272F0906270E0D2E0F0900319E468
:10158800F0A3F07A80FB900302E0F91206580217E4
:101598006774FF12177FF0A3F02274F4120AB2EAFC
:1015A800FEEBFFEEA2E0503F900304E0C39480E01E
:1015B800500F25E0F8E433F974C628F582740C80DE
:1015C8000EF425E0F8E433F974D428F582740C3964
:1015D800F583121AE6120AB07A00900302E0F912B3
:1015E80006B8EE6401803B5480603B90037C121780
:1015F80073E849602A79001206B290037CE0F50886
:10160800A3E0F509E4F50AF50B7808120CC17A0095
:101618007B01900302E0F912071E7404120A60EEBF
:101628006480FAEF802DEF5401600C79011206B244
:10163800EEFAEF6401801CEF5402600AC2AF75C96C
:10164800AB75C95B80FEEF5404600B1213FBEEFA16
:10165800EF6404FB8017900309E06401700BEE54FB
:10166800206006EE6420FA80047A007B0002176787
:10167800C082C083C2AF12045AE5E170FC75E10173
:1016880012037C75E1F112049C12037079071204AD
:10169800EA79011204F079021204C01204D2120489
:1016A800DE79001204E479011204E4908E811209B3
:1016B8006D1204A890032BE4F0A3F0A3F090032F7D
:1016C8007407F090032E7403F0900334E4F0900351
:1016D80033F0900354F01203E81203CA790012049D
:1016E800F6906012E4F0A3F0906063F0751B009030
:1016F8000303F0900305F0A3F0900308F0900309AA
:1017080004F09003137403F090037AE4F0D2AFF975
:101718008003F07900D083D082020132C082C08376
:101728009002F012176C9002F1121756F09002F224
:10173800121756A3F09002F3121756A3A3F09002C3
:10174800F412175DF09002F512175DA380C4E08AC9
:10175800828B83A322E08A828B83A3A3A3A3227F05
:1017680004020B84E08A828B83F022E0F8A3E0F97C
:1017780022F0A3E4F0A322F0A3F0A3F0A3F0A322A5
:101788007F02020B8474F7120AB2EAFEEBFF8908A3
:10179800E9605D74016508601574036508603B7451
:1017A8000265086035740465086003021863740BE9
:1017B800120A96121773E8497003021863740A1222
:1017C8000A96E0F8600874016860030218637403FD
:1017D8006508600674026508702AEE2460F8EF1246
:1017E800191A5077EC2460F8ED12191A4016806B1C
:1017F800EE24E0F8EF12190F5061EC24E0F8ED1236
:10180800190F5057C3EC9EED9F40507409120A9669
:10181800E0FA600574016A7042740E120A96E0F9E3
:10182800600F740169600A74026960057403697065
:101838002A740D120A96E0F8740758F8601D900390
:101848002BE064017005790C02190DE508600C7431
:101858000165086006740465087005791202190D9F
:10186800E890032FF0E50890032EF0E9900330F09C
:10187800EA90031D702FE4F09002F0E090031EF050
:101888009002F1E090031FF09002F2E0900320F044
:101898009002F3E0900321F09002F4E0900322F02C
:1018A8009002F5802E7401F09002F6E090031EF08D
:1018B8009002F7E090031FF09002F8E0900320F008
:1018C8009002F9E0900321F09002FAE0900322F0F0
:1018D8009002FBE0900323F0E9700479008019740A
:1018E80001697004790180107402697004790280BA
:1018F80007740369700579031204D890032CEEF07D
:10190800A3EFF07900801634FFF9C3E894E1E99475
:101918003F2234FFF9C3E89461E9943F227F010232
:101928000B8474F6120AB2E9FEC39420500BEE90B1
:101938000334F0601EEA4B70047912801E121B2BD0
:10194800120CC5EAFCEBFD7A357B0312061674020D
:10195800120A609003337401F0790002178874F456
:10196800120AB2E9FF900303E064097003021A7DCA
:10197800E0640A7003021A7DE0640B7003021A7DAA
:10198800E0640C7003021A7DE0640D7003021A7D96
:1019980090032EE0F960177401696012740369609E
:1019A8000D74026960087404696003021AE2900306
:1019B8001DE0F860087401686003021AE2740369A4
:1019C8006005740269701090032CC3E094A0A3E032
:1019D80094005003021AE2E97003021AE2740169E2
:1019E8007003021AE27404697003021AE2EF607F5E
:1019F800146003021AE290032BE064016077790116
:101A080012040090031BEAF0A3EBF090032B74017F
:101A1800F0900303E070531204668A088B098C0A5D
:101A28008D0B908EC578081208EE908EBD7808123E
:101A3800093C90031B121AE6A3A3780812095E90CA
:101A4800031BE0F8A3E0C82406F582E438F583E434
:101A5800F0A3F01203B2E9600E7A1B7B03120406AE
:101A680090032BE4F0800E1203EE790002176790C2
:101A7800032BE07004792180F3A2AFE433FEC2AFF8
:101A88007A1B7B0312040690032BE4F012041EE970
:101A9800704112045A906182E0C2E6F0E5E170FC00
:101AA80075E1017591BF75E1F1900309E06401707A
:101AB800187A207B00900302E0F912072A7A207B2B
:101AC80000900302E0F912065E7A00900302E0F942
:101AD8001206B8EEA2E092AF80907912808EE0F8FC
:101AE800A3E0F58388822274F6120AB2E9FEC39451
:101AF80020500BEE900354F0601EEA4B70047912EC
:101B0800801E121B2B120CC5EAFCEBFD7A557B03D9
:101B18001206167402120A609003337401F07900F9
:101B2800021788E0F5087509007808229002F0E0AD
:101B38009002FCF09002F1E09002FDF09002F2E0D9
:101B48009002FEF09002F3E09002FFF09002F4E0C1
:101B5800900300F09002F5E0900301F02274F41273
:101B68000AB28908EAFEEBFF1222496005791102E0
:101B78001C3B9002B6E0540560309002D312224C10
:101B88006005121E6770057910021C3B9002B6E0D2
:101B9800A2E040061202C8E960158E828F83E0F841
:101BA800740368600A74026860057912021C3B7A43
:101BB8000C7B001206A09002D1121DF5122249607A
:101BC8006E121F7FE508121C3EE4F0750A0AF50B39
:101BD800780A120CC5EEFCEFFD9002D1E02402FA5F
:101BE800A3E03400FB1206167402120A6012028681
:101BF800E9FE60051202AA80389002B7E06403701B
:101C0800307A1D7B001202329002B8121DF5900244
:101C1800B812224C601B908EC9120CD87A047B0033
:101C28009002D9E0F91207247404120A6080027E37
:101C380013EEF902217CF09002D1121C46221221E7
:101C480092F5838882A32274EE120AB2890C8A0A5A
:101C58008B0B8C0E8D0F9002B6E054057003021C9E
:101C6800F37401650A700D9002D312224C607C90C7
:101C780002D3800B9002D512224C606F9002D5E0FF
:101C8800FEA3E0FFEBC394205008EB6009EC450F7E
:101C9800700479028057E50C900CBEF08E828F8319
:101CA800A38582088583097C1F7D007900AA08AB7B
:101CB80009120622850B107511007810120CC5AC9C
:101CC8000EAD0FAA08AB091206167402120A608E2E
:101CD800828F83E50BF0F9E50AAA08AB09600512C3
:101CE80002E680031202ECE9F9800279127F0A0207
:101CF8000B8474F7120AB2122247700479128039E1
:101D0800121E676E60047903802F7A027B009002AE
:101D1800D9E0F912072A9002D7E4F0A3F07A04FB7D
:101D28009002D9E0F912072A9002B8E4F0A3121C35
:101D38003E7403F079001202F2021DEDD083D082C6
:101D480002013274F7120AB29002D312224C600DCB
:101D58001221861206A69002D3E4F0A3F09002D5D1
:101D680012224C60109002D51221891206A6900208
:101D7800D5E4F0A3F09002B6E05405605F7ABF7B2B
:101D88000C1202D47E009002B6E05405604A7A2014
:101D98007B001206A0121DF29002D312224C60366C
:101DA8007C207D0079001206227A207B001206A092
:101DB8009002D5121DF59002D512224C600B7C20A2
:101DC8007D007900120622800F1221861206A69045
:101DD80002D3E4F0A3F07E13EEF980097A007B00C9
:101DE8001202D479007F01020B849002D3EAF0A397
:101DF800EBF02274F6120AB27E018A828B83A3A3C7
:101E0800A3E0FCA3E0FD8C088D097808120D0906F3
:101E180020045A1E261E5A1E381E381E2E1E122137
:101E2800C412028C80061221C4120292E9FE802498
:101E380074086C700374206D700479018002790055
:101E48008A828B83A3A3A3A3A3121E64FA12029807
:101E580080027E00EEF90221819002D3E0F8A312FD
:101E68001F7FE02274F2120AB21222497003021F85
:101E78003E121F7AA3E0F50B1202C8E960137A0A32
:101E88007B001202328A088B09AE08AF097A0B80F0
:101E98002A1202B0E960137A067B001202328A081D
:101EA8008B09AE08AF097A0780117A087B00120205
:101EB800328A088B09AE08AF097A097B0012023210
:101EC8008A088B099002B7E07005750A00800375CF
:101ED8000A019002D1E02404FAA3E03400FB121CAA
:101EE8003FA3A3E0F912024AE9F912218FC8240B93
:101EF800121F45120CC912218FC8240A121F45123D
:101F08000CC99002D1E02404F50CA3E03400F50DCF
:101F1800780C120CC5E9F50C780C120CC9780A1269
:101F28000CC9A90BAC08AD09EEFAEFFB1202E0747C
:101F380006120A60800279017F06020B84F582E4AA
:101F480038F583E0F50C780C2274F7120AB21222E5
:101F580047601AEE700C121F7A7401F0F91202F23F
:101F6800E9FEEE6004F91202A47901800279000208
:101F78001DED121F7FA322E0F58388822274F012E0
:101F88000AB21222477003022066121F7AE0640127
:101F9800600302203F1202B0E960557A017B00120B
:101FA80002328A088B09E4F50AF50BC3EA9442EB7E
:101FB8009400402B908EC9120CD87A027B009002B4
:101FC800D9E0F91207247404120A60E50824C4F859
:101FD800E50934FFF99002D7E8F0A3E9F0804190D1
:101FE8008E8D780C12094F7808790C1207B480107E
:101FF8007A007B001202328A088B09E4F50AF50B95
:10200800E5084509450A450B60167808120CC17A9F
:10201800027B009002D9E0F912071E7404120A60CC
:10202800121C3F7402F09002BAE07007EEF9120237
:10203800A48027E4F080239002BAE0701D7A037B25
:1020480000120628EA4B600F12206D7404F090020B
:10205800D11221CD1206341202AA79018002790028
:102068007F08020B848A828B8374D0F0EEA3F08AF7
:10207800828B83A3A32274F6120AB2E9FEEAFF90C8
:102088000CBEE0F4602A7A047B00120628EA4B6052
:102098001F8A828B8374D0F0EF1220757402F0EEE1
:1020A8008A828B83A3A3A3F0900CBEE0F9120634B6
:1020B80002218174F4120AB2E9FE74016E6003020F
:1020C80021579002D712224C60069002BAE06012A3
:1020D800122249700302217A121E67F91202740251
:1020E800217A9002D7C3E0943CA3E09400400D907D
:1020F80002D7E024C4F0A3E034FF80507A027B00CA
:102108009002D9E0F912072A9002D7E0F508A3E077
:10211800F509E50875F0E8A4C508A8F075F003A46A
:1021280028F875F0E8E509A428F509E4F50AF50B9F
:102138007808120CC17A027B009002D9E0F91207E4
:102148001E7404120A609002D7E4F0A3F0802312F0
:102158002249601E9002B6E0A2E250167A027B0085
:102168009002D9E0F912072A9002D7E4F0A3F012FE
:1021780002AA80007F04020B847F02020B84900273
:10218800D3E0FAA3E0FB229002D1E0F8A3E02274A6
:10219800F6120AB212224760207A037B0012062840
:1021A800EA4B600F12206D7403F09002D11221CD1A
:1021B800120634EE60031202AA0221818A828B83FE
:1021C800A3A3A3A3A3E0F8A3121F7FE0F922C08270
:1021D800C08312224960109002D11221891206A6EA
:1021E8009002D1E4F0A3F0021D4474F6120AB2740E
:1021F800FF120A4A9002D312224C60399002D3E0AF
:102208002401F508A3E03400F5097808120CC5127A
:102218001E61FC7402120AA0790112026274021291
:102228000A608A828B83E58245836009E0A2E050D8
:10223800047901800279007401120A60022181E99F
:10224800FE9002D1122192F9E84922C082C08390FF
:1022580061907404F0A37448F0A3E4F09061807472
:1022680040F09061BC7407F09061877469F09061E8
:10227800B67416F0790012039A79021203A090142A
:1022880004E493F46006E493F912037679051204E2
:10229800FC022482C082C083E9540FF9906185E072
:1022A800696012E5C654B84441F5C6E59E544764D2
:1022B8004170F8E9F053C6B8E59E544770FA022415
:1022C8008274F7120AB2AEA853A87E120382C2BA69
:1022D800539AFEC289759B00C2C212038875A91160
:1022E80075B90512038ED2BA439A0174805E42A86A
:1022F8000227BBC082C083906181E4F0A302247FDF
:1023080075E90075910075BF00020132C082C08373
:10231800906181E4F0A374C0F0A3E4022481C08238
:10232800C08374F8120A4A9003051227EAE8497034
:10233800030223E6900305E0544060177908AA18C1
:10234800AB191203D6AA18AB191202F8900305E0CC
:1023580054BFF0E0A2E0500F790012039A1202FE77
:10236800900305E054FEF0E05402600F7901120377
:102378009A1202FE900305E054FDF0E05404600F49
:1023880079001203A0120304900305E054FBF0E067
:102398005408600F79011203A0120304900305E0AA
:1023A80054F7F0E05410600F79021203A0120304EE
:1023B800900305E054EFF0E05420600F7903120316
:1023C800A0120304900305E054DFF0A3E054016079
:1023D8000D1203AC12030A900306E054FEF07408D1
:1023E800120A60022482C082C083E9600514602A50
:1023F800804F90619A7433F0A37455F09061A07483
:102408003AF0900379E064017009C291900307746F
:1024180067802D9003077461802690619A743FF05D
:10242800A3745AF09061A0747FF0900379E064017E
:102438007009D29190030774718005900307746A3C
:10244800F08037C082C083E9600B14600D146017F8
:1024580014600C8020901408801590140980109046
:102468000379E06401700590140A800390140BE46A
:1024780093906186F08003F0A3F0D083D0820201AC
:102488003274EE120AB274F4120A4A908EB9AC1879
:10249800AD19740412099E90140893F46003022580
:1024A800A1907808E0C394025003022585908E57C6
:1024B8007404120AA8740812099E7F00750CFF752F
:1024C8000DFF750EFF7E00EFFC800F74086E606DC7
:1024D80074096E6068740A6E60638E08750900740A
:1024E800027808120A371225AB12094FA909E50A22
:1024F800C9F88810741878081208A3E5104508FA76
:10250800E9FBEC2CF8E433F97404120A96E5822806
:10251800F582E583391227E8C3E89AE99B4008E881
:10252800C39AF8E99B8006EAC398F8EB99F9C3E8DF
:10253800950CE9950D5006880C890D8E0E0EEEC38C
:102548009413408774FF650C700474FF650D602355
:10255800850E0874027808120A371225AB12094F43
:10256800851882851983E5822CF582E43583F58305
:10257800E508F00FEFC3940450030224C475080162
:102588007509007808120CC57402120AA87A027B31
:10259800051205567402120A60740C120A607F0A4A
:1025A800020B8474482508F58274783509F5837818
:1025B8000822C082C083906186E0F890140BE493EF
:1025C80068700990140AE493906186F09061AE7483
:1025D80068F0A3746AF090624574FBF0A304F053AA
:1025E800F4FD43FE029003797401F09061A0E06469
:1025F8003A700479008002790112039A022482C099
:1026080082C08375E1F190032EE024FE604D1470C2
:102618004F1203B890031DE0F97A1E7B031204A23F
:10262800908EA912096D1204CC908E8112096D1238
:1026380004A890032FE0F91204B479011204F09071
:10264800031BE0F8A3E0C8241AF582E438F5837484
:10265800C4F0A37403F079000224821203BE80B48C
:10266800791280F474F7120AB21227424402F5D99B
:102678007A001226AD40FB7A0080081227F4340352
:102688001227D8EAC39B40F375E195900CC6122631
:10269800BDF0A31226BD1227567414F090030374DC
:1026A80004F00227BBEAF8741E28F582E43403120A
:1026B80027DF94062274641226CA1226CAF0A3746D
:1026C8000322F0A37403F0A374642274F7120AB20D
:1026D800122742FC74064CF5D97A001226AD40FB4D
:1026E8007A0080081227F434031227D8EAC39B40E3
:1026F800F3900354E0FB74072BF5D974044CF5D917
:102708007A001226AD40FB7A00800CEAF874551264
:1027180027F834031227D8EAC39B40EF75E1959058
:102728000CC6745EF0A3740312279812275674150A
:10273800F09003037403F00227BB900334E0FB74AA
:10274800072BF5D990031DE0C4333354C022F0A3FE
:10275800746AF0A3740312278D12279C122783240E
:102768000EF582E438F58374FFF0A3F0A3F0A3120A
:1027780027832414F582E438F58322F090031BE0C4
:10278800F8A3E0C822F0900CD474E2F0A3740322FA
:1027980012279C22F0A374E21227AB1227ABF0A3F6
:1027A8007403221227B21227B222F0A37403F0A3F3
:1027B80074E2227F01020B84C082C08390031BE075
:1027C800F8A3E0C82406F582E438F583E402247F00
:1027D800F583E0F5D90A22F583E0F5D90AEAC322A0
:1027E800F5831227EE22E0F8A3E0F922EAF874351F
:1027F80028F582E422C082C083E490030B7808F0B5
:10280800A3D8FC90030B0402248174F2120AB28943
:1028180009ECFEEDFF750800890A750B008A0C8B20
:102828000D780C120D09020308AD294528A028BA15
:1028380028FD282F2946295D2979299029740165C1
:102848000960030229A8900C4CE0F88E828F83E07F
:10285800900C4CF0E8601CE060030229D0900282E2
:10286800E0640260030229D0900281E0F912027448
:102878000229D0E070030229D0900282E06401604E
:1028880008E0640360030229D07A017B009002818A
:10289800E0F91206580229D074026509600302297A
:1028A800A88E828F83122D59900C4DE8F0A3E9026F
:1028B80029A5E9C3942040030229A87C1F7D00793B
:1028C800007A507B0C120622780A120CC5EEFCEF37
:1028D800FD7A507B0C1206167402120A60E5099004
:1028E8000C4FF07C507D0CFB7A01900281E0F912CC
:1028F800026E0229C8E9C3942040030229A87C1F5C
:102908007D0079007A8B7B02120622780A120CC5A8
:10291800EEFCEFFD7A8B7B021206167402120A6037
:10292800E50990028A80767401650970738E828F3A
:1029380083E0F8C394055068E89002AA805F7401A8
:102948006509705C8E828F83E0F8C394045051E867
:102958009002AB8048740665097045750A06780AC6
:10296800120CC57AAC7B021206167402120A608039
:10297800577401650970298E828F83E0F8C3940823
:10298800501EE89002B280157401650970128E829B
:102998008F83E0F8C394045007E89002B3F08028CE
:1029A8007508188023C3EA9427EB94005017740223
:1029B800650970118E828F83E0FCA3E0FD12022C62
:1029C800E9F5088003750802A9087F06020B8474DC
:1029D800F4120AB2ECFEEDFF7508008A0A8B0B7838
:1029E8000A120D0900030A862A072A0C2A1D2A2220
:1029F8002A322A412A502A552A5A2A772A7C2A908A
:102A080002838073750A06750B00780A120CC57C60
:102A1800847D02804C900C4C805D900C4D122D5999
:102A28008E828F83E8F0A3E98068900C4F122AA762
:102A3800120CC57C507D0C802890028A122AA7129D
:102A48000CC57C8B7D0280199002AA802A9002AB6B
:102A58008025750A06750B00780A120CC57CAC7DBA
:102A680002EEFAEFFB1206167402120A6080299031
:102A780002B280039002B3E08E828F838014C3EA8F
:102A88009427EB9400500E1202328E828F83EAF064
:102A9800A3EBF08003750802A9087F04020B84E009
:102AA800F50A750B00780A2274F6120AB2900282AF
:102AB800E07037EA4B60089002B4EAF0A3EBF0E468
:102AC800F508F5097808120CC57808120CC57C00C1
:102AD8007D007B00900283E0FA900281E0F9120504
:102AE800147404120A607900800279117F02020BC3
:102AF8008474F7120AB2E9900281F0900282E4F03D
:102B08001202B69002837401F09002AA7403F09046
:102B180002ABE4F09002B27407F09002B3E4F07FE5
:102B280001020B8474F4120AB274F6120A4A8A0873
:102B38008B09EB54806031900281E0F91206408ADB
:102B48000A8B0BAE0AAF0BEE4F60138E828F83E0B9
:102B580064D07003120226EEFAEFFB12062EAA08C2
:102B6800E5096480FB022C0FEAA2E04003022C0B6B
:102B7800900C4CE07003022C029002AAE0851882A7
:102B8800851983F09002ABE0C0E07401120A96D078
:102B9800E0F0750A06750B00780A120CC57CAC7D4E
:102BA800027404120A96AA82AB83120616740212E1
:102BB8000A609002B2E0C0E07408120A96D0E0F011
:102BC8009002B3E0C0E07409120A96D0E0F0AA18A7
:102BD800AB19900281E0F9120268E9601D90028247
:102BE8007404F0122C176012122D5088828983E524
:102BF80082458360057904120AB0E5086401FAABDE
:102C08000980047A007B00740A120A60022AA290E2
:102C180002B4122D59E8492274F4120AB28A828B3E
:102C280083A3A3E0F8EA2403FCE43BFD8A828B83B8
:102C3800A3AE82AF83E8601224FE606914700302B9
:102C48002D01147003022D018058E07031750806BB
:102C58007509007808120CC57A847B02120616746E
:102C680002120A609002827401F07C507D0C900C74
:102C78004FE0FB7A01900281E0F912026EE96006EA
:102C88009002827404F0122C176017122D50E8FA83
:102C9800E9FBEA4B600C900282E0F98A828B83128E
:102CA8000AB0022AA2E070488C828D83E0601B7C07
:102CB8008B7D0290028AE0FB7A00900281E0F91293
:102CC800026EE98E828F83F08026900282E0640291
:102CD800601E7A017B00900281E0F9120730EA4B0E
:102CE8004C4D700C7A017B00900281E0F912065875
:102CF8008E828F83E0708980A9E070847403687085
:102D0800089002827402022C8D900C4D122C1A909D
:102D18000C4C602AE06029900C4DE0F508A3E0F522
:102D280009E4F50AF50B7808120CC17A017B0090CA
:102D38000281E0F912071E7404120A608002E4F0AE
:102D48009002827403022C8DE0F5838882122D593B
:102D580022E0F8A3E0F922C082C083900385E4F062
:102D680090038474FFF0900381F0900380E4F09066
:102D7800037FF0900382F0A302322C74F0120AB29F
:102D8800900382E0F508A3E0F509E5084509700617
:102D9800120394022E80850882850983E0F9146065
:102DA8000A14600724FE6003022E801203FA8A0ABE
:102DB8008B0BAE0AAF0BEE65087003EF6509700365
:102DC800022E7D8E828F83E064016003022E8012C2
:102DD80003B21204668A0C8B0D8C0E8D0F122FD441
:102DE800908E89780C1208EE780C120CC185088236
:102DF800898312096D1212C77404120A60E9706B94
:102E08001204668A0C8B0D8C0E8D0F908EC5780C73
:102E18001208EE908EBD780C12093C85088285094F
:102E280083780C12095EEE240EF8E43FF9E8FAE91B
:102E3800FB900303E06402701D850882850983788E
:102E48000812094F908EAD78081208EE908EBD7862
:102E58000812093C800C7508FF7509FF750AFF7593
:102E68000BFF8A828B83780812095E9003817401B4
:102E7800F0EEFAEFFB1203F47F08020B8474F012F1
:102E88000AB2EAFEEBFF8E828F83A3A3A3A3A3A3B8
:102E9800E0FAA3E0FB12044E122FD48882F58312C5
:102EA800096D12044285088285098312096D12048E
:102EB80036EE240EF582E43FF58312096D120448BC
:102EC8008E828F83E06440701BEE2412F8E43FF991
:102ED80088828983E0906064F088828983A3E09087
:102EE80060658006906064E4F0A3F0900382EEF0E1
:102EF800A3EFF0EE241AF582E43FF583E0F8A3E0AF
:102F0800F5838882120AB0906054E4122FE0A3126D
:102F18002FE0906182E0C2E6F07591BFEE2415F8CB
:102F2800E43FF9880A890B8882F583E0640170031D
:102F380012048AE5E170FCEE2414F582E43FF5837F
:102F4800E0F874FF68600288E1850A82850B837463
:102F580001F0900309E06401706F1204668A0C8B1B
:102F68000D8C0E8D0F780C120CC185088285098393
:102F780012096D1213237404120A608A088B098CD3
:102F88000A8D0B908E6D780C12094F7808790C1207
:102F980007B4740378081208A3E50824F4F508E5D3
:102FA800093401F50990037BE0600312068EE4F50D
:102FB8000AF50B7808120CC17A207B00900302E016
:102FC800F912071E7404120A60022E80EE2402F819
:102FD800E43FF98808890922F0A3F0A3F0A3F0A33D
:102FE800F0A3F02274EE120AB2890874FF65087023
:102FF80039900380E05407700302316279041204A7
:1030080012E9640170047904801A7901120412E942
:10301800640170047901800C7902120412E96401D8
:1030280070087902120418023166A9081204188A75
:10303800108B11A908120412E964017005750901C1
:103048008003750900E5102402F50AE43511F50B33
:10305800E50814600D14607A24FE70030230FA0249
:1030680031627902120412E964017049790212048A
:10307800188A0C8B0DAE0CAF0DE509A2E0502F8E0F
:10308800828F83A3A3780C12094F908E71780C124B
:1030980008EE780C120CC1850A82850B8312096D23
:1030A8001212C77404120A60E9700302315CEEFA66
:1030B800EFFB0231667904120412E96401601DE530
:1030C80009A2E05006AA10AB1180047A007B000226
:1030D80031667904120412E9640170047904802CC1
:1030E8007901120412E964016012E509A2E0506A4C
:1030F80080627901120412E9640170047901800C7C
:103108007902120412E96401704479021204188ADF
:103118000C8B0DAE0CAF0DE509A2E050918E828F9D
:1031280083A3A3780C12094F908E71780C1208EEC5
:10313800780C120CC1850A82850B8312096D121254
:10314800C77404120A60E960030230B68006E50914
:10315800A2E05006AA10AB1180047A007B007F0A17
:10316800020B8474F7120AB2E9FE900385E07065D9
:103178007401F0EE900384F0120466EAF8EBF9ECBF
:10318800FAEDFB90038612098590038AE4F0A3F018
:1031980090039274FFF0A3F0A3F0A3F09003987447
:1031A80001F0A3F090039EE4F0A3F0900380E04EBA
:1031B800F090037FE004F06401600A74806E60059B
:1031C80074406E700A9003827484F0A37403F07ADA
:1031D800847B0380047A007B007F01020B84C08219
:1031E800C0838A828B83E0F8A3E0F98A828B83E428
:1031F800F0A3F088828983A3F088828983E0F4F8B9
:10320800900380E058F090037FE014F0701490036E
:1032180082E4F0A3F0900303F0FA900302E0F912BD
:1032280006B88001F0D083D082020132C082C08308
:1032380090037FE0600A900382E0FAA3E0FB800439
:103248007A007B0080DFC082C083E9F8900384E0C5
:10325800687005A3E0F98002790080C9E0F980C5AB
:10326800C082C083900384E069700CA3E06401709D
:10327800067A847B0380047A007B0080A8C082C021
:103288008390037F80D674F4120AB274FC120A4A3F
:103298007E00900C35E4F0900C32F07F7D750804C8
:1032A8007509007808120CC57402120AA87A007B06
:1032B80000EFF91205507402120A60908EB1780876
:1032C80012094F85188285198378081207607019CA
:1032D800900C32E0600FF91206DCEFF91206DC9070
:1032E8000C32E48001EFF08018851882851983126A
:1032F8000979E8494A4B7004EFFE8005EFF9120698
:10330800DC0FEFC3947F4095900C32E07026EE708E
:1033180018797D1206D0900C337404F0A3E4F09071
:103328000C35E0601979008017F01206E2EEF91208
:1033380006EE800AEE6004F91206D61206E279015A
:103348000233DE74F7120AB274FC120A4AE9FE85E7
:103358001882851983E4F0A3F0A37410F0A3E4F0B5
:10336800AC18AD19FAFB1206FA900C35E07005EEB0
:10337800900C32F07404120A607F01020B8474F41A
:10338800120AB274FF120A4A8908900C35E07032AA
:1033980012055C7E007F00750A01750B00780A1221
:1033A8000CC57402120AA8EEFAEFFBA90812055020
:1033B8007402120A60851882851983E0F460089007
:1033C8000C357401F0800B0EEE70010FC3EF9408FA
:1033D80040C5740180027404120A607F04020B84E1
:1033E80074F4120AB274FF120A4A89087E007F0038
:1033F800750A01750B00780A120CC57402120AA826
:10340800EEFAEFFBA9081205507402120A6085183B
:1034180082851983E0F46007A9081206D6800B0E8E
:10342800EE70010FC3EF940840C680A674F4120A28
:10343800B274FC120A4A7EFC7F07750804750900FD
:103448007808120CC57402120AA8EEFAEFFB900C69
:1034580032E0F91205507402120A60908EB57808AD
:1034680012094F851882851983780812076070053C
:1034780012348F50C5EE2404F8E43FF9900C33E879
:10348800F0A3E9F00233DEEE24FCFEEF34FFFFC3C5
:10349800EE9404EF94002274F4120AB274FC120A37
:1034A8004A8908EAFEEBFF8C0912348F405E750AE0
:1034B80004750B00780A120CC57402120AA8EEFAF9
:1034C800EFFBA9081205507402120A607402120A6E
:1034D80096E0FAA3E0FB851882851983A809E068BD
:1034E8007002A3E0700AEEC39AFAEF9400FB802002
:1034F800EB548070B4EA2404F8E43BF9C3EE98EF87
:10350800994009C3EE9AFEEF9BFF809D7A007B00ED
:103518000233DE74EA120AB274F8120A4A89107584
:103528000DFF747D65107005750C7E8003750C7D2C
:10353800750A04750B00900C33E024FCFEA3E0022E
:103548003625851882851983A3E0548060030236E6
:103558000F851882851983A80DE0687002A3E070B2
:103568000302360F851882851983E0F50DFCAA0A37
:10357800AB0BA90C1206E88B09EA45096003023671
:103588000F7402120A96E0F8A3E0F9EEC398F50862
:10359800EF99F50988148915750E00750F007512D5
:1035A800047513007812120CC57406120AA8E508EF
:1035B800250EFAE509350FFB900C32E0F91205509B
:1035C8007402120A607404120AA8E50A250EFAE5C4
:1035D8000B350FFBA90C1206FAE50E2404F50EE4D0
:1035E800350FF50FC3E514950EE515950F50AF741B
:1035F80002120A96E02404F8A3E03400F9E50A2848
:10360800F50AE50B39F50B7402120A96E0F8A3E007
:10361800F9C3EE98FEEF99FFEE24FCFEEF12349406
:103628004054900C35E070687508047509007808F6
:10363800120CC57402120AA8EEFAEFFBA9101205C3
:10364800507402120A60851882851983E0F47003A9
:10365800A3E0F4600302354A7402120A96E0F8A364
:10366800E0F9548070B2E82404F8500109C3EE98D8
:10367800EF995093801AA90C1206D0900C35E0707F
:103688000A900C33E50AF0A3E50BF0A9101206D650
:103698007408120A607F0E020B8474F0120AB27466
:1036A800FC120A4A890B8A088B09ECFEEDFF741498
:1036B800120A96E0F50A8012E5082404F508E435B4
:1036C80009F509EE2404FE50010F850A0C74FF2544
:1036D8000CF50A04603D750E04750F00780E120C87
:1036E800C57402120AA8AA08AB09A90B12055074DE
:1036F80002120A60780E120CC5EEFCEFFD7402127D
:103708000AA012061C7402120A60E970AB900C350C
:103718007401F07404120A607F08020B8474F012BA
:103728000AB2890C8A088B09ECFEEDFF900C35E093
:10373800704D750A01750B00780A120CC58A0A8B40
:103748000B7402780A120A28890EF50F7409780E8C
:10375800120A37E50A2400FAE50B350FFB12055665
:103768007402120A60750A01780A120CC9EEFCEF9D
:10377800FDAA08AB09A90C1206F47401120A6080AC
:1037880097C082C0831206CAE97004790180027961
:1037980000D083D082020132C082C08312075A024D
:1037A80038DB74F7120AB27409120A96E0F8A3E03B
:1037B800F9801C8C828D83E08A828B83F08C828DC9
:1037C80083A3AC82AD838A828B83A3AA82AB83E86E
:1037D800FEE9FFEE24FF18EF34FFF9EE4F70D40234
:1037E80038F2EEFAEFFB7F06020B8474F5120AB288
:1037F800ECF8EDF9740B120A96123A31AC08AD09DF
:10380800EC24FFF508ED34FFF509EC4D602CEAFCDB
:10381800EBFD8C828D83A3AA82AB83E8FEE9FF8E41
:10382800828F83A3A882A9838C828D83E0FC8E82F9
:103838008F83E06C60C67900800279017F03020BF8
:103848008474F6120AB2E9FE8C088D097808120C05
:10385800C5EEFC7D001207547402120A60023A2C6D
:1038680074F6120AB2EAFEEBFFEE4F603DEE240555
:10387800FAE43FFB1206A08A088B09A808A909E800
:1038880049602788828983E4F0A3F088828983A32A
:10389800A3EEF0A3EFF088828983A3A3A3A374FF08
:1038A800F0E82405FAE439FB80047A007B00023A48
:1038B8002CC082C083EA4B70047905801612395AED
:1038C80060047904800DEA24FBFAEB34FFFB12064E
:1038D800A67900D083D08202013274F7120AB27C32
:1038E8000012063A8004A2E092AF7F01020B8474B2
:1038F800F7120AB2E9FEECFFEA4B6026908ECEE0A2
:10390800F8EEC398400712062E79038043EA24FB99
:10391800F582EB34FF123AD6700512395A60071255
:10392800062E7905802AEEF074016F700DEAFCEB23
:10393800FD7ADC7B0312064C800BEAFCEBFD7ADC9B
:103948007B031206467A007B80EEF912065879004E
:103958008098EA24FFF582EB34FFF583E0F42274C3
:10396800F2120AB2890A750C00750D007E007F00FC
:10397800A2AFE433F50BC2AF9003DC8015EE4F70B5
:103988000685080C85090DE50824FBF582E5091272
:103998003AD1123A31E50845096023E50824FFF5D4
:1039A80082E509123AD1E0650A70D2EE4F7006AE90
:1039B80008AF0980D27A007B80120658800B7A0003
:1039C8007B8012065EEE4F6015780C120CC5EEFC7B
:1039D800EFFD7ADC7B031206527402120A60E50BD3
:1039E800A2E092AF0237EAE0FAA3E0FB2274F712F2
:1039F8000AB2A2AFE433FEC2AF123ACBE4F0A3F0AE
:103A0800800CE824FBF8E934FFF9E8FAE9FB8A823C
:103A18008B83123AD870EB8A828B83ECF0A3EDF09B
:103A2800EE0238EE7F02020B84E0F508A3E0F50908
:103A38002274F7120AB2A8A8C2AF8A828B83E0FE6A
:103A4800A3E0FF123ACBEEF0A3EFF08A828B83EC6F
:103A5800F0A3ED123C400238F074F5120AB2A2AF9E
:103A6800E433F50AC2AFEC24FBF8ED34FFF9E8FEC5
:103A7800E9FF8E828F83E0F8A3E0F98A828B8312B4
:103A88003A31EC65087003ED650970068A828B830C
:103A98008012740B120A96E0FAA3E0CA24FBF5829E
:103AA800EA123AD1E8F0A3E9F08E828F83E4F0A31A
:103AB800F0EC24FF123ACE74FFF0E50AA2E092AFD0
:103AC800023844EC24FBF582ED34FFF58322F583BC
:103AD800E0F8A3E0F9E8492274F7120AB2E9FE9087
:103AE8008ECEE0F8EEC398502DACA8C2AFEE29F800
:103AF800E433F9900C30E028FDA3E0398D82F5839A
:103B0800E04AF0A3E04BF0ECA2E7E433F8ECA2E7DC
:103B180092AF7900800279030238F274F7120AB280
:103B2800E9FF908ECEE0F8EFC3985027AEA8C2AF59
:103B3800EAF4FCEBF4FDEF29123C4BF583E05CF072
:103B4800A3E05DF0EEA2E7E433F8EEA2E792AF79E6
:103B580000800279030238F2E9F874FF687006C23F
:103B6800AF790080027907020132C082C083120651
:103B7800949003DCE4F0A3F01207061206AC1206D8
:103B8800C412069A79000238DBC082C08312067616
:103B980080FB74F4120AB275080012068E12054AE8
:103BA800A808E828123C4B123AD6700D0508908EEA
:103BB800CEE0F8E508C39840E7908ECEE0F8E50837
:103BC800C398506CACA8C2AFAE08EE2EFEE433FF2B
:103BD800900C30E02EF8A3E03FF9888289831239EF
:103BE800EF88828983E4F0A3F0ECA2E7E433F509D7
:103BF800ECA2E792AFE508900CE1F0F974312EF5EC
:103C080082748E3FF583123C5B120AB0900CE1740B
:103C1800FFF0A8A8C2AF900C30E02EF9A3E03F89CE
:103C280082F583E04AF0A3E04B123C4092AF800358
:103C38001206BE7F04020B84F0E8A2E7E433F9E839
:103C4800A2E722F8E433F9900C30E028FAA3E0392F
:103C58008A8222E0F8A3E0F58388822274F7120AA8
:103C6800B2900C38E4F0A3F0A3F0A3F07F01020BAC
:103C78008474F0120AB2E9FE8A088B0912071274DA
:103C880010120A96780C12094FEA4B600E8A828B42
:103C980083A3A3780C12095E023D247A0D7B0012DF
:103CA80006A0EA4B6072EE8A828B83A3A3A3A3A328
:103CB800A3A3A3F08A828B83A3A3A3A3A3A3E5084A
:103CC800F0A3E509F08A828B83A3A3780C12095E1E
:103CD8008A828B83E4F0A3F0F508F509F50AF50B61
:103CE8008A828B83A3A3A3A3A3A3A3A3A378081265
:103CF800095E12406B900C366017E0FCA3E080036D
:103D0800E8FCE9FD8C828D8312406E70F38C828D05
:103D180083EAF0A3EBF080047A007B007F08020BB3
:103D280084C082C083900C3680048C828D83E0FC32
:103D3800A3E0FDEC4D60238C828D83A3A3A3A3A3F2
:103D4800A3E06A7003A3E06B70E08C828D83A3A369
:103D5800A3A3A3A3A3A3E06970D0ECFAEDFB023EF2
:103D680071C082C083EA4B600E8A828B83A3A3A3AF
:103D7800A3A3A3E4F0A3F0023E7174F6120AB2AE54
:103D8800A8C2AF740A120A96120CD812070C74044F
:103D9800120A60EEA2E7E433F8EEA2E792AFEA4B2C
:103DA80060047900800279087F02020B8474F212A1
:103DB8000AB2A2AFE433FEC2AF740E120A967808B4
:103DC80012094F7808120CC112070C7404120A6009
:103DD800EA4B60128A828B83A3A3A3A3A3A3A3A302
:103DE800A3780812095EEEA2E092AFEA4B6004796C
:103DF80000800279087F06020B8474F4120AB2A2CA
:103E0800AFE433F508C2AF1207128A0A8B0BAE0A69
:103E1800AF0BEE4F6003120718E508A2E092AFEE71
:103E28004F60047900800279067F04020B8474F2E3
:103E3800120AB2750800750900750A00750B00A210
:103E4800AFE433FEC2AF1207128A828B83E5824544
:103E5800836007A3A3780812094FEEA2E092AFAAE5
:103E680008AB09AC0AAD0B808CD083D0820201323A
:103E780074EB120AB274FC120A4A8A088B098C0A7B
:103E88008D0B851882851983780812095EA9A8C246
:103E9800AF900C387808120901E9A2E7E433FAE98F
:103EA800A2E792AF12406B700302405B900C36E0C1
:103EB800FEA3E0FF751000751100750A00750B0070
:103EC800A2AFE433F514C2AFEE2402F508E43FF5DF
:103ED800097402120A9612406E70207401120A9632
:103EE800E07018851882851983E0F88508828509AD
:103EF80083E0C3984005E0C398803D850882850922
:103F080083780C12094F851882851983780C12075B
:103F1800855018851882851983780C12094F8508F1
:103F280082850983780C120928800E850882850904
:103F380083E4F0A3F0A3F0A3F0EE2406F512E43F27
:103F4800F513EE2404F50EE43FF50F850882850984
:103F58008312406E7052850E82850F8312406E70F8
:103F680052EE2409F50CE43FF50D850C82F5831219
:103F78000979E8494A4B60518512828513831240BA
:103F880065EA4B60448E828F83A3A3A3A3A3A3A354
:103F9800A3E0F9120658850C82850D8312097985EC
:103FA800088285098312098585088285098312405C
:103FB8006E700B850E82850F8312406E600B851222
:103FC8008285138312406E70258E828F83E0F8A35A
:103FD800E0F9E51045117005900C368006851082D1
:103FE800851183E8F0A3E9F08E0A8F0B80048E1008
:103FF8008F118E828F83E0FEA3E0FFE514A2E0928A
:10400800AFE50A450B6045850A82850B83A3A31299
:10401800406E7031850A82850B83A3A3A3A3124047
:104028006E7022850A82850B83A3A3A3A3A3A31280
:104038004065850A82850B83A3A3A3A3A3A3A3A397
:10404800E0F9120658AA0AAB0B1206A6EE4F600357
:10405800023EC27404120A607F0D020B84E0FAA3C8
:10406800E0FB22900C36E0F8A3E0F9E8492274F06E
:10407800120AB212406B6045900C36124065750802
:104088008E7509C2750AF5750B288A828B83A3A3DE
:10409800780C12094F7808790C120775500C850CAA
:1040A80008850D09850E0A850F0B8A828B83E0F837
:1040B800A3E0F9E8FAE9FBEA4B600E80CD75080049
:1040C800750900750A00750B00AA08AB09AC0AADA2
:1040D8000B023D24C082C08312042A75A70075A173
:1040E80000759C7775C30075A20075A30075A400C0
:1040F80075A50075A60075C31175A20075A3007596
:10410800A40075A50075A60075C33375A20075A334
:104118000075A40075A50075A60075C34475A200B6
:1041280075A30075A40075A50075A60075C3227552
:10413800A22075A34E75A40075A50075A6007594F8
:10414800081204304394020241F1A2AFE433F8C2EA
:10415800AF5394FEE594A2E240FAE8A2E002438C51
:10416800A2AFE433F8C2AF439401E594A2E250FA57
:1041780080E8E9A2E7E433F8E9A2E792AF80257581
:10418800C303851882851983E0F5A2740122E9A288
:10419800E7E433F8E9A2E792AF851882851983E04E
:1041A800FAA3E0FB7402803EE5A485188285198392
:1041B800F0E5A5C0E07401120A96D0E0F0E5A6C0CB
:1041C800E07402120A96D0E0F07403120A96E4F042
:1041D800E9A2E7E433F8E9A2E792AF8518828519E6
:1041E8008312096D7404120A60D083D082020132EE
:1041F800C082C08374FC120A4A12429E12422612DE
:104208000A96124298120A96E0F5A675A1EF43A7FE
:1042180010E9A2E7E433F8E9A2E792AF80C675C3D4
:1042280030851882851983E0F5A4740122C082C004
:104238008374FE120A4A12425875A1FD1241871270
:104248000A96E0F5A3E59C54F04401F59C02417AF6
:1042580012425F53A7FD22851882851983EAF0A3CD
:10426800EBF0A9A8C2AF22C082C08374FC120A4A2C
:1042780012429E75A1EF124226120A961242981215
:104288000A96E0F5A6E59C54F04404F59C02421910
:10429800E0F5A574022212430AA9A8C2AF53A7EFFA
:1042A8002274F4120AB274FC120A4A124306A2AF2C
:1042B800E433F9C2AF53A7DF75A1DF908EB5780854
:1042C80012094F85188285198378081207607005CE
:1042D800439C70801A75C340124229120A961242F2
:1042E80098120A96E0F5A6E59C540F4450F59CE90F
:1042F800A2E092AF7404120A607F04020B84124396
:104308000A22851882851983EAF0A3EBF0A3ECF062
:10431800A3EDF022C082C08374FE120A4A85188277
:10432800851983EAF0A3EBF0851882851983E0F8F4
:10433800A3E0F9E849601BA9A8C2AF75C300124100
:104348008A120A96E0F5A3E9A2E7E433F8E9A2E7BE
:1043580092AF0241ACA9A8C2AF53A7C9801AA9A8B5
:10436800C2AF53A7C9759C77800EA9A8C2AFE59CB8
:1043780054F04407F59C800375A1C9E9A2E7E4332A
:10438800F8E9A2E792AF020132A3A3A3E4F0E8A2FE
:10439800E7E433F9E8A2E792AF0241F1C082C083B3
:1043A80074FC120A4AA9A8C2AF75C300E5A202416B
:1043B800B0C082C08374FE120A4AA9A8C2AF75C3EE
:1043C80000E5A2851882851983F0E5A3C0E0740191
:1043D800120A96D0E0F0024196C082C083A8A8C213
:1043E800AF75C300E5A28A828B83A3A3A3A3F0E5DC
:1043F800958C828D83F0E5A38A828B83A3A3A3A3E4
:10440800124428A3A3A3E4F0E5968C828D83A3F03D
:10441800E5978C828D83A3A3F08C828D83024391D0
:10442800A3F0E5A48A828B83F0E5A5A3F0E5A68A2C
:10443800828B83A3A3F08A828B8322C082C0837479
:10444800FC120A4AA9A8C2AFE59585188285198386
:10445800F0E596C0E07401120A96D0E0F0E5970204
:1044680041C7C082C08374FE120A4AA9A8C2AFA875
:10447800C375C300E5A2E5A4851882851983F0E514
:10448800A5C0E07401120A96D0E0F088C3024196F4
:10449800C082C08312049012049612049C12048AEB
:1044A800024739C082C0839061B1E0C2E0F0E0D237
:1044B800E0F0906188E0640470F8024739C082C077
:1044C800839061B1E0C2E0F09061F3E4F09061F2B2
:1044D800F0F8F912452C9061F0F008E8700109C372
:1044E80094FEE9940D40EC024739C082C083906184
:1044F800F3E4F09061F2F0F8F99061F0E0FA124517
:104508002C6A700D08E8700109C394FEE9940D4007
:10451800E874FE687003740D69700479008002798C
:1045280001024739740028F582748039F583E02246
:10453800C082C0839061C0E0FAE4F0F8F9E8240092
:10454800F582E93460F583E4F008E8700109C39462
:1045580080E9940140E7EA9061C0F090618A7401B3
:10456800024734C082C0838A828B83E0906016122F
:10457800467DA3E09060171245A99060181245B2D5
:104588009060191245B790601A1245BC90601BF0F4
:10459800E99060157005E0C2E08003E0D2E00247D0
:1045A80038F08A828B83A3A3E0221245C7E0221247
:1045B80045C2E0221245C2A3E0221245C7A322F059
:1045C8008A828B83A3A3A32274F0120AB2EA9060B2
:1045D80005F0EBA3F0ECA3F07F08020B84C082C0C7
:1045E80083906001E0024659C082C08374075990E5
:1045F8006001024738C082C083740169906003700B
:1046080005E0D2E08003E0C2E0024738C082C08300
:10461800906003E054F949024738C082C083906033
:1046280061E002465974F0120AB29061947420F065
:10463800EAA31246CA0245DEC082C0839003A0E402
:10464800F0906022F0A3F0A37830F0A3D8FC0247E2
:1046580039F9024739C082C083906014E054FCF0F5
:10466800E049024738C082C083906009E4024738B5
:104678009061C07401F08A828B8322C082C0837AE1
:10468800007B60E970027A33124678E4F0A3F0A365
:10469800F09061C0024738C082C083E9906002028E
:1046A8004738C082C083E99060027005E0D2E38099
:1046B80003E0C2E3024738C082C083E99061C602C2
:1046C8004738F0EBA3F0ECA3F0ED22C082C083E9F9
:1046D800601714601C14601E146023146025146095
:1046E8002A14603314603C80419061E9E054FC80F6
:1046F800389061E9801C9061E9E0C2E0802B90610C
:10470800E9801B9061E9E0C2E1801E9061E9E0C2A6
:10471800E1F0E0D2E080129061E9E0C2E0F0E0D29E
:10472800E180069061E9E04403F08005F0A3F0A37E
:10473800F0D083D082020132C082C0839003D6E4D5
:10474800F0A3F012059ED083D08202013274EC12DD
:104758000AB28A0C8B0D890E9003D6E0F8A3E0F913
:10476800E84970187A117B001206A09003D6EAF087
:10477800A3EBF079017AFE7B8D120598AA0CAB0D9C
:10478800120610EAFEC3941140027E108E088E10A5
:104798007511007401650E702B7810120CC5AC0CE5
:1047A800AD0D9003D6E0FAA3E0FB120616740212D0
:1047B8000A609003D6E02EF8A3E034008882F583DF
:1047C800E4F0807F9003D6E0FAA3E0FB120610EA3B
:1047D800F50A2E2402FA7B001206A08A128B13AE69
:1047E80012AF13EE4F605C850A127513007812122F
:1047F8000CC59003D6E0FCA3E0FD12061674021265
:104808000A60A80AEE28F582E43FF5837420F005D3
:104818000A7810120CC5AC0CAD0DEE250AFAE43F6F
:10482800FB1206167402120A60E50A2508F8E43439
:1048380000F9EE28F582EF39F583E4F0EEFAEFFBA4
:104848001206A6AA0CAB0DA90E1205C87F0C020B06
:1048580084C082C08353F3FED28043FD0153F4FD2C
:10486800D29143FE0253F4FBD29243FE0443F10279
:1048780043F42043F44043F48075FB8075F80075D9
:10488800FC2F75FA00C2917A987B3A1205CED29124
:104898007A0F7B001205CE79151205A4790F12053F
:1048A800B0790E1205A479251205A4791C1205A465
:1048B8007A087B521205CE1205B61205BC79291268
:1048C80005A402474EC292C28053F8F989F9A2F9A9
:1048D80050FCA2F950FC00000000D292020132C242
:1048E80092D28053F8F989F9A2F950FCA2F950FC48
:1048F8000000000080E474F7120AB2E9FE79501251
:1049080005A4EEF91205AA801374F7120AB2798089
:104918001205A47E3079201205AADEF97F01020B68
:104928008474F7120AB279C01205A47E4079001285
:1049380005AADEF980E674F7120AB2EBFEEAC39420
:1049480010501274FF29C454F02A4480F91205A4A7
:10495800EEF91205AA80C574F5120AB28909EAFEB1
:10496800EBFF120610EAF50A75080080188E828F90
:1049780083E0FBAA08A9091205C28E828F83A3AE21
:1049880082AF830508E508C3950A40E1850A0880D7
:104998000B7B20AA08A9091205C20508E508C394DB
:1049A8001040EE7F03020B8480200000000000000E
:1049B80000000000000000000000000000000000EF
:1049C80000000000000000000000EAF8EBF9E8240D
:1049D800FF1AE934FFFBE84970D0020132C082C0F7
:1049E80083C3EA9427EB9400501674FF6C70037429
:1049F800FF6D600C124A29ECF0A3EDF079008002FB
:104A08007902024B3DC082C083C3EA9427EB94002D
:104A18005008124A29124B4480047AFF7BFF024B4C
:104A28003DEA2AFAEB33FB74702AF582740C3BF5E5
:104A3800832274F7120AB2E9FEEAFF7C107D00793E
:104A4800007ABB7B02120622EE900C6FF0EF900208
:104A5800B6F01202DAE9F99002BB70057401F08031
:104A680004E4F079127F01020B8474F6120AB2E9A9
:104A7800FF7E00701EEA4B601A7508068E097808DA
:104A8800120CC5EAFCEBFD7AC27B02120616740210
:104A9800120A609002BBE0640170147E01EF700896
:104AA8007402F01203288007E4F0EFF9120256EEC0
:104AB800F97F02020B8474F6120AB27E00EA4B6098
:104AC8003F8A828B83E0F97021A3E0F5088A828B04
:104AD80083A3A3E0FDE5089002C8F0A3EDF08A8265
:104AE8008B83A3A3A3E09002CAF09002BBE0640208
:104AF800700E7E01E9700474038001E4F01202561E
:104B080080ADC082C083E9F87900EA4B6025E8608F
:104B180022EA2405F582E43BF5837401687005E018
:104B280044C0800CE0543FF07403687004E0D2E69F
:104B3800F079018000D083D082020132E0FAA3E04C
:104B4800FB2274F4120AB28908900C6FE0F4604FEB
:104B58007A0A7B001206288A0A8B0BAE0AAF0BEE84
:104B68004F603C124C707408F09002B7E08E828F50
:104B780083A3A3A3F0750A06750B00780A120CC567
:104B88007CCB7D02EE2404FAE43FFB120616740285
:104B9800120A60EEFAEFFB900C6FE0F912063490FF
:104BA80002BAE06401703A9002DA124BEEE849600A
:104BB80019E0F5838882A3A3A3A3124BEE88828908
:104BC80083E58245836003120AB0908EC9120CD81F
:104BD8007A047B009002D9E0F91207247404120ABF
:104BE800607F04020B84E0F8A3E0F92274F4120A4F
:104BF800B28908900C6FE0F4606B7A0C7B001206A7
:104C0800288A0A8B0BAE0AAF0BEE4F6058124C7015
:104C1800E4F0750A06F50B780A120CC57CC27D0211
:104C2800EE2403FAE43FFB1206167402120A60909F
:104C380002C8124BEE8E828F83A3A3A3A3A3A3A3C0
:104C4800A3A3E8F0A3E9F09002CAE0C0E0EE240BC9
:104C5800F582E43FF583D0E0F0EEFAEFFB900C6FBD
:104C6800E0F9120634024BE98E828F8374D0F0A3E8
:104C7800E508F08E828F83A3A32274EE120AB28A0B
:104C8800088B09890B8C0E8D0F9003A3E070099097
:104C980003A5E07003024D4F9002DEE06003024D71
:104CA8004F890C750D00E92407FAE43400FB12065D
:104CB800288A108B11AE10AF11EE4F7003024D60B1
:104CC80074186508700474206509600C7417650809
:104CD80070047420650970109003A5E0600AF50A55
:104CE8008E828F837492800C9003A3E0F50A8E82E3
:104CF8008F837491F0A3740E124F117401124F191F
:104D0800E508F0A3E509F0EE2405F8E43FF9E8FA30
:104D1800E9FBEE2407F8E43FF98A828B83E8F0A3E5
:104D2800E9F0780C120CC5AC0EAD0F8A828B83E0CB
:104D3800FAA3E0FB1206167402120A60EEFAEFFB01
:104D4800A90A1206348011780E120CC5AC0B790E24
:104D58001203167402120A607F0A020B8474F2129C
:104D68000AB289098A0A8B0B8C0874072CFA74FF1B
:104D780065096004780380027802E82AFA7B001249
:104D880006288A0C8B0DAE0CAF0DEE4F7003024E49
:104D9800808E828F837401F0A374FFF0EE2402FAF0
:104DA800E43FFBEE2404F8E43F124E85E509124E79
:104DB800EBE02402F8A3E03400F9890DE50BF9745F
:104DC8000E120A96124EB074FF6509602E74032500
:104DD800088882850D83124EEB124EB6124EFBE503
:104DE8000AF0124F08E9F085080A750B00780A12D4
:104DF8000CC58A828B83E0240680637402250888A8
:104E080082850D83F08C828D83E0C0E08A828B835B
:104E1800124EA1D0E0F08C828D83A3E0C0E0124E48
:104E2800FBD0E0F08C828D83A3A3E0C0E0124F0892
:104E3800D0E0124EEB124EDD124EE9124ED1E9F0DF
:104E4800E50824FDF50AE434FFF50B780A120CC5D1
:104E5800EC2403FC50010D8A828B83E02408FAA31A
:104E6800E03400FB1206167402120A60EEFAEFFB39
:104E78009003A1E0F91206347F06020B84F98A82B6
:104E88008B83E8F0A3E9124EEF124EBD8A828B8322
:104E9800124E9C22124EC4A322124EA522124EA9D3
:104EA80022124EC8A3A3A322E0FCA3E0FD22124EC7
:104EB800A57401F022124EC47404F022124EC822C6
:104EC800E0F8A3E0F583888222124EF52407F582E4
:104ED800E438F58322124EF52406F582E438F5838A
:104EE80022E50A124EEF22F08A828B8322E0F8A391
:104EF800E0C8228A828B83124F0322124EA9A32272
:104F08008A828B83124F03A322F08E828F83A3A3FE
:104F180022124F11A32274F0120AB275E181120411
:104F2800AEE9700890032FE0F91204B47901120475
:104F380012E964016003024FD8900375E0FAA3E018
:104F4800FBEA4B6008900374E0F9120658900333AB
:104F5800E06401705312508EFC74064CF5D97A0047
:104F68001250B640FB7A008003125069EAC39B4096
:104F7800F8900354E0FB74072BF5D974044CF5D969
:104F88007A001250B640FB7A008010EAF87455286F
:104F9800F582E43403F583E0F5D90AEAC39B40EBD4
:104FA80075E195900333E4F01203D01250CB120848
:104FB800EE12507A1208DB908EBD780C12093C8AEA
:104FC800828B83780C12095E1250F674151250A366
:104FD8001203EE7F08020B8474F0120AB275E181A5
:104FE8001204AEE9700890032FE0F91204B47901B5
:104FF800120412E964017066900375E0FAA3E0FBFD
:10500800EA4B6008900374E0F9120658900333E005
:105018006401702212508E4402F5D97A001250B6FB
:1050280040FB7A008003125069EAC39B40F875E19F
:1050380095900333E4F01203D01250CB1208EE120D
:10504800507A1208DB908EBD780C12093C8A828B4C
:1050580083780C12095E1250F674141250A3024F92
:10506800D8EAF8743528F582E43403F583E0F5D9F5
:105078000A2290032CE0F508A3E0F509E4F50AF507
:105088000B780C79082275E191A3E0FB74072BF5E6
:10509800D990031DE0C4333354C022125126241A78
:1050A800F582E438F58374C4F0A37403F022EAF8B7
:1050B800741E28F582E43403F583E0F5D90AEAC3BF
:1050C800940622E9FC90031BE02402F8A3E03400D4
:1050D800F9E8FAE9FB8A828B83EC75F0118485F094
:1050E8000885080CE4F50DF50EF50F780C229003F1
:1050F8001BE0F8A3E0C82406F582E438F583E4123F
:105108005124240EF582E438F58374FFF0A3F0A34C
:105118001251242414F582E438F58322F0A3F09088
:10512800031BE0F8A3E0C822C082C08353BFEF7915
:1051380001120412E96401700C7A1B7B0312040645
:1051480090032BE4F075E1F11203EED083D08202D4
:105158000132C082C083900C24E4F0A3F0900C26A6
:105168007426F0A37404F09004267448F0A3740223
:10517800F090066EF0A37480F0A374B4F0A37405E5
:10518800F0D083D08202013274F6120AB27A017B1F
:10519800001206A0AEA8C2AFEA24FEF8EB34FFF96D
:1051A800900C26E8F0A3E9F01206A6900C287401EA
:1051B800F0EEA2E7E433F8EEA2E792AF7F02020B2B
:1051C8008474F2120AB27C007D007E00EA2402FA9E
:1051D800E43BFBA2AFE433FFC2AF900C28E06008C9
:1051E800EA9411EB9400500A900C26E0F8A3E0F939
:1051F80080047870790688828983E0F508A3E0F551
:1052080009548060057E000252A6EEA2E0507C8C14
:10521800828D83E0F50AA3E0F50B5480F50DE50ACD
:105228002508F508E50B3509547FF509E50D45090D
:10523800F5098C828D83E508F0A3E509F0547FF524
:1052480009C3E5089AE5099B4054ECF8EDF9E849EB
:10525800700302531488828983E0FCA3E0547FFD25
:10526800ECC39AFCED9BFDC3EC9404ED9400405D07
:10527800E82AF582E93BF583ECF0A3EDF0EB4480F6
:10528800FB88828983EAF0A3EB804AE509547FFD15
:10529800C3E5089AED9B50B67E01E8FCE9FD8882DB
:1052A8008983E0F508A3E0547FF509E82508F8E9C3
:1052B8003509F988828983E0F508A3E0F509E5084E
:1052C800450960030251FE78007900803F88828991
:1052D80083A3E04480F0900C28E06029900C26E03D
:1052E800FAA3E0FBE86A7002E96B70198882898387
:1052F800E0FAA3E0547FFBE82AFAE93BFB900C268E
:10530800EAF0A3EBF0E82402F8500109EFA2E092DA
:10531800AFE8FAE9FB7F06020B84C082C083EA2467
:10532800FEF8EB34FFF9A2AFE433FCC2AF88828900
:1053380083A3E0547FF0900C26E0FAA3E0FBE89A00
:10534800E99B5008900C26E8F0A3E9F0ECA2E09263
:10535800AF025189C082C083E9900CC502553F74E1
:10536800F7120AB2E99002D9F012050E7F01020B7A
:105378008474F4120AB28A088B09EB54806079901D
:1053880002D9E0F91206408A0A8B0BAE0AAF0BEE7F
:105398004F605C8E828F83E064917039A3E024F2C1
:1053A800602924D0702F750A018E828F83A3A3E011
:1053B8006402700F125530600D1254446008120ACE
:1053C800B08003750A00850A0B80061202CEE9F543
:1053D8000BE50B7013900CC5E0F4600CEEFAEFFBD4
:1053E800E0F9120634E96007EEFAEFFB12062EAA7E
:1053F80008E5096480FB803FEAA2E05017125530A7
:10540800600C12544460077A007B00120AB0E50869
:105418006401801A5402601B9002DA125533600A44
:1054280012544460057901120AB0E5086402FAAB27
:105438000980047A007B007F04020B84125519A3AB
:10544800A312550FE582458322790002013274F4D4
:10545800120AB27E018A828B83A3A3A3E0F508A374
:10546800E0F50985080AF50B780A120D4F010008C6
:10547800200A20F15407000910B9540220A6540547
:10548800209D540620F1540B20DA540C20D5540EDC
:10549800200A55085512551FF912025080648A8255
:1054A8008B83A3A3A3A3A3E0FAA3E0FB1202448087
:1054B8004B8A828B83A3A3A3A3A312550FA3AA820B
:1054C800AB8388828983E0F912023E802F12551F30
:1054D8006030125530602B1255191254496023EA76
:1054E800FCEBFDAA08AB0980109002DA1255336074
:1054F800111255191254496009120AB0E9FE8002C6
:105508007E00EEF902543FE0F8A3E0F9888289832F
:1055180022E0F5838882228A828B83A3A3A3A3A394
:10552800E0F8A3125519E0229002DCE0F8A3E0F9B4
:10553800E84922EAF0A3EBF0D083D082020132C01E
:1055480082C0839002DA80EB74F0120AB274F81207
:105558000A4A8A088B098C0A8D0B908E917808125A
:105568000795500C75084075099C750A00750B0065
:10557800AC18AD197404120AA012104D1256BD7061
:1055880065851882851983780812094F1256BD70EF
:105598000302562E9003DA7401F09003D97402F0D6
:1055A800908E95780812079540081256BD60030240
:1055B80056B3C2AFE51A70030256B19003D9E0F9A9
:1055C8001211A2E960030256B11205861205DA1219
:1055D80056BD607D908E997808120795505E908E22
:1055E8009D120CD8805B740C78081208BC908EA1B0
:1055F800780C12094F7808790C12083485188285BE
:105608001983120979E8494A4B601B851882851964
:10561800837808120785500E8518828519837808C3
:1056280012094F02559C9003DAE4F01256BD60034C
:105638000255A29003D97403F00255BA7808120CE7
:10564800C17408120A9612096D1205F27404120A3E
:105658006053BEFC9003D9E042BEE5ADA2E050FA2B
:10566800751A0185A808AFB8AE9A53A82053B82078
:10567800539A12D2AF1205E69003DAE0640170067D
:10568800A2C74002E4F08508A88FB88E9A9003D983
:10569800E0640370047901800279009003DAE0FA8B
:1056A8001212191205E012058CD2AF7408120A60A2
:1056B8007F08020B84E5084509450A450B2274F466
:1056C800120AB274FC120A4A851882851983EAF014
:1056D800A3EBF0A3ECF0A3EDF0C2AD7410120A96A0
:1056E800780812094F908EA578081208EE8518825E
:1056F80085198378081209017402120A96E0F59751
:105708007401120A96E0F596851882851983E0F5EA
:1057180095C2C7D2AD7404120A607F04020B8402DA
:10572800013274F7120AB274FC120A4AE9900C3C6E
:10573800F07401120A967401F004120A96E4F0A3B8
:10574800F08518828519837402F014120AA8790169
:105758007A027B031202087402120AA879027A03F9
:105768007B031202087CE47D0C79197A057B03120D
:1057780002087CFD7D0C79087A047B03120208ACD0
:1057880018AD1979017A067B031202087CA07D0006
:105798007A067B0012022C7CA07D007A077B00121F
:1057A800022C7CA07D007A087B0012022C7CA07D54
:1057B800007A097B0012022C79017A217B8E12056E
:1057C800987A017B00900C3CE0F912065874041298
:1057D8000A607F01020B8474F6120AB2EAFEEBFF3C
:1057E80054806016900C3CE0F9120640EA4B6003C6
:1057F80012062EEEFAEF64808011EEA2E0500F7AC6
:10580800057B0D120214EE6401FAEFFB80047A00A6
:105818007B007F02020B8474F7120AB274E9120A41
:105828004AE91460151470030258C1147003025831
:10583800C91470030258D10258D9AC18AD197A01AD
:105848007B0312020E908E107406120AA8741112AD
:10585800099E900C3D7430F0A37478F07A3F7B0C6D
:105868007406120A96A882A9837F06E824FF18E91D
:1058780034FFF988828983E0C4540FFC7406120A45
:10588800961258E7F088828983E0540FFC74061258
:105898000A961258E7A3F0EA2402FA50010B1FEF08
:1058A80070C98A828B83E4F079027A3D7B0C1205F9
:1058B8009879037A3F7B8E801E79037A4B7B8E80A2
:1058C8001679037A5F7B8E800E79037A677B8E80E8
:1058D8000679037ACD7B8E12059874170257D7E59F
:1058E800822CF582E43583F583E08A828B8322C09B
:1058F80082C08374F9120A4A7401120A96AA82AB0A
:10590800831203401259B279077A097B10120310E7
:10591800790074070259EE74F7120AB274FF120A7A
:105928004A740F120A9612596D120CC9740F120A92
:105938009612596D120CC9740E120A96120CDC7468
:105948000F120A9612596D120CC9740F120A961288
:10595800596D120CC91203467406120A601259C313
:105968007A060259DDE0F50878082274F7120AB2BF
:1059780074FF120A4A12034C1259C37A080259DDFD
:1059880074F7120AB274FF120A4A1203581259C362
:105998007A090259DD74F7120AB274FF120A4A1220
:1059A80003521259C37A0A0259DDE985188285190A
:1059B800831259BD22F0AC18AD1922E985188285E9
:1059C80019831259BD790122120A607F02020B84E1
:1059D80074030259EE7B2012031079007401120A35
:1059E800607F01020B84120A60D083D082020132E8
:1059F8001259BD79032274F6120AB274F7120A4AD0
:105A0800851882851983E4F0750808F50978081265
:105A18000CC5EAFCEBFD7403120A96AA82AB83124A
:105A280006167402120A60AC18AD1979097A187B47
:105A38002012031074090259D0C082C08374FD1269
:105A48000A4A851882851983E4F004120A967404B8
:105A5800F07402120A96E41259F8FA7BFC12032237
:105A68000259D8C082C08374FD120A4A85188285FB
:105A780019837401F0120A967404F07402120A96DB
:105A8800E41259F87A0180D3C082C08374FD120AE7
:105A98004A8518828519837416F07401120A96745F
:105AA80004F07402120A96E41259F87A16025A633C
:105AB800C082C0839003D1E4F053F3FD53FDFD533E
:105AC800F5FE53FFFE43F7019003D2F0A3F09003D5
:105AD800D4F0D083D08202013274F7120AB2E9906E
:105AE80003D5F09003D2EAF0A3EBF09003D5E06081
:105AF80033538CFE438C0143AB02D2BD7589FD53F1
:105B0800ACF743AC0843AC01439A02758BFE900393
:105B1800D4E06401701F7A107B009003D0E0F91282
:105B2800072A801153ABFDC2BD7A107B009003D0C9
