:020000040000FA
:0600000002011A0223F9BF
:03002B00022AB2F4
:03003300022A940A
:0300530002246F15
:03006B00022A6BFB
:1000830002224FE5C754F84401F5C7790122000065
:100093000080FB120086B90003020104E479217891
:1000A30008B800028004F709D8FCE479297802B87B
:1000B30000028004F709D8FCE49002817877791371
:1000C3008002F0A3D8FCD9FA781A90014A7A01BACF
:1000D30000028007E493A3F608DAF97AF77B149019
:1000E300014B78DC79048015E493A3AD82AE838A57
:1000F300828B83F0A3AA82AB838D828E83D8E9D9C6
:10010300E77582A87583FF740112012C75829175BE
:100113008300740012012C75D00075813F7518811E
:10012300751902759F00020096C09FF59FE473D076
:100133009F22D083D082C09FE493C0E0740193C018
:10014300E0740293F59F22010A416363656C2045C5
:100153006E61626C650000021400416363656C208C
:1001630052616E67650000101010416363656C2077
:10017300582D436F6F7264696E617465000041634B
:1001830063656C20592D436F6F7264696E6174658A
:100193000000416363656C205A2D436F6F7264697D
:1001A3006E6174650000023990010000069002350B
:1001B30090010000F7140253900300008302022110
:1001C30090010000F8140235900100000615023F6B
:1001D3009001000007150221900100000915023566
:1001E30090010000161502679000000084020223AC
:1001F30090030000870202219001000019150235C7
:1002030090010000171502419000000085020223AF
:100213009003000089020221900100002D15023590
:10022300900100001815024390000000860202238B
:10023300900300008B02022190010000411511017F
:1002430099010F12640400AD270111310401023931
:10025300900100000C90023590010000F215024756
:1002630090010000F315022390030000950202336E
:1002730090010000FB15022590010000F415FF001A
:1002830000B4000028002800283075A000A000A0BA
:1002930000A00000080008E001F0001000100010AA
:1002A300001000100010005000500050001000100B
:1002B30000D0070000000000000F0001000500301F
:1002C3007507001000010081FF00000000FFFFFF21
:1002D300A207C007A807E407FF02020208025000B2
:1002E300A0000000E80302399001000018900235D5
:1002F300900100008816022790010000D502023504
:10030300900100008916022990010000EB020235DA
:10031300900100008A16022B90010000ED020235C5
:10032300900100008B16022D90080000EE020235AA
:10033300900100008C16022F900100008D16FF0122
:1003430000FF200239900100001B9002359001004C
:1003530000F1160231900000000000022390030018
:10036300001C031700920E920E920E920E920E92A2
:100373000E920E920E920E920E920E920E920E7A92
:10038300118C117411020202020202020202010D17
:1003930000000010010239900100000F9002359017
:1003A30001000034170263900100003A0702359000
:1003B3000100003517025790010000138F0235909A
:1003C3000100003617025590010000F78E023590A8
:1003D3000100003717025190010000A38E023590EF
:1003E3000100003817024F90010000B58E023590CE
:1003F30001000039170269900100007F8E023590D9
:100403000100003A17024D90010000918E023590D1
:100413000100003B17024B90010000058F0235904D
:100423000100003C170249900100003D1701E80359
:100433000577100A0B094B6579666F6264656D6F0A
:100443000201050702031802180418544920424CFC
:1004530045204B6579666F620000000000000000D4
:100463006214000068146E14FFFFFF00013075036F
:100473000201060000000000000000000000000070
:10048300000000000000000000000000000000FF6A
:10049300FF0600800CE8030A0412023990010000F1
:1004A30015900235900100004618025F900300008A
:1004B300EF140239900100001E90023590010000F4
:1004C3004718025F90020000F01402399001000007
:1004D3000990023590010000481802619001000064
:1004E300F114022390030000F214104B657920509D
:1004F300726573732053746174650002399001004F
:100503000012900235900100009918026D900000CE
:1005130000F414022390030000F51402219001005B
:10052300009A18120135AD9103120135709203122E
:1005330001358D9203120135C493031201350F94D3
:1005430003120135C3940312013510A903120135B7
:1005530073A90312013594A9031201353FAA0312AB
:100563000135D2AA0312013599AB0312013558CCD8
:100573000312013579CC031201350ACD031201357B
:1005830057A5031201356AA5031201359BA5031272
:100593000135D5A5031201352EA60312013575A623
:1005A30003120135BDA603120135ECA60312013572
:1005B3001BA70312013552A70312013599A7031292
:1005C3000135B2A70312013507A80312013520A88C
:1005D300031201356EA803120135A8A803120135D1
:1005E30063B90212013566BA021201359FBA0212CB
:1005F3000135C2BA02120135D4BA0212013512BB57
:10060300021201358EBB0212013556BC02120135AE
:1006130078BC021201350FBD0212013561BD021211
:10062300013592BD021201359FBD0212013509BE8B
:100633000212013560BE0212013563BE021201359A
:100643009CBE021201359FBE02120135A9BE0212E1
:100653000135FDBE021201353EBF0212013571BFE5
:1006630002120135AEBF02120135B0C002120135CC
:1006730054C102120135BDC102120135FBC1021280
:100683000135B89503120135E095031201350D9636
:1006930003120135459603120135A3960312013562
:1006A300EF960312013556970312013596970312FD
:1006B3000135D39703120135019803120135AB9825
:1006C30003120135B59803120135C298031201359F
:1006D300F598031201350199031201351999031293
:1006E30001352399031201358BCB0312013599CBC5
:1006F30003120135B1CB03120135C8CB0312013507
:1007030004C801120135AEC801120135C1C9011275
:1007130001353DCA011201355BCB0112013597CB7F
:100723000112013532CC0112013516CD011201350A
:10073300E2CD0112013570CF01120135E1CF011273
:1007430001359BD0011201358DD101120135CDD177
:100753000112013581D201120135B3D201120135E3
:10076300A9D401120135EBD40112013509D50112C7
:1007730001356FD5011201353ED60112013502D77D
:100783000112013521D901120135CDD902120135EA
:10079300B7DA0212013562DB02120135B3DB021252
:1007A300013563DC02120135D4DC02120135B9DDF7
:1007B30002120135EDDD02120135E6DE02120135CA
:1007C30023DF02120135FFDF021201353EE0021280
:1007D30001355AE00212013584BB0312013508BC0E
:1007E3000312013533BC031201354DBD031201352C
:1007F3009C9D03120135B29D03120135D09D031256
:100803000135E19E03120135EB9E0312013516A05B
:10081300031201350DA1031201357AA1031201352B
:100823002EE6021201355EE70212013595E7021248
:100833000135DFE702120135A2E9021201351CA3DB
:1008430001120135A8A3011201350CA501120135CE
:1008530018A50112013553A501120135C2A50112D4
:100863000135CBA601120135D4A7011201359BA88E
:1008730001120135F8A90112013516AA0112013539
:1008830033AA01120135E0AA011201355DAB011251
:10089300013585AB011201354FAE0112013554AE5E
:1008A300011201356DB001120135BBB001120135E2
:1008B3002BB10112013569B10112013545B20112A3
:1008C300013505B30112013551B30112013554B39A
:1008D3000112013598B301120135E0B3011201355C
:1008E3001FB40112013541B40112013575B401126F
:1008F3000135D8B40112013571EB021201357FEBDA
:1009030002120135D2EB02120135F1EB021201356D
:1009130036EC021201357AED0212013515EE0212A0
:10092300013559EE0212013583EE02120135F2EE62
:100933000212013538EF02120135AFEF0212013511
:1009430060F002120135EC2A00120135FC2A001274
:1009530001359D2B00120135F92B00120135B62C00
:1009630000120135D22D00120135042E001201357B
:10097300332E00120135E02F0012013557320012D9
:100983000135C73400120135B93500120135B236CD
:1009930000120135B93800120135AD3B00120135A3
:1009A300DC3C00120135E03E00120135F03F00123D
:1009B30001357F4100120135704200120135BE42FC
:1009C300001201352D430012013551430012013548
:1009D300A243001201354348001201354449001275
:1009E3000135A54900120135D04900120135964A57
:1009F30000120135068903120135108903120135EE
:100A0300558903120135698903120135F9890312E6
:100A13000135328A031201356D8A03120135968A34
:100A230003120135EA8A03120135FF8A03120135E5
:100A3300218B03120135368B031201354A8B0312C6
:100A430001355F8B03120135998B03120135C58B79
:100A530003120135FD8B031201359D8C0312013501
:100A6300E08C031201350A8D03120135358D031213
:100A73000135AAC503120135DDA502120135C0A651
:100A8300021201353BA70212013576A70212013586
:100A9300C7A80212013555A902120135E7AB0212AC
:100AA300013599AC02120135A5AD0212013518AF1B
:100AB3000212013571AF021201355D8D031201354A
:100AC300A08D03120135248E03120135FB9003120E
:100AD30001350DB503120135BFB503120135BBB6A0
:100AE30003120135FAB60312013554B70312013567
:100AF30056BF03120135B9BF0312013556C00312A5
:100B030001358BC003120135BBC003120135F6C09A
:100B13000312013516C10312013531F502120135F5
:100B2300BDF5021201357CF60212013594F702126B
:100B33000135AEF902120135F27300120135177453
:100B430000120135E47400120135B8750012013545
:100B53002576001201356576001201350177001202
:100B630001353578001201351079001201356F799E
:100B730000120135FB7900120135697A0012013543
:100B8300F57A001201353B7B00120135AD7B001273
:100B930001353F7C00120135E07C00120135007DF8
:100BA30000120135487D00120135917D0012013597
:100BB300AD7D00120135D37D001201354D7E00124B
:100BC30001355B7E00120135EA7E00120135537F49
:100BD30000120135E5F9021201356AFA02120135F4
:100BE300ACFA0212013590FB02120135FDFB021231
:100BF300013541FC0212013585FC02120135B2FCBC
:100C030002120135DAFC0212013512FD021201351E
:100C130050FD0212013577FD02120135F1FD02127A
:100C230001353BFE021201357290011201351A9211
:100C3300011201354794011201359B9401120135CC
:100C4300C69401120135989501120135DC95011204
:100C53000135209601120135339601120135749640
:100C630001120135A19601120135EF9601120135EA
:100C73003097011201355E9701120135B1970112C8
:100C83000135489801120135329B01120135489D07
:100C930001120135869D01120135199F011201359B
:100CA3005E9F01120135D09F0112013521A001126F
:100CB30001355BA00112013565A001120135B2A116
:100CC30001120135E8A201120135F9A20112013521
:100CD300F6F50112013575F6011201356EFC0112AC
:100CE300013574FD01120135E7FE011201357EFF66
:100CF30001120135865F00120135CF5F0012013505
:100D0300FC5F001201352E60001201353B600012BA
:100D13000135476000120135596000120135346115
:100D230000120135926100120135C76100120135CD
:100D3300FE62001201354B63001201356F6300122E
:100D43000135DF6300120135A064001201356365CC
:100D530000120135D165001201358E66001201358E
:100D6300A166001201351F6700120135B267001238
:100D73000135D967001201354168001201359268C7
:100D830000120135E7680012013590690012013540
:100D93003B6A00120135E76A00120135596B0012F4
:100DA3000135AD6B001201350D6C001201353D6C40
:100DB30000120135D36C00120135F86D00120135B4
:100DC300406E001201355D6E001201357C6E00121B
:100DD3000135AB6E00120135C06F0012013546704C
:100DE300001201356B70001201358070001201355D
:100DF300F370001201353471001201355072001284
:100E03000135F172001201353F7300120135A973E8
:100E130000120135C273001201351AB002120135F6
:100E23006EB0021201357AB00212013544B10212DA
:100E3300013571B1021201359FB1021201350BB2B6
:100E43000212013541B2021201357AB202120135A2
:100E530092B202120135E7B20212013500B3021257
:100E6300013545B30212013558B30212013572B38D
:100E73000212013588B302120135A6B402120135FC
:100E8300D1B502120135BBB602120135AAB702125F
:100E93000135E12A00120135888D02120135B78D23
:100EA300021201357D9102120135D49202120135ED
:100EB3009A9302120135199502120135E395021234
:100EC30001353596021201354F960212013581968E
:100ED300021201358C9602120135D59602120135A4
:100EE300DE96021201358A970212013563980212C7
:100EF3000135AA980212013512990212013554994B
:100F030002120135829902120135BD99021201358F
:100F1300B0B5011201352EB90112013534B90112F0
:100F2300013589BF01120135D3C301120135B9C798
:100F33000112013584A103120135FAA1031201350F
:100F430010A203120135A0A203120135DDA2031280
:100F5300013517A30312013551A303120135C4A3AD
:100F63000312013505A4031201350EA40312013542
:100F73001AA40312013539A40312013563A4031221
:100F8300013578A403120135A0A40312013502A58B
:100F93000312013529A50312013572F0021201353E
:100FA30085F0021201359FF002120135CCF00212D6
:100FB300013512F10212013545F10212013583F1B7
:100FC30002120135E8F102120135FDF10212013579
:100FD30008F20212013515F2021201352CF2021247
:100FE30001353AF20212013545F20212013551F28E
:100FF3000212013564F2021201356FF20212013559
:1010030092F20212013536F30212013546F302124F
:10101300013560F3021201357DF30212013598F3B5
:1010230002120135BDF302120135C8F30212013574
:10103300DDF302120135F1F30212013552F402120B
:10104300013558F4021201355EF40212013564F4DD
:10105300021201357CF402120135AFF4021201359C
:101063000580021201359C8002120135348102127F
:1010730001352482021201355B82021201356E8230
:1010830002120135DC820212013577840212013526
:101093009E840212013540850212013575850212C4
:1010A3000135868502120135FF850212013520863E
:1010B300021201353886021201359087021201357A
:1010C300998902120135E98B02120135EC8C021267
:1010D30001353B8D021201352ED9011201352BDA70
:1010E3000112013516DB0112013520DB0112013536
:1010F30042DB011201354EDB01120135A0DC011286
:101103000135CFDC01120135FFDD0112013541DE6E
:10111300011201356DDF0112013543E00112013582
:1011230095E001120135F4E0011201352BE10112C2
:10113300013566E10112013501E5011201351AE5B8
:10114300011201359CE501120135AAE501120135B1
:10115300FFE5011201350DE6011201357AE60112B0
:101163000135ECE60112013532E701120135CD9A62
:1011730002120135EF9A02120135D99C0212013590
:101183007EA002120135C1A1021201359BA20212F7
:10119300013524C10312013549C103120135BAC116
:1011A3000312013521C2021201352AC2021201358E
:1011B30033C20212013564C30212013583C5021220
:1011C3000135B9C502120135F3C50212013529C62D
:1011D3000212013563C60212013597C602120135A8
:1011E300C3C6021201350CC70212013546C70212EB
:1011F30001358EC702120135E4C70212013519C841
:101203000212013574C802120135AEC8021201354B
:10121300FFC80212013535C9021201356FC9021226
:1012230001359DC902120135C0C902120135D1CD64
:1012330003120135FDCD0312013558CE03120135DA
:1012430062CE0312013572CE03120135BEC60312FC
:10125300013515C7031201352DC7031201354BC7DD
:101263000312013566C7031201359AC7031201350C
:10127300A8C70312013580AF03120135A7AF0312CC
:101283000135D1AF031201357BFE0212013599FE00
:1012930002120135B0FE02120135C7FE02120135FA
:1012A30034FF021201359FFF02120135B1FF021212
:1012B300013523CF03120135024B001201356B4D6B
:1012C30000120135224F001201357F4F0012013504
:1012D3007C50001201350451001201359051001267
:1012E3000135B55100120135AA54001201352055BC
:1012F300001201350C560012013546560012013515
:101303008656001201352658001201357B5800120B
:101313000135C858001201353659001201355D599F
:10132300001201357759001201358D5A001201352B
:101333009D5A00120135235C00120135435C0012F3
:101343000135795C00120135E45D00120135235E3D
:1013530000120135615F00120135858403120135E6
:10136300DD840312013525860312013594860312A9
:101373000135438703120135628703120135B687AE
:1013830003120135F4870312013515CD031201351C
:1013930026CD03120135C6CD031201356DCF0312DD
:1013A3000135ACCF03120135E7FF02120135ACCA98
:1013B30003120135BCCA03120135D1CA0312013528
:1013C30085CB03120135C1C70312013545C803128A
:1013D3000135ABC80312013578C403120135A5C426
:1013E30003120135FBC4031201350EC50312013587
:1013F3005FC5031201359EC503120135A1C5031252
:101403000135B19903120135C599031201353E9A8D
:1014130003120135139B03120135E59C03120135B9
:101423004A9D03120135899D03120135F87F00128D
:1014330001357CBD03120135F2BE0312013553BFE2
:101443000312013524D202120135F4D302120135FD
:10145300A4D5021201356CD6021201350DD7021242
:1014630001352CD70212013567D802120135A6D8EF
:1014730002120135EED802120135BBC90312013540
:10148300E4C9031201350DCA0312013525CA03123B
:10149300013567CA03120135BBE002120135C5E00D
:1014A3000212013505E1021201354EE10212013546
:1014B30088E102120135DEE102120135FDE102127B
:1014C300013506E20212013557E20212013580E2CC
:1014D3000212013595E20212013505E302120135CC
:1014E30093E302120135D7E302120135FFE302123F
:1014F30001357EE402120135C1E402120135FEE436
:101503000212013510E5021201352FE502120135F1
:1015130038E50212013502E602120135DAC203127E
:1015230001352BC303120135B4C3031201351AC4A9
:10153300031201354EB20312013578B2031201359D
:101543006DB3031201359CB30312013522B40312A8
:101553000135C4C803120135767F0012013582B903
:1015630003120135B8B903120135F1B9031201357C
:101573004ABB031201357CCE0312013592CE03120E
:1015830001359CCE03120135F2CE031201354ECA4A
:10159300021201350BCB0212013546CB0212013583
:1015A3006ECB02120135D0CB021201351CCC0212D4
:1015B300013587CC0212013503CD02120135FFCD6F
:1015C3000212013586CF0212013509D0021201350C
:1015D3006DD00212013584D0021201357AD1021284
:1015E3000135C6D102120135008003120135158081
:1015F30003120135C580031201350581031201353C
:101603001E81031201355181031201359E8103129C
:101613000135D2810312013514820312013512847C
:1016230003120135788403120135BBE7011201353A
:1016330072EB0112013504ED011201355BED01126C
:1016430001357AED01120135F8ED011201358AEF0A
:10165300011201356EF0011201357FF401120135DB
:1016630053F5011201355AAC0312013503AD0312D0
:10167300013520AD03120135B8AD03120135E3ADD9
:101683000312013575AE031201357FB7031201351D
:10169300E3B7031201354BB803120135BFB8031288
:1016A3000135B6CF03120135BBFF02120135D57FD9
:1016B30000E066701008A3E066700A08A3E0667095
:1016C3000408A3E06622C3E7960809E7960809E73A
:1016D300960809E79622C3E09608A3E09608A3E0DC
:1016E3009608A3E09622C008C3E096F50808A3E095
:1016F30096420808A3E096420808A3E096450870BE
:1017030001D3D00822080808EAC0E0EBC0E086F065
:10171300E7A4FA180986F0E7A42AFA180986F0E77D
:10172300A42AFA180986F0E7A42AFA1986F0E7A48E
:10173300FBE5F02AFA190886F0E7A42BFBE5F03A5B
:10174300FA190886F0E7A42BFBE5F03AFA18180912
:1017530086F0E7A4C5F02BFBE43AFA1908E7C5F0D5
:10176300C6A426F6E5F03BFBE43AFA1886F0E7A4B4
:10177300F6E5F00826F6E43B08F6E43A08F6D0E08E
:10178300FBD0E0FA22E4CFC0E0E4CEC0E0E4CDC079
:10179300E0E4CCC0E075F020E626F608E633F60870
:1017A300E633F608E633F6181818EC33FCED33FD90
:1017B300EE33FEEF33FFC3EC9709ED9709EE97097C
:1017C300EF97191919400FFFEC97FC09ED97FD09E5
:1017D300EE97FE191906D5F0BFECF709EDF709EE00
:1017E300F709EFF7191919D0E0FCD0E0FDD0E0FEBE
:1017F300D0E0FF2212185F18181812178812184E1B
:101803001919192212184E191919080808E6181877
:101813001820E7E012178812185F18181822090910
:1018230009E719191920E7DC080808E61818182031
:10183300E70302178812185F18181812178812186E
:101843005F18181812184E19191922E4C397F709CB
:10185300E497F709E497F709E497F722E4C396F6C8
:1018630008E496F608E496F608E496F6226017086C
:101873000808C6A2E713C618C613C618C613C618A7
:10188300C613C6D5E0E9226016080808C6C313C606
:1018930018C613C618C613C618C613C6D5E0EA225F
:1018A3007009080808226016181818C6C333C6083A
:1018B300C633C608C633C608C633C6D5E0EA22E631
:1018C30027F60809E637F60809E637F60809E63782
:1018D300F622E026F608A3E036F608A3E036F6087B
:1018E300A3E036F622E026F008A3E036F008A3E0F2
:1018F30036F008A3E036F022C3E697F60809E69728
:10190300F60809E697F60809E697F622C3E096F08B
:1019130008A3E096F008A3E096F008A3E096F0226F
:10192300E056F608A3E056F608A3E056F608A3E04F
:1019330056F622E056F008A3E056F008A3E056F06E
:1019430008A3E056F022E0F608A3E0F608A3E0F6C9
:1019530008A3E0F622E6F008A3E6F008A3E6F00801
:10196300A3E6F022E0FAA3E0FBA3E0FCA3E0FD2260
:10197300E0F8A3E0F9A3E0FAA3E0FB22E8F0A3E98F
:10198300F0A3EAF0A3EBF022CAC0E0E6F0A308DA82
:10199300FAD0E0FA22CAC0E0E0A3C582CCC582C572
:1019A30083CDC583F0A3C582CCC582C583CDC58352
:1019B300DAE6D0E0CA22C3E498F8E499F91219FAF6
:1019C3008026C3E49AFAE49BFBE920E7E91219FABB
:1019D300E498F8E499F922C3E498F8E499F9121920
:1019E300FAE498F8E499F9C3E49AFAE49BFB22EB4E
:1019F30020E7CFE920E7E0B90010BB0008E88AF050
:101A030084F8AAF022E4FBC8FA22EB70227B10C808
:101A130033C8C933C9335007C39AC3DBF280069A6C
:101A230050012ADBEAC833F4C8C933F4C9FA227572
:101A3300F008E4C833C8C933C933C99AC99B5004F1
:101A4300C92AC93BD5F0ECFBC833F4C8E4C9FA2270
:101A5300600D08C6A2E713C618C613C6D5E0F32265
:101A6300600C08C6C313C618C613C6D5E0F42270AB
:101A73000422600D18C6C333C608C633C6D5E0F4C6
:101A83001822251810AF08F518400C15198008F511
:101A93001840021519D2AF2200C0D0251810AF0884
:101AA300F518500C05198008F51850020519D2AF26
:101AB300D0D0222518F58210AF08F518400C15195F
:101AC3008008F51840021519D2AF8519832225180D
:101AD300F582E43519F583222518F8E43519F9223E
:101AE3002518FAE43519FB222518FCE43519FD22E3
:101AF300E4732518C582C0E0E51934FFC583C0E04F
:101B0300E518C3958224F810AF08858319858218D8
:101B13008008858319858218D2AFCEF0A3E520F023
:101B2300A37808E608F0A3DEFAEFF0A3E58124FA30
:101B3300F8E608F0A3E608F0A3E608F0A30808E631
:101B430008F0A3E608F0A315811581D0E0FED0E0EC
:101B5300F8158115811581E8C0E0EEC0E022251853
:101B6300C582C0E0E51934FFC583C0E0E518C3951D
:101B73008224F910AF08858319858218800885832C
:101B830019858218D2AFCEF0A3E520F0A37808E63A
:101B930008F0A3DEFAEFF0A3E58124FBF8E608F0F2
:101BA300A3E608F0A30808E608F0A3E608F0A315E7
:101BB300811581D0E0FED0E0F815811581E8C0E001
:101BC300EEC0E022851983851882E0A3FEE0A3F529
:101BD300207808E0A3F608DFFAE0A3FFE0A3C0E063
:101BE300E0A3C0E0E0A3C0E0E0A3C0E0E0A3C0E066
:101BF30010AF08858218858319800885821885832C
:101C030019D2AFD083D0820201328519838518821D
:101C1300E0A3FEE0A3F5207808E0A3F608DFFAE0EE
:101C2300A3FFE0A3C0E0E0A3C0E0E0A3C0E0E0A323
:101C3300C0E010AF08858218858319800885821853
:101C4300858319D2AFD083D08222C0D02518C58214
:101C5300C0E0E51934FFC583C0E0E518C3958224CD
:101C6300F310AF0885831985821880088583198549
:101C73008218D2AFC8F0A3E9F0A3EAF0A3EBF0A374
:101C83007908E709F0A3D8FAECF0A3EDF0A3EEF09E
:101C9300A3EFF0A3D0E0F0A3D0E0F0A3D0E0F0A353
:101CA300E520F0A3E5F0F0A322851983851882E0EF
:101CB300C0E0A3E0F9A3E0FAA3E0FBA37808E0F611
:101CC30008A3DFFAE0FCA3E0FDA3E0FEA3E0FFA38B
:101CD300E0C0E0A3E0C0E0A3E0F5D0A3E0F520A3DB
:101CE300E0A3F5F010AF0885831985821880088575
:101CF3008319858218D2AFD082D083D0E0F8D0E0A8
:101D03003274048006740280027401C0E0F4041289
:101D13001AB6D0E012198B22740480047402800076
:101D2300CCC0E0EDC0E0E518C39CCCAD1950011D5B
:101D330010AF068C188D1980068C188D19D2AF122E
:101D43001998D0E0FDD0E0FC22D083D082E9C0E036
:101D5300E493A3C386F0C5F095F0F908E493A38652
:101D6300F0C5F095F0700BE493A3C3994005E90423
:101D73008002A3E475F002A42582F582E5F03583A1
:101D8300F583D0E0F9E493A3C0E0E493C0E022D06C
:101D930083D082ECC0E0EDC0E0E493A3FCE493A322
:101DA300FDED4C600D121DDEEC24FFFCED34FFFD58
:101DB30080EFE493A3FCE493A3FDED4C600D121EAE
:101DC3001DEC24FFFCED34FFFD80EFD0E0FDD0E0FF
:101DD300FCE493A3C0E0E493C0E022C0E0C3E49337
:101DE30096087401939618400FE49366700808747C
:101DF3000193661870007019A3A3C3E49396087443
:101E030001939618A3A3400DD0E0D0E0D0E0021DCB
:101E1300CEA3A3A3A3A3A3D0E022C0E0C0F088F085
:101E2300E4936670080874019366187000A8F0A321
:101E3300A3700BD0F0D0E0D0E0D0E0021DCEA3A37E
:101E4300D0F0D0E02274F6121B61EAFEEBFF8C089F
:101E53008D09EE2434F8E43FF9E8FCE9FD121F7B19
:101E6300E0FAEE2437F582E43FF583E0F88508F0E5
:101E7300A4C885F00A8509F0A4250AF9EA28F8E43C
:101E830039F97A257B001219FAEA8C828D83F0FAEC
:101E9300131313541FF8EE28F8E43FF9E8245DF513
:101EA30082E439F583E0C0E074075AF8D0E0B80063
:101EB300028004C313D8FCA2E05003EA8020EE247E
:101EC30036F582E43FF583E0F5F0EA84A8F0EE28E6
:101ED300F8E43FF9E82438F582E439F583E0F97F43
:101EE30003021C0D74F5121B61EAFEEBFFEE2434B2
:101EF300F582E43FF583E0C0E0121F7BD0E0F08E73
:101F0300828F83A3A3A3A3A3E0FAA3E0FB8E828F14
:101F130083A3A3A3A3A3A3A3E0FCA3E0FDECC39A21
:101F2300F50AED9BF50BEE247FF508E43FF50985F3
:101F33000882F583E06401702AEE2480F582E43F91
:101F4300F583121D1F121F857402121A9BE9601379
:101F53007CC67D04EEFAEFFB120DAE85088285097F
:101F630083E4F0AC0AAD0BEEFAEFFB121E48E9F97D
:101F7300122A5D7F04021C0DEE2435F582E43FF541
:101F83008322C082C083851882851983E0F8A3E089
:101F9300F9C3EA9CEB9D5010C3EC98ED99401BC329
:101FA300EA98EB995014800EC3EA98EB994007C363
:101FB300EC98ED994004790180027900D083D082B6
:101FC30022EAC39CFAEB9DFB2274ED121B61900382
:101FD3008CE064086005E06407702C9061C8E060E1
:101FE300269003BAE0F874FF68601CE875F00AA451
:101FF300C8AAF02AF974BC28FE740339FF8E828FB5
:1020030083A3A3A3E070057900022165EE2468F59C
:102013000EE43FF50F906060E0850E82850F83F03C
:10202300751036751105750800750900E5D914F5A5
:102033000AE5D95403F50B601FEE2482F50CE43F47
:10204300F50D7403650B6059E50A6017EE2467F517
:1020530082E43FF583E0700B793DEEFAEFFB120D5E
:10206300DE80A4900531E064016023850C82850D38
:1020730083E060047A0480027A00E50AC39AFA9541
:10208300E0FB120C3A8A088B09EA45097006121024
:102093004202200A850C82850D83E070048A108B2E
:1020A300117A008014E5D9C0E0EAF8E51028F5823A
:1020B300E43511F583D0E0F00AEAC3950A40E685DA
:1020C3000C82850D83E0602874FC250AF50A7810DC
:1020D300121D08AC0AA90BEEFAEFFB120E8C740268
:1020E300121A9BE9700AAA08AB0912152202205B97
:1020F3007403650B6054850A0C750D00780C121D72
:1021030008AC10AD11AA08AB09120E507402121AD2
:102113009B850E82850F83E0F87480687005750CCB
:102123007F8002880CE50CF50D780D121D0C780BE1
:10213300121D0CA90AAC08AD099003BAE0FA7B00A2
:10214300120A727402121A9B801390038CE06408C3
:10215300600BAC10AD11EEFAEFFB120F2212104E12
:1021630079017F0C021C0D74F3121B6174FC121AAB
:1021730085EAFEEBFF8909A2AFE433F508C2AFEEAF
:102183002463F50AE43FF50B8010AA0AAB0B120E89
:10219300081215229004CDE004F0850A82850B8392
:1021A300E0F8A3E0F9E849602DE82402FAE439FBFA
:1021B300EA2402F50CE43BF50D780C121D088A8223
:1021C3008B83E0FCA3E0F9EEFAEFFB120DFC740243
:1021D300121A9BE960B49004CDE0604D9004CEE008
:1021E300F89004CDE0C398500C74026509703A90DE
:1021F30004CFE060348E828F83A3A3A3A3E085186A
:102203008285198312223C7402121AD1E812223CED
:102213009004CCE028F07402121AEBAA18AB1979D7
:1022230001120AC69004CDE4F0E508A2E092AF746F
:1022330004121A9B7F06021C0DF0A3E4F09004CD58
:10224300E0F82200008521878522C622C0E074EBD6
:10225300121C4DA2AFE433F508C2AF759B00906129
:1022630082E0A2E05030E591A2E0502A7591FE741D
:1022730001652170211223E2120F7C1223D0121D5B
:102283001B1228077404121A9BE964017005790173
:10229300120FD6121FCC906182E0A2E5505DE5914A
:1022A300A2E550577591DF90038CE064076005E069
:1022B3006408702F1223E274016521703E120F7CB3
:1022C3001223D0121D1B1228077404121A9BE964EF
:1022D3000170057901120FD67901EEFAEFFB122195
:1022E3006A8018E0640D70139003AEE004F0642874
:1022F3007002E4F07A00E0F9121054906182E0A2D7
:10230300E640030223A5E591A2E640030223A57557
:1023130091BF90038CE064057008120F64120F7074
:102323008003120F6A752100120FE2E990038DF00A
:102333007900120FD6120D187A017B0090038BE0FF
:10234300F91214F2907803E064427056900535E078
:1023530014F0704EC2AF12235C00782AD0E0F61856
:10236300D0E0F6E59F5407F87005750DFF800375FF
:102373000D7FC4C0E07829E6F50A08E6550DF50B94
:10238300740B780A121A63D0E0250AF8906270E0A1
:10239300A2E740F8E8C333906272F0906270E0D233
:1023A300E0F0906181E0A2E35009E5E9A2E3500384
:1023B30075E9F7A3E0A2E75009E591A2E750037599
:1023C300917FE508A2E092AF7F08021CAC8E828F5A
:1023D30083E0F8A3E0C82416F582E438F58322905D
:1023E30003BAE0F875F00AA4C8AAF02AF974BC2865
:1023F300FE740339FF22C0E0C0D0C082C083906165
:1024030083E0A2E05009E5BFA2E0500375BFFEE000
:10241300A2E15009E5BFA2E1500375BFFDE0A2E2CE
:102423005009E5BFA2E2500375BFFBE0A2E35009E8
:10243300E5BFA2E3500375BFF7E0A2E45009E5BF8F
:10244300A2E4500375BFEFE0A2E55009E5BFA2E5A2
:10245300500375BFDFE0A2E65009E5BFA2E65003D3
:1024630075BFBFD083D082D0D0D0E032C0E074F249
:10247300121C4DE5A7A2E4500FE5A1A2E4500953B5
:10248300A7EF75A1EF1224C3E5A7A2E5500CE5A1C0
:10249300A2E5500653A7DF75A1DFE5A7A2E1500926
:1024A300E5A1A2E1500375A1FDE5A7A2E2500CE569
:1024B300A1A2E2500653A7FB75A1FB7F01021CAC4E
:1024C30074F8121B6175210190038CE06406700798
:1024D3007A007B00120F4CA2AFE433FED2AF90031D
:1024E30092E0640170187A207B0090038BE0F9126C
:1024F300160C7A207B0090038BE0F91214F890619C
:1025030082E0D2E6F0900532E0602185C622801693
:10251300900391E064017008E5C654F84405F5C6DC
:1025230053BEFC1222487401652160E4EEA2E092DE
:10253300AF7F01021C0D0000008E238F24858228AB
:10254300858327851882851983E0CEA3E0CF85286C
:1025530082852783EBC9EAC8EDCBECCA75F010C3BB
:10256300E833C8E933C9EA33CAEB33CBC3EA9EF590
:1025730026EB9FF525B35004AB25AA26EC33CCED0F
:1025830033CDD5F0DAAE23AF242274E9121B617484
:10259300FA121A85EAFEEBFF8C088D09120F8EEAF8
:1025A300F8EBF9ECFAEDFB8E828F8312197F90031F
:1025B3008CE024F7C3940550067510010226C4125B
:1025C3000EC28A0A8B0BEA450B70030226C1120F57
:1025D300828A0C8B0D120F82EA650C7003EB650D7A
:1025E30060ECEEFCEFFDAA18AB19120F88850A8286
:1025F300850B83A3A3780C121949908F7E780C1254
:1026030019238518828519837814121949908F7EAE
:102613007814121923780C79141216C9501F780CE8
:1026230079141218FB908F9E780C1216E940478597
:102633000C10850D11850E12850F138045908F9E0A
:102643008514108515118516128517137810790CCA
:102653001218FB78101216E9501C75100075110042
:10266300751200751301781079141218FB7810791C
:102673000C1218C2800C75100175110075120075CB
:102683001300740978101218A3908FAE780C1219E6
:10269300497810790C12178890038CE06408600A5B
:1026A300E064066005E064057020908FA278101244
:1026B30016E95016908FA678101218D5800C751055
:1026C3000075110075120075130085088285098352
:1026D30078101219587406121A9B7F10021C0D747D
:1026E300F7121B61120FA0900530E0640170109087
:1026F3006245E4F0A3F053F4F343FE0C5390F3125A
:102703000F3AE5C654B84441F5C6E59E54476441C3
:1027130070F8906185740FF090052EE0F47002A3B9
:10272300E0602C75080175090090052EE078081209
:102733001A72E508F4FAA3E0600814600A14600C46
:10274300800DEA52808008EA52908003EA52A07911
:10275300007F02021C0D74F7121B61E9FEEAFF748D
:10276300016E700C7A807B0090038BE0F91214F2F7
:10277300902AE4E493F46008E493F9120CFA8009D4
:1027830053C6B8E59E544770FA120F40900530E0E7
:1027930064017003120D3090052EE0F47002A3E083
:1027A300602B75080175090090052EE07808121A50
:1027B30072E508FAA3E0600814600A14600C800D47
:1027C300EA42808008EA42908003EA42A0120EC2E5
:1027D3008A088B09A808A909E8496016E5E170FC95
:1027E300E82414F582E439F583E0F874FF686002A5
:1027F30088E174016F700A7A0190038BE0F9121576
:102803008202275474F1121B618A088B098C0A8D8A
:102813000B908F7E7808121923740F121AD1780C3B
:10282300121949908F7E780C1219237808790C12AB
:1028330016C9908F9E50107808790C1218FB7808EF
:102843001216E94014800E780C79081218FB780CE4
:102853001216E950047901800279007F08021C0DE9
:1028630074ED121B618A088B098C0A8D0B908F7E85
:1028730078081219237413121AD1780C121949907B
:102883008F7E780C121923780C79081216C940111F
:102893007808790C1218FBAA08AB09AC0AAD0B80B7
:1028A30022751000751100751200751301781079E7
:1028B3000C1218FB781079081218C2AA10AB11ACCD
:1028C30012AD137F0C021C0D908F7E7808121949EC
:1028D3008A828B8378081219367F04021C0D74F5E3
:1028E300121B618C828D8378081219498A828B832B
:1028F300780812190F122935C3E098F0A3E0991252
:102903002927401E908FFA78081219498A828B83EF
:1029130078081218E88E828F83E02420F0A3E03435
:102923004EF080A4F08E828F83C3E09420A3E094C2
:102933004E22EA2404F8E43BF9E8FEE9FF8C828D99
:1029430083A3A3A3A3E0F8A3E0F98E828F83227469
:10295300F5121B61E9FE9004E8E0FAA3E0FBEE291F
:10296300F8E433F974D728F582748E39F583E02AB5
:10297300F508A3E03BF5097808121D08908FEA12C9
:10298300196712253C7402121A9B8A088B098C0A58
:102993008D0B7410780812188AAA08AB097F0402F9
:1029A3001C0D74F1121B618A0C8B0D8C0E8D0F7430
:1029B30011121AD1121D1F7411121AD1E02401F53C
:1029C30008A3E03400F509E4F50AF50B780C79085F
:1029D300121708908FB27808121949780C790812E7
:1029E3001708AA0CAB0DAC0EAD0F12253C740212E6
:1029F3001A9B8B09EA450960047A0180027A00EC8C
:102A03002AFCE43DFD7413121AD1E0F8A3E0F9E8BF
:102A1300FEE9FFECF8EDF97A717B021219FA8808E6
:102A23008909E4F50AF50B8E828F83780812195809
:102A3300ECF8EDF97A717B021219FA8A088B0974A2
:102A4300057808121A728E828F83A3A3A3A3E508C5
:102A5300F0A3E509F07F08021C0DC082C083E99052
:102A63006000F0D083D08222C0E074F2121C4DA229
:102A7300AFE433FED2AFE589A2E050031213F07541
:102A83008900C2C5751A00EEA2E092AF7F01021C55
:102A9300ACC0E074F2121C4DA2AFE433FED2AFE53A
:102AA3008BA2E050031213F0758B00C2E880D5C0EF
:102AB300E0C0D0E8C0E0E9C0E0A9A8D2AFC2C775C2
:102AC3001A00E9A2E7E433F8E9A2E792AFD0E0F90C
:102AD300D0E0F8D0D0D0E032C2AF02000022020131
:102AE30032FFFFFFFFFFFFFFFFC082C083E99016A5
:102AF300F0F0D083D08202013274F6121AF5E99015
:102B030002FEF090035EE0F5087509007402780890
:102B1300121A72AA08AB0912156A9002FF1234AF97
:102B23009002FF12389C606F90035EE075F003A47F
:102B3300FAABF012156A90031C1234AF90031C1207
:102B4300389C700B9002FF12386D121570804890FC
:102B5300031C1248017AFF7BFF12135A7A00801973
:102B63008A0875090074027808121A721242A9744D
:102B7300FF122CAFE4F0A3F00A90035EE0F8EAC37F
:102B83009840DD790512095E9002FEE0F912084AC9
:102B93007AE87B09120BDA02434C74F4121AF58AB1
:102BA300088B09EB548060479002FEE0F91214DAB7
:102BB3008A0A8B0BAE0AAF0BEE4F602A8E828F838D
:102BC300E064B0701A120970E960148E828F83A3D7
:102BD300A3A3A3E0F9EE2405FAE43FFB120940EEB8
:102BE300FAEFFB1214C8AA08E5096480FB80047A93
:102BF300007B00022DFF74F2121AF574FB121A8582
:102C0300EAFEEBFFEE4F60457403121AD1EEF0A318
:102C1300EFF0851882851983ECF0A3EDF0740212AE
:102C23001AD1E9F0AA18AB19120844E9F50870752E
:102C33007413121AD1E0F50AA3E0F50BE50A450B6C
:102C430060638E828F83123238EE4F7005750802EF
:102C530080537A067B0012156A8A0C8B0DA80CA987
:102C63000DE8497005750813803B88828983E41257
:102C73002CAFEEF0A3EF122DCBE50AF0A3E50BF09A
:102C8300900302122DC49003026017E0FCA3E080BE
:102C930003EAFCEBFD8C828D83122DC470F38C82CE
:102CA3008D83123EC4A9087405024A81F0A312471A
:102CB300E3A32274F2121AF58908890C750D0074C6
:102CC30003780C121A72850C0A850D0B900301F020
:102CD3009002FF123CCF122DC2602E1215707900A4
:102CE300801D890C750D007402780C121A72900203
:102CF300FF1241688882F583A3A3E4F0A3F009904F
:102D0300035EE0F8E9C39840D990035EE0FA850AD0
:102D1300F0A4CAA8F0850BF0A428FB12156A8A0C4C
:102D23008B0DAE0CAF0DEE4F7003022DB890035E0A
:102D3300E0FC850AF0A4CCA8F0850BF0A428FD796B
:102D4300001214B67C0080318D0C750D007403786D
:102D53000C121A728A828B83122DBD88828983E4B6
:102D6300F0122DCAA3A3F0A3F00DEDC3950840D82C
:102D7300EE250AFEEF350BFF0C90035EE0F8ECC383
:102D83009850288C0C750D007402780C121A7290EE
:102D930002FF122DBDE82402500109FAE9FB8A82E1
:102DA3008B83EEF0A3EFF07D0080BFE50890030175
:102DB300F0790080027913024A8412416CF922A34C
:102DC300A3123871EA4B22A31247E3A3A3A32274ED
:102DD300F4121AF57900EAA2E0501F75084075094C
:102DE3008F7808121D0879107C047D007AF27B1617
:102DF3001209587402121A9BE9F980007F04021B1E
:102E0300C7C082C08390030212389C601C888289E9
:102E130083A3A3E06A7003A3E06B8882898370E8CD
:102E2300A3A3A3A312386D80047A007B00022AF5C2
:102E330074F2121AF574FD121A85EAFEEBFF851877
:102E430082851983E4F0A3F07402121AD17401F09D
:102E53001238997014120B1412156A900305123468
:102E6300AF1238997003022FC51235AFEE2404F563
:102E73000AE43FF50B850A82F583E024FE603C24D7
:102E8300FC607424FE607E24FE7003022F1524FE72
:102E93007003022F2224FE7003022F2F24FE7003DF
:102EA300022F3C24FE7003022F4924FC7003022FDF
:102EB3006A24FE7003022F82022FBE120B149003AA
:102EC30007EAF0A3EB122FD112058CE96003022F5E
:102ED300BE900307121D1F8E828F83A3A3A3A3A3F8
:102EE30012480185088285098312386D12092874F6
:102EF30002121A9B022FBEAC18AD19EEFAEFFB12A9
:102F03000976022F8DAC18AD19EEFAEFFB12097C8E
:102F13008078AC18AD19EEFAEFFB120982806BAC26
:102F230018AD19EEFAEFFB120988805EAC18AD19E3
:102F3300EEFAEFFB12098E8051AC18AD19EEFAEFE1
:102F4300FB12099480447402121ADB880C890D78F1
:102F53000C121D087402121AEBEEFAEFFB12099A17
:102F63007402121A9B8023AC18AD19EEFAEFFB1210
:102F730009A0E9F870167402121AD1E4F0803CAC8F
:102F830018AD19EEFAEFFB1209A6E9F8E8602C8EEA
:102F9300828F83A3E064146022850A82850B83E019
:102FA300900307F085188285198312386D90030802
:102FB3001234AFE8A3122FD1120586EEFAEFFB12FB
:102FC30008FE7402121AD1E0F97403024A81F07CFC
:102FD300077D038508828509831238712274E812FC
:102FE3001AF574FA121A857404121AD1ECF0A3EDCF
:102FF300F08A128B13EA2405F50EE43513F50FEA74
:103003002402F510E43513F511851082F583123887
:103013006D12067C8A0A8B0B7508007C037D007990
:10302300007A077B031214B6E50E2402F516E43585
:103033000FF5177402121ADB880C890D780C121D18
:1030430008850E82850F83A3A3A3A3E0F50C750D5A
:1030530000780C121D08E50E2405F50CE4350FF578
:103063000D780C121D08851682851783123B741286
:1030730008627406121A9B8A0C8B0DE50C450D70C1
:10308300030232018020851882851983E0888289B2
:1030930083F00508851882851983A3E0C0E0123206
:1030A30042D0E0F00508E50A24FBFAE50B34FFFB08
:1030B300C3E5089AE49B40030232017E007F00854A
:1030C3001282851383A3A3A3A3E0F5097809121D34
:1030D3000CE4F514F5157814121D08751404751510
:1030E300037814121D08900305121D1F7409121A88
:1030F300D1121D1FE50A24F9F9AC0CAD0D85108220
:1031030085118312386D1209D07409121A9BE96074
:10311300030231A2850E82850F83A3A3A3A3A3A3D6
:10312300A3E0F8900304E0687075E0F5148E157859
:1031330014121D081247FE850E82850F83A3A3A3D5
:10314300A3A3A3A3A312386D1214B07402121A9B83
:10315300E9604C90030812389C703BE4F514781432
:10316300121D087CFF7DFF7907851082851183126C
:10317300386D12093A7402121A9B1238A27017851D
:103183000E82850F8312499B7404121AD112425C7A
:10319300123BA5023235850C82850D83123238A885
:1031A30018A919881489157814121D087404121AA1
:1031B300D1121D1F8516828517831234A512086E3E
:1031C3007404121A9B8A0C8B0DEE4F700302307E2F
:1031D300123242EE12324D123B5BEF12324DF8A324
:1031E300E03400F9E50C450D6003023089888289DB
:1031F3008374FFF0050812324274FFF00508E508F6
:10320300601A1313543F1234B5120598E9600990FC
:10321300030812386D12152279008016850E8285F7
:103223000F8312499B7404121AD112425C123EC4DA
:10323300790A023B2EA3A3A3A3E0FEA3E0FF22A8E7
:1032430008900308E028123B5B22F005080890036E
:1032530008E0282274E8121AF574FA121A85740227
:10326300121AD11234AF7404121AD1ECF0A3EDF098
:103273007402121AD1E02405123B44E0F50CA3E0DA
:10328300F50D7402121AD1E02402F510A3E0340004
:10329300F511851082F58312386D12067C750800CE
:1032A300750900EA24FCFEEB34FFFF8008050CE5FA
:1032B3000C7002050DA808C3EE98EF9400500302AA
:1032C3003461A818A919880E890F780E121D088574
:1032D3001482851583A3A3A3A3124805121D08E531
:1032E300142405F50EE43515F50F780E121D088527
:1032F30014828515831234A31208627406121A9B72
:103303008A0E8B0FEA450F7003023461EA2404F539
:1033130016E4350FF517851682F583E0F50CA3E067
:10332300F50D8518828519831248018A828B83A340
:10333300A3A3E0F985108285118312386D1208501A
:10334300E9F50960030234617402121AD1123B6B6E
:10335300F5097809121D0CE4F512F5137812121D04
:10336300087512047513037812121D0890030512D1
:103373001D1F7407121AD1121D1FEEF9AC0EAD0FEB
:1033830085108285118312386D1209D07409121ABF
:103393009BE9F5096003023461E508703FE4F50E2B
:1033A300F50F780E121D087CFF7DFF7909851082C9
:1033B30085118312386D12093A7402121A9B123B5B
:1033C30091700D7404121AD1123498791102349544
:1033D300900304E02402900308F08014900308E0B3
:1033E300FA900304E0790024025001096A497072DB
:1033F300A808900304E0FAE82AFAE43400FBEE9A02
:10340300EF9B405A851682851783E0C0E09003093D
:10341300123247D0E0F00508851682851783A3E0B2
:10342300C0E008900309123247D0E0F0050890038A
:1034330004124805121D081247FEA808123B381251
:10344300149E7402121A9B900304E02508F5087475
:10345300FF650C700474FF650D60030232B0E5086C
:10346300601F900308E0F5F0E508841234B51205F7
:103473009EE9600990030912386D121522790080C4
:1034830011E509700375090A7404121AD1123498EC
:10349300A909023B2E123CD3E50CF0A3E50DF02263
:1034A300A3A3124A90AA0CAB0D22A3A3EAF0A3EBA9
:1034B300F022900307F07C077D038510828511833A
:1034C3001238712274EC121AF574FC121A85123F29
:1034D300D47402121AEB1238671208688A0C8B0D27
:1034E300EA450D700302359F1235AFA818A9198854
:1034F3001089117810121D087CFF7DFF790B850858
:103503008285098312386D12093A7402121A9B12CA
:1035130036A5700C850A82850B83123BA20235AC5B
:103523008E828F83A3A3A3A3E0F5127812121D0C3E
:10353300E4F512F5137812121D08751207751303BB
:103543007812121D087810121D087409121AD1126C
:103553001D1F7409121AD1E0F9AC0CAD0D85088258
:1035630085098312386D1209D07409121A9BE9FE7A
:1035730070157C077D0385088285098312386D12D7
:1035830005A4E97009802074166E70027E00900312
:103593000812386D121522EE7004800B7E01850A25
:1035A30082850B83123EC1EEF9023ED6EE2402F56C
:1035B30008E43FF5092274EC121AF574FC121A851B
:1035C300EAFEEBFF8C0E8D0FEE2405F508E43FF5C4
:1035D300097402121AEB85088285098312386D1269
:1035E30008688A0C8B0DEA450D7003023695EE24AC
:1035F30002F50AE43FF50BA818A919881089117878
:1036030010121D087CFF7DFF790D12386712093AED
:103613007402121A9B1236A5700B850882850983E2
:10362300123BA2807A8E828F83A3A3A3A3E0F51219
:103633007812121D0C850882850983A3A3121D1F0E
:103643007512077513037812121D087810121D08DE
:103653007409121AD1121D1F7409121AD1E0F9123A
:1036630038631209D07409121A9BE9FE700F7C07A4
:103673007D031238671205AAE97009802074166E5B
:1036830070027E0090030812386D121522EE70044A
:10369300800B7E01850882850983123EC1EEF90203
:1036A3003ED61238ACF510A3E0F511EA45112274A9
:1036B300E8121AF574FE121A858A168B178C148D6C
:1036C30015EA2405F50CE43517F50DEA2402F50E89
:1036D300E43517F50F850E82F58312386D12067CDB
:1036E3008A088B09750B007C037D0079007A077BC0
:1036F300031214B6750A00E50814F5100424FFF547
:1037030008E50934FFF5098054900307E0FA9003B4
:1037130004E0F8EA28F8E43400F9E50898E50999A3
:10372300500D900307E0F8E510C398900304F0E010
:10373300F5127513007812121D081247FE90030844
:10374300E02AFAA3E03400FB12149E7402121A9BBF
:10375300900304E0F8900307E028F0050A850C8243
:10376300850D83A3A31241784003023848900307D1
:10377300E0C39508E495094003023848AE0AEE2EEB
:10378300FEE433FF123887AC18AD19124819E43937
:10379300FB1208688A128B13AC12AD13EC4D701B2D
:1037A300750B01123877123EC5900308122DC460C1
:1037B30003121522A90B7402023B3085168285176A
:1037C30083A3A3A3A3E0F50B780B121D0CE4F5125E
:1037D300F5137812121D087512047513037812126B
:1037E3001D08900305121D1F7407121AD1121D1F05
:1037F300A910850E82850F8312386D1209D07409C2
:10380300121A9BE9F50B709B90030812389C600316
:1038130002370CE4F512F5137812121D087CFF7DB4
:10382300FF790F850E82850F8312386D12093A7462
:1038330002121A9B1238A2600302370C1238771255
:103843003BA60237B97C077D03850E82850F831261
:10385300386D1205B0E960030237AC79000237B95D
:10386300AC0CAD0D850A82850B8312387122E0FA08
:10387300A3E0FB22123887E0FAA3E0F9EA85148279
:1038830085158322850C82850D83E02EF8A3E03F06
:10389300F9888289832290030512499FE8492212FD
:1038A30038ACF8A3E0F9E84922900308EAF0A3EB67
:1038B300F0900308E02274E8121AF574FA121A85DC
:1038C3007404121AD11234AF8C168D177404121AA1
:1038D300D1E02405F50EA3E03400F50F7404121AA9
:1038E300D1E02402123B4412386D12067C8A0A8B03
:1038F3000B7F007E00A818A9198808890978081287
:103903001D08850E82850F83A3A3A3A3E0F5088E6C
:10391300097808121D08E50E2405F508E4350FF5AE
:10392300097808121D08850E82850F83A3A3123B15
:10393300741208627406121A9B8A0C8B0D8029126A
:103943003B65F00F123B65F00F900304123EB0127B
:103953001D081247FEEFF8123B3812149E74021230
:103963001A9B900304E02FFFE50C450D7003023909
:10397300F4851882851983123FE6A3A3A3E0F98592
:10398300148285158312386D120850E9FEE50C2464
:1039930004F510E4350DF511EE70507404121AD1CC
:1039A300123B6BF5087808121D0CE4F508F509784D
:1039B30008121D087508047509037808121D08907C
:1039C3000305121D1F7407121AD1121D1FE50A24C5
:1039D300FAF9AC0CAD0D85148285158312386D127E
:1039E30009D07409121A9BE9FE6039123B81123E19
:1039F300C4EF7003023B1B900308E0F5F0EF8490E3
:103A03000307F07C077D0385148285158312386DC7
:103A13001205B6E9600990030912386D121522796F
:103A230000023B2E8F08EF703BE4F512F51378127A
:103A3300121D087CFF7DFF79118514828515831281
:103A4300386D12093A7402121A9B123B91700912D3
:103A53003B81123BA5023B2E900304E02404900318
:103A630008F08035900304E0F8900308E0FAE824B6
:103A730004FCE43400FDEC6A4D60030239FAE50A04
:103A830024FAFAE50B34FFFBE50828F8E43400F9DF
:103A9300EA98EB9950030239FA851082851183E085
:103AA300C0E0900309E02FF8A3E034008882F58397
:103AB300D0E0F00F851082851183A3E0C0E0123BB4
:103AC30052D0E0F00F7402121ADB880889097808D3
:103AD300121D087402121AD1121D1F850E82850F42
:103AE300831234A312086E7404121A9B8A0C8B0D72
:103AF300EA450D70030239427402121AD1E0C0E0A4
:103B0300123B52D0E0F00F7402121AD1A3E0C0E0CE
:103B1300123B52D0E002394AEE70027E0A850E82D1
:103B2300850F83123B87123EC4EEF97406121A9B6B
:103B33007F10021BC7900309E028FAA3E03400FBBF
:103B430022F514A3E03400F515851482F5832212BF
:103B53003B5622900309E02FFAA3E034008A82F552
:103B63008322123B5674FF22123CD3A3A3A3A3E0E8
:103B730022124A90850E82850F8312387122851096
:103B83008285118312499F851682851783229003AC
:103B930009EAF0A3EBF090030912499FE8492212C6
:103BA3003ECAE8F0A3E9F079112274EA121AF57417
:103BB300FE121A858A088B098C128D13EA2405FEDE
:103BC300E43509FFAC18AD198E828F8312386D125C
:103BD30008688A0C8B0DEE2406F50EE43FF50FEA18
:103BE300450D7003023CA5E5082402F50AE43509F6
:103BF300F50B8A828B83A3A3A3E0A2E55028851843
:103C03008285198312386D1209C48A108B11EA4513
:103C13001160207912123863851082851183121A7C
:103C2300F3E9F50C707F850E82850F83E0600979D7
:103C3300528011750C0E806D850882850983A3A3BC
:103C4300A3A3E0F9E4F508F5097808121D088E82AC
:103C53008F83A3A3E0F5087808121D088E828F8353
:103C6300A3A3A3121D1F8E828F83124801123867EC
:103C73001209D67406121A9BE9F50C7011850E828F
:103C8300850F83E0702D1238671205BC80257416EA
:103C9300650C7011750C007418121AD1123CCFE424
:103CA3008010750C01124997851282851383E8F001
:103CB300A3E9F0850E82850F83E06004790080021A
:103CC300A90C7402121A9B7F0E021BC7123CD3224B
:103CD300E0F8A3E0F58388822274EC121AF574F7F6
:103CE300121A858A0A8B0B8C108D11EA2405FEE4C7
:103CF300350BFF750C00AC18AD198E828F8312380B
:103D03006D1208688A088B09EA45097003023E9B15
:103D1300E50A2402F50A5002050B8A828B83A3A3CA
:103D2300A3E0A2E5502F85188285198312386D12FE
:103D330009C48A0C8B0DEA450D604F7912AC08ADAE
:103D430009123867850C82850D83121AF3E9F50C85
:103D53006003023E9E850A82850B83E0F508A3E09B
:103D6300F509AA08FB1209B8EA4B70197AFF7BFF21
:103D73001209B8EA4B7003023E918A828B83E508ED
:103D8300F0A3E509F07508008008750C0E023E9E4D
:103D93000508900301E0F8E508C3984003023E914B
:103DA30085080E750F007403780E121A728A828BBF
:103DB30083A3A3E0250EF8A3E0350F12426570D06C
:103DC3008E828F83123EB91234AF8E828F83A3A368
:103DD300123EB91234ADEE2404F508E43FF509852B
:103DE3000882F583E088828983A3A3A3A3F0A3E4D5
:103DF300F0EE2405F50EE43FF50F850E82F58312F0
:103E03003EB9A3A3A3A31234AD75120775130078AB
:103E130012121D08EEFCEFFD7404121AE312149E35
:103E23007402121A9BE4F5127812121D0885088297
:103E3300850983E0FC7D00791712386712093A740B
:103E430002121A9B7407121AD11234AF7407121A92
:103E5300D1E0FA4B603D850882850983123EB0129A
:103E63001D08850E82850F8312480112149E740269
:103E7300121A9B7402121AEB1238671205C2E96018
:103E8300267407121AD112386D1215228019750C77
:103E9300098008750C118003750C01124997851070
:103EA30082851183123EC4A90C74098028E0F508A9
:103EB3007509007808221238718882898322123E9C
:103EC300CAE8F0A3E9F022E0F8A3E0F9850E8285C1
:103ED3000F83227404121A9B7F0C021BC774EC120B
:103EE3001AF5123FD4751000EE2402F50CE43FF5E9
:103EF3000D850C82F58312386D1209B88A088B0977
:103F0300EA45097003023FB8850A82850B83E064A2
:103F1300016003023FADAC08AD09AA0AAB0B12095D
:103F2300ACE9606E85088285098312323AEE240675
:103F3300F50AE43FF50B8E828F83A3A3121D1F8E18
:103F4300828F83A3A3A3A3121D1F850A82850B83DC
:103F5300121D1F79188E828F83123FE612386D125D
:103F630009D67406121A9BE9F8741668700B850A51
:103F730082850B83E4F0A38014E860128E828F8322
:103F830012386D850E82850F83EAF0A3EBF088105B
:103F93008018780E121D08AC08AD09EEFAEFFB127B
:103FA30009B27402121A9BE9F510AA08AB091209A7
:103FB300BEE510700E850C82850D8312386D1205D7
:103FC300C88009741665107003751000A910023EAD
:103FD300DBEAFEEBFF8C0E8D0FEE2405F50AE43FC2
:103FE300F50B22124A90850C82850D832274EA1206
:103FF3001AF57508007509007E007F00750A00EC4C
:104003002402F510E43DF5118035EC65087003EDED
:10401300650960030240A588828983A3A3E06A70CF
:1040230003A3E06B707C88828983A3A3A3A31249B3
:104033009BEE28FEEF39FFEA28FAEB39FB050A125B
:104043004175503A850A0C750D007403780C121AE9
:1040530072851082851183124168124265601FE5E3
:1040630008450970A58C088D098882898312323826
:1040730088828983A3A3E02EFAA3E03F80BEE50AEA
:10408300C394025003024163750800750900EE4FA3
:104093006010EEFAEFFB12151C8A0E8B0FEA450F28
:1040A30070057900024165750B00024138850B0CE0
:1040B300750D007403780C121A72851082851183B2
:1040C300E0250CF50CA3E0350DF50DE50C2406F504
:1040D30014E4350DF515851482F58312426A6042A6
:1040E300E50C2404F512E4350DF513851282F583EE
:1040F300121D1FE50E2508FAE50F3509FB12149E64
:104103007402121A9B851282851383E02508F50831
:10411300A3E03509F50985148285158312386D12DC
:104123001522E50B600D7C087D007900AA0CAB0D10
:104133001214B6050BE50BC3950A50030240B08574
:10414300108285118312499B88828983A3A3A3A329
:10415300A3A3E50EF0A3E50F122DCBEEF0A3EFF032
:104163007901023CCA12416C22E0250CF8A3E03528
:104173000D22900301E0F8E50AC3982274F0121AA5
:10418300F58A0E8B0F8C0A8D0B750D00750C008054
:10419300507916EE2406F508E43FF5098E828F83E5
:1041A300A3A3121D1F8E828F83A3A3A3A3121D1F7C
:1041B300850882850983121D1F850E82850F83A3BF
:1041C300A312386D1209D67406121A9BE9F50D7401
:1041D30016650D706C850882850983E4F0A3F005EC
:1041E3000C900301E0F8E50CC3985066AA0C8A080A
:1041F30075090074037808121A72850A82850B8385
:10420300A3A31242B4E8FEE9FF8E828F8312426AAF
:104213006040EA2401F508E43400F509900301E065
:1042230065087002E509601488828983A3A3A3A3A8
:10423300A3A3A3A312389C600302419479180241FB
:1042430096E9609B1249977410121AD112425C12BC
:104253003EC4A90D7F08021BC7E0FAA3E0F5838AD9
:104263008222F988828983124A90EC4D2274F612D5
:104273001AF57C0080010C90035EE0F8ECC39850C3
:104283001E8C0875090074027808121A721242A96A
:10429300E06A7003A3E06B70DDE8FAE9FB80047A5F
:1042A300007B0002434C9002FF1242B48882898350
:1042B30022E02508F8A3E03509F92274F2121AF571
:1042C3008A088B09750A0080278E828F83A3A3A394
:1042D300A3122DC260031215227C087D007900EE23
:1042E300FAEFFB1214B68E828F83E4F0A3F0050A73
:1042F3001241755027850A0C750D007403780C1252
:104303001A72850882850983A3A3E0250CFEA3E026
:10431300350DFF8E828F8312389C70AD85088285A0
:10432300098374FFF0A3F0024A8474F6121AF5129B
:10433300096A8A828B83E582458370067A007B0053
:104343008007A3A3A3A312386D7F02021BC774F4D3
:10435300121AF589088C828D83E06402703C12493D
:104363003AFEA3E0F9EEF8740268700374296970E9
:1043730029750A02750B00780A121D087410121AA7
:10438300D1121D1F7410121AD1121D1FA908121366
:104393006C7406121A9BE9F980027901022DFF74ED
:1043A300E8121AF574FB121A85E9851882851983B8
:1043B300F08A168B17ECFEEDFF7510008E828F834B
:1043C300A3A3A3E0A2E4502D741D121AD112386DD9
:1043D3001209C48A828B83E582458370030247D91D
:1043E300790AEEFCEFFDAA16AB17121AF3E9F510E2
:1043F30060030247DC741F121AD1E0F508A3E0F54D
:10440300097421121AD1E0F50AA3E0F50B74231203
:104413001AD1E0F50EA3E0F50F8E828F83E06402DC
:10442300600302477AA312499B850882850983A307
:10443300858212858313EE2406F50CE43FF50D887F
:10444300828983124819F514E439F5157814121D7D
:10445300920100002801287C4407000228414503FB
:1044630028AF440029704601299B4602293C460394
:10447300297046042914477A47E50E450F60030265
:104483004775850C82850D8312499BE8FAE9FB8AFF
:10449300828B83E0850A82850B83124824121D08D0
:1044A3008A828B83A3E0FCA3E00246FEE50E450F60
:1044B3006003024775850A82850B837401F01248F5
:1044C3000E850882850983F07C007D008E828F83B0
:1044D300A3A3A3A3E02401FAA3E03400FB1208681A
:1044E300EA4B60408A828B83E02402F8850A828546
:1044F3000B83E028F0EA2404F8E43BF988828983FB
:10450300E0851282851383124832124824121D0853
:104513008A828B83A3124801E5082403FAE4350950
:10452300FB024703850A82850B83E02404F07C04A5
:104533007D007900AA12AB131214B60247DCE50E14
:10454300450F600302477512480EFEA3E0FF850A7C
:1045530082850B837404F0EE850882850983F0EF6E
:10456300851282851383F07403121AEBEEFAEFFBC4
:104573001208688A0C8B0DEA450D700302461F8AE8
:10458300828B83A3A31232387401121ADB880E893B
:104593000F780E121D087405121AD1121D1F7CFF0D
:1045A3007DFF12086E7404121A9B8B0FEA450F707D
:1045B30033850C82850D83124805121D08850C82F4
:1045C300850D83A3121D1F7C027D007A377B901219
:1045D300066A7404121A9BE9700A7401121AD174E0
:1045E300FFF0A3F08E828F83E064027039750C02B2
:1045F300750D00780C121D088E828F83A31248015B
:10460300E5082404FAE43509FB12149E7402121A15
:104613009B850A82850B83E0240280097401121AA8
:10462300D1EEF0A3EFF07401121AD11247F3740123
:10463300121AD11247EA02476FE50E450F600302D3
:104643004775850C82850D83124A89AA16AB17120A
:104653001372850A82850B837402F08508828509AB
:1046630083EAF0851282851383EB024772E50E45D8
:104673000F600302477512480EF8A3E0F9850A821A
:10468300850B837402F0E8850882850983F0E98548
:104693001282851383024772850C82850D8312383B
:1046A3006D121498EAFAF8C3950EE4950F405CE88E
:1046B300650E450F70047A00802185188285198361
:1046C300E0FCE50E2CFCE4350FFDC3EC98ED940003
:1046D3005003E08005E50ECAC39AFAEA850A82858B
:1046E3000B83F08A0A750B00780A121D08850C8269
:1046F300850D83E0250EFCA3E0350FFDAA08AB0969
:1047030012149E7402121A9B0247DC7510070247AB
:10471300DCE50E450F705B850C82850D8312499B8A
:10472300850A82850B837407F0888289831247EB9D
:104733001247E3E0851282851383F0E82402FAE44A
:1047430039FB8A828B831247F38A828B831247EA6F
:10475300A3A3122DCA1247F8F0E82405F850010963
:10476300888289831247F8A3124832A3A3A3A3F034
:10477300806775100B8062741D121AD112386D1286
:10478300096A8A828B83E5824583604A12499B8842
:104793000C890DE8450D603E7425121AD1E0F51021
:1047A3007810121D0C780E121D08780A121D087855
:1047B30008121D087407121AD1E0F9EEFCEFFDAAE6
:1047C30016AB17850C82850D83121AF37407121A20
:1047D3009BE9F510800375100EA9107405023B3098
:1047E300F088828983A322A3E08508828509832236
:1047F300124839F022124839A3A322900305124A22
:104803009022E0F50E750F00780E22850C82850D3F
:1048130083123CD3E022E0FAA3E0F8E4C8F9EA28E3
:1048230022F08A828B83E0F50A750B00780A221244
:1048330047E312483922E0850882850983A3A3222E
:1048430074EE121AF574FE121A858A088B09ECFEAF
:10485300EDFF890AAC18AD19EEFAEFFB1208688A6E
:104863000C8B0DEA450D700302492B8518828519BF
:104873008312386D12096A8A828B83E582458370BD
:1048830003024926A3A312499B880E890FE8450F0B
:1048930070030249267414121AD1E0F510A3E0F54F
:1048A30011E50AF50B780B121D0C7419121AD112AB
:1048B3001D1F7810121D08741B121AD1E0F9AC0CDD
:1048C300AD0DAA08AB09850E82850F83121AF37406
:1048D30005121A9BE9F50B705274FE650A604C854C
:1048E3000C82850D83E06402704112493AFAA3E019
:1048F300F9EAF87402687003742969702E851082CE
:10490300851183124819F50CE439F50D780C121D45
:1049130008EEFCEFFDAA08AB091209EE7402121AA5
:104923009B8008750B0E8003750B01A90B74021293
:104933001A9B7F0A021BC7A312499F88828983E0BF
:104943002274F6121AF574FE121A85740C121AD117
:1049530012499BE8851882851983F07401121AD1D4
:10496300E9F0E4F508F5097808121D0875080278DE
:1049730008121D087404121ADB88088909780812C2
:104983001D0879FE1209D67406121A9B7402121AB4
:104993009B02434C8E828F8312499F22E0F8A3E04F
:1049A300F92274F7121AF5EAFEEBFF890890031C4B
:1049B300124801121372EA5402600BA908EEFAEFCF
:1049C300FB12085C800279017F01021BC774F2129B
:1049D3001AF574FE121A85EAFEEBFF890A74016563
:1049E3000A60147402650A6003024A7F7901120B9C
:1049F300F8E96003024A7FEEFAEFFB1209B8EA4BCB
:104A030060031209BEA818A9198808890978081231
:104A13001D087508027509007808121D087508231A
:104A23007509907808121D087CFF7DFF7A017B00D1
:104A33001208627406121A9B8038850882850983DE
:104A4300A3A3A3A3A3A3124A89EEFAEFFB12135A5B
:104A5300E4F50CF50D780C121D087402121AD1122C
:104A63001D1F7CFF7DFFAA08AB0912086E74041298
:104A73001A9B8A088B09E508450970BE7402121A4D
:104A83009B7F06021BC7123CD3124A9022E0FCA371
:104A9300E0FD2274F4121AF58A088B09ECFEEDFF8F
:104AA3009016F0E0F4604B7A097B001214C2EA4BD3
:104AB30060408A828B8374B1F0A3E4124AF8F08ACF
:104AC300828B83A3A3E508F0A3E509124AF8A3EEBA
:104AD300F0A3EFF0740C121AD112499B8A828B83D4
:104AE300A3A3A3A3A3A3A3123EC49016F0E0F912B9
:104AF30014CE022DFFF08A828B83A3A3A3A3227477
:104B0300F0121AF574FA121A858909ECFEEDFF7595
:104B130008008A0A8B0B780A121D4C000410284DDA
:104B2300454B634B7D4B954BB34BCB4BEE4B064CFD
:104B33001A4C444CBF4CD04CE74C024D284D284DE9
:104B43005A4C740165096003024D238E828F83E002
:104B5300F8C394034003024D23E89017DC024CFF93
:104B6300740265096003024D238E828F8312548B76
:104B73009017DDE8F0A3E9024CFF740165096003B7
:104B8300024D23124D554003024D23E89007430283
:104B93004CFF740165096003024D238E828F83E00D
:104BA300F8C394054003024D23E8900744024CFFE9
:104BB300740165096003024D23124D554003024DF4
:104BC30023E8900745024CFF741065096003024D0A
:104BD30023750A10750B00780A121D087A467B07A5
:104BE30012149E7402121A9B024D497401650960E6
:104BF30003024D23124D554003024D23E8900756FF
:104C0300024CFF740165096003024D238E828F837A
:104C1300E09017E0024CFF740465096003024D2322
:104C23008E828F83780C121949908FEA780C1216B2
:104C3300E95003024D23900758780C121958024D7E
:104C430049E96003024D23120802E9700512131E9D
:104C530080559007EB8061740765096003024D235B
:104C6300750A06750B00780A121D088E828F83A3BE
:104C7300AC82AD837402121AE31214A47402121AE2
:104C83009B7C007D00AA18AB198E828F83E0F912FA
:104C930012CAE9FEC3940A4003024D46120802E910
:104CA300700CEEF912132479501215E2806D74EC36
:104CB3002EF582E43407F58374018040740165099D
:104CC300705E124D555059E8900757802F74016557
:104CD30009704D8E828F83E0F8C3940A5042E890A6
:104CE30017DF80187401650970368E828F83E0F8B0
:104CF30074F928C3940A5028E89017E1F0804774A8
:104D0300016509701B9007EAE0F88E828F83E090BB
:104D130007EAF0E87030E06401702B12131280266A
:104D23007508188021C3EA9427EB94005015740288
:104D33006509700F8E828F83125F50120682E9F528
:104D4300088003750802A9087406121A9B7F0802DB
:104D53001BC78E828F83E0F8C3940222A9088003C5
:104D6300121A9B7F04021BC774F0121AF574B11256
:104D73001A858C0A8D0B908F4C7420121AEB7406D3
:104D83001219987420121AEB1212CAE9FF745F12F7
:104D93001AD1E0F509EFC3940A4003024EED75F012
:104DA30006EFA4F5087441121AEB7A0E7420250855
:104DB300F91215DCE97009744D121AD1E0FE800274
:104DC3007E009017DCE064027005750E01800375A8
:104DD3000E0074086509700474228002742125088A
:104DE300F50D7C1B7D0079007426121AE31214B6AC
:104DF3007426121AEB7A1BA90D1215DCE9702D74B7
:104E030040121AD1E024F9C3940A5020E50EF50D9F
:104E1300780D121D0C7427121AEBEEA2E0E433F99D
:104E2300AA0AAB0B1207247401121A9B7C147D008F
:104E33007900740C121AE31214B6740C121AEB7A7A
:104E43001074242508F91215DCE970347C1079FFFD
:104E5300740C121AE3121516E97025741C121AD178
:104E6300AC82AD837A0474252508F91215DC740C21
:104E7300121AEBEEA2E0E433F9AA0AAB0B12070C09
:104E8300AC18AD197A0C74702FF91215DCE970495E
:104E9300AA18AB191212FA7F00EF75F003A4F8A950
:104EA300F0851882851983E58228F8E58312563F39
:104EB300125820601D88828983A3A3E0F50E750F25
:104EC30000780E121D08AA0AAB0B1209DC74021239
:104ED3001A9B0FEFC3940440C0EEA2E1500C90075D
:104EE30042E0F9AA0AAB0B1209E2740465097028BF
:104EF3009017DCE0640270207800900756E06002AF
:104F03007801900743E060057404488001E8FEEEF1
:104F1300F9AA0AAB0B1207D87900744F024D4D74EE
:104F2300F7121AF5120802E9704F9007EBE06401DB
:104F3300701512131E9007EBE4F07C0AFDF97AEC6E
:104F43007B071214B6802A750800A80874EC28FEA3
:104F5300E43407FF8E828F83E06401700BA908128B
:104F630013248E828F83E4F00508E508C3940A4076
:104F7300D979501215E212131202595874F0121A09
:104F8300F574F0121A85EAFEEBFF8C088D09750A99
:104F93000AE9600C14600914603B14607D025075CB
:104FA30012130CE9F50AC3940A4003025075E5088D
:104FB30045097003025075750C06750D00780C12C7
:104FC3001D08EEFCEFFDAA08AB0912149E74021231
:104FD3001A9B025075750C00750E06750F00780E3E
:104FE300121D08EEFCEFFDE50C75F00EA4F8A9F018
:104FF300746428FA740739FB1214B07402121A9BF2
:10500300E9700B050CE50CC3940A506680CA850C45
:105013000AE50AC3940A505A8049750C00AC18ADCE
:10502300197A1075F006E50CA42423F91215DCE9AE
:10503300701C7C1079FFAA18AB19121516E9700EB3
:10504300EEFCEFFDAA18AB191206E8E9600B050C9C
:10505300E50CC3940A501B80C4850C0AE50AC3946B
:105063000A500FE50845096009AA08AB09A90A1205
:105073001306A90A7410024D4D74F4121AF5890926
:1050830075081574FF6A700374FF6B70277E00AC9C
:10509300097A027B00EEF91212E8E9600375080051
:1050A3000EEEC3940A40E8E50960537A367B131287
:1050B3000C1C804A120BEC8A0A8B0BAE0AAF0BEE68
:1050C3004F60387C007D00EE2405FAE43FFB8E82BE
:1050D3008F83A3A3A3A3E0F91212CAE9F9C3940A25
:1050E300500CAC097A027B001212E8750800E5093E
:1050F300600CEEFAEFFB1213368003750814024DB1
:105103005F74F2121AF5ECFEEDFF750815740E12BA
:105113001AD1E0F50AA3E0F50B74FF6A700374FF7C
:105123006B7021750900AC0AAD0BEEFAEFFBA90910
:105133001212EEE960037508000509E509C3940A34
:10514300503F80E2120BEC8A828B83E582458360B9
:105153002D7C007D00E5822405FAE43583FBA3A3BF
:10516300A3A3E0F91212CAE9F9C3940A5013AC0AD3
:10517300AD0BEEFAEFFB1212EE7508008003750813
:1051830014A9088003121A9B7F06021BC7C082C0A2
:105193008390075CEAF0A3EBF0900742E0FC7D000C
:1051A3007A267B00120682900742E0F91209460232
:1051B3005C7274EE121AF574EC121A858A088B0964
:1051C300EA240CF510E43509F5118A828B83A38553
:1051D300820C85830DEA2405F50EE43509F50FEA03
:1051E3002409F50AE43509F50BEA2403FEE435093D
:1051F300FF8A828B83A3A3E024FA700302547924E9
:10520300FD70030253991470030252931460102427
:10521300FD700302537C1470030253D102547F12B6
:105223005F566044E0F583888212548B880C890DA5
:10523300E8450D6033851082851183E0F50E780E05
:10524300121D0CEA240BF582E43509F583E0F9120B
:105253005F4A0A0A0AEFFB850C82850D83121AF353
:105263007401121A9B02547F850A82850B83121DD7
:105273001F90075812196712071E7402121A9BE92E
:10528300700302547F7901850A82850B8302544996
:10529300750A00850C82850D83E0600302534985FE
:1052A3000E82850F83E0A2E040030253499007F684
:1052B300125F5960030253497C0E7D007900AA18DE
:1052C300AB191214B6851082851183125C3DEA4B2B
:1052D3006010750A06750B00780A121D08EA24107F
:1052E300801B125C39120BECEA4B700302547F757E
:1052F3000A06750B00780A121D08EA2405FCE43B34
:10530300FD7402121AE312149E7402121A9B850E84
:1053130082850F83E0A2E25004D2F08002C2F0A2A1
:10532300F0E433F8740C121AD1125DD8121300E9A9
:1053330070117A027B00900742E0F91214F27900AF
:10534300025481750A15125F56700302547F12547A
:10535300A0700302547F850C82850D83E0FC7901E4
:10536300125491121AF3E50A700302547FFC790375
:10537300125C39125BF4025474125F5670030254C8
:105383007F1254A0700302547F850C82850D83E045
:10539300FC79020254717C007D00EA2404FAE435AE
:1053A30009FB8E828F83E0F91212CAE9F8C3940ACB
:1053B300400302547FE508240AFCE43509FD7A041E
:1053C30075F006E8A42425F91215D602547F125C61
:1053D30039900757E060079017DFE0F9806B90176B
:1053E300DCE0700479058061120BEC8A0C8B0DA84C
:1053F3000CA90DE849700302547FE82404F50CE47A
:1054030039F50D850882850983A3A3A3A3A3A3A3C9
:10541300E0A2E05039850C82850D83E0F508602E0B
:10542300850A82850B83A3E054027022740E121A3C
:10543300EBE82405FAE439FBA9081212CAE9700E55
:1054430079038E828F83125C3D120718802EAC0E77
:10545300AD0F850C82850D83E0F9125C391213427E
:10546300125F5660171254A060127C007900125428
:1054730091121AF38006125C391212C47901741462
:10548300121A9B7F0A021BC7E0F8A3E0F9228E825F
:105493008F83E0FAA3E0FB888285098322125C02F2
:1054A300F98909E845092274F5121AF574F2121AFA
:1054B30085EAFE8C0A75F006E9A42420F508AC18E9
:1054C300AD197A0EF91215DCE970467C0679FFAA4C
:1054D30018AB19121516E97038740C121AD1125C34
:1054E3003DEAF8E50A6005EEC8488004EEF4C858C2
:1054F300F8EA687001EB6015740C121AD1E8F0A396
:10550300E4F0AC18AD197A0EA9081215D67901800A
:10551300027900740E121A9B7F03021BC774F212E6
:105523001AF574E6121A85890A8A088B09ECFEEDCE
:10553300FF740C121AEB7A0E75F006E9A42420F915
:105543001215DCE960030256057C0679FF740C1220
:105553001AE3121516E960030256057470250AF55D
:105563000BAC18AD197A0CF91215DCE9600302567D
:1055730001AA18AB191212FAE5084509701D7C0C33
:105583007900AA18AB19121516E970727C0C7D000C
:105593007900AA18AB191214B68051AC18AD19AA28
:1055A30008AB091212F48A0C8B0DA80CA90DE8495B
:1055B3007022EE4F604CAC18AD197A007B001212CA
:1055C300F4EAF8EBF9EA4B603988828983E508F05D
:1055D300A3E509F012567BFAEE6A7001EF601FEE45
:1055E300F04F700888828983E4F0A3F0AA18AB19FE
:1055F3001212FAAC18AD197A0CA90B1215D679014F
:1056030080027900741A02518874F7121AF57E0029
:10561300EE75F003A4F8A9F0EC28F8ED12563FE07C
:105623006A7003A3E06B7006E8FAE9FB800B0EEEE9
:10563300C3940440DB7A007B0002595839F988820D
:1056430089832274F7121AF57C00EC75F003A4F831
:10565300A9F0EA28F8EB12563FE0F4FEA3E0F4FFCA
:1056630088828983EEF0A3EFF012567BF4F00CEC02
:10567300C3940440D5025958E82402F582E439F56D
:1056830083E02274F4121AF574F4121A85EAFEEB1D
:10569300FF8C088D099007F6125F59704FEE4F701B
:1056A300030257FFEC450970030257FF12130CE97D
:1056B3009017E2F0C3940A4033750B007C0679FF20
:1056C300E50B75F00EA4FAABF0745E2AFA74073B8F
:1056D300FB121516E96003025760050BE50BC39433
:1056E3000A40D9750A0AE50A9017E2F09017E2E03A
:1056F300C3940A40030257FF75F006E0A4FB90072A
:10570300F6125F59705CEEFCEFFD7A0E74202BF9F4
:105713001215D67C0C7D0079FFAA18AB191214B6AA
:10572300AC18AD197A0C9017E2E02470F91215D673
:10573300750A0E750B00780A121D08EEFCEFFD903A
:1057430017E2E01258B812149E7402121A9B9007C3
:10575300F6E508F0A3E509F07900025801850B0A84
:105763008084E0C8240612581A60197A1B74212B0E
:10577300F91215D61258062406F582E438F583E4A7
:10578300F0A380D3125806240A12581A60107A1B09
:1057930074222BF91215D6125806240A80DB1258EC
:1057A30006240C12581A60107A1074232BF9121560
:1057B300D6125806240C80C112580F12581A6030A2
:1057C3007A1074242BF91215D612580FF582E43887
:1057D300F583E02410FCA3E03400FD7A0475F006A1
:1057E3009017E2E0A42425F91215D612580F8089E8
:1057F3009007EAE0600312134812133C7901740C1A
:10580300024D639007F6E0F8A3E0C8229007F6E0A4
:10581300F8A3E0C8240822F582E438F583125F5028
:10582300EC4D2274F4121AF574F2121A85EAFEEBA7
:10583300FFE9C3940A5004EE4F700479028034AC3C
:1058430018AD197A0E75F006E9A42420F91215DCB7
:10585300E9F508701C750A06750B00780A121D0815
:105863007402121AEBEEFAEFFB12149E7402121A70
:105873009BA908740E024D6374F4121AF5EAFEEB49
:10588300FF750800750A06750B00780A121D08EEED
:10589300FCEFFDE5081258B81214B07402121A9BFB
:1058A300E96004A908800B0508E508C3940A40D4FD
:1058B300790A024D6675F00EA4F8A9F0745E28FA11
:1058C300740739FB2274F7121AF5750800E5087599
:1058D300F00EA4F8A9F0745E28FE740739FFEEFCFD
:1058E300EFFD7A0E75F006E508A42420F91215DC05
:1058F300E960297C067D0079FFEEFAEFFB1214B60E
:105903007C067D0079FFEE2CFAE43FFB1214B6EE21
:10591300240CF582E43FF583E4F0A3F00508E508E1
:10592300C3940A40A89007EAE060031213481213D5
:105933003C802274F7121AF57E007F007C06EF127A
:1059430058B874FFF9121516E970010E0FEFC394DE
:105953000A40E9EEF97F01021BC774F7121AF57EBC
:1059630000EEF9121324E9F90EEEC3940A5003E989
:1059730060EF80E174F3121AF574CB121A8589086B
:105983009017E2E06508701B7A017B00900742E004
:10599300F91214F87A027B00900742E0F91214F826
:1059A30012135475F006E508A4FF74202FFE742724
:1059B300121AEB7A0EEEF91215DCE96003025A7F34
:1059C3007C0679FF7427121AE3121516E9600302A5
:1059D3005A7F7C0E7D0079FF7427121AE31214B6E6
:1059E3007C1B7D0079FF740C121AE31214B67C0C35
:1059F3007D0079FFAA18AB191214B67427121AEB9B
:105A03007A0EEEF91215D6E9FE740C121AEB7A1B14
:105A130074212FF91215D6E9F509740C121AEB7AD1
:105A23001B74222FF91215D6E9F50A740C121AEB1E
:105A33007A1074232FF91215D6E9F50B740C121A88
:105A4300EB7A1074242FF91215D6E9F50C740C12A5
:105A53001AEB7A0474252FF91215D6E9FFAC18ADA9
:105A6300197A0C74702508F91215D6E9F8E5094579
:105A73000A450B450C4F48CE4EFE80027E00EEF9E0
:105A83007435121A9B7F05021BC774F7121AF5E9C6
:105A9300900742F012131202595874F2121AF5EADF
:105AA300FEEBFF54807003025B5C900742E0F91247
:105AB30014DA8A088B09EA45097003025B557A01F7
:105AC300E5082405F50AE43509F50BE5082404F88F
:105AD300E43509F9880C890D8508828B83E024500D
:105AE300603614600624E16058805D88828983E013
:105AF30070598508828B83A3A3A3A3A3A3A3121D19
:105B03001F125F4A8508828B83A3A3125C3D121286
:105B1300D67402121A9B803388828983E0641E70D4
:105B23000F79008508828B83A3A3125C3D1212D0E8
:105B3300850C82850D83E0F9AA0AAB0B120940801C
